{
  "contractName": "Administration",
  "abi": [
    {
      "inputs": [],
      "stateMutability": "nonpayable",
      "type": "constructor"
    },
    {
      "anonymous": false,
      "inputs": [
        {
          "indexed": false,
          "internalType": "address",
          "name": "account",
          "type": "address"
        }
      ],
      "name": "Paused",
      "type": "event"
    },
    {
      "anonymous": false,
      "inputs": [
        {
          "indexed": true,
          "internalType": "bytes32",
          "name": "role",
          "type": "bytes32"
        },
        {
          "indexed": true,
          "internalType": "bytes32",
          "name": "previousAdminRole",
          "type": "bytes32"
        },
        {
          "indexed": true,
          "internalType": "bytes32",
          "name": "newAdminRole",
          "type": "bytes32"
        }
      ],
      "name": "RoleAdminChanged",
      "type": "event"
    },
    {
      "anonymous": false,
      "inputs": [
        {
          "indexed": true,
          "internalType": "bytes32",
          "name": "role",
          "type": "bytes32"
        },
        {
          "indexed": true,
          "internalType": "address",
          "name": "account",
          "type": "address"
        },
        {
          "indexed": true,
          "internalType": "address",
          "name": "sender",
          "type": "address"
        }
      ],
      "name": "RoleGranted",
      "type": "event"
    },
    {
      "anonymous": false,
      "inputs": [
        {
          "indexed": true,
          "internalType": "bytes32",
          "name": "role",
          "type": "bytes32"
        },
        {
          "indexed": true,
          "internalType": "address",
          "name": "account",
          "type": "address"
        },
        {
          "indexed": true,
          "internalType": "address",
          "name": "sender",
          "type": "address"
        }
      ],
      "name": "RoleRevoked",
      "type": "event"
    },
    {
      "anonymous": false,
      "inputs": [
        {
          "indexed": false,
          "internalType": "address",
          "name": "account",
          "type": "address"
        }
      ],
      "name": "Unpaused",
      "type": "event"
    },
    {
      "inputs": [],
      "name": "DEFAULT_ADMIN_ROLE",
      "outputs": [
        {
          "internalType": "bytes32",
          "name": "",
          "type": "bytes32"
        }
      ],
      "stateMutability": "view",
      "type": "function"
    },
    {
      "inputs": [],
      "name": "DONOR",
      "outputs": [
        {
          "internalType": "bytes32",
          "name": "",
          "type": "bytes32"
        }
      ],
      "stateMutability": "view",
      "type": "function"
    },
    {
      "inputs": [],
      "name": "RECEIVER",
      "outputs": [
        {
          "internalType": "bytes32",
          "name": "",
          "type": "bytes32"
        }
      ],
      "stateMutability": "view",
      "type": "function"
    },
    {
      "inputs": [
        {
          "internalType": "address",
          "name": "",
          "type": "address"
        }
      ],
      "name": "donors",
      "outputs": [
        {
          "internalType": "bool",
          "name": "exists",
          "type": "bool"
        },
        {
          "internalType": "bool",
          "name": "approved",
          "type": "bool"
        },
        {
          "internalType": "uint32",
          "name": "donationCount",
          "type": "uint32"
        }
      ],
      "stateMutability": "view",
      "type": "function"
    },
    {
      "inputs": [
        {
          "internalType": "bytes32",
          "name": "role",
          "type": "bytes32"
        }
      ],
      "name": "getRoleAdmin",
      "outputs": [
        {
          "internalType": "bytes32",
          "name": "",
          "type": "bytes32"
        }
      ],
      "stateMutability": "view",
      "type": "function"
    },
    {
      "inputs": [
        {
          "internalType": "bytes32",
          "name": "role",
          "type": "bytes32"
        },
        {
          "internalType": "uint256",
          "name": "index",
          "type": "uint256"
        }
      ],
      "name": "getRoleMember",
      "outputs": [
        {
          "internalType": "address",
          "name": "",
          "type": "address"
        }
      ],
      "stateMutability": "view",
      "type": "function"
    },
    {
      "inputs": [
        {
          "internalType": "bytes32",
          "name": "role",
          "type": "bytes32"
        }
      ],
      "name": "getRoleMemberCount",
      "outputs": [
        {
          "internalType": "uint256",
          "name": "",
          "type": "uint256"
        }
      ],
      "stateMutability": "view",
      "type": "function"
    },
    {
      "inputs": [
        {
          "internalType": "bytes32",
          "name": "role",
          "type": "bytes32"
        },
        {
          "internalType": "address",
          "name": "account",
          "type": "address"
        }
      ],
      "name": "grantRole",
      "outputs": [],
      "stateMutability": "nonpayable",
      "type": "function"
    },
    {
      "inputs": [
        {
          "internalType": "bytes32",
          "name": "role",
          "type": "bytes32"
        },
        {
          "internalType": "address",
          "name": "account",
          "type": "address"
        }
      ],
      "name": "hasRole",
      "outputs": [
        {
          "internalType": "bool",
          "name": "",
          "type": "bool"
        }
      ],
      "stateMutability": "view",
      "type": "function"
    },
    {
      "inputs": [],
      "name": "paused",
      "outputs": [
        {
          "internalType": "bool",
          "name": "",
          "type": "bool"
        }
      ],
      "stateMutability": "view",
      "type": "function"
    },
    {
      "inputs": [
        {
          "internalType": "address",
          "name": "",
          "type": "address"
        }
      ],
      "name": "receivers",
      "outputs": [
        {
          "internalType": "bool",
          "name": "exists",
          "type": "bool"
        },
        {
          "internalType": "bool",
          "name": "approved",
          "type": "bool"
        },
        {
          "internalType": "uint32",
          "name": "requestCount",
          "type": "uint32"
        }
      ],
      "stateMutability": "view",
      "type": "function"
    },
    {
      "inputs": [
        {
          "internalType": "bytes32",
          "name": "role",
          "type": "bytes32"
        },
        {
          "internalType": "address",
          "name": "account",
          "type": "address"
        }
      ],
      "name": "renounceRole",
      "outputs": [],
      "stateMutability": "nonpayable",
      "type": "function"
    },
    {
      "inputs": [
        {
          "internalType": "bytes32",
          "name": "role",
          "type": "bytes32"
        },
        {
          "internalType": "address",
          "name": "account",
          "type": "address"
        }
      ],
      "name": "revokeRole",
      "outputs": [],
      "stateMutability": "nonpayable",
      "type": "function"
    },
    {
      "inputs": [
        {
          "internalType": "address",
          "name": "donorAddress",
          "type": "address"
        }
      ],
      "name": "addDonor",
      "outputs": [],
      "stateMutability": "nonpayable",
      "type": "function"
    },
    {
      "inputs": [
        {
          "internalType": "address",
          "name": "receiverAddress",
          "type": "address"
        }
      ],
      "name": "addReceiver",
      "outputs": [],
      "stateMutability": "nonpayable",
      "type": "function"
    },
    {
      "inputs": [
        {
          "internalType": "address",
          "name": "receiverAddress",
          "type": "address"
        }
      ],
      "name": "getReceiver",
      "outputs": [
        {
          "components": [
            {
              "internalType": "bool",
              "name": "exists",
              "type": "bool"
            },
            {
              "internalType": "bool",
              "name": "approved",
              "type": "bool"
            },
            {
              "internalType": "uint32",
              "name": "requestCount",
              "type": "uint32"
            }
          ],
          "internalType": "struct Administration.receiver",
          "name": "",
          "type": "tuple"
        }
      ],
      "stateMutability": "view",
      "type": "function"
    },
    {
      "inputs": [
        {
          "internalType": "address",
          "name": "donorAddress",
          "type": "address"
        }
      ],
      "name": "getDonor",
      "outputs": [
        {
          "components": [
            {
              "internalType": "bool",
              "name": "exists",
              "type": "bool"
            },
            {
              "internalType": "bool",
              "name": "approved",
              "type": "bool"
            },
            {
              "internalType": "uint32",
              "name": "donationCount",
              "type": "uint32"
            }
          ],
          "internalType": "struct Administration.donor",
          "name": "",
          "type": "tuple"
        }
      ],
      "stateMutability": "view",
      "type": "function"
    },
    {
      "inputs": [
        {
          "internalType": "address",
          "name": "donorAddress",
          "type": "address"
        }
      ],
      "name": "approveDonor",
      "outputs": [],
      "stateMutability": "nonpayable",
      "type": "function"
    },
    {
      "inputs": [
        {
          "internalType": "address",
          "name": "receiverAddress",
          "type": "address"
        }
      ],
      "name": "approveReceiver",
      "outputs": [],
      "stateMutability": "nonpayable",
      "type": "function"
    },
    {
      "inputs": [],
      "name": "pause",
      "outputs": [],
      "stateMutability": "nonpayable",
      "type": "function"
    },
    {
      "inputs": [],
      "name": "unpause",
      "outputs": [],
      "stateMutability": "nonpayable",
      "type": "function"
    },
    {
      "inputs": [],
      "name": "systemPaused",
      "outputs": [
        {
          "internalType": "bool",
          "name": "",
          "type": "bool"
        }
      ],
      "stateMutability": "view",
      "type": "function"
    },
    {
      "inputs": [],
      "name": "isAdminUser",
      "outputs": [
        {
          "internalType": "bool",
          "name": "",
          "type": "bool"
        }
      ],
      "stateMutability": "view",
      "type": "function"
    }
  ],
  "bytecode": "0x60806040523480156200001157600080fd5b506001805460ff19169055620000326000336001600160e01b036200003816565b62000170565b6200004d82826001600160e01b036200005116565b5050565b6000828152602081815260409091206200007691839062000a39620000d3821b17901c565b156200004d576200008f6001600160e01b03620000fc16565b6001600160a01b0316816001600160a01b0316837f2f8788117e7eff1d82e926ec794901d17c78024a50270940304540a733656f0d60405160405180910390a45050565b6000620000f3836001600160a01b0384166001600160e01b036200010016565b90505b92915050565b3390565b60006200011783836001600160e01b036200015816565b6200014f57508154600181810184556000848152602080822090930184905584548482528286019093526040902091909155620000f6565b506000620000f6565b60009081526001919091016020526040902054151590565b610f8d80620001806000396000f3fe608060405234801561001057600080fd5b506004361061011d5760003560e01c80630cb8150f1461012257806315f807621461014d578063248a9ca31461016257806325746834146101825780632a781270146101975780632f2ff15d146101aa57806336568abe146101bd5780633f036ce6146101d05780633f4ba83a146101f05780634576d251146101f85780635c975abb1461020057806369d83ed11461020857806372dbb89f1461021b5780638456cb591461022e5780639010d07c1461023657806391d148541461025657806396c59043146102695780639d2f83f01461027c578063a217fddf14610284578063ad7430cc1461028c578063ca0cdea814610294578063ca15c873146102a7578063d547741f146102ba575b600080fd5b610135610130366004610bf4565b6102cd565b60405161014493929190610cf5565b60405180910390f35b6101556102fa565b6040516101449190610cea565b610175610170366004610c1b565b61031a565b6040516101449190610d13565b610195610190366004610bf4565b61032f565b005b6101956101a5366004610bf4565b610425565b6101956101b8366004610c33565b610468565b6101956101cb366004610c33565b6104b5565b6101e36101de366004610bf4565b6104f7565b6040516101449190610f29565b610195610554565b610175610585565b61015561059c565b610195610216366004610bf4565b6105a5565b610195610229366004610bf4565b610673565b6101956106a8565b610249610244366004610c6d565b6106d7565b6040516101449190610cd6565b610155610264366004610c33565b6106fe565b6101e3610277366004610bf4565b61071c565b610155610779565b61017561078a565b61017561078f565b6101356102a2366004610bf4565b61079b565b6101756102b5366004610c1b565b6107c8565b6101956102c8366004610c33565b6107df565b60036020526000908152604090205460ff8082169161010081049091169062010000900463ffffffff1683565b600061030681336106fe565b1561031357506001610317565b5060005b90565b60009081526020819052604090206002015490565b6001600160a01b0381166000908152600260205260409020805460ff166103c957604080516060810182526001808252600060208084018281528486019384526001600160a01b03881683526002909152939020915182549351915160ff199094169015151761ff001916610100911515919091021765ffffffff000019166201000063ffffffff90931692909202919091179055610421565b6001600160a01b038216600090815260026020526040902054610402906103fd9062010000900463ffffffff166001610819565b61083e565b815463ffffffff91909116620100000265ffffffff0000199091161781555b5050565b61044260405161043490610cb1565b604051809103902082610468565b6001600160a01b03166000908152600260205260409020805461ff001916610100179055565b60008281526020819052604090206002015461048690610264610867565b6104ab5760405162461bcd60e51b81526004016104a290610d5e565b60405180910390fd5b610421828261086b565b6104bd610867565b6001600160a01b0316816001600160a01b0316146104ed5760405162461bcd60e51b81526004016104a290610eda565b61042182826108da565b6104ff610bd4565b506001600160a01b03166000908152600360209081526040918290208251606081018452905460ff808216151583526101008204161515928201929092526201000090910463ffffffff169181019190915290565b61055f6000336106fe565b61057b5760405162461bcd60e51b81526004016104a290610e66565b610583610949565b565b60405161059190610cb1565b604051809103902081565b60015460ff1690565b6001600160a01b0381166000908152600360205260409020805460ff1661063f57604080516060810182526001808252600060208084018281528486019384526001600160a01b03881683526003909152939020915182549351915160ff199094169015151761ff001916610100911515919091021765ffffffff000019166201000063ffffffff90931692909202919091179055610421565b6001600160a01b038216600090815260036020526040902054610402906103fd9062010000900463ffffffff166001610819565b61068260405161043490610cc2565b6001600160a01b03166000908152600360205260409020805461ff001916610100179055565b6106b36000336106fe565b6106cf5760405162461bcd60e51b81526004016104a290610e66565b6105836109b5565b60008281526020819052604081206106f5908363ffffffff610a0d16565b90505b92915050565b60008281526020819052604081206106f5908363ffffffff610a1916565b610724610bd4565b506001600160a01b03166000908152600260209081526040918290208251606081018452905460ff808216151583526101008204161515928201929092526201000090910463ffffffff169181019190915290565b60008061078461059c565b91505090565b600081565b60405161059190610cc2565b60026020526000908152604090205460ff8082169161010081049091169062010000900463ffffffff1683565b60008181526020819052604081206106f890610a2e565b6000828152602081905260409020600201546107fd90610264610867565b6104ed5760405162461bcd60e51b81526004016104a290610dfe565b6000828201838110156106f55760405162461bcd60e51b81526004016104a290610dc9565b6000600160201b82106108635760405162461bcd60e51b81526004016104a290610e94565b5090565b3390565b6000828152602081905260409020610889908263ffffffff610a3916565b1561042157610896610867565b6001600160a01b0316816001600160a01b0316837f2f8788117e7eff1d82e926ec794901d17c78024a50270940304540a733656f0d60405160405180910390a45050565b60008281526020819052604090206108f8908263ffffffff610a4e16565b1561042157610905610867565b6001600160a01b0316816001600160a01b0316837ff6391f5c32d9c69d2a47ea670b442974b53935d1edc7fd64eb21e047a839171b60405160405180910390a45050565b60015460ff1661096b5760405162461bcd60e51b81526004016104a290610d9b565b6001805460ff191690557f5db9ee0a495bf2e6ff9c91a7834c1ba4fdd244a5e8aa4e537bd38aeae4b073aa61099e610867565b6040516109ab9190610cd6565b60405180910390a1565b60015460ff16156109d85760405162461bcd60e51b81526004016104a290610e3c565b6001805460ff1916811790557f62e78cea01bee320cd4e420270b5ea74000d11b0c9f74754ebdbfc544b05a25861099e610867565b60006106f58383610a63565b60006106f5836001600160a01b038416610aa8565b60006106f882610ac0565b60006106f5836001600160a01b038416610ac4565b60006106f5836001600160a01b038416610b0e565b81546000908210610a865760405162461bcd60e51b81526004016104a290610d1c565b826000018281548110610a9557fe5b9060005260206000200154905092915050565b60009081526001919091016020526040902054151590565b5490565b6000610ad08383610aa8565b610b06575081546001818101845560008481526020808220909301849055845484825282860190935260409020919091556106f8565b5060006106f8565b60008181526001830160205260408120548015610bca5783546000198083019190810190600090879083908110610b4157fe5b9060005260206000200154905080876000018481548110610b5e57fe5b600091825260208083209091019290925582815260018981019092526040902090840190558654879080610b8e57fe5b600190038181906000526020600020016000905590558660010160008781526020019081526020016000206000905560019450505050506106f8565b60009150506106f8565b604080516060810182526000808252602082018190529181019190915290565b600060208284031215610c05578081fd5b81356001600160a01b03811681146106f5578182fd5b600060208284031215610c2c578081fd5b5035919050565b60008060408385031215610c45578081fd5b8235915060208301356001600160a01b0381168114610c62578182fd5b809150509250929050565b60008060408385031215610c7f578182fd5b50508035926020909101359150565b80511515825260208082015115159083015260409081015163ffffffff16910152565b642227a727a960d91b815260050190565b672922a1a2a4ab22a960c11b815260080190565b6001600160a01b0391909116815260200190565b901515815260200190565b9215158352901515602083015263ffffffff16604082015260600190565b90815260200190565b60208082526022908201527f456e756d657261626c655365743a20696e646578206f7574206f6620626f756e604082015261647360f01b606082015260800190565b6020808252602f90820152600080516020610f3883398151915260408201526e0818591b5a5b881d1bc819dc985b9d608a1b606082015260800190565b60208082526014908201527314185d5cd8589b194e881b9bdd081c185d5cd95960621b604082015260600190565b6020808252601b908201527a536166654d6174683a206164646974696f6e206f766572666c6f7760281b604082015260600190565b6020808252603090820152600080516020610f3883398151915260408201526f2061646d696e20746f207265766f6b6560801b606082015260800190565b60208082526010908201526f14185d5cd8589b194e881c185d5cd95960821b604082015260600190565b60208082526014908201527329b2b73232b91034b9903737ba1020a226a4a71760611b604082015260600190565b60208082526026908201527f53616665436173743a2076616c756520646f65736e27742066697420696e203360408201526532206269747360d01b606082015260800190565b6020808252602f908201527f416363657373436f6e74726f6c3a2063616e206f6e6c792072656e6f756e636560408201526e103937b632b9903337b91039b2b63360891b606082015260800190565b606081016106f88284610c8e56fe416363657373436f6e74726f6c3a2073656e646572206d75737420626520616ea26469706673582212201dcc9013799c35c7b898340a4b173d66784d8304d01699895aad386f2ff1f31564736f6c63430006020033",
  "source": "pragma solidity ^0.6.2;\npragma experimental ABIEncoderV2;\n\nimport \"@openzeppelin/contracts/access/AccessControl.sol\";\nimport \"@openzeppelin/contracts/utils/Pausable.sol\";\nimport \"@openzeppelin/contracts/math/SafeMath.sol\";\nimport \"@openzeppelin/contracts/utils/SafeCast.sol\";\n\n/// @title Administration smart contract\n/// @author Fatemeh Heidari Soureshjani\n/// @notice Define the roles and implement pausable\n\ncontract Administration is AccessControl, Pausable {\n    //bool noAdmin;\n\n    constructor() public AccessControl() Pausable() {\n        _setupRole(DEFAULT_ADMIN_ROLE, msg.sender);\n    }\n\n    bytes32 public constant DONOR = keccak256(\"DONOR\");\n    bytes32 public constant RECEIVER = keccak256(\"RECEIVER\");\n    struct donor {\n        bool exists;\n        bool approved;\n        uint32 donationCount;\n    }\n\n    struct receiver {\n        bool exists;\n        bool approved;\n        uint32 requestCount;\n        //uint32 pageNo;\n    }\n\n    mapping(address => donor) public donors;\n    mapping(address => receiver) public receivers;\n    modifier isAdmin() {\n        require(\n            hasRole(DEFAULT_ADMIN_ROLE, msg.sender),\n            \"Sender is not ADMIN.\"\n        );\n        _;\n    }\n\n    /// @notice Adds an address to list of donors\n    /// @dev approve donor role\n    /// @param donorAddress address to be added\n    \n    function addDonor(address donorAddress) public {\n        donor storage d = donors[donorAddress];\n        if (!d.exists) {\n            donors[donorAddress] = donor({\n                exists: true,\n                approved: false,\n                donationCount: 1\n            });\n        } else {\n            d.donationCount = SafeCast.toUint32(\n                SafeMath.add(uint256(donors[donorAddress].donationCount), 1)\n            );\n        }\n    }\n\n    /// @notice Adds an address to list of Receiver\n    /// @dev approve Receiver role\n    /// @param receiverAddress address to be added\n    function addReceiver(address receiverAddress) public {\n        receiver storage r = receivers[receiverAddress];\n        if (!r.exists) {\n            receivers[receiverAddress] = receiver({\n                exists: true,\n                approved: false,\n                requestCount: 1\n            });\n        } else {\n            r.requestCount = SafeCast.toUint32(\n                SafeMath.add(\n                    uint256(receivers[receiverAddress].requestCount),\n                    1\n                )\n            );\n        }\n    }\n    /// @notice Return information of a Receiver\n    /// @param receiverAddress address or Receiver to be added\n    function getReceiver(address receiverAddress)\n        public\n        view\n        returns (receiver memory)\n    {\n        return receivers[receiverAddress];\n    }\n    /// @notice Return information of a Donor\n    /// @param donorAddress address or Donor to be added\n    function getDonor(address donorAddress) public view returns (donor memory) {\n        return donors[donorAddress];\n    }\n\n    /// @notice Admin approves an address to have the donor role\n    /// @param donorAddress The address of donor to be approved\n    function approveDonor(address donorAddress) public {\n        grantRole(DONOR, donorAddress);\n        donors[donorAddress].approved = true;\n    }\n\n    /// @notice Admin approves an address to have the receiver role\n    /// @param receiverAddress The address of receiver to be approved\n    function approveReceiver(address receiverAddress) public {\n        grantRole(RECEIVER, receiverAddress);\n        receivers[receiverAddress].approved = true;\n    }\n    /// @notice System emergency pause only by admin\n    function pause() public isAdmin {\n        _pause();\n    }\n\n    /// @notice System upause only by admin\n    function unpause() public isAdmin {\n        _unpause();\n    }\n    /// @notice return true if system is paused\n    function systemPaused() public view returns (bool) {\n        bool paused = paused();\n        return paused;\n    }\n    /// @notice return true if caller is ADMIN\n    function isAdminUser() public view returns (bool) {\n        if (hasRole(DEFAULT_ADMIN_ROLE, msg.sender)) return true;\n        else return false;\n    }\n}\n",
  "sourcePath": "/home/fatemeh/Desktop/Consensys Course/assetdonation/AssetDonation/contracts/Administration.sol",
  "compiler": {
    "name": "solc",
    "version": "0.6.2+commit.bacdbe57.Emscripten.clang"
  },
  "schemaVersion": "3.3.1",
  "updatedAt": "2020-12-16T23:33:52.689Z",
  "devdoc": {
    "author": "Fatemeh Heidari Soureshjani",
    "methods": {
      "addDonor(address)": {
        "details": "approve donor role",
        "params": {
          "donorAddress": "address to be added"
        }
      },
      "addReceiver(address)": {
        "details": "approve Receiver role",
        "params": {
          "receiverAddress": "address to be added"
        }
      },
      "approveDonor(address)": {
        "params": {
          "donorAddress": "The address of donor to be approved"
        }
      },
      "approveReceiver(address)": {
        "params": {
          "receiverAddress": "The address of receiver to be approved"
        }
      },
      "getDonor(address)": {
        "params": {
          "donorAddress": "address or Donor to be added"
        }
      },
      "getReceiver(address)": {
        "params": {
          "receiverAddress": "address or Receiver to be added"
        }
      },
      "getRoleAdmin(bytes32)": {
        "details": "Returns the admin role that controls `role`. See {grantRole} and {revokeRole}.     * To change a role's admin, use {_setRoleAdmin}."
      },
      "getRoleMember(bytes32,uint256)": {
        "details": "Returns one of the accounts that have `role`. `index` must be a value between 0 and {getRoleMemberCount}, non-inclusive.     * Role bearers are not sorted in any particular way, and their ordering may change at any point.     * WARNING: When using {getRoleMember} and {getRoleMemberCount}, make sure you perform all queries on the same block. See the following https://forum.openzeppelin.com/t/iterating-over-elements-on-enumerableset-in-openzeppelin-contracts/2296[forum post] for more information."
      },
      "getRoleMemberCount(bytes32)": {
        "details": "Returns the number of accounts that have `role`. Can be used together with {getRoleMember} to enumerate all bearers of a role."
      },
      "grantRole(bytes32,address)": {
        "details": "Grants `role` to `account`.     * If `account` had not been already granted `role`, emits a {RoleGranted} event.     * Requirements:     * - the caller must have ``role``'s admin role."
      },
      "hasRole(bytes32,address)": {
        "details": "Returns `true` if `account` has been granted `role`."
      },
      "paused()": {
        "details": "Returns true if the contract is paused, and false otherwise."
      },
      "renounceRole(bytes32,address)": {
        "details": "Revokes `role` from the calling account.     * Roles are often managed via {grantRole} and {revokeRole}: this function's purpose is to provide a mechanism for accounts to lose their privileges if they are compromised (such as when a trusted device is misplaced).     * If the calling account had been granted `role`, emits a {RoleRevoked} event.     * Requirements:     * - the caller must be `account`."
      },
      "revokeRole(bytes32,address)": {
        "details": "Revokes `role` from `account`.     * If `account` had been granted `role`, emits a {RoleRevoked} event.     * Requirements:     * - the caller must have ``role``'s admin role."
      }
    },
    "title": "Administration smart contract"
  },
  "userdoc": {
    "methods": {
      "addDonor(address)": {
        "notice": "Adds an address to list of donors"
      },
      "addReceiver(address)": {
        "notice": "Adds an address to list of Receiver"
      },
      "approveDonor(address)": {
        "notice": "Admin approves an address to have the donor role"
      },
      "approveReceiver(address)": {
        "notice": "Admin approves an address to have the receiver role"
      },
      "getDonor(address)": {
        "notice": "Return information of a Donor"
      },
      "getReceiver(address)": {
        "notice": "Return information of a Receiver"
      },
      "isAdminUser()": {
        "notice": "return true if caller is ADMIN"
      },
      "pause()": {
        "notice": "System emergency pause only by admin"
      },
      "systemPaused()": {
        "notice": "return true if system is paused"
      },
      "unpause()": {
        "notice": "System upause only by admin"
      }
    },
    "notice": "Define the roles and implement pausable"
  }
}