{
  "contractName": "Administraion",
  "abi": [
    {
      "inputs": [],
      "stateMutability": "nonpayable",
      "type": "constructor"
    },
    {
      "anonymous": false,
      "inputs": [
        {
          "indexed": true,
          "internalType": "bytes32",
          "name": "role",
          "type": "bytes32"
        },
        {
          "indexed": true,
          "internalType": "bytes32",
          "name": "previousAdminRole",
          "type": "bytes32"
        },
        {
          "indexed": true,
          "internalType": "bytes32",
          "name": "newAdminRole",
          "type": "bytes32"
        }
      ],
      "name": "RoleAdminChanged",
      "type": "event"
    },
    {
      "anonymous": false,
      "inputs": [
        {
          "indexed": true,
          "internalType": "bytes32",
          "name": "role",
          "type": "bytes32"
        },
        {
          "indexed": true,
          "internalType": "address",
          "name": "account",
          "type": "address"
        },
        {
          "indexed": true,
          "internalType": "address",
          "name": "sender",
          "type": "address"
        }
      ],
      "name": "RoleGranted",
      "type": "event"
    },
    {
      "anonymous": false,
      "inputs": [
        {
          "indexed": true,
          "internalType": "bytes32",
          "name": "role",
          "type": "bytes32"
        },
        {
          "indexed": true,
          "internalType": "address",
          "name": "account",
          "type": "address"
        },
        {
          "indexed": true,
          "internalType": "address",
          "name": "sender",
          "type": "address"
        }
      ],
      "name": "RoleRevoked",
      "type": "event"
    },
    {
      "inputs": [],
      "name": "DEFAULT_ADMIN_ROLE",
      "outputs": [
        {
          "internalType": "bytes32",
          "name": "",
          "type": "bytes32"
        }
      ],
      "stateMutability": "view",
      "type": "function"
    },
    {
      "inputs": [],
      "name": "DONOR",
      "outputs": [
        {
          "internalType": "bytes32",
          "name": "",
          "type": "bytes32"
        }
      ],
      "stateMutability": "view",
      "type": "function"
    },
    {
      "inputs": [],
      "name": "RECEIVER",
      "outputs": [
        {
          "internalType": "bytes32",
          "name": "",
          "type": "bytes32"
        }
      ],
      "stateMutability": "view",
      "type": "function"
    },
    {
      "inputs": [
        {
          "internalType": "address",
          "name": "",
          "type": "address"
        }
      ],
      "name": "donors",
      "outputs": [
        {
          "internalType": "bool",
          "name": "",
          "type": "bool"
        }
      ],
      "stateMutability": "view",
      "type": "function"
    },
    {
      "inputs": [
        {
          "internalType": "bytes32",
          "name": "role",
          "type": "bytes32"
        }
      ],
      "name": "getRoleAdmin",
      "outputs": [
        {
          "internalType": "bytes32",
          "name": "",
          "type": "bytes32"
        }
      ],
      "stateMutability": "view",
      "type": "function"
    },
    {
      "inputs": [
        {
          "internalType": "bytes32",
          "name": "role",
          "type": "bytes32"
        },
        {
          "internalType": "uint256",
          "name": "index",
          "type": "uint256"
        }
      ],
      "name": "getRoleMember",
      "outputs": [
        {
          "internalType": "address",
          "name": "",
          "type": "address"
        }
      ],
      "stateMutability": "view",
      "type": "function"
    },
    {
      "inputs": [
        {
          "internalType": "bytes32",
          "name": "role",
          "type": "bytes32"
        }
      ],
      "name": "getRoleMemberCount",
      "outputs": [
        {
          "internalType": "uint256",
          "name": "",
          "type": "uint256"
        }
      ],
      "stateMutability": "view",
      "type": "function"
    },
    {
      "inputs": [
        {
          "internalType": "bytes32",
          "name": "role",
          "type": "bytes32"
        },
        {
          "internalType": "address",
          "name": "account",
          "type": "address"
        }
      ],
      "name": "grantRole",
      "outputs": [],
      "stateMutability": "nonpayable",
      "type": "function"
    },
    {
      "inputs": [
        {
          "internalType": "bytes32",
          "name": "role",
          "type": "bytes32"
        },
        {
          "internalType": "address",
          "name": "account",
          "type": "address"
        }
      ],
      "name": "hasRole",
      "outputs": [
        {
          "internalType": "bool",
          "name": "",
          "type": "bool"
        }
      ],
      "stateMutability": "view",
      "type": "function"
    },
    {
      "inputs": [
        {
          "internalType": "address",
          "name": "",
          "type": "address"
        }
      ],
      "name": "receivers",
      "outputs": [
        {
          "internalType": "bool",
          "name": "",
          "type": "bool"
        }
      ],
      "stateMutability": "view",
      "type": "function"
    },
    {
      "inputs": [
        {
          "internalType": "bytes32",
          "name": "role",
          "type": "bytes32"
        },
        {
          "internalType": "address",
          "name": "account",
          "type": "address"
        }
      ],
      "name": "renounceRole",
      "outputs": [],
      "stateMutability": "nonpayable",
      "type": "function"
    },
    {
      "inputs": [
        {
          "internalType": "bytes32",
          "name": "role",
          "type": "bytes32"
        },
        {
          "internalType": "address",
          "name": "account",
          "type": "address"
        }
      ],
      "name": "revokeRole",
      "outputs": [],
      "stateMutability": "nonpayable",
      "type": "function"
    },
    {
      "inputs": [],
      "name": "addDonor",
      "outputs": [],
      "stateMutability": "nonpayable",
      "type": "function"
    },
    {
      "inputs": [
        {
          "internalType": "address",
          "name": "donorAddress",
          "type": "address"
        }
      ],
      "name": "approveDonor",
      "outputs": [],
      "stateMutability": "nonpayable",
      "type": "function"
    },
    {
      "inputs": [],
      "name": "addReceiver",
      "outputs": [],
      "stateMutability": "nonpayable",
      "type": "function"
    },
    {
      "inputs": [
        {
          "internalType": "address",
          "name": "receiverAddress",
          "type": "address"
        }
      ],
      "name": "approveReceiver",
      "outputs": [],
      "stateMutability": "nonpayable",
      "type": "function"
    }
  ],
  "bytecode": "0x608060405234801561001057600080fd5b506100256000336001600160e01b0361002a16565b610153565b61003d82826001600160e01b0361004116565b5050565b6000828152602081815260409091206100639183906106bf6100bd821b17901c565b1561003d576100796001600160e01b036100e416565b6001600160a01b0316816001600160a01b0316837f2f8788117e7eff1d82e926ec794901d17c78024a50270940304540a733656f0d60405160405180910390a45050565b60006100db836001600160a01b0384166001600160e01b036100e816565b90505b92915050565b3390565b60006100fd83836001600160e01b0361013b16565b610133575081546001818101845560008481526020808220909301849055845484825282860190935260409020919091556100de565b5060006100de565b60009081526001919091016020526040902054151590565b61095f806101626000396000f3fe608060405234801561001057600080fd5b50600436106100d05760003560e01c80630cb8150f146100d5578063248a9ca31461010f5780632a7812701461013e5780632f2ff15d1461016657806336568abe146101925780634576d251146101be57806372dbb89f146101c657806379e085a2146101ec5780638ad54512146101f45780639010d07c146101fc57806391d148541461023b578063a217fddf14610267578063ad7430cc1461026f578063ca0cdea814610277578063ca15c8731461029d578063d547741f146102ba575b600080fd5b6100fb600480360360208110156100eb57600080fd5b50356001600160a01b03166102e6565b604080519115158252519081900360200190f35b61012c6004803603602081101561012557600080fd5b50356102fb565b60408051918252519081900360200190f35b6101646004803603602081101561015457600080fd5b50356001600160a01b0316610310565b005b6101646004803603604081101561017c57600080fd5b50803590602001356001600160a01b031661035b565b610164600480360360408110156101a857600080fd5b50803590602001356001600160a01b03166103c7565b61012c610428565b610164600480360360208110156101dc57600080fd5b50356001600160a01b0316610445565b610164610490565b6101646104a9565b61021f6004803603604081101561021257600080fd5b50803590602001356104c2565b604080516001600160a01b039092168252519081900360200190f35b6100fb6004803603604081101561025157600080fd5b50803590602001356001600160a01b03166104e9565b61012c610507565b61012c61050c565b6100fb6004803603602081101561028d57600080fd5b50356001600160a01b031661052c565b61012c600480360360208110156102b357600080fd5b5035610541565b610164600480360360408110156102d057600080fd5b50803590602001356001600160a01b0316610558565b60026020526000908152604090205460ff1681565b60009081526020819052604090206002015490565b60408051642227a727a960d91b81529051908190036005019020610334908261035b565b6001600160a01b03166000908152600160208190526040909120805460ff19169091179055565b60008281526020819052604090206002015461037e906103796105b1565b6104e9565b6103b95760405162461bcd60e51b815260040180806020018281038252602f81526020018061089c602f913960400191505060405180910390fd5b6103c382826105b5565b5050565b6103cf6105b1565b6001600160a01b0316816001600160a01b03161461041e5760405162461bcd60e51b815260040180806020018281038252602f8152602001806108fb602f913960400191505060405180910390fd5b6103c38282610624565b60408051642227a727a960d91b8152905190819003600501902081565b60408051672922a1a2a4ab22a960c11b8152905190819003600801902061046c908261035b565b6001600160a01b03166000908152600260205260409020805460ff19166001179055565b336000908152600160205260409020805460ff19169055565b336000908152600260205260409020805460ff19169055565b60008281526020819052604081206104e0908363ffffffff61069316565b90505b92915050565b60008281526020819052604081206104e0908363ffffffff61069f16565b600081565b60408051672922a1a2a4ab22a960c11b8152905190819003600801902081565b60016020526000908152604090205460ff1681565b60008181526020819052604081206104e3906106b4565b600082815260208190526040902060020154610576906103796105b1565b61041e5760405162461bcd60e51b81526004018080602001828103825260308152602001806108cb6030913960400191505060405180910390fd5b3390565b60008281526020819052604090206105d3908263ffffffff6106bf16565b156103c3576105e06105b1565b6001600160a01b0316816001600160a01b0316837f2f8788117e7eff1d82e926ec794901d17c78024a50270940304540a733656f0d60405160405180910390a45050565b6000828152602081905260409020610642908263ffffffff6106d416565b156103c35761064f6105b1565b6001600160a01b0316816001600160a01b0316837ff6391f5c32d9c69d2a47ea670b442974b53935d1edc7fd64eb21e047a839171b60405160405180910390a45050565b60006104e083836106e9565b60006104e0836001600160a01b03841661074d565b60006104e382610765565b60006104e0836001600160a01b038416610769565b60006104e0836001600160a01b0384166107b3565b8154600090821061072b5760405162461bcd60e51b815260040180806020018281038252602281526020018061087a6022913960400191505060405180910390fd5b82600001828154811061073a57fe5b9060005260206000200154905092915050565b60009081526001919091016020526040902054151590565b5490565b6000610775838361074d565b6107ab575081546001818101845560008481526020808220909301849055845484825282860190935260409020919091556104e3565b5060006104e3565b6000818152600183016020526040812054801561086f57835460001980830191908101906000908790839081106107e657fe5b906000526020600020015490508087600001848154811061080357fe5b60009182526020808320909101929092558281526001898101909252604090209084019055865487908061083357fe5b600190038181906000526020600020016000905590558660010160008781526020019081526020016000206000905560019450505050506104e3565b60009150506104e356fe456e756d657261626c655365743a20696e646578206f7574206f6620626f756e6473416363657373436f6e74726f6c3a2073656e646572206d75737420626520616e2061646d696e20746f206772616e74416363657373436f6e74726f6c3a2073656e646572206d75737420626520616e2061646d696e20746f207265766f6b65416363657373436f6e74726f6c3a2063616e206f6e6c792072656e6f756e636520726f6c657320666f722073656c66a26469706673582212206764942804defc5c0e5e63f36f99ccc304ac0a7206d3b4df0c522b9253b0589864736f6c63430006020033",
  "source": "pragma solidity ^0.6.2;\n\nimport \"@openzeppelin/contracts/access/AccessControl.sol\";\n\n/// @title A Asset donation smart contract\n/// @author Fatemeh Heidari Soureshjani\n/// @notice This contract facilitates donation of physical assets for specific periods of time between asset owners and receivers\n/// @dev time\n\ncontract Administraion is AccessControl {\n\n    constructor() public AccessControl(){\n        _setupRole(DEFAULT_ADMIN_ROLE, msg.sender);\n    }\n\n    bytes32 public constant DONOR = keccak256(\"DONOR\");\n    bytes32 public constant RECEIVER = keccak256(\"RECEIVER\");\n\n    mapping(address => bool) public donors;\n    mapping(address => bool) public receivers;\n\n    modifier isDonor(address donorAddress) {\n        require(hasRole(DONOR, donorAddress));\n        _;\n    }\n    modifier isReceiver(address receiverAddress) {\n        require(hasRole(RECEIVER, receiverAddress));\n        _;\n    }\n\n    function addDonor() public {\n        donors[msg.sender] = false;\n    }\n\n    /// @notice Admin approves an address to have the donor role\n    /// @param donorAddress The address of donor to be approved\n    function approveDonor(address donorAddress) public {\n        grantRole(DONOR, donorAddress);\n        donors[donorAddress] = true;\n    }\n\n    /// @notice Adds an address to list of receivers\n    function addReceiver() public {\n        receivers[msg.sender] = false;\n    }\n\n    /// @notice Admin approves an address to have the receiver role\n    /// @param receiverAddress The address of receiver to be approved\n    function approveReceiver(address receiverAddress) public {\n        grantRole(RECEIVER, receiverAddress);\n        receivers[receiverAddress] = true;\n    }\n}\n",
  "sourcePath": "/home/fatemeh/Desktop/Consensys Course/assetdonation/AssetDonation/contracts/Administraion.sol",
  "compiler": {
    "name": "solc",
    "version": "0.6.2+commit.bacdbe57.Emscripten.clang"
  },
  "schemaVersion": "3.3.1",
  "updatedAt": "2020-12-05T07:07:24.679Z",
  "devdoc": {
    "author": "Fatemeh Heidari Soureshjani",
    "details": "time",
    "methods": {
      "approveDonor(address)": {
        "params": {
          "donorAddress": "The address of donor to be approved"
        }
      },
      "approveReceiver(address)": {
        "params": {
          "receiverAddress": "The address of receiver to be approved"
        }
      },
      "getRoleAdmin(bytes32)": {
        "details": "Returns the admin role that controls `role`. See {grantRole} and {revokeRole}.     * To change a role's admin, use {_setRoleAdmin}."
      },
      "getRoleMember(bytes32,uint256)": {
        "details": "Returns one of the accounts that have `role`. `index` must be a value between 0 and {getRoleMemberCount}, non-inclusive.     * Role bearers are not sorted in any particular way, and their ordering may change at any point.     * WARNING: When using {getRoleMember} and {getRoleMemberCount}, make sure you perform all queries on the same block. See the following https://forum.openzeppelin.com/t/iterating-over-elements-on-enumerableset-in-openzeppelin-contracts/2296[forum post] for more information."
      },
      "getRoleMemberCount(bytes32)": {
        "details": "Returns the number of accounts that have `role`. Can be used together with {getRoleMember} to enumerate all bearers of a role."
      },
      "grantRole(bytes32,address)": {
        "details": "Grants `role` to `account`.     * If `account` had not been already granted `role`, emits a {RoleGranted} event.     * Requirements:     * - the caller must have ``role``'s admin role."
      },
      "hasRole(bytes32,address)": {
        "details": "Returns `true` if `account` has been granted `role`."
      },
      "renounceRole(bytes32,address)": {
        "details": "Revokes `role` from the calling account.     * Roles are often managed via {grantRole} and {revokeRole}: this function's purpose is to provide a mechanism for accounts to lose their privileges if they are compromised (such as when a trusted device is misplaced).     * If the calling account had been granted `role`, emits a {RoleRevoked} event.     * Requirements:     * - the caller must be `account`."
      },
      "revokeRole(bytes32,address)": {
        "details": "Revokes `role` from `account`.     * If `account` had been granted `role`, emits a {RoleRevoked} event.     * Requirements:     * - the caller must have ``role``'s admin role."
      }
    },
    "title": "A Asset donation smart contract"
  },
  "userdoc": {
    "methods": {
      "addReceiver()": {
        "notice": "Adds an address to list of receivers"
      },
      "approveDonor(address)": {
        "notice": "Admin approves an address to have the donor role"
      },
      "approveReceiver(address)": {
        "notice": "Admin approves an address to have the receiver role"
      }
    },
    "notice": "This contract facilitates donation of physical assets for specific periods of time between asset owners and receivers"
  }
}