{
  "contractName": "DonateAsset",
  "abi": [
    {
      "inputs": [
        {
          "internalType": "address",
          "name": "_adm",
          "type": "address"
        }
      ],
      "stateMutability": "nonpayable",
      "type": "constructor"
    },
    {
      "anonymous": false,
      "inputs": [
        {
          "indexed": true,
          "internalType": "address",
          "name": "owner",
          "type": "address"
        },
        {
          "indexed": true,
          "internalType": "address",
          "name": "approved",
          "type": "address"
        },
        {
          "indexed": true,
          "internalType": "uint256",
          "name": "tokenId",
          "type": "uint256"
        }
      ],
      "name": "Approval",
      "type": "event"
    },
    {
      "anonymous": false,
      "inputs": [
        {
          "indexed": true,
          "internalType": "address",
          "name": "owner",
          "type": "address"
        },
        {
          "indexed": true,
          "internalType": "address",
          "name": "operator",
          "type": "address"
        },
        {
          "indexed": false,
          "internalType": "bool",
          "name": "approved",
          "type": "bool"
        }
      ],
      "name": "ApprovalForAll",
      "type": "event"
    },
    {
      "anonymous": false,
      "inputs": [
        {
          "indexed": false,
          "internalType": "uint32",
          "name": "assetId",
          "type": "uint32"
        }
      ],
      "name": "LogDonated",
      "type": "event"
    },
    {
      "anonymous": false,
      "inputs": [
        {
          "indexed": false,
          "internalType": "uint32",
          "name": "assetId",
          "type": "uint32"
        }
      ],
      "name": "LogFree",
      "type": "event"
    },
    {
      "anonymous": false,
      "inputs": [
        {
          "indexed": true,
          "internalType": "address",
          "name": "from",
          "type": "address"
        },
        {
          "indexed": true,
          "internalType": "address",
          "name": "to",
          "type": "address"
        },
        {
          "indexed": true,
          "internalType": "uint256",
          "name": "tokenId",
          "type": "uint256"
        }
      ],
      "name": "Transfer",
      "type": "event"
    },
    {
      "inputs": [
        {
          "internalType": "uint256",
          "name": "",
          "type": "uint256"
        }
      ],
      "name": "AssetList",
      "outputs": [
        {
          "internalType": "string",
          "name": "assetTitle",
          "type": "string"
        },
        {
          "internalType": "string",
          "name": "assetDescription",
          "type": "string"
        },
        {
          "internalType": "uint32",
          "name": "availablityDate",
          "type": "uint32"
        },
        {
          "internalType": "string",
          "name": "location",
          "type": "string"
        },
        {
          "internalType": "address",
          "name": "owner",
          "type": "address"
        },
        {
          "internalType": "string",
          "name": "imageIPFSHash",
          "type": "string"
        }
      ],
      "stateMutability": "view",
      "type": "function"
    },
    {
      "inputs": [
        {
          "internalType": "address",
          "name": "to",
          "type": "address"
        },
        {
          "internalType": "uint256",
          "name": "tokenId",
          "type": "uint256"
        }
      ],
      "name": "approve",
      "outputs": [],
      "stateMutability": "nonpayable",
      "type": "function"
    },
    {
      "inputs": [
        {
          "internalType": "address",
          "name": "owner",
          "type": "address"
        }
      ],
      "name": "balanceOf",
      "outputs": [
        {
          "internalType": "uint256",
          "name": "",
          "type": "uint256"
        }
      ],
      "stateMutability": "view",
      "type": "function"
    },
    {
      "inputs": [],
      "name": "baseURI",
      "outputs": [
        {
          "internalType": "string",
          "name": "",
          "type": "string"
        }
      ],
      "stateMutability": "view",
      "type": "function"
    },
    {
      "inputs": [
        {
          "internalType": "uint32",
          "name": "",
          "type": "uint32"
        }
      ],
      "name": "donationList",
      "outputs": [
        {
          "internalType": "uint32",
          "name": "donationId",
          "type": "uint32"
        },
        {
          "internalType": "uint256",
          "name": "assetId",
          "type": "uint256"
        },
        {
          "internalType": "uint32",
          "name": "availablityDate",
          "type": "uint32"
        },
        {
          "internalType": "string",
          "name": "location",
          "type": "string"
        },
        {
          "internalType": "enum DonateAsset.Status",
          "name": "status",
          "type": "uint8"
        },
        {
          "internalType": "address",
          "name": "owner",
          "type": "address"
        },
        {
          "internalType": "address",
          "name": "recipient",
          "type": "address"
        },
        {
          "internalType": "uint32",
          "name": "requestCount",
          "type": "uint32"
        }
      ],
      "stateMutability": "view",
      "type": "function"
    },
    {
      "inputs": [
        {
          "internalType": "uint256",
          "name": "tokenId",
          "type": "uint256"
        }
      ],
      "name": "getApproved",
      "outputs": [
        {
          "internalType": "address",
          "name": "",
          "type": "address"
        }
      ],
      "stateMutability": "view",
      "type": "function"
    },
    {
      "inputs": [
        {
          "internalType": "address",
          "name": "owner",
          "type": "address"
        },
        {
          "internalType": "address",
          "name": "operator",
          "type": "address"
        }
      ],
      "name": "isApprovedForAll",
      "outputs": [
        {
          "internalType": "bool",
          "name": "",
          "type": "bool"
        }
      ],
      "stateMutability": "view",
      "type": "function"
    },
    {
      "inputs": [],
      "name": "name",
      "outputs": [
        {
          "internalType": "string",
          "name": "",
          "type": "string"
        }
      ],
      "stateMutability": "view",
      "type": "function"
    },
    {
      "inputs": [
        {
          "internalType": "uint256",
          "name": "tokenId",
          "type": "uint256"
        }
      ],
      "name": "ownerOf",
      "outputs": [
        {
          "internalType": "address",
          "name": "",
          "type": "address"
        }
      ],
      "stateMutability": "view",
      "type": "function"
    },
    {
      "inputs": [
        {
          "internalType": "address",
          "name": "from",
          "type": "address"
        },
        {
          "internalType": "address",
          "name": "to",
          "type": "address"
        },
        {
          "internalType": "uint256",
          "name": "tokenId",
          "type": "uint256"
        }
      ],
      "name": "safeTransferFrom",
      "outputs": [],
      "stateMutability": "nonpayable",
      "type": "function"
    },
    {
      "inputs": [
        {
          "internalType": "address",
          "name": "from",
          "type": "address"
        },
        {
          "internalType": "address",
          "name": "to",
          "type": "address"
        },
        {
          "internalType": "uint256",
          "name": "tokenId",
          "type": "uint256"
        },
        {
          "internalType": "bytes",
          "name": "_data",
          "type": "bytes"
        }
      ],
      "name": "safeTransferFrom",
      "outputs": [],
      "stateMutability": "nonpayable",
      "type": "function"
    },
    {
      "inputs": [
        {
          "internalType": "address",
          "name": "operator",
          "type": "address"
        },
        {
          "internalType": "bool",
          "name": "approved",
          "type": "bool"
        }
      ],
      "name": "setApprovalForAll",
      "outputs": [],
      "stateMutability": "nonpayable",
      "type": "function"
    },
    {
      "inputs": [
        {
          "internalType": "bytes4",
          "name": "interfaceId",
          "type": "bytes4"
        }
      ],
      "name": "supportsInterface",
      "outputs": [
        {
          "internalType": "bool",
          "name": "",
          "type": "bool"
        }
      ],
      "stateMutability": "view",
      "type": "function"
    },
    {
      "inputs": [],
      "name": "symbol",
      "outputs": [
        {
          "internalType": "string",
          "name": "",
          "type": "string"
        }
      ],
      "stateMutability": "view",
      "type": "function"
    },
    {
      "inputs": [
        {
          "internalType": "uint256",
          "name": "index",
          "type": "uint256"
        }
      ],
      "name": "tokenByIndex",
      "outputs": [
        {
          "internalType": "uint256",
          "name": "",
          "type": "uint256"
        }
      ],
      "stateMutability": "view",
      "type": "function"
    },
    {
      "inputs": [
        {
          "internalType": "address",
          "name": "owner",
          "type": "address"
        },
        {
          "internalType": "uint256",
          "name": "index",
          "type": "uint256"
        }
      ],
      "name": "tokenOfOwnerByIndex",
      "outputs": [
        {
          "internalType": "uint256",
          "name": "",
          "type": "uint256"
        }
      ],
      "stateMutability": "view",
      "type": "function"
    },
    {
      "inputs": [
        {
          "internalType": "uint256",
          "name": "tokenId",
          "type": "uint256"
        }
      ],
      "name": "tokenURI",
      "outputs": [
        {
          "internalType": "string",
          "name": "",
          "type": "string"
        }
      ],
      "stateMutability": "view",
      "type": "function"
    },
    {
      "inputs": [],
      "name": "totalSupply",
      "outputs": [
        {
          "internalType": "uint256",
          "name": "",
          "type": "uint256"
        }
      ],
      "stateMutability": "view",
      "type": "function"
    },
    {
      "inputs": [
        {
          "internalType": "address",
          "name": "from",
          "type": "address"
        },
        {
          "internalType": "address",
          "name": "to",
          "type": "address"
        },
        {
          "internalType": "uint256",
          "name": "tokenId",
          "type": "uint256"
        }
      ],
      "name": "transferFrom",
      "outputs": [],
      "stateMutability": "nonpayable",
      "type": "function"
    },
    {
      "inputs": [
        {
          "components": [
            {
              "internalType": "uint32",
              "name": "donationId",
              "type": "uint32"
            },
            {
              "internalType": "uint256",
              "name": "assetId",
              "type": "uint256"
            },
            {
              "internalType": "uint32",
              "name": "availablityDate",
              "type": "uint32"
            },
            {
              "internalType": "string",
              "name": "location",
              "type": "string"
            },
            {
              "internalType": "enum DonateAsset.Status",
              "name": "status",
              "type": "uint8"
            },
            {
              "internalType": "address",
              "name": "owner",
              "type": "address"
            },
            {
              "internalType": "address",
              "name": "recipient",
              "type": "address"
            },
            {
              "internalType": "uint32",
              "name": "requestCount",
              "type": "uint32"
            }
          ],
          "internalType": "struct DonateAsset.Donation",
          "name": "donation",
          "type": "tuple"
        },
        {
          "internalType": "uint32",
          "name": "donationId",
          "type": "uint32"
        }
      ],
      "name": "UpdateDonation",
      "outputs": [],
      "stateMutability": "nonpayable",
      "type": "function"
    },
    {
      "inputs": [
        {
          "internalType": "string",
          "name": "assetTitle",
          "type": "string"
        },
        {
          "internalType": "string",
          "name": "assetDescription",
          "type": "string"
        },
        {
          "internalType": "uint32",
          "name": "availablityDate",
          "type": "uint32"
        },
        {
          "internalType": "string",
          "name": "location",
          "type": "string"
        },
        {
          "internalType": "string",
          "name": "imageIPFSHash",
          "type": "string"
        }
      ],
      "name": "addAsset",
      "outputs": [],
      "stateMutability": "nonpayable",
      "type": "function"
    },
    {
      "inputs": [
        {
          "internalType": "uint256",
          "name": "pageNo",
          "type": "uint256"
        }
      ],
      "name": "getDonationsByOwner",
      "outputs": [
        {
          "components": [
            {
              "internalType": "uint32",
              "name": "donationId",
              "type": "uint32"
            },
            {
              "internalType": "uint256",
              "name": "assetId",
              "type": "uint256"
            },
            {
              "internalType": "uint32",
              "name": "availablityDate",
              "type": "uint32"
            },
            {
              "internalType": "string",
              "name": "location",
              "type": "string"
            },
            {
              "internalType": "enum DonateAsset.Status",
              "name": "status",
              "type": "uint8"
            },
            {
              "internalType": "address",
              "name": "owner",
              "type": "address"
            },
            {
              "internalType": "address",
              "name": "recipient",
              "type": "address"
            },
            {
              "internalType": "uint32",
              "name": "requestCount",
              "type": "uint32"
            }
          ],
          "internalType": "struct DonateAsset.Donation[8]",
          "name": "",
          "type": "tuple[8]"
        },
        {
          "components": [
            {
              "internalType": "string",
              "name": "assetTitle",
              "type": "string"
            },
            {
              "internalType": "string",
              "name": "assetDescription",
              "type": "string"
            },
            {
              "internalType": "uint32",
              "name": "availablityDate",
              "type": "uint32"
            },
            {
              "internalType": "string",
              "name": "location",
              "type": "string"
            },
            {
              "internalType": "address",
              "name": "owner",
              "type": "address"
            },
            {
              "internalType": "string",
              "name": "imageIPFSHash",
              "type": "string"
            }
          ],
          "internalType": "struct DonateAsset.Asset[8]",
          "name": "",
          "type": "tuple[8]"
        }
      ],
      "stateMutability": "view",
      "type": "function"
    },
    {
      "inputs": [],
      "name": "getAllDonations",
      "outputs": [
        {
          "components": [
            {
              "internalType": "uint32",
              "name": "donationId",
              "type": "uint32"
            },
            {
              "internalType": "uint256",
              "name": "assetId",
              "type": "uint256"
            },
            {
              "internalType": "uint32",
              "name": "availablityDate",
              "type": "uint32"
            },
            {
              "internalType": "string",
              "name": "location",
              "type": "string"
            },
            {
              "internalType": "enum DonateAsset.Status",
              "name": "status",
              "type": "uint8"
            },
            {
              "internalType": "address",
              "name": "owner",
              "type": "address"
            },
            {
              "internalType": "address",
              "name": "recipient",
              "type": "address"
            },
            {
              "internalType": "uint32",
              "name": "requestCount",
              "type": "uint32"
            }
          ],
          "internalType": "struct DonateAsset.Donation[16]",
          "name": "",
          "type": "tuple[16]"
        },
        {
          "components": [
            {
              "internalType": "string",
              "name": "assetTitle",
              "type": "string"
            },
            {
              "internalType": "string",
              "name": "assetDescription",
              "type": "string"
            },
            {
              "internalType": "uint32",
              "name": "availablityDate",
              "type": "uint32"
            },
            {
              "internalType": "string",
              "name": "location",
              "type": "string"
            },
            {
              "internalType": "address",
              "name": "owner",
              "type": "address"
            },
            {
              "internalType": "string",
              "name": "imageIPFSHash",
              "type": "string"
            }
          ],
          "internalType": "struct DonateAsset.Asset[16]",
          "name": "",
          "type": "tuple[16]"
        }
      ],
      "stateMutability": "view",
      "type": "function"
    },
    {
      "inputs": [
        {
          "internalType": "address",
          "name": "assetOwner",
          "type": "address"
        }
      ],
      "name": "mintToken",
      "outputs": [
        {
          "internalType": "uint32",
          "name": "",
          "type": "uint32"
        }
      ],
      "stateMutability": "nonpayable",
      "type": "function"
    },
    {
      "inputs": [
        {
          "internalType": "uint32",
          "name": "donationId",
          "type": "uint32"
        },
        {
          "internalType": "uint256",
          "name": "assetId",
          "type": "uint256"
        },
        {
          "internalType": "address",
          "name": "recipientAddress",
          "type": "address"
        }
      ],
      "name": "donateAsset",
      "outputs": [],
      "stateMutability": "nonpayable",
      "type": "function"
    },
    {
      "inputs": [
        {
          "internalType": "uint32",
          "name": "donationId",
          "type": "uint32"
        }
      ],
      "name": "getDonationRequestCount",
      "outputs": [
        {
          "internalType": "uint32",
          "name": "",
          "type": "uint32"
        }
      ],
      "stateMutability": "view",
      "type": "function"
    },
    {
      "inputs": [
        {
          "internalType": "uint32",
          "name": "donationId",
          "type": "uint32"
        }
      ],
      "name": "getDonation",
      "outputs": [
        {
          "components": [
            {
              "internalType": "uint32",
              "name": "donationId",
              "type": "uint32"
            },
            {
              "internalType": "uint256",
              "name": "assetId",
              "type": "uint256"
            },
            {
              "internalType": "uint32",
              "name": "availablityDate",
              "type": "uint32"
            },
            {
              "internalType": "string",
              "name": "location",
              "type": "string"
            },
            {
              "internalType": "enum DonateAsset.Status",
              "name": "status",
              "type": "uint8"
            },
            {
              "internalType": "address",
              "name": "owner",
              "type": "address"
            },
            {
              "internalType": "address",
              "name": "recipient",
              "type": "address"
            },
            {
              "internalType": "uint32",
              "name": "requestCount",
              "type": "uint32"
            }
          ],
          "internalType": "struct DonateAsset.Donation",
          "name": "",
          "type": "tuple"
        }
      ],
      "stateMutability": "view",
      "type": "function"
    },
    {
      "inputs": [
        {
          "internalType": "uint256",
          "name": "assetId",
          "type": "uint256"
        }
      ],
      "name": "getAsset",
      "outputs": [
        {
          "components": [
            {
              "internalType": "string",
              "name": "assetTitle",
              "type": "string"
            },
            {
              "internalType": "string",
              "name": "assetDescription",
              "type": "string"
            },
            {
              "internalType": "uint32",
              "name": "availablityDate",
              "type": "uint32"
            },
            {
              "internalType": "string",
              "name": "location",
              "type": "string"
            },
            {
              "internalType": "address",
              "name": "owner",
              "type": "address"
            },
            {
              "internalType": "string",
              "name": "imageIPFSHash",
              "type": "string"
            }
          ],
          "internalType": "struct DonateAsset.Asset",
          "name": "",
          "type": "tuple"
        }
      ],
      "stateMutability": "view",
      "type": "function"
    }
  ],
  "bytecode": "0x60806040523480156200001157600080fd5b506040516200421d3803806200421d83398101604081905262000034916200023a565b604080518082018252600781526626bcaa37b5b2b760c91b602080830191909152825180840190935260038352624d545360e81b9083015290620000886301ffc9a760e01b6001600160e01b036200013a16565b81516200009d90600690602085019062000195565b508051620000b390600790602084019062000195565b50620000cf6380ac58cd60e01b6001600160e01b036200013a16565b620000ea635b5e139f60e01b6001600160e01b036200013a16565b6200010563780e9d6360e01b6001600160e01b036200013a16565b5050600a80546001600160a01b0319166001600160a01b039290921691909117600160a01b600160e01b0319169055620002a1565b6001600160e01b03198082161415620001705760405162461bcd60e51b815260040162000167906200026a565b60405180910390fd5b6001600160e01b0319166000908152602081905260409020805460ff19166001179055565b828054600181600116156101000203166002900490600052602060002090601f016020900481019282601f10620001d857805160ff191683800117855562000208565b8280016001018555821562000208579182015b8281111562000208578251825591602001919060010190620001eb565b50620002169291506200021a565b5090565b6200023791905b8082111562000216576000815560010162000221565b90565b6000602082840312156200024c578081fd5b81516001600160a01b038116811462000263578182fd5b9392505050565b6020808252601c908201527f4552433136353a20696e76616c696420696e7465726661636520696400000000604082015260600190565b613f6c80620002b16000396000f3fe608060405234801561001057600080fd5b50600436106101545760003560e01c806301173a741461015957806301ffc9a71461018257806306fdde03146101a2578063081812fc146101b7578063095ea7b3146101d7578063098eb3d3146101ec57806318160ddd146101ff57806323b872dd14610214578063247f0542146102275780632f745c59146102485780633274e1581461025b57806338a59a071461026e57806342842e0e146102845780634bb0eaaf146102975780634f6ccce7146102be57806355e2bf10146102d15780636352211e146102f65780636c0360eb1461030957806370a0823114610311578063718841361461032457806395d89b4114610344578063a22cb4651461034c578063b88d4fde1461035f578063c18782b414610372578063c87b56dd14610385578063cac78d8514610398578063e985e9c5146103ab578063eac8f5b8146103be575b600080fd5b61016c610167366004612fb7565b6103de565b6040516101799190613d9c565b60405180910390f35b61019561019036600461312a565b6104ed565b6040516101799190613735565b6101aa61050c565b6040516101799190613740565b6101ca6101c5366004613360565b6105a3565b60405161017991906135c6565b6101ea6101e53660046130e4565b6105e6565b005b6101ea6101fa366004613394565b61067e565b610207610883565b6040516101799190613d93565b6101ea610222366004613006565b610894565b61023a610235366004613360565b6108cc565b6040516101799291906136ad565b6102076102563660046130e4565b610e71565b6101ea61026936600461321e565b610ea2565b610276610f5c565b604051610179929190613617565b6101ea610292366004613006565b6113ea565b6102aa6102a5366004613378565b611405565b604051610179989796959493929190613dad565b6102076102cc366004613360565b6114f3565b6102e46102df366004613360565b61150f565b60405161017996959493929190613753565b6101ca610304366004613360565b61178e565b6101aa6117bc565b61020761031f366004612fb7565b61181d565b610337610332366004613378565b611866565b6040516101799190613d80565b6101aa6119a6565b6101ea61035a3660046130ad565b611a07565b6101ea61036d366004613046565b611ad5565b61016c610380366004613378565b611b14565b6101aa610393366004613360565b611b39565b6101ea6103a6366004613162565b611c83565b6101956103b9366004612fd2565b612043565b6103d16103cc366004613360565b612071565b6040516101799190613d6d565b600a54604080516309d2f83f60e41b815290516000926001600160a01b031691639d2f83f091600480830192602092919082900301818787803b15801561042457600080fd5b505af1158015610438573d6000803e3d6000fd5b505050506040513d601f19601f8201168201806040525061045c919081019061310e565b156104825760405162461bcd60e51b815260040161047990613b90565b60405180910390fd5b600a5461049d908390600160a01b900463ffffffff16612315565b600a54600160a01b900463ffffffff166104c06104bb826001612333565b612358565b600a805463ffffffff92909216600160a01b0263ffffffff60a01b1990921691909117905590505b919050565b6001600160e01b03191660009081526020819052604090205460ff1690565b60068054604080516020601f60026000196101006001881615020190951694909404938401819004810282018101909252828152606093909290918301828280156105985780601f1061056d57610100808354040283529160200191610598565b820191906000526020600020905b81548152906001019060200180831161057b57829003601f168201915b505050505090505b90565b60006105ae82612381565b6105ca5760405162461bcd60e51b815260040161047990613b44565b506000908152600460205260409020546001600160a01b031690565b60006105f18261178e565b9050806001600160a01b0316836001600160a01b031614156106255760405162461bcd60e51b815260040161047990613c5e565b806001600160a01b0316610637612394565b6001600160a01b031614806106535750610653816103b9612394565b61066f5760405162461bcd60e51b8152600401610479906139ea565b6106798383612398565b505050565b63ffffffff83166000908152600b602052604090206005015483906001600160a01b0316158015610705575063ffffffff81166000908152600b6020526040812060049081015460ff16908111156106d257fe5b14806107055750600163ffffffff82166000908152600b6020526040902060049081015460ff169081111561070357fe5b145b6107215760405162461bcd60e51b8152600401610479906139be565b823361072c8261178e565b6001600160a01b0316146107525760405162461bcd60e51b8152600401610479906138c7565b600a60009054906101000a90046001600160a01b03166001600160a01b0316639d2f83f06040518163ffffffff1660e01b8152600401602060405180830381600087803b1580156107a257600080fd5b505af11580156107b6573d6000803e3d6000fd5b505050506040513d601f19601f820116820180604052506107da919081019061310e565b156107f75760405162461bcd60e51b815260040161047990613b90565b6108023384866113ea565b63ffffffff85166000908152600b6020526040908190206005810180546001600160a01b0387166001600160a01b0319909116179055600401805460ff19166002179055517f9869ee1482368b4ea48cb13a191ba8022b944e7785dbe1804c4e4c11ed347dd190610874908790613d9c565b60405180910390a15050505050565b600061088f6002612406565b905090565b6108a561089f612394565b82612411565b6108c15760405162461bcd60e51b815260040161047990613c9f565b610679838383612496565b6108d4612d29565b6108dc612d57565b6108e4612d85565b600a546040516396c5904360e01b81526001600160a01b03909116906396c59043906109149033906004016135c6565b60606040518083038186803b15801561092c57600080fd5b505afa158015610940573d6000803e3d6000fd5b505050506040513d601f19601f82011682018060405250610964919081019061330b565b604081015190915063ffffffff16600061097f8660086125a4565b9050600061098d83836125de565b905060008061099a612d29565b6109a2612d57565b60088510156109b3578493506109b8565b600893505b6000806109c58887612333565b905060006109d289612358565b90505b600a5463ffffffff600160c01b90910481169082161015610e575763ffffffff81166000908152600b602052604090206004015461010090046001600160a01b0316331415610e3c57610a2e8663ffffffff168a6125de565b63ffffffff8281166000908152600b60209081526040918290208251610100808201855282548616825260018084015483860152600280850154909716838701526003840180548751928116159093026000190190921696909604601f810185900485028701850190955284865295985094909360608601939092830182828015610afa5780601f10610acf57610100808354040283529160200191610afa565b820191906000526020600020905b815481529060010190602001808311610add57829003601f168201915b505050918352505060048281015460209092019160ff1690811115610b1b57fe5b6004811115610b2657fe5b8152600482015461010090046001600160a01b0390811660208301526005909201549182166040820152600160a01b90910463ffffffff16606090910152858460088110610b7057fe5b6020908102919091019190915263ffffffff82166000908152600b825260408082206001908101548352600c84529181902081518154600281861615610100026000190190911604601f8101869004909502810160e090810190935260c081018581529a9093019992939092849290918491840182828015610c335780601f10610c0857610100808354040283529160200191610c33565b820191906000526020600020905b815481529060010190602001808311610c1657829003601f168201915b50505050508152602001600182018054600181600116156101000203166002900480601f016020809104026020016040519081016040528092919081815260200182805460018160011615610100020316600290048015610cd55780601f10610caa57610100808354040283529160200191610cd5565b820191906000526020600020905b815481529060010190602001808311610cb857829003601f168201915b505050918352505060028281015463ffffffff1660208084019190915260038401805460408051601f60001960018516156101000201909316959095049182018490048402850184018152818552909401939091830182828015610d7a5780601f10610d4f57610100808354040283529160200191610d7a565b820191906000526020600020905b815481529060010190602001808311610d5d57829003601f168201915b505050918352505060048201546001600160a01b031660208083019190915260058301805460408051601f60026000196001861615610100020190941693909304928301859004850281018501825282815294019392830182828015610e215780601f10610df657610100808354040283529160200191610e21565b820191906000526020600020905b815481529060010190602001808311610e0457829003601f168201915b505050505081525050848460088110610e3657fe5b60200201525b818663ffffffff161415610e4f57610e57565b6001016109d5565b50929a50909850610e6c975050505050505050565b915091565b6001600160a01b0382166000908152600160205260408120610e99908363ffffffff61262016565b90505b92915050565b63ffffffff81166000908152600b6020526040902060049081015460ff1690811115610eca57fe5b82608001516004811115610eda57fe5b1115610f1e57608082015163ffffffff82166000908152600b6020526040902060049081018054909160ff19909116906001908490811115610f1857fe5b02179055505b60e0919091015163ffffffff9182166000908152600b60205260409020600501805463ffffffff60a01b1916600160a01b9390921692909202179055565b610f64612da5565b610f6c612dd3565b6000610f76612da5565b610f7e612dd3565b600a546010600160a01b90910463ffffffff1611610fad57600a54600160c01b900463ffffffff169250610fb2565b601092505b60005b8363ffffffff168163ffffffff1610156113df5763ffffffff8181166000908152600b60209081526040918290208251610100808201855282548616825260018084015483860152600280850154909716838701526003840180548751928116159093026000190190921696909604601f81018590048502870185019095528486529094919360608601938301828280156110915780601f1061106657610100808354040283529160200191611091565b820191906000526020600020905b81548152906001019060200180831161107457829003601f168201915b505050918352505060048281015460209092019160ff16908111156110b257fe5b60048111156110bd57fe5b815260048201546001600160a01b0361010090910481166020830152600590920154918216604082015263ffffffff600160a01b9092048216606090910152849083166010811061110a57fe5b6020908102919091019190915263ffffffff82166000908152600b825260408082206001908101548352600c8452918190208151815460029481161561010002600019011693909304601f8101859004909402830160e090810190925260c08301848152929390928492909184918401828280156111c95780601f1061119e576101008083540402835291602001916111c9565b820191906000526020600020905b8154815290600101906020018083116111ac57829003601f168201915b50505050508152602001600182018054600181600116156101000203166002900480601f01602080910402602001604051908101604052809291908181526020018280546001816001161561010002031660029004801561126b5780601f106112405761010080835404028352916020019161126b565b820191906000526020600020905b81548152906001019060200180831161124e57829003601f168201915b505050918352505060028281015463ffffffff1660208084019190915260038401805460408051601f600019600185161561010002019093169590950491820184900484028501840181528185529094019390918301828280156113105780601f106112e557610100808354040283529160200191611310565b820191906000526020600020905b8154815290600101906020018083116112f357829003601f168201915b505050918352505060048201546001600160a01b031660208083019190915260058301805460408051601f600260001960018616156101000201909416939093049283018590048502810185018252828152940193928301828280156113b75780601f1061138c576101008083540402835291602001916113b7565b820191906000526020600020905b81548152906001019060200180831161139a57829003601f168201915b505050505081525050828263ffffffff16601081106113d257fe5b6020020152600101610fb5565b509093509150509091565b61067983838360405180602001604052806000815250611ad5565b600b60209081526000918252604091829020805460018083015460028085015460038601805489516101009682161596909602600019011692909204601f810188900488028501880190985287845263ffffffff948516979296941694939091908301828280156114b75780601f1061148c576101008083540402835291602001916114b7565b820191906000526020600020905b81548152906001019060200180831161149a57829003601f168201915b505050506004830154600590930154919260ff8116926101009091046001600160a01b039081169250811690600160a01b900463ffffffff1688565b60008061150760028463ffffffff61262c16565b509392505050565b600c6020908152600091825260409182902080548351601f600260001961010060018616150201909316929092049182018490048402810184019094528084529092918391908301828280156115a65780601f1061157b576101008083540402835291602001916115a6565b820191906000526020600020905b81548152906001019060200180831161158957829003601f168201915b505050505090806001018054600181600116156101000203166002900480601f0160208091040260200160405190810160405280929190818152602001828054600181600116156101000203166002900480156116445780601f1061161957610100808354040283529160200191611644565b820191906000526020600020905b81548152906001019060200180831161162757829003601f168201915b505050506002838101546003850180546040805160206101006001851615026000190190931695909504601f8101839004830286018301909152808552959663ffffffff909316959294509091908301828280156116e35780601f106116b8576101008083540402835291602001916116e3565b820191906000526020600020905b8154815290600101906020018083116116c657829003601f168201915b50505050600483015460058401805460408051602060026101006001861615026000190190941693909304601f810184900484028201840190925281815295966001600160a01b0390941695939450908301828280156117845780601f1061175957610100808354040283529160200191611784565b820191906000526020600020905b81548152906001019060200180831161176757829003601f168201915b5050505050905086565b6000610e9c82604051806060016040528060298152602001613eee602991396002919063ffffffff61264816565b60098054604080516020601f60026000196101006001881615020190951694909404938401819004810282018101909252828152606093909290918301828280156105985780601f1061056d57610100808354040283529160200191610598565b60006001600160a01b0382166118455760405162461bcd60e51b815260040161047990613a42565b6001600160a01b0382166000908152600160205260409020610e9c90612406565b61186e612e01565b63ffffffff8281166000908152600b60209081526040918290208251610100808201855282548616825260018084015483860152600280850154909716838701526003840180548751928116159093026000190190921696909604601f81018590048502870185019095528486529094919360608601938301828280156119365780601f1061190b57610100808354040283529160200191611936565b820191906000526020600020905b81548152906001019060200180831161191957829003601f168201915b505050918352505060048281015460209092019160ff169081111561195757fe5b600481111561196257fe5b8152600482015461010090046001600160a01b0390811660208301526005909201549182166040820152600160a01b90910463ffffffff1660609091015292915050565b60078054604080516020601f60026000196101006001881615020190951694909404938401819004810282018101909252828152606093909290918301828280156105985780601f1061056d57610100808354040283529160200191610598565b611a0f612394565b6001600160a01b0316826001600160a01b03161415611a405760405162461bcd60e51b81526004016104799061393f565b8060056000611a4d612394565b6001600160a01b03908116825260208083019390935260409182016000908120918716808252919093529120805460ff191692151592909217909155611a91612394565b6001600160a01b03167f17307eab39ab6107e8899845ad3d59bd9653f200f220920489ca2b5937696c3183604051611ac99190613735565b60405180910390a35050565b611ae6611ae0612394565b83612411565b611b025760405162461bcd60e51b815260040161047990613c9f565b611b0e8484848461265f565b50505050565b63ffffffff9081166000908152600b6020526040902060050154600160a01b90041690565b6060611b4482612381565b611b605760405162461bcd60e51b815260040161047990613c0f565b60008281526008602090815260409182902080548351601f6002600019610100600186161502019093169290920491820184900484028101840190945280845260609392830182828015611bf55780601f10611bca57610100808354040283529160200191611bf5565b820191906000526020600020905b815481529060010190602001808311611bd857829003601f168201915b505060095493945050505060026000196101006001841615020190911604611c1e5790506104e8565b805115611c5057600981604051602001611c39929190613545565b6040516020818303038152906040529150506104e8565b6009611c5b84612692565b604051602001611c6c929190613545565b604051602081830303815290604052915050919050565b600a60009054906101000a90046001600160a01b03166001600160a01b0316639d2f83f06040518163ffffffff1660e01b8152600401602060405180830381600087803b158015611cd357600080fd5b505af1158015611ce7573d6000803e3d6000fd5b505050506040513d601f19601f82011682018060405250611d0b919081019061310e565b15611d285760405162461bcd60e51b815260040161047990613b90565b600a5460405163095d1a0d60e21b81526001600160a01b0390911690632574683490611d589033906004016135c6565b600060405180830381600087803b158015611d7257600080fd5b505af1158015611d86573d6000803e3d6000fd5b505050506000611d95336103de565b6040805160c081018252888152602080820189905263ffffffff808916838501526060830188905233608084015260a0830187905284166000908152600c8252929092208151805194955091939092611df2928492910190612e45565b506020828101518051611e0b9260018501920190612e45565b50604082015160028201805463ffffffff191663ffffffff90921691909117905560608201518051611e47916003840191602090910190612e45565b5060808201516004820180546001600160a01b0319166001600160a01b0390921691909117905560a08201518051611e89916005840191602090910190612e45565b50506040805161010081018252600a5463ffffffff600160c01b909104811680835285821660208085019182528a8416858701908152606086018b81526000608088018190523360a089015260c0880181905260e08801819052948552600b8352969093208551815490861663ffffffff199182161782559251600182015592516002840180549190951692169190911790925592518051929450611f379260038501929190910190612e45565b5060808201518160040160006101000a81548160ff02191690836004811115611f5c57fe5b021790555060a0820151600482018054610100600160a81b0319166101006001600160a01b039384160217905560c08301516005909201805460e0909401516001600160a01b0319909416929091169190911763ffffffff60a01b1916600160a01b63ffffffff93841602179055600a54611fe4916104bb91600160c01b9004166001612333565b600a60186101000a81548163ffffffff021916908363ffffffff1602179055507f02be38ab1ac25d38c43ba8eef640edc80bd26853df4de2f92af4fa493699009c816040516120339190613d9c565b60405180910390a1505050505050565b6001600160a01b03918216600090815260056020908152604080832093909416825291909152205460ff1690565b612079612ebf565b6000828152600c60209081526040918290208251815460026001821615610100026000190190911604601f8101849004909302810160e090810190945260c081018381529093919284928491908401828280156121175780601f106120ec57610100808354040283529160200191612117565b820191906000526020600020905b8154815290600101906020018083116120fa57829003601f168201915b50505050508152602001600182018054600181600116156101000203166002900480601f0160208091040260200160405190810160405280929190818152602001828054600181600116156101000203166002900480156121b95780601f1061218e576101008083540402835291602001916121b9565b820191906000526020600020905b81548152906001019060200180831161219c57829003601f168201915b505050918352505060028281015463ffffffff1660208084019190915260038401805460408051601f6000196001851615610100020190931695909504918201849004840285018401815281855290940193909183018282801561225e5780601f106122335761010080835404028352916020019161225e565b820191906000526020600020905b81548152906001019060200180831161224157829003601f168201915b505050918352505060048201546001600160a01b031660208083019190915260058301805460408051601f600260001960018616156101000201909416939093049283018590048502810185018252828152940193928301828280156123055780601f106122da57610100808354040283529160200191612305565b820191906000526020600020905b8154815290600101906020018083116122e857829003601f168201915b5050505050815250509050919050565b61232f828260405180602001604052806000815250612756565b5050565b600082820183811015610e995760405162461bcd60e51b815260040161047990613892565b6000600160201b821061237d5760405162461bcd60e51b815260040161047990613cf0565b5090565b6000610e9c60028363ffffffff61278916565b3390565b600081815260046020526040902080546001600160a01b0319166001600160a01b03841690811790915581906123cd8261178e565b6001600160a01b03167f8c5be1e5ebec7d5bd14f71427d1e84f3dd0314c0f7b2291e5b200ac8c7c3b92560405160405180910390a45050565b6000610e9c82612795565b600061241c82612381565b6124385760405162461bcd60e51b815260040161047990613972565b60006124438361178e565b9050806001600160a01b0316846001600160a01b0316148061247e5750836001600160a01b0316612473846105a3565b6001600160a01b0316145b8061248e575061248e8185612043565b949350505050565b826001600160a01b03166124a98261178e565b6001600160a01b0316146124cf5760405162461bcd60e51b815260040161047990613bc6565b6001600160a01b0382166124f55760405162461bcd60e51b8152600401610479906138fb565b612500838383610679565b61250b600082612398565b6001600160a01b0383166000908152600160205260409020612533908263ffffffff61279916565b506001600160a01b038216600090815260016020526040902061255c908263ffffffff6127a516565b5061256f6002828463ffffffff6127b116565b5080826001600160a01b0316846001600160a01b0316600080516020613f1783398151915260405160405180910390a4505050565b6000826125b357506000610e9c565b828202828482816125c057fe5b0414610e995760405162461bcd60e51b815260040161047990613b03565b6000610e9983836040518060400160405280601e81526020017f536166654d6174683a207375627472616374696f6e206f766572666c6f7700008152506127c7565b6000610e9983836127f3565b600080808061263b8686612838565b9097909650945050505050565b6000612655848484612894565b90505b9392505050565b61266a848484612496565b612676848484846128f3565b611b0e5760405162461bcd60e51b81526004016104799061380a565b6060816126b757506040805180820190915260018152600360fc1b60208201526104e8565b8160005b81156126cf57600101600a820491506126bb565b6060816040519080825280601f01601f1916602001820160405280156126fc576020820181803883390190505b50859350905060001982015b831561274d57600a840660300160f81b8282806001900393508151811061272b57fe5b60200101906001600160f81b031916908160001a905350600a84049350612708565b50949350505050565b61276083836129d8565b61276d60008484846128f3565b6106795760405162461bcd60e51b81526004016104799061380a565b6000610e998383612a96565b5490565b6000610e998383612aae565b6000610e998383612b74565b600061265584846001600160a01b038516612bbe565b600081848411156127eb5760405162461bcd60e51b81526004016104799190613740565b505050900390565b815460009082106128165760405162461bcd60e51b8152600401610479906137c8565b82600001828154811061282557fe5b9060005260206000200154905092915050565b81546000908190831061285d5760405162461bcd60e51b815260040161047990613a8c565b600084600001848154811061286e57fe5b906000526020600020906002020190508060000154816001015492509250509250929050565b600082815260018401602052604081205482816128c45760405162461bcd60e51b81526004016104799190613740565b508460000160018203815481106128d757fe5b9060005260206000209060020201600101549150509392505050565b6000612907846001600160a01b0316612c55565b6129135750600161248e565b60606129a1630a85bd0160e11b612928612394565b88878760405160240161293e94939291906135da565b604051602081830303815290604052906001600160e01b0319166020820180516001600160e01b038381831617835250505050604051806060016040528060328152602001613ebc603291396001600160a01b038816919063ffffffff612c5b16565b90506000818060200190516129b99190810190613146565b6001600160e01b031916630a85bd0160e11b1492505050949350505050565b6001600160a01b0382166129fe5760405162461bcd60e51b815260040161047990613ace565b612a0781612381565b15612a245760405162461bcd60e51b81526004016104799061385c565b612a3060008383610679565b6001600160a01b0382166000908152600160205260409020612a58908263ffffffff6127a516565b50612a6b6002828463ffffffff6127b116565b5060405181906001600160a01b03841690600090600080516020613f17833981519152908290a45050565b60009081526001919091016020526040902054151590565b60008181526001830160205260408120548015612b6a5783546000198083019190810190600090879083908110612ae157fe5b9060005260206000200154905080876000018481548110612afe57fe5b600091825260208083209091019290925582815260018981019092526040902090840190558654879080612b2e57fe5b60019003818190600052602060002001600090559055866001016000878152602001908152602001600020600090556001945050505050610e9c565b6000915050610e9c565b6000612b808383612a96565b612bb657508154600181810184556000848152602080822090930184905584548482528286019093526040902091909155610e9c565b506000610e9c565b600082815260018401602052604081205480612c23575050604080518082018252838152602080820184815286546001818101895560008981528481209551600290930290950191825591519082015586548684528188019092529290912055612658565b82856000016001830381548110612c3657fe5b9060005260206000209060020201600101819055506000915050612658565b3b151590565b606061265584846000856060612c7085612c55565b612c8c5760405162461bcd60e51b815260040161047990613d36565b60006060866001600160a01b03168587604051612ca99190613529565b60006040518083038185875af1925050503d8060008114612ce6576040519150601f19603f3d011682016040523d82523d6000602084013e612ceb565b606091505b50915091508115612cff57915061248e9050565b805115612d0f5780518082602001fd5b8360405162461bcd60e51b81526004016104799190613740565b6040518061010001604052806008905b612d41612e01565b815260200190600190039081612d395790505090565b6040518061010001604052806008905b612d6f612ebf565b815260200190600190039081612d675790505090565b604080516060810182526000808252602082018190529181019190915290565b6040518061020001604052806010905b612dbd612e01565b815260200190600190039081612db55790505090565b6040518061020001604052806010905b612deb612ebf565b815260200190600190039081612de35790505090565b604080516101008101825260008082526020820181905291810182905260608082015290608082019081526000602082018190526040820181905260609091015290565b828054600181600116156101000203166002900490600052602060002090601f016020900481019282601f10612e8657805160ff1916838001178555612eb3565b82800160010185558215612eb3579182015b82811115612eb3578251825591602001919060010190612e98565b5061237d929150612f04565b6040518060c001604052806060815260200160608152602001600063ffffffff1681526020016060815260200160006001600160a01b03168152602001606081525090565b6105a091905b8082111561237d5760008155600101612f0a565b80356001600160a01b0381168114610e9c57600080fd5b600082601f830112612f45578081fd5b81356001600160401b03811115612f5a578182fd5b612f6d601f8201601f1916602001613e1b565b9150808252836020828501011115612f8457600080fd5b8060208401602084013760009082016020015292915050565b803560058110610e9c57600080fd5b8035610e9c81613ea9565b600060208284031215612fc8578081fd5b610e998383612f1e565b60008060408385031215612fe4578081fd5b612fee8484612f1e565b9150612ffd8460208501612f1e565b90509250929050565b60008060006060848603121561301a578081fd5b833561302581613e6d565b9250602084013561303581613e6d565b929592945050506040919091013590565b6000806000806080858703121561305b578081fd5b6130658686612f1e565b93506130748660208701612f1e565b92506040850135915060608501356001600160401b03811115613095578182fd5b6130a187828801612f35565b91505092959194509250565b600080604083850312156130bf578182fd5b6130c98484612f1e565b915060208301356130d981613e85565b809150509250929050565b600080604083850312156130f6578182fd5b6131008484612f1e565b946020939093013593505050565b60006020828403121561311f578081fd5b8151610e9981613e85565b60006020828403121561313b578081fd5b8135610e9981613e93565b600060208284031215613157578081fd5b8151610e9981613e93565b600080600080600060a08688031215613179578283fd5b85356001600160401b038082111561318f578485fd5b61319b89838a01612f35565b965060208801359150808211156131b0578485fd5b6131bc89838a01612f35565b9550604088013591506131ce82613ea9565b909350606087013590808211156131e3578283fd5b6131ef89838a01612f35565b93506080880135915080821115613204578283fd5b5061321188828901612f35565b9150509295509295909350565b60008060408385031215613230578182fd5b82356001600160401b0380821115613246578384fd5b61010091850180870383131561325a578485fd5b61326383613e1b565b61326d8883612fac565b8152602082013560208201526132868860408401612fac565b6040820152606082013593508284111561329e578586fd5b6132aa88858401612f35565b60608201526132bc8860808401612f9d565b60808201526132ce8860a08401612f1e565b60a08201526132e08860c08401612f1e565b60c08201526132f28860e08401612fac565b60e082015280955050505050612ffd8460208501612fac565b60006060828403121561331c578081fd5b6133266060613e1b565b825161333181613e85565b8152602083015161334181613e85565b6020820152604083015161335481613ea9565b60408201529392505050565b600060208284031215613371578081fd5b5035919050565b600060208284031215613389578081fd5b8135610e9981613ea9565b6000806000606084860312156133a8578081fd5b83356133b381613ea9565b9250602084013591506133c98560408601612f1e565b90509250925092565b600081518084526133ea816020860160208601613e41565b601f01601f19169290920160200192915050565b6005811061340857fe5b9052565b6000815160c0845261342160c08501826133d2565b60208401519150848103602086015261343a81836133d2565b63ffffffff604086015116604087015260608501519250858103606087015261346381846133d2565b91505060018060a01b03608085015116608086015260a0840151915084810360a086015261349181836133d2565b95945050505050565b600061010063ffffffff808451168552602084015160208601528060408501511660408601525060608301518160608601526134d8828601826133d2565b608085015192506134ec60808701846133fe565b60a0850151925060018060a01b03915081831660a08701528160c08601511660c087015260e0850151925061349160e087018463ffffffff169052565b6000825161353b818460208701613e41565b9190910192915050565b6000808454600180821660008114613564576001811461357b576135aa565b60ff198316865260028304607f16860193506135aa565b600283048886526020808720875b838110156135a25781548a820152908501908201613589565b505050860193505b50505083516135bd818360208801613e41565b01949350505050565b6001600160a01b0391909116815260200190565b6001600160a01b038581168252841660208201526040810183905260806060820181905260009061360d908301846133d2565b9695505050505050565b6040808252600090610240830190830185835b601081101561365c57603f1986850301835261364784835161349a565b9350602092830192919091019060010161362a565b50505060208382038185015281829050610200830186855b601081101561369f57858303845261368d83835161340c565b93850193925090840190600101613674565b509098975050505050505050565b6040808252600090610140830190830185835b60088110156136f257603f198685030183526136dd84835161349a565b935060209283019291909101906001016136c0565b50505060208382038185015281829050610100830186855b600881101561369f57858303845261372383835161340c565b9385019392509084019060010161370a565b901515815260200190565b600060208252610e9960208301846133d2565b600060c0825261376660c08301896133d2565b828103602084015261377881896133d2565b63ffffffff88166040850152838103606085015261379681886133d2565b6001600160a01b038716608086015284810360a086015291506137bb905081856133d2565b9998505050505050505050565b60208082526022908201527f456e756d657261626c655365743a20696e646578206f7574206f6620626f756e604082015261647360f01b606082015260800190565b60208082526032908201527f4552433732313a207472616e7366657220746f206e6f6e20455243373231526560408201527131b2b4bb32b91034b6b83632b6b2b73a32b960711b606082015260800190565b6020808252601c908201527b115490cdcc8c4e881d1bdad95b88185b1c9958591e481b5a5b9d195960221b604082015260600190565b6020808252601b908201527a536166654d6174683a206164646974696f6e206f766572666c6f7760281b604082015260600190565b6020808252601a908201527929b2b73232b9103734b99037ba1030b9b9b2ba1037bbb732b91760311b604082015260600190565b60208082526024908201527f4552433732313a207472616e7366657220746f20746865207a65726f206164646040820152637265737360e01b606082015260800190565b60208082526019908201527822a9219b99189d1030b8383937bb32903a379031b0b63632b960391b604082015260600190565b6020808252602c908201527f4552433732313a206f70657261746f7220717565727920666f72206e6f6e657860408201526b34b9ba32b73a103a37b5b2b760a11b606082015260800190565b60208082526012908201527120b9b9b2ba1034b9903737ba10233932b29760711b604082015260600190565b60208082526038908201527f4552433732313a20617070726f76652063616c6c6572206973206e6f74206f776040820152771b995c881b9bdc88185c1c1c9bdd995908199bdc88185b1b60421b606082015260800190565b6020808252602a908201527f4552433732313a2062616c616e636520717565727920666f7220746865207a65604082015269726f206164647265737360b01b606082015260800190565b60208082526022908201527f456e756d657261626c654d61703a20696e646578206f7574206f6620626f756e604082015261647360f01b606082015260800190565b6020808252818101527f4552433732313a206d696e7420746f20746865207a65726f2061646472657373604082015260600190565b60208082526021908201527f536166654d6174683a206d756c7469706c69636174696f6e206f766572666c6f6040820152607760f81b606082015260800190565b6020808252602c908201527f4552433732313a20617070726f76656420717565727920666f72206e6f6e657860408201526b34b9ba32b73a103a37b5b2b760a11b606082015260800190565b6020808252601c908201527b29bcb9ba32b69034b99034b71032b6b2b933b2b731bc9039ba37b81760211b604082015260600190565b60208082526029908201527f4552433732313a207472616e73666572206f6620746f6b656e2074686174206960408201526839903737ba1037bbb760b91b606082015260800190565b6020808252602f908201527f4552433732314d657461646174613a2055524920717565727920666f72206e6f60408201526e3732bc34b9ba32b73a103a37b5b2b760891b606082015260800190565b60208082526021908201527f4552433732313a20617070726f76616c20746f2063757272656e74206f776e656040820152603960f91b606082015260800190565b60208082526031908201527f4552433732313a207472616e736665722063616c6c6572206973206e6f74206f6040820152701ddb995c881b9bdc88185c1c1c9bdd9959607a1b606082015260800190565b60208082526026908201527f53616665436173743a2076616c756520646f65736e27742066697420696e203360408201526532206269747360d01b606082015260800190565b6020808252601d908201527f416464726573733a2063616c6c20746f206e6f6e2d636f6e7472616374000000604082015260600190565b600060208252610e99602083018461340c565b600060208252610e99602083018461349a565b90815260200190565b63ffffffff91909116815260200190565b600061010063ffffffff808c1684528a6020850152808a166040850152816060850152613ddc8285018a6133d2565b9250613deb60808501896133fe565b6001600160a01b0396871660a08501529490951660c08301529190921660e0909201919091529695505050505050565b6040518181016001600160401b0381118282101715613e3957600080fd5b604052919050565b60005b83811015613e5c578181015183820152602001613e44565b83811115611b0e5750506000910152565b6001600160a01b0381168114613e8257600080fd5b50565b8015158114613e8257600080fd5b6001600160e01b031981168114613e8257600080fd5b63ffffffff81168114613e8257600080fdfe4552433732313a207472616e7366657220746f206e6f6e20455243373231526563656976657220696d706c656d656e7465724552433732313a206f776e657220717565727920666f72206e6f6e6578697374656e7420746f6b656eddf252ad1be2c89b69c2b068fc378daa952ba7f163c4a11628f55a4df523b3efa2646970667358221220b92568efdc9d7ff65e586766335a528300fe7fc054db469794a19bc09fe3045264736f6c63430006020033",
  "source": "pragma solidity ^0.6.2;\npragma experimental ABIEncoderV2;\nstruct donor {\n    bool exists;\n    bool approved;\n    uint32 donationCount;\n}\n\ncontract Administration {\n    function systemPaused() public returns (bool) {}\n\n    function addDonor(address donorAddress) public {}\n\n    function getDonor(address donorAddress)\n        public\n        view\n        returns (donor memory)\n    {}\n}\n\nimport \"@openzeppelin/contracts/token/ERC721/ERC721.sol\";\nimport \"@openzeppelin/contracts/access/AccessControl.sol\";\nimport \"@openzeppelin/contracts/math/SafeMath.sol\";\nimport \"@openzeppelin/contracts/utils/SafeCast.sol\";\n\n/// @title A Asset donation smart contract\n/// @author Fatemeh Heidari Soureshjani\n/// @notice This contract facilitates donation of physical assets for specific periods of time between asset owners and receivers\n\ncontract DonateAsset is ERC721 {\n    Administration ADM;\n\n    uint32 lastAssetId;\n    uint32 lastDonationId;\n\n    constructor(address _adm) public ERC721(\"MyToken\", \"MTS\") {\n        ADM = Administration(_adm);\n        lastAssetId = 0;\n        lastDonationId = 0;\n    }\n\n    enum Status {Free, Requested, Donated, Inactive, Burned}\n\n    struct Asset {\n        string assetTitle;\n        string assetDescription;\n        uint32 availablityDate;\n        string location;\n        address owner;\n        string imageIPFSHash;\n    }\n\n    struct Donation {\n        uint32 donationId;\n        uint256 assetId;\n        uint32 availablityDate;\n        string location;\n        Status status;\n        address owner;\n        address recipient;\n        uint32 requestCount;\n    }\n\n    mapping(uint32 => Donation) public donationList;\n    mapping(uint256 => Asset) public AssetList;\n\n    modifier assetIsFree(uint32 donationId) {\n        require(\n            donationList[donationId].recipient == address(0) &&\n                (donationList[donationId].status == Status.Free ||\n                    donationList[donationId].status == Status.Requested),\n            \"Asset is not Free.\"\n        );\n        _;\n    }\n\n    modifier assetExists(uint32 donationId) {\n        require(donationList[donationId].owner != address(0), \"Invalid asset\");\n        _;\n    }\n\n    modifier isAssetOwner(uint256 assetId) {\n        require(ownerOf(assetId) == msg.sender, \"Sender nis ot asset owner.\");\n        _;\n    }\n\n    modifier whenNotPaused() {\n        require(!ADM.systemPaused(), \"System is in emergency stop.\");\n        _;\n    }\n\n    event LogFree(uint32 assetId);\n\n    event LogDonated(uint32 assetId);\n\n    // event LogInactive(uint32 assetId);\n    // event LogIBurned(uint32 assetId);\n\n    function UpdateDonation(Donation memory donation, uint32 donationId)\n        public\n    {\n        if (donation.status > donationList[donationId].status) {\n            donationList[donationId].status = donation.status;\n        }\n        donationList[donationId].requestCount = donation.requestCount;\n    }\n\n    /// @notice Adds a new asset to list of donated assets(Should be called by a donor)\n    /// @dev other asset struct members should be added\n    /// @param assetDescription Descrption of the asset entered by owner\n    /// @param availablityDate the first date the owner can donate the asset\n    /// @param location the location of the donated asset\n    /// @param imageIPFSHash IPFS hash of the asset image uploaded by owner and saved to IPFS\n    function addAsset(\n        string memory assetTitle,\n        string memory assetDescription,\n        uint32 availablityDate,\n        string memory location,\n        string memory imageIPFSHash\n    ) public whenNotPaused {\n        ADM.addDonor(msg.sender);\n        uint32 assetId = mintToken(msg.sender);\n        AssetList[assetId] = Asset({\n            assetTitle: assetTitle,\n            assetDescription: assetDescription,\n            availablityDate: availablityDate,\n            location: location,\n            owner: msg.sender,\n            imageIPFSHash: imageIPFSHash\n        });\n        donationList[lastDonationId] = Donation({\n            donationId:lastDonationId,\n            assetId: assetId,\n            availablityDate: availablityDate,\n            location: location,\n            status: Status.Free,\n            owner: msg.sender,\n            recipient: address(0),\n            requestCount: 0\n        });\n        lastDonationId = SafeCast.toUint32(\n            SafeMath.add(uint256(lastDonationId), 1)\n        );\n        emit LogFree(assetId);\n    }\n\n    /// @notice Returns all donations of an donor(it shoud be called by a donor)\n    /// @dev There must be better way than returing always an array of 16\n    /// @return Asset returns an array of type asset and length 16 of donations of msg.sender\n    function getDonationsByOwner(uint256 pageNo)\n        public\n        view\n        returns (Donation[8] memory,Asset[8] memory)\n    {\n        donor memory d = ADM.getDonor(msg.sender);\n        uint256 donationCount = d.donationCount; //uint(balanceOf(msg.sender)); //donors[msg.sender].donationCount;\n        //uint32 pageNo = donors[msg.sender].pageNo;\n        uint256 nextStart = SafeMath.mul(pageNo, 8); //0\n        uint256 rem = SafeMath.sub(donationCount, nextStart); //1\n        uint256 index = 0;\n        uint32 j = 0;\n        Donation[8] memory _donationList;\n        Asset[8] memory _assetList;\n        if (rem < 0) {\n            return (_donationList,_assetList);\n        } else {\n            if ((rem) < 8) {\n                index = rem; //1\n            } else {\n                index = 8;\n            }\n            uint nextInd = 0;\n            uint256 loopEnd = SafeMath.add(nextStart, index); //9\n            for (uint32 i = SafeCast.toUint32( nextStart); i < lastDonationId; i++) {\n                if (donationList[i].owner == msg.sender) {\n                    //if (j > nextStart) {\n                        nextInd = SafeMath.sub(j,nextStart); \n                        _donationList[nextInd] = donationList[i];\n                        j++;\n                        _assetList[nextInd] = AssetList[donationList[i].assetId];\n                    //} else {\n                    //    j++;\n                    //}\n                }\n                if (j == loopEnd) {\n                    break;\n                }\n            }\n            // for (uint i = nextStart; i < loopEnd; i++) {\n            //     tokenId = uint32(donationOfOwnerByIndex(msg.sender, i));\n            //     assetList[SafeMath.sub(i , nextStart)] = donationList[tokenId];\n            // }\n            return (_donationList,_assetList);\n        }\n    }\n\n    /// @notice returns all donations\n    /// @dev There must be better way than returing always an array of 16\n    /// @return Asset returns an array of type asset and length 16 of all donations\n    function getAllDonations() public view returns (Donation[16] memory,Asset[16] memory) {\n        uint32 index = 0;\n        Donation[16] memory _donationList;\n        Asset[16] memory _assetList;\n        if (lastAssetId <= 16) {\n            index = lastDonationId;\n        } else {\n            index = 16;\n        }\n        for (uint32 i = 0; i < index; i++) {\n            _donationList[i] = donationList[i];\n            _assetList[i] = AssetList[donationList[i].assetId];\n        }\n        return (_donationList,_assetList);\n    }\n\n    /// @notice The ERC721 stadard for nunfungible token is used to maintain ownership of assets\n    /// @notice everytime a new token is minted based on current value of lastAssetId for assetOwner address, and then lastAssetId is increased\n    /// @param assetOwner the owner of the new asset\n    /// @return returns the id of new minted token\n    function mintToken(\n        address assetOwner //isDonor(msg.sender)\n    ) public whenNotPaused returns (uint32) {\n        _safeMint(assetOwner, lastAssetId);\n        uint32 assetId = lastAssetId;\n        lastAssetId = SafeCast.toUint32(SafeMath.add(uint256(lastAssetId), 1));\n        return assetId;\n    }\n\n    /// @notice a donor can approve a specific request and this function assigns the recipient of this asset to the recipientAddress and transfers the token ownership\n    /// @notice caller should be a donor and recipient should be a receiver\n    /// @dev change related request's status to approved, Project should implement onERC721Received\n    /// @param donationId unique id of donation to be donated\n    /// @param recipientAddress donation receiver\n    function donateAsset(\n        uint32 donationId,\n        uint256 assetId,\n        address recipientAddress\n    ) public \n    assetIsFree(donationId) \n    isAssetOwner(assetId) \n    whenNotPaused \n    {\n        safeTransferFrom(msg.sender, recipientAddress, assetId);\n        donationList[donationId].recipient = recipientAddress;\n        donationList[donationId].status = Status.Donated;\n        emit LogDonated(donationId);\n    }\n\n    function getDonationRequestCount(uint32 donationId)\n        public\n        view\n        returns (uint32)\n    {\n        return donationList[donationId].requestCount;\n    }\n\n    function getDonation(uint32 donationId)\n        public\n        view\n        returns (Donation memory)\n    {\n        return donationList[donationId];\n    }\n\n    function getAsset(uint256 assetId) public view returns (Asset memory) {\n        return AssetList[assetId];\n    }\n}\n",
  "sourcePath": "/home/fatemeh/Desktop/Consensys Course/assetdonation/AssetDonation/contracts/DonateAsset.sol",
  "compiler": {
    "name": "solc",
    "version": "0.6.2+commit.bacdbe57.Emscripten.clang"
  },
  "schemaVersion": "3.3.1",
  "updatedAt": "2020-12-16T23:31:41.138Z",
  "devdoc": {
    "author": "Fatemeh Heidari Soureshjani",
    "methods": {
      "addAsset(string,string,uint32,string,string)": {
        "details": "other asset struct members should be added",
        "params": {
          "assetDescription": "Descrption of the asset entered by owner",
          "availablityDate": "the first date the owner can donate the asset",
          "imageIPFSHash": "IPFS hash of the asset image uploaded by owner and saved to IPFS",
          "location": "the location of the donated asset"
        }
      },
      "approve(address,uint256)": {
        "details": "See {IERC721-approve}."
      },
      "balanceOf(address)": {
        "details": "See {IERC721-balanceOf}."
      },
      "baseURI()": {
        "details": "Returns the base URI set via {_setBaseURI}. This will be automatically added as a prefix in {tokenURI} to each token's URI, or to the token ID if no specific URI is set for that token ID."
      },
      "donateAsset(uint32,uint256,address)": {
        "details": "change related request's status to approved, Project should implement onERC721Received",
        "params": {
          "donationId": "unique id of donation to be donated",
          "recipientAddress": "donation receiver"
        }
      },
      "getAllDonations()": {
        "details": "There must be better way than returing always an array of 16",
        "returns": {
          "_0": "Asset returns an array of type asset and length 16 of all donations"
        }
      },
      "getApproved(uint256)": {
        "details": "See {IERC721-getApproved}."
      },
      "getDonationsByOwner(uint256)": {
        "details": "There must be better way than returing always an array of 16",
        "returns": {
          "_0": "Asset returns an array of type asset and length 16 of donations of msg.sender"
        }
      },
      "isApprovedForAll(address,address)": {
        "details": "See {IERC721-isApprovedForAll}."
      },
      "mintToken(address)": {
        "params": {
          "assetOwner": "the owner of the new asset"
        },
        "returns": {
          "_0": "returns the id of new minted token"
        }
      },
      "name()": {
        "details": "See {IERC721Metadata-name}."
      },
      "ownerOf(uint256)": {
        "details": "See {IERC721-ownerOf}."
      },
      "safeTransferFrom(address,address,uint256)": {
        "details": "See {IERC721-safeTransferFrom}."
      },
      "safeTransferFrom(address,address,uint256,bytes)": {
        "details": "See {IERC721-safeTransferFrom}."
      },
      "setApprovalForAll(address,bool)": {
        "details": "See {IERC721-setApprovalForAll}."
      },
      "supportsInterface(bytes4)": {
        "details": "See {IERC165-supportsInterface}.     * Time complexity O(1), guaranteed to always use less than 30 000 gas."
      },
      "symbol()": {
        "details": "See {IERC721Metadata-symbol}."
      },
      "tokenByIndex(uint256)": {
        "details": "See {IERC721Enumerable-tokenByIndex}."
      },
      "tokenOfOwnerByIndex(address,uint256)": {
        "details": "See {IERC721Enumerable-tokenOfOwnerByIndex}."
      },
      "tokenURI(uint256)": {
        "details": "See {IERC721Metadata-tokenURI}."
      },
      "totalSupply()": {
        "details": "See {IERC721Enumerable-totalSupply}."
      },
      "transferFrom(address,address,uint256)": {
        "details": "See {IERC721-transferFrom}."
      }
    },
    "title": "A Asset donation smart contract"
  },
  "userdoc": {
    "methods": {
      "addAsset(string,string,uint32,string,string)": {
        "notice": "Adds a new asset to list of donated assets(Should be called by a donor)"
      },
      "donateAsset(uint32,uint256,address)": {
        "notice": "a donor can approve a specific request and this function assigns the recipient of this asset to the recipientAddress and transfers the token ownershipcaller should be a donor and recipient should be a receiver"
      },
      "getAllDonations()": {
        "notice": "returns all donations"
      },
      "getDonationsByOwner(uint256)": {
        "notice": "Returns all donations of an donor(it shoud be called by a donor)"
      },
      "mintToken(address)": {
        "notice": "The ERC721 stadard for nunfungible token is used to maintain ownership of assetseverytime a new token is minted based on current value of lastAssetId for assetOwner address, and then lastAssetId is increased"
      }
    },
    "notice": "This contract facilitates donation of physical assets for specific periods of time between asset owners and receivers"
  }
}