{
  "contractName": "ProjectFactory",
  "abi": [
    {
      "inputs": [],
      "stateMutability": "nonpayable",
      "type": "constructor"
    },
    {
      "anonymous": false,
      "inputs": [
        {
          "indexed": false,
          "internalType": "address",
          "name": "",
          "type": "address"
        },
        {
          "indexed": false,
          "internalType": "address",
          "name": "",
          "type": "address"
        },
        {
          "indexed": false,
          "internalType": "uint256",
          "name": "",
          "type": "uint256"
        }
      ],
      "name": "LogTransfer",
      "type": "event"
    },
    {
      "anonymous": false,
      "inputs": [
        {
          "indexed": false,
          "internalType": "uint256",
          "name": "x",
          "type": "uint256"
        }
      ],
      "name": "logBalance",
      "type": "event"
    },
    {
      "anonymous": false,
      "inputs": [
        {
          "indexed": false,
          "internalType": "contract ProjectFunding",
          "name": "project",
          "type": "address"
        }
      ],
      "name": "projectCreated",
      "type": "event"
    },
    {
      "inputs": [
        {
          "internalType": "uint256",
          "name": "",
          "type": "uint256"
        }
      ],
      "name": "projects",
      "outputs": [
        {
          "internalType": "address payable",
          "name": "",
          "type": "address"
        }
      ],
      "stateMutability": "view",
      "type": "function"
    },
    {
      "inputs": [
        {
          "internalType": "string",
          "name": "_projectDescription",
          "type": "string"
        },
        {
          "internalType": "string",
          "name": "_projectTitle",
          "type": "string"
        },
        {
          "internalType": "uint32",
          "name": "_projectKickOffTime",
          "type": "uint32"
        },
        {
          "internalType": "uint32",
          "name": "_projectKickOffMinBalance",
          "type": "uint32"
        }
      ],
      "name": "createProject",
      "outputs": [],
      "stateMutability": "payable",
      "type": "function"
    },
    {
      "inputs": [],
      "name": "getProjects",
      "outputs": [
        {
          "components": [
            {
              "internalType": "string",
              "name": "projectTitle",
              "type": "string"
            },
            {
              "internalType": "string",
              "name": "projectDescription",
              "type": "string"
            },
            {
              "internalType": "address payable",
              "name": "projectOwner",
              "type": "address"
            },
            {
              "internalType": "uint32",
              "name": "projectKickOffMinBalance",
              "type": "uint32"
            },
            {
              "internalType": "uint32",
              "name": "projectKickOffTime",
              "type": "uint32"
            }
          ],
          "internalType": "struct Project[8]",
          "name": "",
          "type": "tuple[8]"
        }
      ],
      "stateMutability": "view",
      "type": "function"
    },
    {
      "inputs": [],
      "name": "getAllProjects",
      "outputs": [
        {
          "components": [
            {
              "internalType": "string",
              "name": "projectTitle",
              "type": "string"
            },
            {
              "internalType": "string",
              "name": "projectDescription",
              "type": "string"
            },
            {
              "internalType": "address payable",
              "name": "projectOwner",
              "type": "address"
            },
            {
              "internalType": "uint32",
              "name": "projectKickOffMinBalance",
              "type": "uint32"
            },
            {
              "internalType": "uint32",
              "name": "projectKickOffTime",
              "type": "uint32"
            }
          ],
          "internalType": "struct Project[8]",
          "name": "",
          "type": "tuple[8]"
        }
      ],
      "stateMutability": "view",
      "type": "function"
    },
    {
      "inputs": [
        {
          "internalType": "uint32",
          "name": "projectId",
          "type": "uint32"
        }
      ],
      "name": "getProject",
      "outputs": [
        {
          "internalType": "string",
          "name": "",
          "type": "string"
        },
        {
          "internalType": "string",
          "name": "",
          "type": "string"
        },
        {
          "internalType": "address payable",
          "name": "",
          "type": "address"
        },
        {
          "internalType": "uint32",
          "name": "",
          "type": "uint32"
        },
        {
          "internalType": "uint32",
          "name": "",
          "type": "uint32"
        }
      ],
      "stateMutability": "view",
      "type": "function"
    },
    {
      "inputs": [
        {
          "internalType": "address payable",
          "name": "projectAddress",
          "type": "address"
        }
      ],
      "name": "getProjectByAddress",
      "outputs": [
        {
          "internalType": "string",
          "name": "",
          "type": "string"
        },
        {
          "internalType": "string",
          "name": "",
          "type": "string"
        },
        {
          "internalType": "address payable",
          "name": "",
          "type": "address"
        },
        {
          "internalType": "uint32",
          "name": "",
          "type": "uint32"
        },
        {
          "internalType": "uint32",
          "name": "",
          "type": "uint32"
        }
      ],
      "stateMutability": "view",
      "type": "function"
    },
    {
      "inputs": [
        {
          "internalType": "uint32",
          "name": "projectId",
          "type": "uint32"
        }
      ],
      "name": "donateToProject",
      "outputs": [],
      "stateMutability": "payable",
      "type": "function"
    },
    {
      "inputs": [
        {
          "internalType": "address payable",
          "name": "projectAddress",
          "type": "address"
        }
      ],
      "name": "claimDonaition",
      "outputs": [],
      "stateMutability": "payable",
      "type": "function"
    },
    {
      "inputs": [
        {
          "internalType": "uint32",
          "name": "projectId",
          "type": "uint32"
        }
      ],
      "name": "getProjectBalance",
      "outputs": [
        {
          "internalType": "uint256",
          "name": "",
          "type": "uint256"
        }
      ],
      "stateMutability": "view",
      "type": "function"
    },
    {
      "inputs": [
        {
          "internalType": "address payable",
          "name": "projectAddress",
          "type": "address"
        }
      ],
      "name": "getProjectBalanceByAddress",
      "outputs": [
        {
          "internalType": "uint256",
          "name": "",
          "type": "uint256"
        }
      ],
      "stateMutability": "view",
      "type": "function"
    },
    {
      "inputs": [
        {
          "internalType": "uint32",
          "name": "projectId",
          "type": "uint32"
        }
      ],
      "name": "getProjectAddress",
      "outputs": [
        {
          "internalType": "address payable",
          "name": "",
          "type": "address"
        }
      ],
      "stateMutability": "view",
      "type": "function"
    },
    {
      "inputs": [
        {
          "internalType": "uint256",
          "name": "projectId",
          "type": "uint256"
        }
      ],
      "name": "getProjectAddress",
      "outputs": [
        {
          "internalType": "address",
          "name": "",
          "type": "address"
        }
      ],
      "stateMutability": "view",
      "type": "function"
    }
  ],
  "bytecode": "0x608060405234801561001057600080fd5b506001600055600280546001600160a01b031916331790556115d5806100376000396000f3fe608060405260043610620000a45760003560e01c8063107046bd14620000a95780634ca3e9b814620000e65780635c960765146200010b57806377d0a547146200013f578063805cfef2146200017757806380d03829146200019c5780638206d49f14620001c35780638f1d463514620001e8578063986df021146200020d578063dcc601281462000226578063dd6d4add146200023e578063de2ca3cb1462000255575b600080fd5b348015620000b657600080fd5b50620000ce620000c836600462000abd565b6200026c565b604051620000dd919062000b3a565b60405180910390f35b348015620000f357600080fd5b50620000ce6200010536600462000abd565b62000294565b3480156200011857600080fd5b50620001306200012a3660046200095e565b620002bf565b604051620000dd919062000cfb565b3480156200014c57600080fd5b50620001646200015e3660046200095e565b620002cc565b604051620000dd95949392919062000c6d565b3480156200018457600080fd5b50620000ce6200019636600462000ad6565b6200035f565b348015620001a957600080fd5b50620001b462000375565b604051620000dd919062000bae565b348015620001d057600080fd5b5062000164620001e236600462000ad6565b620004a3565b348015620001f557600080fd5b50620001306200020736600462000ad6565b62000506565b620002246200021e36600462000a2d565b62000538565b005b3480156200023357600080fd5b50620001b462000611565b620002246200024f3660046200095e565b6200074c565b620002246200026636600462000ad6565b620007ea565b600181815481106200027a57fe5b6000918252602090912001546001600160a01b0316905081565b600060018281548110620002a457fe5b6000918252602090912001546001600160a01b031692915050565b6001600160a01b03163190565b6060806000806000856001600160a01b0316636e57b7006040518163ffffffff1660e01b815260040160006040518083038186803b1580156200030e57600080fd5b505afa15801562000323573d6000803e3d6000fd5b505050506040513d6000823e601f3d908101601f191682016040526200034d919081019062000984565b939a9299509097509550909350915050565b600060018263ffffffff1681548110620002a457fe5b6200037f62000844565b6200038962000844565b60608060008080805b60015463ffffffff821610156200049757604051638206d49f60e01b81523090638206d49f90620003c890849060040162000d04565b60006040518083038186803b158015620003e157600080fd5b505afa158015620003f6573d6000803e3d6000fd5b505050506040513d6000823e601f3d908101601f1916820160405262000420919081019062000984565b9399509197509550935091506200043662000875565b6040518060a00160405280888152602001878152602001866001600160a01b031681526020018563ffffffff1681526020018463ffffffff16815250905080888363ffffffff16600881106200048857fe5b60200201525060010162000392565b50949550505050505090565b606080600080600060018663ffffffff1681548110620004bf57fe5b600091825260208220015460408051626e57b760e81b815290516001600160a01b0390921692636e57b70092600480840193829003018186803b1580156200030e57600080fd5b600060018263ffffffff16815481106200051c57fe5b6000918252602090912001546001600160a01b03163192915050565b60003334868686866040516200054e90620008a3565b6200055f9695949392919062000b4e565b604051809103906000f0801580156200057c573d6000803e3d6000fd5b506001805480820182556000919091527fb10e2d527612073b26eecdfd717e6a320cf44b4afac2b0732d9fcbe2b7fa0cf60180546001600160a01b0319166001600160a01b038316179055604051909150819081907fcebf67068bdf6731b69879642c22dbe7f75cbd4e664bccb6c931362b33e69a33906200060090839062000b3a565b60405180910390a150505050505050565b6200061b62000844565b6200062562000844565b6060806000808080805b60015463ffffffff821610156200073f57604051638206d49f60e01b81523090638206d49f906200066590849060040162000d04565b60006040518083038186803b1580156200067e57600080fd5b505afa15801562000693573d6000803e3d6000fd5b505050506040513d6000823e601f3d908101601f19168201604052620006bd919081019062000984565b939a50919850965094509250620006d362000875565b506040805160a081018252888152602081018890526001600160a01b03871691810182905263ffffffff80871660608301528516608082015290331415620007355780898463ffffffff16600881106200072957fe5b60200201526001909201915b506001016200062f565b5095965050505050505090565b600260005414156200077b5760405162461bcd60e51b8152600401620007729062000cc4565b60405180910390fd5b6002600055604051632311e3c360e01b81526001600160a01b03821690632311e3c390620007ae90339060040162000b3a565b600060405180830381600087803b158015620007c957600080fd5b505af1158015620007de573d6000803e3d6000fd5b50506001600055505050565b60018163ffffffff1681548110620007fe57fe5b60009182526020822001546040516001600160a01b03909116913480156108fc02929091818181858888f1935050505015801562000840573d6000803e3d6000fd5b5050565b6040518061010001604052806008905b6200085e62000875565b815260200190600190039081620008545790505090565b6040805160a08101825260608082526020820181905260009282018390528101829052608081019190915290565b6107e08062000dc083390190565b600082601f830112620008c2578081fd5b8135620008d9620008d38262000d3c565b62000d15565b9150808252836020828501011115620008f157600080fd5b8060208401602084013760009082016020015292915050565b600082601f8301126200091b578081fd5b81516200092c620008d38262000d3c565b91508082528360208285010111156200094457600080fd5b6200095781602084016020860162000d60565b5092915050565b60006020828403121562000970578081fd5b81356200097d8162000d93565b9392505050565b600080600080600060a086880312156200099c578081fd5b85516001600160401b0380821115620009b3578283fd5b620009c189838a016200090a565b96506020880151915080821115620009d7578283fd5b50620009e6888289016200090a565b9450506040860151620009f98162000d93565b606087015190935062000a0c8162000dac565b608087015190925062000a1f8162000dac565b809150509295509295909350565b6000806000806080858703121562000a43578384fd5b84356001600160401b038082111562000a5a578586fd5b62000a6888838901620008b1565b9550602087013591508082111562000a7e578485fd5b5062000a8d87828801620008b1565b935050604085013562000aa08162000dac565b9150606085013562000ab28162000dac565b939692955090935050565b60006020828403121562000acf578081fd5b5035919050565b60006020828403121562000ae8578081fd5b81356200097d8162000dac565b6001600160a01b03169052565b6000815180845262000b1c81602086016020860162000d60565b601f01601f19169290920160200192915050565b63ffffffff169052565b6001600160a01b0391909116815260200190565b600060018060a01b038816825263ffffffff808816602084015260c0604084015262000b7e60c084018862000b02565b838103606085015262000b92818862000b02565b9582166080850152509290921660a09091015250949350505050565b6020808252600090610120830183820185845b600881101562000c6157601f19878503018352815160a0815181875262000beb8288018262000b02565b8884015192508781038989015262000c04818462000b02565b915050604091508183015162000c1d8389018262000af5565b50606091508183015162000c348389018262000b30565b50608091508183015162000c4b8389018262000b30565b5095505050918401919084019060010162000bc1565b50919695505050505050565b600060a0825262000c8260a083018862000b02565b828103602084015262000c96818862000b02565b6001600160a01b03969096166040840152505063ffffffff9283166060820152911660809091015292915050565b6020808252601f908201527f5265656e7472616e637947756172643a207265656e7472616e742063616c6c00604082015260600190565b90815260200190565b63ffffffff91909116815260200190565b6040518181016001600160401b038111828210171562000d3457600080fd5b604052919050565b60006001600160401b0382111562000d52578081fd5b50601f01601f191660200190565b60005b8381101562000d7d57818101518382015260200162000d63565b8381111562000d8d576000848401525b50505050565b6001600160a01b038116811462000da957600080fd5b50565b63ffffffff8116811462000da957600080fdfe60806040526040516107e03803806107e08339810160408190526100229161022d565b600080546001600160a01b0319166001600160a01b0388161790556002805463ffffffff191663ffffffff871617905583516100659060049060208701906100d8565b50600580546001600160a01b0319166001600160a01b03881617905582516100949060039060208601906100d8565b506005805463ffffffff928316600160a01b0263ffffffff60a01b1994909316600160c01b0263ffffffff60c01b199091161792909216179055506102df92505050565b828054600181600116156101000203166002900490600052602060002090601f016020900481019282601f1061011957805160ff1916838001178555610146565b82800160010185558215610146579182015b8281111561014657825182559160200191906001019061012b565b50610152929150610156565b5090565b61017091905b80821115610152576000815560010161015c565b90565b600082601f830112610183578081fd5b81516001600160401b0380821115610199578283fd5b6040516020601f8401601f19168201810183811183821017156101ba578586fd5b806040525081945083825286818588010111156101d657600080fd5b600092505b838310156101f857858301810151828401820152918201916101db565b838311156102095760008185840101525b5050505092915050565b805163ffffffff8116811461022757600080fd5b92915050565b60008060008060008060c08789031215610245578182fd5b86516001600160a01b038116811461025b578283fd5b955061026a8860208901610213565b60408801519095506001600160401b0380821115610286578384fd5b6102928a838b01610173565b955060608901519150808211156102a7578384fd5b506102b489828a01610173565b9350506102c48860808901610213565b91506102d38860a08901610213565b90509295509295509295565b6104f2806102ee6000396000f3fe6080604052600436106100385760003560e01c80632311e3c3146100415780636e57b70014610054578063f60ca60d146100835761003f565b3661003f57005b005b61003f61004f3660046103cb565b610098565b34801561006057600080fd5b5061006961010e565b60405161007a959493929190610444565b60405180910390f35b34801561008f57600080fd5b50610069610273565b60055481906001600160a01b038083169116146100d05760405162461bcd60e51b81526004016100c790610497565b60405180910390fd5b6005546040516001600160a01b03909116904780156108fc02916000818181858888f19350505050158015610109573d6000803e3d6000fd5b505050565b6005546003805460408051602060026101006001861615026000190190941693909304601f810184900484028201840190925281815260609485946000948594859492936004936001600160a01b03821693600160a01b830463ffffffff90811694600160c01b909404169287918301828280156101cd5780601f106101a2576101008083540402835291602001916101cd565b820191906000526020600020905b8154815290600101906020018083116101b057829003601f168201915b5050875460408051602060026001851615610100026000190190941693909304601f8101849004840282018401909252818152959a508994509250840190508282801561025b5780601f106102305761010080835404028352916020019161025b565b820191906000526020600020905b81548152906001019060200180831161023e57829003601f168201915b50505050509350945094509450945094509091929394565b60038054604080516020601f600260001961010060018816150201909516949094049384018190048102820181019092528281529183918301828280156102fb5780601f106102d0576101008083540402835291602001916102fb565b820191906000526020600020905b8154815290600101906020018083116102de57829003601f168201915b505050505090806001018054600181600116156101000203166002900480601f0160208091040260200160405190810160405280929190818152602001828054600181600116156101000203166002900480156103995780601f1061036e57610100808354040283529160200191610399565b820191906000526020600020905b81548152906001019060200180831161037c57829003601f168201915b505050600290930154919250506001600160a01b0381169063ffffffff600160a01b8204811691600160c01b90041685565b6000602082840312156103dc578081fd5b81356001600160a01b03811681146103f2578182fd5b9392505050565b60008151808452815b8181101561041e57602081850181015186830182015201610402565b8181111561042f5782602083870101525b50601f01601f19169290920160200192915050565b600060a0825261045760a08301886103f9565b828103602084015261046981886103f9565b6001600160a01b03969096166040840152505063ffffffff9283166060820152911660809091015292915050565b6020808252600b908201526a27b7363c9027bbb732b91760a91b60408201526060019056fea2646970667358221220fe52b14c2b2917c14631b738b6d760ab9031f24846d4d5d59b8441651dc2d49764736f6c63430006020033a2646970667358221220aba3d87ec92ae800b8a6de8fbdedbda24460322692a1aeab311fd2aabdcbf99364736f6c63430006020033",
  "source": "pragma solidity ^0.6.2;\npragma experimental ABIEncoderV2;\n\n/// @title ProjectFactory\n/// @author Fatemeh Heidari Soureshjani\n/// @notice Project Factory is used to create new contract for each new project added to system\nimport \"./ProjectFunding.sol\";\nimport \"@openzeppelin/contracts/utils/ReentrancyGuard.sol\";\nstruct Project {\n    string projectTitle;\n    string projectDescription;\n    address payable projectOwner;\n    uint32 projectKickOffMinBalance;\n    uint32 projectKickOffTime;\n}\n\ncontract ProjectFactory is ReentrancyGuard {\n    address payable[] public projects;\n    event projectCreated(ProjectFunding project);\n    event logBalance(uint256 x);\n    event LogTransfer(address, address, uint256);\n\n    address private Owner;\n\n    constructor() public {\n        Owner = msg.sender;\n    }\n\n\n    modifier onlyOwner(address ad) {\n        require(msg.sender == ad, \"System is in emergency stop.\");\n        _;\n    }\n\n    /// @notice Adds a new project contract and adds its addres to list of projects\n    /// @param _projectDescription Descrption of the project entered by project owner\n    /// @param _projectTitle DescrpTitletion of the project entered by project owner\n    /// @param _projectKickOffTime The time the owner plans to start the project\n    /// @param _projectKickOffMinBalance The minimum amount of balance project owner needs to be collected\n    function createProject(\n        string memory _projectDescription,\n        string memory _projectTitle,\n        uint32 _projectKickOffTime,\n        uint32 _projectKickOffMinBalance\n    ) public payable \n    //whenNotPaused \n    {\n        ProjectFunding project = new ProjectFunding(\n            msg.sender,\n            uint32(msg.value),\n            _projectDescription,\n            _projectTitle,\n            _projectKickOffTime,\n            _projectKickOffMinBalance\n        );\n        address nftAddress = address(project);\n        address payable addr = address(uint160(nftAddress));\n        //addr.send(address(this).balance);\n        projects.push(addr);\n        emit projectCreated(project);\n    }\n    /// @notice Returns list of all projects\n    function getProjects() external view returns (Project[8] memory) {\n        Project[8] memory projectList;\n        string memory _projectTitle;\n        string memory _projectDescription;\n        address payable _projectOwner;\n        uint32 _projectKickOffMinBalance;\n        uint32 _projectKickOffTime;\n        uint32 j = 0;\n        for (uint32 i = 0; i < projects.length; i++) {\n            (\n                _projectTitle,\n                _projectDescription,\n                _projectOwner,\n                _projectKickOffMinBalance,\n                _projectKickOffTime\n            ) = this.getProject(i);\n            Project memory p = Project({\n                projectTitle: _projectTitle,\n                projectDescription: _projectDescription,\n                projectOwner: _projectOwner,\n                projectKickOffMinBalance: _projectKickOffMinBalance,\n                projectKickOffTime: _projectKickOffTime\n            });\n            if (p.projectOwner == msg.sender) {\n                projectList[j] = p;\n                j++;\n            }\n        }\n        return projectList;\n    }\n\n   function getAllProjects() external view returns (Project[8] memory) {\n        Project[8] memory projectList;\n        string memory _projectTitle;\n        string memory _projectDescription;\n        address payable _projectOwner;\n        uint32 _projectKickOffMinBalance;\n        uint32 _projectKickOffTime;\n        for (uint32 i = 0; i < projects.length; i++) {\n            (\n                _projectTitle,\n                _projectDescription,\n                _projectOwner,\n                _projectKickOffMinBalance,\n                _projectKickOffTime\n            ) = this.getProject(i);\n            Project memory p = Project({\n                projectTitle: _projectTitle,\n                projectDescription: _projectDescription,\n                projectOwner: _projectOwner,\n                projectKickOffMinBalance: _projectKickOffMinBalance,\n                projectKickOffTime: _projectKickOffTime\n            });\n            projectList[i] = p;\n\n        }\n        return projectList;\n    }    \n    /// @notice Returns a project address by its index in list of projects\n    /// @param projectId project index in list of projects\n    function getProjectAddress(uint256 projectId)\n        external\n        view\n        returns (address)\n    {\n        return projects[projectId];\n    }\n    /// @notice Returns a project by its index in list of projects\n    /// @param projectId project index in list of projects\n    function getProject(uint32 projectId)\n        external\n        view\n        returns (\n            string memory,\n            string memory,\n            address payable,\n            uint32,\n            uint32\n        )\n    {\n        return ProjectFunding(projects[projectId]).getProject();\n    }\n    /// @notice Returns a project by its address\n    /// @param projectAddress project contract address\n    function getProjectByAddress(address payable projectAddress)\n        external\n        view\n        returns (\n            string memory,\n            string memory,\n            address payable,\n            uint32,\n            uint32\n        )\n    {\n        return ProjectFunding(projectAddress).getProject();\n    }\n    /// @notice Adds an amount to the balance of a project contract\n    /// @param projectId project index in list of projects\n    function donateToProject(uint32 projectId) public payable //whenNotPaused \n    {\n        projects[projectId].transfer(msg.value);\n    }\n    /// @notice transfers balance of a project to its owner\n    /// @param projectAddress project contract address\n    function claimDonaition(address payable projectAddress)\n        public\n        payable\n        nonReentrant\n    {\n        ProjectFunding(projectAddress).claimDonation(msg.sender);\n    }\n    /// @notice returns balance of a project by its index in list of projects\n    /// @param projectId project index in list of projects\n    function getProjectBalance(uint32 projectId)\n        external\n        view\n        returns (uint256)\n    {\n        return projects[projectId].balance; //.getBalance();\n        //emit logBalance(x);\n        //return x;\n    }\n    /// @notice returns balance of a project by its address\n    /// @param projectAddress project contract address\n    function getProjectBalanceByAddress(address payable projectAddress)\n        external\n        view\n        returns (uint256)\n    {\n        return projectAddress.balance; //.getBalance();\n        //emit logBalance(x);\n        //return x;\n    }\n    /// @notice returns address of a project by its index in list of projects\n    /// @param projectId project index in list of projects\n    function getProjectAddress(uint32 projectId)\n        public\n        view\n        returns (address payable)\n    {\n        return projects[projectId];\n    }\n}\n",
  "sourcePath": "/home/fatemeh/Desktop/Consensys Course/assetdonation/AssetDonation/contracts/ProjectFactory.sol",
  "compiler": {
    "name": "solc",
    "version": "0.6.2+commit.bacdbe57.Emscripten.clang"
  },
  "schemaVersion": "3.3.1",
  "updatedAt": "2020-12-16T23:33:52.700Z",
  "devdoc": {
    "methods": {
      "claimDonaition(address)": {
        "params": {
          "projectAddress": "project contract address"
        }
      },
      "createProject(string,string,uint32,uint32)": {
        "params": {
          "_projectDescription": "Descrption of the project entered by project owner",
          "_projectKickOffMinBalance": "The minimum amount of balance project owner needs to be collected",
          "_projectKickOffTime": "The time the owner plans to start the project",
          "_projectTitle": "DescrpTitletion of the project entered by project owner"
        }
      },
      "donateToProject(uint32)": {
        "params": {
          "projectId": "project index in list of projects"
        }
      },
      "getProject(uint32)": {
        "params": {
          "projectId": "project index in list of projects"
        }
      },
      "getProjectAddress(uint256)": {
        "params": {
          "projectId": "project index in list of projects"
        }
      },
      "getProjectAddress(uint32)": {
        "params": {
          "projectId": "project index in list of projects"
        }
      },
      "getProjectBalance(uint32)": {
        "params": {
          "projectId": "project index in list of projects"
        }
      },
      "getProjectBalanceByAddress(address)": {
        "params": {
          "projectAddress": "project contract address"
        }
      },
      "getProjectByAddress(address)": {
        "params": {
          "projectAddress": "project contract address"
        }
      }
    }
  },
  "userdoc": {
    "methods": {
      "claimDonaition(address)": {
        "notice": "transfers balance of a project to its owner"
      },
      "createProject(string,string,uint32,uint32)": {
        "notice": "Adds a new project contract and adds its addres to list of projects"
      },
      "donateToProject(uint32)": {
        "notice": "Adds an amount to the balance of a project contract"
      },
      "getProject(uint32)": {
        "notice": "Returns a project by its index in list of projects"
      },
      "getProjectAddress(uint256)": {
        "notice": "Returns a project address by its index in list of projects"
      },
      "getProjectAddress(uint32)": {
        "notice": "returns address of a project by its index in list of projects"
      },
      "getProjectBalance(uint32)": {
        "notice": "returns balance of a project by its index in list of projects"
      },
      "getProjectBalanceByAddress(address)": {
        "notice": "returns balance of a project by its address"
      },
      "getProjectByAddress(address)": {
        "notice": "Returns a project by its address"
      },
      "getProjects()": {
        "notice": "Returns list of all projects"
      }
    }
  }
}