{
  "contractName": "ProjectFunding",
  "abi": [
    {
      "inputs": [
        {
          "internalType": "address payable",
          "name": "_owner",
          "type": "address"
        },
        {
          "internalType": "uint32",
          "name": "initialBalance",
          "type": "uint32"
        },
        {
          "internalType": "string",
          "name": "_projectDescription",
          "type": "string"
        },
        {
          "internalType": "string",
          "name": "_projectTitle",
          "type": "string"
        },
        {
          "internalType": "uint32",
          "name": "_projectKickOffTime",
          "type": "uint32"
        },
        {
          "internalType": "uint32",
          "name": "_projectKickOffMinBalance",
          "type": "uint32"
        }
      ],
      "stateMutability": "payable",
      "type": "constructor"
    },
    {
      "stateMutability": "payable",
      "type": "fallback"
    },
    {
      "inputs": [],
      "name": "project",
      "outputs": [
        {
          "internalType": "string",
          "name": "projectTitle",
          "type": "string"
        },
        {
          "internalType": "string",
          "name": "projectDescription",
          "type": "string"
        },
        {
          "internalType": "address payable",
          "name": "projectOwner",
          "type": "address"
        },
        {
          "internalType": "uint32",
          "name": "projectKickOffMinBalance",
          "type": "uint32"
        },
        {
          "internalType": "uint32",
          "name": "projectKickOffTime",
          "type": "uint32"
        }
      ],
      "stateMutability": "view",
      "type": "function"
    },
    {
      "stateMutability": "payable",
      "type": "receive"
    },
    {
      "inputs": [],
      "name": "getProject",
      "outputs": [
        {
          "internalType": "string",
          "name": "",
          "type": "string"
        },
        {
          "internalType": "string",
          "name": "",
          "type": "string"
        },
        {
          "internalType": "address payable",
          "name": "",
          "type": "address"
        },
        {
          "internalType": "uint32",
          "name": "",
          "type": "uint32"
        },
        {
          "internalType": "uint32",
          "name": "",
          "type": "uint32"
        }
      ],
      "stateMutability": "view",
      "type": "function"
    },
    {
      "inputs": [
        {
          "internalType": "address",
          "name": "claimAddress",
          "type": "address"
        }
      ],
      "name": "claimDonation",
      "outputs": [],
      "stateMutability": "payable",
      "type": "function"
    }
  ],
  "bytecode": "0x60806040526040516107e03803806107e08339810160408190526100229161022d565b600080546001600160a01b0319166001600160a01b0388161790556002805463ffffffff191663ffffffff871617905583516100659060049060208701906100d8565b50600580546001600160a01b0319166001600160a01b03881617905582516100949060039060208601906100d8565b506005805463ffffffff928316600160a01b0263ffffffff60a01b1994909316600160c01b0263ffffffff60c01b199091161792909216179055506102df92505050565b828054600181600116156101000203166002900490600052602060002090601f016020900481019282601f1061011957805160ff1916838001178555610146565b82800160010185558215610146579182015b8281111561014657825182559160200191906001019061012b565b50610152929150610156565b5090565b61017091905b80821115610152576000815560010161015c565b90565b600082601f830112610183578081fd5b81516001600160401b0380821115610199578283fd5b6040516020601f8401601f19168201810183811183821017156101ba578586fd5b806040525081945083825286818588010111156101d657600080fd5b600092505b838310156101f857858301810151828401820152918201916101db565b838311156102095760008185840101525b5050505092915050565b805163ffffffff8116811461022757600080fd5b92915050565b60008060008060008060c08789031215610245578182fd5b86516001600160a01b038116811461025b578283fd5b955061026a8860208901610213565b60408801519095506001600160401b0380821115610286578384fd5b6102928a838b01610173565b955060608901519150808211156102a7578384fd5b506102b489828a01610173565b9350506102c48860808901610213565b91506102d38860a08901610213565b90509295509295509295565b6104f2806102ee6000396000f3fe6080604052600436106100385760003560e01c80632311e3c3146100415780636e57b70014610054578063f60ca60d146100835761003f565b3661003f57005b005b61003f61004f3660046103cb565b610098565b34801561006057600080fd5b5061006961010e565b60405161007a959493929190610444565b60405180910390f35b34801561008f57600080fd5b50610069610273565b60055481906001600160a01b038083169116146100d05760405162461bcd60e51b81526004016100c790610497565b60405180910390fd5b6005546040516001600160a01b03909116904780156108fc02916000818181858888f19350505050158015610109573d6000803e3d6000fd5b505050565b6005546003805460408051602060026101006001861615026000190190941693909304601f810184900484028201840190925281815260609485946000948594859492936004936001600160a01b03821693600160a01b830463ffffffff90811694600160c01b909404169287918301828280156101cd5780601f106101a2576101008083540402835291602001916101cd565b820191906000526020600020905b8154815290600101906020018083116101b057829003601f168201915b5050875460408051602060026001851615610100026000190190941693909304601f8101849004840282018401909252818152959a508994509250840190508282801561025b5780601f106102305761010080835404028352916020019161025b565b820191906000526020600020905b81548152906001019060200180831161023e57829003601f168201915b50505050509350945094509450945094509091929394565b60038054604080516020601f600260001961010060018816150201909516949094049384018190048102820181019092528281529183918301828280156102fb5780601f106102d0576101008083540402835291602001916102fb565b820191906000526020600020905b8154815290600101906020018083116102de57829003601f168201915b505050505090806001018054600181600116156101000203166002900480601f0160208091040260200160405190810160405280929190818152602001828054600181600116156101000203166002900480156103995780601f1061036e57610100808354040283529160200191610399565b820191906000526020600020905b81548152906001019060200180831161037c57829003601f168201915b505050600290930154919250506001600160a01b0381169063ffffffff600160a01b8204811691600160c01b90041685565b6000602082840312156103dc578081fd5b81356001600160a01b03811681146103f2578182fd5b9392505050565b60008151808452815b8181101561041e57602081850181015186830182015201610402565b8181111561042f5782602083870101525b50601f01601f19169290920160200192915050565b600060a0825261045760a08301886103f9565b828103602084015261046981886103f9565b6001600160a01b03969096166040840152505063ffffffff9283166060820152911660809091015292915050565b6020808252600b908201526a27b7363c9027bbb732b91760a91b60408201526060019056fea2646970667358221220fe52b14c2b2917c14631b738b6d760ab9031f24846d4d5d59b8441651dc2d49764736f6c63430006020033",
  "source": "pragma solidity ^0.6.2;\npragma experimental ABIEncoderV2;\n\nenum Status {Free, Requested, Donated, Inactive, Burned}\n\nstruct Asset {\n    uint32 assetId;\n    string assetTitle;\n    string assetDescription;\n    uint32 availablityDate;\n    string location;\n    Status status;\n    address owner;\n    address recipient;\n    uint32 donatedDateFrom;\n    uint32 donatedDateTo;\n    uint32 requestCount;\n    string imageIPFSHash;\n}\n/// @title ProjectFunding\n/// @author Fatemeh Heidari Soureshjani\n/// @notice Project is defined for raising funds and assets\ncontract ProjectFunding {\n    address payable owner;\n    Asset[] donatedAssets;\n    uint32 balance;\n    Project public project;\n\n    struct Project {\n        string projectTitle;\n        string projectDescription;\n        address payable projectOwner;\n        uint32 projectKickOffMinBalance;\n        uint32 projectKickOffTime;\n    }\n\n    constructor(\n        address payable _owner,\n        uint32 initialBalance,\n        string memory _projectDescription,\n        string memory _projectTitle,\n        uint32 _projectKickOffTime,\n        uint32 _projectKickOffMinBalance\n    ) public payable {\n        owner = _owner;\n        balance = initialBalance;\n        project.projectDescription = _projectDescription;\n        project.projectOwner = _owner;\n        project.projectTitle = _projectTitle;\n        project.projectKickOffTime = _projectKickOffTime;\n        project.projectKickOffMinBalance = _projectKickOffMinBalance;\n    }\n    modifier onlyOwner(address ad) {\n        require(ad == project.projectOwner, \"Only Owner.\");\n        _;\n    }\n    /// @notice Returns the project info\n    function getProject()\n        public\n        view\n        returns (\n            string memory,\n            string memory,\n            address payable,\n            uint32,\n            uint32\n        )\n    {\n        return (\n            project.projectTitle,\n            project.projectDescription,\n            project.projectOwner,\n            project.projectKickOffMinBalance,\n            project.projectKickOffTime\n        );\n    }\n    /// @notice transfers balance of a project to its owner\n    /// @param claimAddress address of project owner\n    function claimDonation(address claimAddress) public payable onlyOwner(claimAddress) {\n        project.projectOwner.transfer(address(this).balance);\n    }\n\n    fallback() external payable {}\n    receive() external payable{}\n}\n",
  "sourcePath": "/home/fatemeh/Desktop/Consensys Course/assetdonation/AssetDonation/contracts/ProjectFunding.sol",
  "compiler": {
    "name": "solc",
    "version": "0.6.2+commit.bacdbe57.Emscripten.clang"
  },
  "schemaVersion": "3.3.1",
  "updatedAt": "2020-12-16T23:33:52.707Z",
  "devdoc": {
    "author": "Fatemeh Heidari Soureshjani",
    "methods": {
      "claimDonation(address)": {
        "params": {
          "claimAddress": "address of project owner"
        }
      }
    },
    "title": "ProjectFunding"
  },
  "userdoc": {
    "methods": {
      "claimDonation(address)": {
        "notice": "transfers balance of a project to its owner"
      },
      "getProject()": {
        "notice": "Returns the project info"
      }
    },
    "notice": "Project is defined for raising funds and assets"
  }
}