{
  "contractName": "ReceiveAsset",
  "abi": [
    {
      "inputs": [
        {
          "internalType": "address",
          "name": "_da",
          "type": "address"
        },
        {
          "internalType": "address",
          "name": "_adm",
          "type": "address"
        }
      ],
      "stateMutability": "nonpayable",
      "type": "constructor"
    },
    {
      "anonymous": false,
      "inputs": [
        {
          "components": [
            {
              "internalType": "address",
              "name": "receiver",
              "type": "address"
            },
            {
              "internalType": "string",
              "name": "requestDescription",
              "type": "string"
            },
            {
              "internalType": "uint32",
              "name": "requestDateFrom",
              "type": "uint32"
            },
            {
              "internalType": "uint32",
              "name": "requestDateTo",
              "type": "uint32"
            },
            {
              "internalType": "enum ReceiveAsset.RequestStatus",
              "name": "status",
              "type": "uint8"
            },
            {
              "internalType": "enum ReceiveAsset.RequestType",
              "name": "requestType",
              "type": "uint8"
            }
          ],
          "indexed": false,
          "internalType": "struct ReceiveAsset.Request",
          "name": "r",
          "type": "tuple"
        },
        {
          "indexed": false,
          "internalType": "uint32",
          "name": "reCount",
          "type": "uint32"
        },
        {
          "indexed": false,
          "internalType": "address",
          "name": "receiver",
          "type": "address"
        }
      ],
      "name": "LogRequest",
      "type": "event"
    },
    {
      "anonymous": false,
      "inputs": [
        {
          "indexed": false,
          "internalType": "uint32",
          "name": "assetId",
          "type": "uint32"
        },
        {
          "indexed": false,
          "internalType": "address",
          "name": "recAddress",
          "type": "address"
        }
      ],
      "name": "LogRequestApproved",
      "type": "event"
    },
    {
      "anonymous": false,
      "inputs": [
        {
          "indexed": false,
          "internalType": "uint32",
          "name": "assetId",
          "type": "uint32"
        }
      ],
      "name": "LogRequested",
      "type": "event"
    },
    {
      "inputs": [
        {
          "internalType": "address",
          "name": "",
          "type": "address"
        },
        {
          "internalType": "uint32",
          "name": "",
          "type": "uint32"
        }
      ],
      "name": "addressRequestList",
      "outputs": [
        {
          "internalType": "address",
          "name": "receiver",
          "type": "address"
        },
        {
          "internalType": "string",
          "name": "requestDescription",
          "type": "string"
        },
        {
          "internalType": "uint32",
          "name": "requestDateFrom",
          "type": "uint32"
        },
        {
          "internalType": "uint32",
          "name": "requestDateTo",
          "type": "uint32"
        },
        {
          "internalType": "enum ReceiveAsset.RequestStatus",
          "name": "status",
          "type": "uint8"
        },
        {
          "internalType": "enum ReceiveAsset.RequestType",
          "name": "requestType",
          "type": "uint8"
        }
      ],
      "stateMutability": "view",
      "type": "function",
      "constant": true
    },
    {
      "inputs": [
        {
          "internalType": "uint32",
          "name": "",
          "type": "uint32"
        },
        {
          "internalType": "uint32",
          "name": "",
          "type": "uint32"
        }
      ],
      "name": "assetRequestList",
      "outputs": [
        {
          "internalType": "address",
          "name": "receiver",
          "type": "address"
        },
        {
          "internalType": "string",
          "name": "requestDescription",
          "type": "string"
        },
        {
          "internalType": "uint32",
          "name": "requestDateFrom",
          "type": "uint32"
        },
        {
          "internalType": "uint32",
          "name": "requestDateTo",
          "type": "uint32"
        },
        {
          "internalType": "enum ReceiveAsset.RequestStatus",
          "name": "status",
          "type": "uint8"
        },
        {
          "internalType": "enum ReceiveAsset.RequestType",
          "name": "requestType",
          "type": "uint8"
        }
      ],
      "stateMutability": "view",
      "type": "function",
      "constant": true
    },
    {
      "inputs": [
        {
          "internalType": "uint32",
          "name": "assetId",
          "type": "uint32"
        },
        {
          "internalType": "uint256",
          "name": "requestCount",
          "type": "uint256"
        }
      ],
      "name": "getDonationRequests",
      "outputs": [
        {
          "components": [
            {
              "internalType": "address",
              "name": "receiver",
              "type": "address"
            },
            {
              "internalType": "string",
              "name": "requestDescription",
              "type": "string"
            },
            {
              "internalType": "uint32",
              "name": "requestDateFrom",
              "type": "uint32"
            },
            {
              "internalType": "uint32",
              "name": "requestDateTo",
              "type": "uint32"
            },
            {
              "internalType": "enum ReceiveAsset.RequestStatus",
              "name": "status",
              "type": "uint8"
            },
            {
              "internalType": "enum ReceiveAsset.RequestType",
              "name": "requestType",
              "type": "uint8"
            }
          ],
          "internalType": "struct ReceiveAsset.Request[16]",
          "name": "",
          "type": "tuple[16]"
        }
      ],
      "stateMutability": "view",
      "type": "function",
      "constant": true
    },
    {
      "inputs": [
        {
          "internalType": "uint32",
          "name": "donationId",
          "type": "uint32"
        },
        {
          "internalType": "string",
          "name": "requestDescription",
          "type": "string"
        },
        {
          "internalType": "uint32",
          "name": "requestDateFrom",
          "type": "uint32"
        },
        {
          "internalType": "uint32",
          "name": "requestDateTo",
          "type": "uint32"
        }
      ],
      "name": "requestAsset",
      "outputs": [],
      "stateMutability": "nonpayable",
      "type": "function"
    },
    {
      "inputs": [
        {
          "internalType": "uint32",
          "name": "donationId",
          "type": "uint32"
        },
        {
          "internalType": "address",
          "name": "projectAddress",
          "type": "address"
        }
      ],
      "name": "requestAsset",
      "outputs": [],
      "stateMutability": "nonpayable",
      "type": "function"
    },
    {
      "inputs": [
        {
          "internalType": "address",
          "name": "receiverAddress",
          "type": "address"
        }
      ],
      "name": "getReceiver",
      "outputs": [
        {
          "components": [
            {
              "internalType": "bool",
              "name": "exists",
              "type": "bool"
            },
            {
              "internalType": "bool",
              "name": "approved",
              "type": "bool"
            },
            {
              "internalType": "uint32",
              "name": "requestCount",
              "type": "uint32"
            }
          ],
          "internalType": "struct receiver",
          "name": "",
          "type": "tuple"
        }
      ],
      "stateMutability": "view",
      "type": "function",
      "constant": true
    },
    {
      "inputs": [
        {
          "internalType": "uint32",
          "name": "assetId",
          "type": "uint32"
        },
        {
          "internalType": "uint32",
          "name": "requestId",
          "type": "uint32"
        }
      ],
      "name": "getRequest",
      "outputs": [
        {
          "internalType": "address",
          "name": "receiver",
          "type": "address"
        },
        {
          "internalType": "string",
          "name": "requestDescription",
          "type": "string"
        },
        {
          "internalType": "uint32",
          "name": "requestDateFrom",
          "type": "uint32"
        },
        {
          "internalType": "uint32",
          "name": "requestDateTo",
          "type": "uint32"
        }
      ],
      "stateMutability": "view",
      "type": "function",
      "constant": true
    },
    {
      "inputs": [
        {
          "internalType": "uint32",
          "name": "assetId",
          "type": "uint32"
        },
        {
          "internalType": "address",
          "name": "recipientAddress",
          "type": "address"
        }
      ],
      "name": "approveRequest",
      "outputs": [],
      "stateMutability": "nonpayable",
      "type": "function"
    },
    {
      "inputs": [
        {
          "internalType": "address",
          "name": "receiverAddress",
          "type": "address"
        }
      ],
      "name": "getRequests",
      "outputs": [
        {
          "components": [
            {
              "internalType": "address",
              "name": "receiver",
              "type": "address"
            },
            {
              "internalType": "string",
              "name": "requestDescription",
              "type": "string"
            },
            {
              "internalType": "uint32",
              "name": "requestDateFrom",
              "type": "uint32"
            },
            {
              "internalType": "uint32",
              "name": "requestDateTo",
              "type": "uint32"
            },
            {
              "internalType": "enum ReceiveAsset.RequestStatus",
              "name": "status",
              "type": "uint8"
            },
            {
              "internalType": "enum ReceiveAsset.RequestType",
              "name": "requestType",
              "type": "uint8"
            }
          ],
          "internalType": "struct ReceiveAsset.Request[8]",
          "name": "",
          "type": "tuple[8]"
        }
      ],
      "stateMutability": "view",
      "type": "function",
      "constant": true
    }
  ],
  "bytecode": "0x60806040523480156200001157600080fd5b5060405162001e1138038062001e11833981016040819052620000349162000074565b600080546001600160a01b03199081166001600160a01b039384161790915560018054909116929091169190911763ffffffff60a01b19169055620000cb565b6000806040838503121562000087578182fd5b82516200009481620000b2565b6020840151909250620000a781620000b2565b809150509250929050565b6001600160a01b0381168114620000c857600080fd5b50565b611d3680620000db6000396000f3fe608060405234801561001057600080fd5b50600436106100835760003560e01c806311cef2c4146100885780633f036ce61461009d5780635296c6c0146100c657806367c7e979146100d9578063804e44f3146100fe57806383482ce21461011e57806394aa613a14610131578063c86f3a5c14610151578063f2e9962214610164575b600080fd5b61009b610096366004611653565b610187565b005b6100b06100ab36600461153f565b610772565b6040516100bd9190611c27565b60405180910390f35b61009b6100d436600461161e565b610802565b6100ec6100e736600461173d565b610bd2565b6040516100bd96959493929190611929565b61011161010c36600461153f565b610cb8565b6040516100bd91906119d9565b61009b61012c36600461161e565b610e70565b61014461013f366004611712565b610fbe565b6040516100bd919061198b565b6100ec61015f36600461155a565b611158565b61017761017236600461173d565b6111de565b6040516100bd94939291906118e7565b6000809054906101000a90046001600160a01b03166001600160a01b0316639d2f83f06040518163ffffffff1660e01b8152600401602060405180830381600087803b1580156101d657600080fd5b505af11580156101ea573d6000803e3d6000fd5b505050506040513d601f19601f8201168201806040525061020e9190810190611591565b156102345760405162461bcd60e51b815260040161022b90611a50565b60405180910390fd5b6000546040516369d83ed160e01b81526001600160a01b03909116906369d83ed1906102649033906004016118d3565b600060405180830381600087803b15801561027e57600080fd5b505af1158015610292573d6000803e3d6000fd5b5050505061029e61131b565b600054604051631f81b67360e11b81526001600160a01b0390911690633f036ce6906102ce9033906004016118d3565b60606040518083038186803b1580156102e657600080fd5b505afa1580156102fa573d6000803e3d6000fd5b505050506040513d601f19601f8201168201806040525061031e91908101906115ad565b600154604051633061e0ad60e21b81529192506000916001600160a01b039091169063c18782b490610354908990600401611c52565b60206040518083038186803b15801561036c57600080fd5b505afa158015610380573d6000803e3d6000fd5b505050506040513d601f19601f820116820180604052506103a49190810190611602565b90506040518060c00160405280336001600160a01b031681526020018681526020018563ffffffff1681526020018463ffffffff168152602001600060028111156103eb57fe5b81526020016000905263ffffffff87811660009081526002602090815260408083209386168352928152919020825181546001600160a01b0319166001600160a01b03909116178155828201518051919261044e9260018501929091019061133b565b50604082015160028083018054606086015163ffffffff908116600160201b0263ffffffff60201b199190951663ffffffff199092169190911716929092178083556080850151929160ff60401b1990911690600160401b9084908111156104b257fe5b021790555060a082015160028201805460ff60481b1916600160481b8360018111156104da57fe5b0217905550505063ffffffff80871660009081526002602081815260408084208686168552825280842033855260038352818520888301516000199081019097168652909252909220825481546001600160a01b0319166001600160a01b039190911617815560018084018054949586959394610568948685019481161561010002909201909116046113b5565b5060028281018054838301805463ffffffff191663ffffffff928316178082558354600160201b9081900490931690920263ffffffff60201b1990921691909117808255915460ff600160401b918290041693919260ff60401b19169184908111156105d057fe5b0217905550600282810154908201805460ff600160481b93849004169260ff60481b199091169083600181111561060357fe5b0217905550905050600080516020611ce1833981519152876040516106289190611c52565b60405180910390a17f4c760da27c95c0ed78cb08d0a38d92b3355d4d5772a6821f583949b5267968398184604001513360405161066793929190611b7b565b60405180910390a16106886106838363ffffffff1660016112c6565b6112f2565b915061069261142a565b6040518061010001604052808963ffffffff16815260200160008152602001600063ffffffff168152602001604051806020016040528060008152508152602001600160048111156106e057fe5b815260006020820181905260408083019190915263ffffffff8616606090920191909152600154905163064e9c2b60e31b81529192506001600160a01b031690633274e158906107369084908c90600401611acc565b600060405180830381600087803b15801561075057600080fd5b505af1158015610764573d6000803e3d6000fd5b505050505050505050505050565b61077a61131b565b600054604051631f81b67360e11b81526001600160a01b0390911690633f036ce6906107aa9085906004016118d3565b60606040518083038186803b1580156107c257600080fd5b505afa1580156107d6573d6000803e3d6000fd5b505050506040513d601f19601f820116820180604052506107fa91908101906115ad565b90505b919050565b6000809054906101000a90046001600160a01b03166001600160a01b0316639d2f83f06040518163ffffffff1660e01b8152600401602060405180830381600087803b15801561085157600080fd5b505af1158015610865573d6000803e3d6000fd5b505050506040513d601f19601f820116820180604052506108899190810190611591565b156108a65760405162461bcd60e51b815260040161022b90611a50565b6000546040516369d83ed160e01b81526001600160a01b03909116906369d83ed1906108d69033906004016118d3565b600060405180830381600087803b1580156108f057600080fd5b505af1158015610904573d6000803e3d6000fd5b5050600154604051633061e0ad60e21b8152600093506001600160a01b03909116915063c18782b49061093b908690600401611c52565b60206040518083038186803b15801561095357600080fd5b505afa158015610967573d6000803e3d6000fd5b505050506040513d601f19601f8201168201806040525061098b9190810190611602565b6040805160c0810182526001600160a01b03858116825282516020808201855260008083528185019283528486018190526060850181905260808501819052600160a0860181905263ffffffff8b811683526002845287832090891683528352959020845181546001600160a01b03191694169390931783559051805195965092949193610a1f939085019291019061133b565b50604082015160028083018054606086015163ffffffff908116600160201b0263ffffffff60201b199190951663ffffffff199092169190911716929092178083556080850151929160ff60401b1990911690600160401b908490811115610a8357fe5b021790555060a082015160028201805460ff60481b1916600160481b836001811115610aab57fe5b0217905550905050600080516020611ce183398151915283604051610ad09190611c52565b60405180910390a1610aec6106838263ffffffff1660016112c6565b9050610af661142a565b6040518061010001604052808563ffffffff16815260200160008152602001600063ffffffff16815260200160405180602001604052806000815250815260200160016004811115610b4457fe5b815260006020820181905260408083019190915263ffffffff8516606090920191909152600154905163064e9c2b60e31b81529192506001600160a01b031690633274e15890610b9a9084908890600401611acc565b600060405180830381600087803b158015610bb457600080fd5b505af1158015610bc8573d6000803e3d6000fd5b5050505050505050565b600260208181526000938452604080852082529284529282902080546001808301805486516101009382161593909302600019011694909404601f81018790048702820187019095528481526001600160a01b03909116949193909291830182828015610c805780601f10610c5557610100808354040283529160200191610c80565b820191906000526020600020905b815481529060010190602001808311610c6357829003601f168201915b5050506002909301549192505063ffffffff80821691600160201b81049091169060ff600160401b8204811691600160481b90041686565b610cc061146e565b610cc861131b565b610cd183610772565b9050610cdb61146e565b6001600160a01b0384166000908152600360205260408120905b836040015163ffffffff168163ffffffff161015610e665763ffffffff811660009081526020838152604091829020825160c08101845281546001600160a01b03168152600180830180548651600261010094831615949094026000190190911692909204601f8101869004860283018601909652858252919492938581019391929190830182828015610dca5780601f10610d9f57610100808354040283529160200191610dca565b820191906000526020600020905b815481529060010190602001808311610dad57829003601f168201915b505050918352505060028281015463ffffffff8082166020850152600160201b8204166040840152606090920191600160401b900460ff1690811115610e0c57fe5b6002811115610e1757fe5b81526020016002820160099054906101000a900460ff166001811115610e3957fe5b6001811115610e4457fe5b9052508363ffffffff831660088110610e5957fe5b6020020152600101610cf5565b5090949350505050565b63ffffffff82166000908152600260205260408082206001549151633061e0ad60e21b81529092916001600160a01b03169063c18782b490610eb6908790600401611c52565b60206040518083038186803b158015610ece57600080fd5b505afa158015610ee2573d6000803e3d6000fd5b505050506040513d601f19601f82011682018060405250610f069190810190611602565b905060005b8163ffffffff168163ffffffff161015610fb75763ffffffff81166000908152602084905260409020546001600160a01b0385811691161415610faf5763ffffffff81166000908152602084905260409081902060028101805460ff60401b1916600160401b17905590517f8498acb3700ac1ae1066377dba19a3dbf6bc6dee3ae55d3f230e4fd5e741af8690610fa59088908890611c63565b60405180910390a1505b600101610f0b565b5050505050565b610fc661149c565b610fce61149c565b63ffffffff84166000908152600260205260408120905b848163ffffffff16101561114c5763ffffffff811660009081526020838152604091829020825160c08101845281546001600160a01b03168152600180830180548651600261010094831615949094026000190190911692909204601f81018690048602830186019096528582529194929385810193919291908301828280156110b05780601f10611085576101008083540402835291602001916110b0565b820191906000526020600020905b81548152906001019060200180831161109357829003601f168201915b505050918352505060028281015463ffffffff8082166020850152600160201b8204166040840152606090920191600160401b900460ff16908111156110f257fe5b60028111156110fd57fe5b81526020016002820160099054906101000a900460ff16600181111561111f57fe5b600181111561112a57fe5b9052508363ffffffff83166010811061113f57fe5b6020020152600101610fe5565b50909150505b92915050565b60036020908152600092835260408084208252918352918190208054600180830180548551600261010094831615949094026000190190911692909204601f81018790048702830187019095528482526001600160a01b039092169492939092830182828015610c805780601f10610c5557610100808354040283529160200191610c80565b63ffffffff8281166000908152600260208181526040808420948616845293815283832080546001808301805488516101009382161593909302600019011695909504601f81018590048502820185019097528681526001600160a01b039091169560609594859490919083018282801561129a5780601f1061126f5761010080835404028352916020019161129a565b820191906000526020600020905b81548152906001019060200180831161127d57829003601f168201915b5050506002909301549195505063ffffffff8082169450600160201b9091041691505092959194509250565b6000828201838110156112eb5760405162461bcd60e51b815260040161022b90611a1b565b9392505050565b6000600160201b82106113175760405162461bcd60e51b815260040161022b90611a86565b5090565b604080516060810182526000808252602082018190529181019190915290565b828054600181600116156101000203166002900490600052602060002090601f016020900481019282601f1061137c57805160ff19168380011785556113a9565b828001600101855582156113a9579182015b828111156113a957825182559160200191906001019061138e565b506113179291506114ca565b828054600181600116156101000203166002900490600052602060002090601f016020900481019282601f106113ee57805485556113a9565b828001600101855582156113a957600052602060002091601f016020900482015b828111156113a957825482559160010191906001019061140f565b604080516101008101825260008082526020820181905291810182905260608082015290608082019081526000602082018190526040820181905260609091015290565b6040518061010001604052806008905b6114866114e7565b81526020019060019003908161147e5790505090565b6040518061020001604052806010905b6114b46114e7565b8152602001906001900390816114ac5790505090565b6114e491905b8082111561131757600081556001016114d0565b90565b6040805160c081018252600080825260606020830181905292820181905291810182905290608082019081526020016000905290565b80356001600160a01b038116811461115257600080fd5b803561115281611cce565b600060208284031215611550578081fd5b6112eb838361151d565b6000806040838503121561156c578081fd5b611576848461151d565b9150602083013561158681611cce565b809150509250929050565b6000602082840312156115a2578081fd5b81516112eb81611cc0565b6000606082840312156115be578081fd5b6115c86060611c82565b82516115d381611cc0565b815260208301516115e381611cc0565b602082015260408301516115f681611cce565b60408201529392505050565b600060208284031215611613578081fd5b81516112eb81611cce565b60008060408385031215611630578182fd5b823561163b81611cce565b915061164a846020850161151d565b90509250929050565b60008060008060808587031215611668578182fd5b843561167381611cce565b93506020858101356001600160401b038082111561168f578485fd5b81880189601f8201126116a0578586fd5b80359250818311156116b0578586fd5b6116c2601f8401601f19168501611c82565b915082825289848483010111156116d7578586fd5b82848201858401375090810190910183905292506116f88660408701611534565b91506117078660608701611534565b905092959194509250565b60008060408385031215611724578182fd5b823561172f81611cce565b946020939093013593505050565b6000806040838503121561174f578182fd5b823561157681611cce565b600060018060a01b038251168352602082015160c0602085015261178160c0850182611800565b6040840151915063ffffffff8083166040870152806060860151166060870152506117af6080850151611ca8565b608086015260a084015191506117c482611cb3565b60a094909401525090919050565b6001600160a01b03169052565b600381106117e957fe5b9052565b6117e981611cb3565b600581106117e957fe5b60008151808452815b8181101561182557602081850181015186830182015201611809565b818111156118365782602083870101525b50601f01601f19169290920160200192915050565b600081546001808216600081146118695760018114611887576118c0565b60028304607f16865260ff19831660208701526040860193506118c0565b600283048087528560005260208060002060005b838110156118b65781548a820184015290850190820161189b565b8901909101955050505b50505092915050565b63ffffffff169052565b6001600160a01b0391909116815260200190565b6001600160a01b038516815260806020820181905260009061190b90830186611800565b63ffffffff9485166040840152929093166060909101529392505050565b6001600160a01b038716815260c06020820181905260009061194d90830188611800565b63ffffffff878116604085015286166060840152905061196c84611ca8565b608083015261197a83611cb3565b8260a0830152979650505050505050565b6020808252600090610220830183820185845b60108110156119cd57601f198785030183526119bb84835161175a565b9350918401919084019060010161199e565b50919695505050505050565b6020808252600090610120830183820185845b60088110156119cd57601f19878503018352611a0984835161175a565b935091840191908401906001016119ec565b6020808252601b908201527a536166654d6174683a206164646974696f6e206f766572666c6f7760281b604082015260600190565b6020808252601c908201527b29bcb9ba32b69034b99034b71032b6b2b933b2b731bc9039ba37b81760211b604082015260600190565b60208082526026908201527f53616665436173743a2076616c756520646f65736e27742066697420696e203360408201526532206269747360d01b606082015260800190565b600060408252611ae06040830185516118c9565b602084015160608301526040840151611afc60808401826118c9565b5060608401516101008060a0850152611b19610140850183611800565b60808701519250611b2d60c08601846117f6565b60a08701519250611b4160e08601846117d2565b60c08701519250611b54828601846117d2565b60e08701519250611b696101208601846118c9565b92506112eb91505060208301846118c9565b600060608252611b976060830160018060a01b038754166117d2565b60c06080830152611baf61012083016001870161184b565b600286015463ffffffff611bc860a086018284166118c9565b611bda60c08601828460201c166118c9565b50611bee60e0850160ff8360401c166117df565b611c02610100850160ff8360481c166117ed565b509050611c1260208301856118c9565b611c1f60408301846117d2565b949350505050565b81511515815260208083015115159082015260409182015163ffffffff169181019190915260600190565b63ffffffff91909116815260200190565b63ffffffff9290921682526001600160a01b0316602082015260400190565b6040518181016001600160401b0381118282101715611ca057600080fd5b604052919050565b80600381106107fd57fe5b60028110611cbd57fe5b50565b8015158114611cbd57600080fd5b63ffffffff81168114611cbd57600080fdfee6391fd03f941519ec364c5bb85023284b131a59297606d04b2eb06980485ea3a2646970667358221220f8e3aa201de501b41dbdc3368bc2264652f6e60c40ecb4428f517738ca08daca64736f6c63430006020033",
  "source": "pragma solidity ^0.6.2;\npragma experimental ABIEncoderV2;\nstruct receiver {\n    bool exists;\n    bool approved;\n    uint32 requestCount;\n    //uint32 pageNo;\n}\n\ncontract Administration {\n    function systemPaused() public returns (bool) {}\n\n    function addReceiver(address receiverAddress) public {}\n\n    function getReceiver(address receiverAddress)\n        public\n        view\n        returns (receiver memory)\n    {}\n}\n\ncontract DonateAsset {\n    function getDonationRequestCount(uint32 donationId)\n        public\n        view\n        returns (uint32)\n    {}\n\n    function UpdateDonation(Donation memory donation, uint32 donationId)\n        public\n    {}\n}\n\nimport \"@openzeppelin/contracts/token/ERC721/ERC721.sol\";\nimport \"@openzeppelin/contracts/access/AccessControl.sol\";\nimport \"@openzeppelin/contracts/math/SafeMath.sol\";\nimport \"@openzeppelin/contracts/utils/SafeCast.sol\";\n\n/// @title A Asset donation smart contract\n/// @author Fatemeh Heidari Soureshjani\n/// @notice This contract facilitates donation of physical assets for specific periods of time between asset owners and receivers\n/// @dev time\nenum Status {Free, Requested, Donated, Inactive, Burned}\n\n    struct Asset {\n        string assetTitle;\n        string assetDescription;\n        uint32 availablityDate;\n        string location;\n        address owner;\n        string imageIPFSHash;\n    }\n\n    struct Donation {\n        uint32 donationId;\n        uint256 assetId;\n        uint32 availablityDate;\n        string location;\n        Status status;\n        address owner;\n        address recipient;\n        uint32 requestCount;\n    }\n\ncontract ReceiveAsset {\n    Administration ADM;\n    DonateAsset DA;\n    uint32 lastRequestId;\n\n    constructor(address _da, address _adm) public {\n        ADM = Administration(_adm);\n        DA = DonateAsset(_da);\n        lastRequestId = 0;\n    }\n\n    enum RequestStatus {Open, Approved, Rejected}\n    enum RequestType {Individual, Project}\n    struct Request {\n        address receiver;\n        string requestDescription;\n        uint32 requestDateFrom;\n        uint32 requestDateTo;\n        RequestStatus status;\n        RequestType requestType;\n    }\n    mapping(uint32 => mapping(uint32 => Request)) public assetRequestList;\n    mapping(address => mapping(uint32 => Request)) public addressRequestList;\n    modifier whenNotPaused() {\n        require(!ADM.systemPaused(), \"System is in emergency stop.\");\n        _;\n    }\n    event LogRequested(uint32 assetId);\n    event LogRequest(Request r, uint32 reCount, address receiver);\n    event LogRequestApproved(uint32 assetId, address recAddress);\n\n    /// @notice retrieves all request for a specific donation\n    /// @dev There must be better way than returing always an array of 16\n    /// @param assetId the unique asset id of donation\n    /// @return Request returns an array of type Request and length 16\n    function getDonationRequests(uint32 assetId, uint256 requestCount)\n        public\n        view\n        returns (Request[16] memory)\n    {\n        Request[16] memory requestArray;\n\n\n            mapping(uint32 => Request) storage requestMapping\n         = assetRequestList[assetId];\n        for (uint32 i = 0; i < requestCount; i++) {\n            requestArray[i] = requestMapping[i];\n        }\n        return requestArray;\n    }\n\n    /// @notice A receiver can register a request for a specific donation previousely added\n    /// @notice to list of donation by a donor\n    /// @dev date conflicts can be checked\n    /// @param donationId The unique id of donation\n    /// @param requestDescription The description entered by the receiver\n    /// @param requestDateFrom The starting date receiver needs this asset\n    /// @param requestDateTo The ending date receiver needs this asset\n    function requestAsset(\n        uint32 donationId,\n        string memory requestDescription,\n        uint32 requestDateFrom,\n        uint32 requestDateTo\n    ) public whenNotPaused {\n        ADM.addReceiver(msg.sender);\n        receiver memory r = ADM.getReceiver(msg.sender);\n        uint32 requestCount = DA.getDonationRequestCount(donationId); ///donationList[assetId];\n        //if (requestedItem.requestCount < maxNoOfReqsPerAsst) {\n        assetRequestList[donationId][requestCount] = Request({\n            receiver: msg.sender,\n            requestDescription: requestDescription,\n            requestDateFrom: requestDateFrom,\n            requestDateTo: requestDateTo,\n            status: RequestStatus.Open,\n            requestType: RequestType.Individual\n        });\n        Request storage req = assetRequestList[donationId][requestCount];\n        addressRequestList[msg.sender][r.requestCount - 1] = req;\n        emit LogRequested(donationId);\n        emit LogRequest(req, r.requestCount, msg.sender);\n        requestCount = SafeCast.toUint32(\n            SafeMath.add(uint256(requestCount), 1)\n        );\n        Donation memory donation = Donation({\n            donationId:donationId,\n            assetId: 0,\n            availablityDate: 0,\n            location: \"\",\n            status: Status.Requested,\n            owner: address(0),\n            recipient: address(0),\n            requestCount: requestCount\n        });\n        DA.UpdateDonation(donation,donationId);\n    }\n\n    /// @notice A Project can register a request for a specific donation previousely added\n    /// @notice to list of donation by a donor\n    /// @dev date conflicts can be checked\n    /// @param donationId The unique id of donation\n    /// @param projectAddress address of the project\n    function requestAsset(uint32 donationId, address projectAddress)\n        public\n        whenNotPaused\n    {\n        ADM.addReceiver(msg.sender);\n        uint32 requestCount = DA.getDonationRequestCount(donationId); ///donationList[assetId];\n        //if (requestedItem.requestCount < maxNoOfReqsPerAsst) {\n        assetRequestList[donationId][requestCount] = Request({\n            receiver: projectAddress,\n            requestDescription: \"\",\n            requestDateFrom: 0,\n            requestDateTo: 0,\n            status: RequestStatus.Open,\n            requestType: RequestType.Project\n        });\n        emit LogRequested(donationId);\n        requestCount = SafeCast.toUint32(\n            SafeMath.add(uint256(requestCount), 1)\n        );\n        Donation memory donation = Donation({\n            donationId:donationId,\n            assetId: 0,\n            availablityDate: 0,\n            location: \"\",\n            status: Status.Requested,\n            owner: address(0),\n            recipient: address(0),\n            requestCount: requestCount\n        });\n        DA.UpdateDonation(donation,donationId);\n    }\n\n    function getReceiver(address receiverAddress)\n        public\n        view\n        returns (receiver memory)\n    {\n        return ADM.getReceiver(receiverAddress);\n    }\n\n    function getRequest(uint32 assetId, uint32 requestId)\n        public\n        view\n        returns (\n            address receiver,\n            string memory requestDescription,\n            uint32 requestDateFrom,\n            uint32 requestDateTo\n        )\n    {\n        Request storage request = assetRequestList[assetId][requestId];\n        receiver = request.receiver;\n        requestDescription = request.requestDescription;\n        requestDateFrom = request.requestDateFrom;\n        requestDateTo = request.requestDateTo;\n        return (receiver, requestDescription, requestDateFrom, requestDateTo);\n    }\n\n    function approveRequest(uint32 assetId, address recipientAddress) public {\n\n            mapping(uint32 => Request) storage assetRequests\n         = assetRequestList[assetId];\n        uint32 requestCount = DA.getDonationRequestCount(assetId);\n        for (uint32 i = 0; i < requestCount; i++) {\n            if (assetRequests[i].receiver == recipientAddress) {\n                Request storage r = assetRequests[i];\n                r.status = RequestStatus.Approved;\n                emit LogRequestApproved(assetId, recipientAddress);\n            }\n        }\n    }\n\n    function getRequests(address receiverAddress)\n        public\n        view\n        returns (Request[8] memory)\n    {\n        receiver memory r = getReceiver(receiverAddress);\n        Request[8] memory requestList;\n\n            mapping(uint32 => Request) storage t\n         = addressRequestList[receiverAddress];\n        for (uint32 i = 0; i < r.requestCount; i++) {\n            requestList[i] = t[i];\n        }\n        return requestList;\n    }\n}\n",
  "sourcePath": "/home/fatemeh/Desktop/Consensys Course/assetdonation/AssetDonation/contracts/ReceiveAsset.sol",
  "compiler": {
    "name": "solc",
    "version": "0.6.2+commit.bacdbe57.Emscripten.clang"
  },
  "schemaVersion": "3.3.1",
  "updatedAt": "2020-12-16T22:44:59.018Z",
  "networkType": "ethereum",
  "devdoc": {
    "methods": {
      "getDonationRequests(uint32,uint256)": {
        "details": "There must be better way than returing always an array of 16",
        "params": {
          "assetId": "the unique asset id of donation"
        },
        "returns": {
          "_0": "Request returns an array of type Request and length 16"
        }
      },
      "requestAsset(uint32,address)": {
        "details": "date conflicts can be checked",
        "params": {
          "donationId": "The unique id of donation",
          "projectAddress": "address of the project"
        }
      },
      "requestAsset(uint32,string,uint32,uint32)": {
        "details": "date conflicts can be checked",
        "params": {
          "donationId": "The unique id of donation",
          "requestDateFrom": "The starting date receiver needs this asset",
          "requestDateTo": "The ending date receiver needs this asset",
          "requestDescription": "The description entered by the receiver"
        }
      }
    }
  },
  "userdoc": {
    "methods": {
      "getDonationRequests(uint32,uint256)": {
        "notice": "retrieves all request for a specific donation"
      },
      "requestAsset(uint32,address)": {
        "notice": "A Project can register a request for a specific donation previousely addedto list of donation by a donor"
      },
      "requestAsset(uint32,string,uint32,uint32)": {
        "notice": "A receiver can register a request for a specific donation previousely addedto list of donation by a donor"
      }
    }
  }
}