{
  "contractName": "NOAP",
  "abi": [
    {
      "inputs": [],
      "stateMutability": "nonpayable",
      "type": "constructor"
    },
    {
      "anonymous": false,
      "inputs": [
        {
          "indexed": true,
          "internalType": "address",
          "name": "owner",
          "type": "address"
        },
        {
          "indexed": true,
          "internalType": "address",
          "name": "approved",
          "type": "address"
        },
        {
          "indexed": true,
          "internalType": "uint256",
          "name": "tokenId",
          "type": "uint256"
        }
      ],
      "name": "Approval",
      "type": "event"
    },
    {
      "anonymous": false,
      "inputs": [
        {
          "indexed": true,
          "internalType": "address",
          "name": "owner",
          "type": "address"
        },
        {
          "indexed": true,
          "internalType": "address",
          "name": "operator",
          "type": "address"
        },
        {
          "indexed": false,
          "internalType": "bool",
          "name": "approved",
          "type": "bool"
        }
      ],
      "name": "ApprovalForAll",
      "type": "event"
    },
    {
      "anonymous": false,
      "inputs": [
        {
          "indexed": true,
          "internalType": "address",
          "name": "from",
          "type": "address"
        },
        {
          "indexed": true,
          "internalType": "address",
          "name": "to",
          "type": "address"
        },
        {
          "indexed": true,
          "internalType": "uint256",
          "name": "tokenId",
          "type": "uint256"
        }
      ],
      "name": "Transfer",
      "type": "event"
    },
    {
      "inputs": [
        {
          "internalType": "address",
          "name": "to",
          "type": "address"
        },
        {
          "internalType": "uint256",
          "name": "tokenId",
          "type": "uint256"
        }
      ],
      "name": "approve",
      "outputs": [],
      "stateMutability": "nonpayable",
      "type": "function"
    },
    {
      "inputs": [
        {
          "internalType": "address",
          "name": "owner",
          "type": "address"
        }
      ],
      "name": "balanceOf",
      "outputs": [
        {
          "internalType": "uint256",
          "name": "",
          "type": "uint256"
        }
      ],
      "stateMutability": "view",
      "type": "function",
      "constant": true
    },
    {
      "inputs": [
        {
          "internalType": "uint256",
          "name": "tokenId",
          "type": "uint256"
        }
      ],
      "name": "getApproved",
      "outputs": [
        {
          "internalType": "address",
          "name": "",
          "type": "address"
        }
      ],
      "stateMutability": "view",
      "type": "function",
      "constant": true
    },
    {
      "inputs": [
        {
          "internalType": "address",
          "name": "owner",
          "type": "address"
        },
        {
          "internalType": "address",
          "name": "operator",
          "type": "address"
        }
      ],
      "name": "isApprovedForAll",
      "outputs": [
        {
          "internalType": "bool",
          "name": "",
          "type": "bool"
        }
      ],
      "stateMutability": "view",
      "type": "function",
      "constant": true
    },
    {
      "inputs": [
        {
          "internalType": "address",
          "name": "forwarder",
          "type": "address"
        }
      ],
      "name": "isTrustedForwarder",
      "outputs": [
        {
          "internalType": "bool",
          "name": "",
          "type": "bool"
        }
      ],
      "stateMutability": "view",
      "type": "function",
      "constant": true
    },
    {
      "inputs": [],
      "name": "name",
      "outputs": [
        {
          "internalType": "string",
          "name": "",
          "type": "string"
        }
      ],
      "stateMutability": "view",
      "type": "function",
      "constant": true
    },
    {
      "inputs": [
        {
          "internalType": "uint256",
          "name": "tokenId",
          "type": "uint256"
        }
      ],
      "name": "ownerOf",
      "outputs": [
        {
          "internalType": "address",
          "name": "",
          "type": "address"
        }
      ],
      "stateMutability": "view",
      "type": "function",
      "constant": true
    },
    {
      "inputs": [
        {
          "internalType": "address",
          "name": "from",
          "type": "address"
        },
        {
          "internalType": "address",
          "name": "to",
          "type": "address"
        },
        {
          "internalType": "uint256",
          "name": "tokenId",
          "type": "uint256"
        }
      ],
      "name": "safeTransferFrom",
      "outputs": [],
      "stateMutability": "nonpayable",
      "type": "function"
    },
    {
      "inputs": [
        {
          "internalType": "address",
          "name": "from",
          "type": "address"
        },
        {
          "internalType": "address",
          "name": "to",
          "type": "address"
        },
        {
          "internalType": "uint256",
          "name": "tokenId",
          "type": "uint256"
        },
        {
          "internalType": "bytes",
          "name": "data",
          "type": "bytes"
        }
      ],
      "name": "safeTransferFrom",
      "outputs": [],
      "stateMutability": "nonpayable",
      "type": "function"
    },
    {
      "inputs": [
        {
          "internalType": "address",
          "name": "operator",
          "type": "address"
        },
        {
          "internalType": "bool",
          "name": "approved",
          "type": "bool"
        }
      ],
      "name": "setApprovalForAll",
      "outputs": [],
      "stateMutability": "nonpayable",
      "type": "function"
    },
    {
      "inputs": [],
      "name": "symbol",
      "outputs": [
        {
          "internalType": "string",
          "name": "",
          "type": "string"
        }
      ],
      "stateMutability": "view",
      "type": "function",
      "constant": true
    },
    {
      "inputs": [
        {
          "internalType": "address",
          "name": "from",
          "type": "address"
        },
        {
          "internalType": "address",
          "name": "to",
          "type": "address"
        },
        {
          "internalType": "uint256",
          "name": "tokenId",
          "type": "uint256"
        }
      ],
      "name": "transferFrom",
      "outputs": [],
      "stateMutability": "nonpayable",
      "type": "function"
    },
    {
      "inputs": [],
      "name": "trustedForwarder",
      "outputs": [
        {
          "internalType": "address",
          "name": "",
          "type": "address"
        }
      ],
      "stateMutability": "view",
      "type": "function",
      "constant": true
    },
    {
      "inputs": [],
      "name": "versionRecipient",
      "outputs": [
        {
          "internalType": "string",
          "name": "",
          "type": "string"
        }
      ],
      "stateMutability": "view",
      "type": "function",
      "constant": true
    },
    {
      "inputs": [
        {
          "internalType": "bytes4",
          "name": "interfaceId",
          "type": "bytes4"
        }
      ],
      "name": "supportsInterface",
      "outputs": [
        {
          "internalType": "bool",
          "name": "",
          "type": "bool"
        }
      ],
      "stateMutability": "view",
      "type": "function",
      "constant": true
    },
    {
      "inputs": [
        {
          "internalType": "uint256",
          "name": "eventID",
          "type": "uint256"
        },
        {
          "internalType": "address",
          "name": "recipient",
          "type": "address"
        },
        {
          "internalType": "uint256",
          "name": "requestID",
          "type": "uint256"
        }
      ],
      "name": "mint",
      "outputs": [],
      "stateMutability": "nonpayable",
      "type": "function"
    },
    {
      "inputs": [
        {
          "internalType": "uint256",
          "name": "eventID",
          "type": "uint256"
        },
        {
          "internalType": "bytes[]",
          "name": "recipients",
          "type": "bytes[]"
        },
        {
          "internalType": "uint256[]",
          "name": "requestIds",
          "type": "uint256[]"
        }
      ],
      "name": "mintBatch",
      "outputs": [],
      "stateMutability": "nonpayable",
      "type": "function"
    },
    {
      "inputs": [
        {
          "internalType": "string",
          "name": "tokenURI",
          "type": "string"
        },
        {
          "internalType": "string",
          "name": "description",
          "type": "string"
        },
        {
          "internalType": "string",
          "name": "name",
          "type": "string"
        },
        {
          "internalType": "string",
          "name": "country",
          "type": "string"
        },
        {
          "internalType": "string",
          "name": "city",
          "type": "string"
        },
        {
          "internalType": "bool",
          "name": "online",
          "type": "bool"
        },
        {
          "internalType": "string",
          "name": "date",
          "type": "string"
        },
        {
          "internalType": "string",
          "name": "creatorEmail",
          "type": "string"
        }
      ],
      "name": "createEvent",
      "outputs": [
        {
          "internalType": "uint256",
          "name": "",
          "type": "uint256"
        }
      ],
      "stateMutability": "nonpayable",
      "type": "function"
    },
    {
      "inputs": [
        {
          "internalType": "uint256",
          "name": "eventID",
          "type": "uint256"
        },
        {
          "internalType": "address",
          "name": "attender",
          "type": "address"
        },
        {
          "internalType": "string",
          "name": "date",
          "type": "string"
        }
      ],
      "name": "createRequest",
      "outputs": [],
      "stateMutability": "nonpayable",
      "type": "function"
    },
    {
      "inputs": [
        {
          "internalType": "uint256",
          "name": "eventID",
          "type": "uint256"
        }
      ],
      "name": "endEvent",
      "outputs": [],
      "stateMutability": "nonpayable",
      "type": "function"
    },
    {
      "inputs": [
        {
          "internalType": "uint256",
          "name": "eventID",
          "type": "uint256"
        },
        {
          "internalType": "address",
          "name": "minter",
          "type": "address"
        }
      ],
      "name": "addEventMinter",
      "outputs": [],
      "stateMutability": "nonpayable",
      "type": "function"
    },
    {
      "inputs": [
        {
          "internalType": "uint256",
          "name": "eventID",
          "type": "uint256"
        }
      ],
      "name": "renounceEventMinter",
      "outputs": [],
      "stateMutability": "nonpayable",
      "type": "function"
    },
    {
      "inputs": [
        {
          "internalType": "uint256",
          "name": "eventID",
          "type": "uint256"
        }
      ],
      "name": "getEventMinterTotal",
      "outputs": [
        {
          "internalType": "uint256",
          "name": "",
          "type": "uint256"
        }
      ],
      "stateMutability": "view",
      "type": "function",
      "constant": true
    },
    {
      "inputs": [
        {
          "internalType": "uint256",
          "name": "requestId",
          "type": "uint256"
        }
      ],
      "name": "getRequestUser",
      "outputs": [
        {
          "internalType": "address",
          "name": "",
          "type": "address"
        }
      ],
      "stateMutability": "view",
      "type": "function",
      "constant": true
    },
    {
      "inputs": [
        {
          "internalType": "uint256",
          "name": "requestId",
          "type": "uint256"
        }
      ],
      "name": "getRequestDate",
      "outputs": [
        {
          "internalType": "string",
          "name": "",
          "type": "string"
        }
      ],
      "stateMutability": "view",
      "type": "function",
      "constant": true
    },
    {
      "inputs": [
        {
          "internalType": "uint256",
          "name": "requestId",
          "type": "uint256"
        }
      ],
      "name": "getRequestIsMinted",
      "outputs": [
        {
          "internalType": "bool",
          "name": "",
          "type": "bool"
        }
      ],
      "stateMutability": "view",
      "type": "function",
      "constant": true
    },
    {
      "inputs": [
        {
          "internalType": "uint256",
          "name": "eventID",
          "type": "uint256"
        }
      ],
      "name": "getEventDescription",
      "outputs": [
        {
          "internalType": "string",
          "name": "",
          "type": "string"
        }
      ],
      "stateMutability": "view",
      "type": "function",
      "constant": true
    },
    {
      "inputs": [
        {
          "internalType": "uint256",
          "name": "eventID",
          "type": "uint256"
        }
      ],
      "name": "getEventName",
      "outputs": [
        {
          "internalType": "string",
          "name": "",
          "type": "string"
        }
      ],
      "stateMutability": "view",
      "type": "function",
      "constant": true
    },
    {
      "inputs": [
        {
          "internalType": "uint256",
          "name": "eventID",
          "type": "uint256"
        }
      ],
      "name": "getEventCountry",
      "outputs": [
        {
          "internalType": "string",
          "name": "",
          "type": "string"
        }
      ],
      "stateMutability": "view",
      "type": "function",
      "constant": true
    },
    {
      "inputs": [
        {
          "internalType": "uint256",
          "name": "eventID",
          "type": "uint256"
        }
      ],
      "name": "getEventCity",
      "outputs": [
        {
          "internalType": "string",
          "name": "",
          "type": "string"
        }
      ],
      "stateMutability": "view",
      "type": "function",
      "constant": true
    },
    {
      "inputs": [
        {
          "internalType": "uint256",
          "name": "eventID",
          "type": "uint256"
        }
      ],
      "name": "getCreatorEmail",
      "outputs": [
        {
          "internalType": "string",
          "name": "",
          "type": "string"
        }
      ],
      "stateMutability": "view",
      "type": "function",
      "constant": true
    },
    {
      "inputs": [
        {
          "internalType": "uint256",
          "name": "eventID",
          "type": "uint256"
        },
        {
          "internalType": "uint256",
          "name": "index",
          "type": "uint256"
        }
      ],
      "name": "getEventMinterAt",
      "outputs": [
        {
          "internalType": "address",
          "name": "",
          "type": "address"
        }
      ],
      "stateMutability": "view",
      "type": "function",
      "constant": true
    },
    {
      "inputs": [
        {
          "internalType": "uint256",
          "name": "eventID",
          "type": "uint256"
        }
      ],
      "name": "getEventDate",
      "outputs": [
        {
          "internalType": "string",
          "name": "",
          "type": "string"
        }
      ],
      "stateMutability": "view",
      "type": "function",
      "constant": true
    },
    {
      "inputs": [
        {
          "internalType": "uint256",
          "name": "eventID",
          "type": "uint256"
        }
      ],
      "name": "getEventIsOnline",
      "outputs": [
        {
          "internalType": "bool",
          "name": "",
          "type": "bool"
        }
      ],
      "stateMutability": "view",
      "type": "function",
      "constant": true
    },
    {
      "inputs": [
        {
          "internalType": "uint256",
          "name": "eventID",
          "type": "uint256"
        },
        {
          "internalType": "address",
          "name": "addr",
          "type": "address"
        }
      ],
      "name": "getEventIsMinter",
      "outputs": [
        {
          "internalType": "bool",
          "name": "",
          "type": "bool"
        }
      ],
      "stateMutability": "view",
      "type": "function",
      "constant": true
    },
    {
      "inputs": [
        {
          "internalType": "uint256",
          "name": "eventID",
          "type": "uint256"
        }
      ],
      "name": "getEventTokenSupply",
      "outputs": [
        {
          "internalType": "uint256",
          "name": "",
          "type": "uint256"
        }
      ],
      "stateMutability": "view",
      "type": "function",
      "constant": true
    },
    {
      "inputs": [
        {
          "internalType": "uint256",
          "name": "eventID",
          "type": "uint256"
        }
      ],
      "name": "getEventTokenURI",
      "outputs": [
        {
          "internalType": "string",
          "name": "",
          "type": "string"
        }
      ],
      "stateMutability": "view",
      "type": "function",
      "constant": true
    },
    {
      "inputs": [
        {
          "internalType": "uint256",
          "name": "eventID",
          "type": "uint256"
        },
        {
          "internalType": "uint256",
          "name": "index",
          "type": "uint256"
        }
      ],
      "name": "getEventTokenIDAt",
      "outputs": [
        {
          "internalType": "uint256",
          "name": "",
          "type": "uint256"
        }
      ],
      "stateMutability": "view",
      "type": "function",
      "constant": true
    },
    {
      "inputs": [
        {
          "internalType": "uint256",
          "name": "eventID",
          "type": "uint256"
        }
      ],
      "name": "getEventTokenIDs",
      "outputs": [
        {
          "internalType": "uint256[]",
          "name": "",
          "type": "uint256[]"
        }
      ],
      "stateMutability": "view",
      "type": "function",
      "constant": true
    },
    {
      "inputs": [
        {
          "internalType": "uint256",
          "name": "eventID",
          "type": "uint256"
        }
      ],
      "name": "getEventTokenHolders",
      "outputs": [
        {
          "internalType": "address[]",
          "name": "",
          "type": "address[]"
        }
      ],
      "stateMutability": "view",
      "type": "function",
      "constant": true
    },
    {
      "inputs": [
        {
          "internalType": "uint256",
          "name": "eventID",
          "type": "uint256"
        }
      ],
      "name": "getEventEnded",
      "outputs": [
        {
          "internalType": "bool",
          "name": "",
          "type": "bool"
        }
      ],
      "stateMutability": "view",
      "type": "function",
      "constant": true
    },
    {
      "inputs": [
        {
          "internalType": "uint256",
          "name": "eventID",
          "type": "uint256"
        }
      ],
      "name": "getEventRoyaltyAddress",
      "outputs": [
        {
          "internalType": "address",
          "name": "",
          "type": "address"
        }
      ],
      "stateMutability": "view",
      "type": "function",
      "constant": true
    },
    {
      "inputs": [],
      "name": "getLastTokenID",
      "outputs": [
        {
          "internalType": "uint256",
          "name": "",
          "type": "uint256"
        }
      ],
      "stateMutability": "view",
      "type": "function",
      "constant": true
    },
    {
      "inputs": [],
      "name": "getLastEventID",
      "outputs": [
        {
          "internalType": "uint256",
          "name": "",
          "type": "uint256"
        }
      ],
      "stateMutability": "view",
      "type": "function",
      "constant": true
    },
    {
      "inputs": [
        {
          "internalType": "address",
          "name": "user",
          "type": "address"
        }
      ],
      "name": "getUserEventTotal",
      "outputs": [
        {
          "internalType": "uint256",
          "name": "",
          "type": "uint256"
        }
      ],
      "stateMutability": "view",
      "type": "function",
      "constant": true
    },
    {
      "inputs": [
        {
          "internalType": "uint256",
          "name": "eventID",
          "type": "uint256"
        }
      ],
      "name": "getRequestsLength",
      "outputs": [
        {
          "internalType": "uint256",
          "name": "",
          "type": "uint256"
        }
      ],
      "stateMutability": "view",
      "type": "function",
      "constant": true
    },
    {
      "inputs": [
        {
          "internalType": "address",
          "name": "user",
          "type": "address"
        },
        {
          "internalType": "uint256",
          "name": "index",
          "type": "uint256"
        }
      ],
      "name": "getUserEventAt",
      "outputs": [
        {
          "internalType": "uint256",
          "name": "",
          "type": "uint256"
        }
      ],
      "stateMutability": "view",
      "type": "function",
      "constant": true
    },
    {
      "inputs": [
        {
          "internalType": "uint256",
          "name": "eventID",
          "type": "uint256"
        },
        {
          "internalType": "uint256",
          "name": "index",
          "type": "uint256"
        }
      ],
      "name": "getEventRequestAt",
      "outputs": [
        {
          "internalType": "uint256",
          "name": "",
          "type": "uint256"
        }
      ],
      "stateMutability": "view",
      "type": "function",
      "constant": true
    },
    {
      "inputs": [
        {
          "internalType": "address",
          "name": "user",
          "type": "address"
        }
      ],
      "name": "getUserEventIDs",
      "outputs": [
        {
          "internalType": "uint256[]",
          "name": "",
          "type": "uint256[]"
        }
      ],
      "stateMutability": "view",
      "type": "function",
      "constant": true
    },
    {
      "inputs": [
        {
          "internalType": "uint256",
          "name": "eventID",
          "type": "uint256"
        }
      ],
      "name": "getEventRequestIDs",
      "outputs": [
        {
          "internalType": "uint256[]",
          "name": "",
          "type": "uint256[]"
        }
      ],
      "stateMutability": "view",
      "type": "function",
      "constant": true
    },
    {
      "inputs": [
        {
          "internalType": "uint256",
          "name": "tokenID",
          "type": "uint256"
        },
        {
          "internalType": "uint256",
          "name": "salePrice",
          "type": "uint256"
        }
      ],
      "name": "royaltyInfo",
      "outputs": [
        {
          "internalType": "address",
          "name": "",
          "type": "address"
        },
        {
          "internalType": "uint256",
          "name": "",
          "type": "uint256"
        }
      ],
      "stateMutability": "view",
      "type": "function",
      "constant": true
    },
    {
      "inputs": [
        {
          "internalType": "uint256",
          "name": "eventID",
          "type": "uint256"
        },
        {
          "internalType": "address",
          "name": "receiver",
          "type": "address"
        }
      ],
      "name": "changeRoyaltyReceiver",
      "outputs": [],
      "stateMutability": "nonpayable",
      "type": "function"
    },
    {
      "inputs": [
        {
          "internalType": "uint256",
          "name": "tokenID",
          "type": "uint256"
        }
      ],
      "name": "tokenURI",
      "outputs": [
        {
          "internalType": "string",
          "name": "",
          "type": "string"
        }
      ],
      "stateMutability": "view",
      "type": "function",
      "constant": true
    },
    {
      "inputs": [
        {
          "internalType": "uint256",
          "name": "tokenID",
          "type": "uint256"
        }
      ],
      "name": "burn",
      "outputs": [],
      "stateMutability": "nonpayable",
      "type": "function"
    },
    {
      "inputs": [
        {
          "internalType": "address",
          "name": "spender",
          "type": "address"
        },
        {
          "internalType": "uint256",
          "name": "tokenID",
          "type": "uint256"
        }
      ],
      "name": "isApprovedOrOwner",
      "outputs": [
        {
          "internalType": "bool",
          "name": "",
          "type": "bool"
        }
      ],
      "stateMutability": "view",
      "type": "function",
      "constant": true
    },
    {
      "inputs": [
        {
          "internalType": "uint256[]",
          "name": "tokenIDs",
          "type": "uint256[]"
        }
      ],
      "name": "burnBatch",
      "outputs": [],
      "stateMutability": "nonpayable",
      "type": "function"
    },
    {
      "inputs": [
        {
          "internalType": "address[]",
          "name": "tos",
          "type": "address[]"
        },
        {
          "internalType": "uint256[]",
          "name": "tokenIDs",
          "type": "uint256[]"
        }
      ],
      "name": "approveBatch",
      "outputs": [],
      "stateMutability": "nonpayable",
      "type": "function"
    },
    {
      "inputs": [
        {
          "internalType": "address[]",
          "name": "froms",
          "type": "address[]"
        },
        {
          "internalType": "address[]",
          "name": "tos",
          "type": "address[]"
        },
        {
          "internalType": "uint256[]",
          "name": "tokenIDs",
          "type": "uint256[]"
        }
      ],
      "name": "transferFromBatch",
      "outputs": [],
      "stateMutability": "nonpayable",
      "type": "function"
    },
    {
      "inputs": [
        {
          "internalType": "address[]",
          "name": "froms",
          "type": "address[]"
        },
        {
          "internalType": "address[]",
          "name": "tos",
          "type": "address[]"
        },
        {
          "internalType": "uint256[]",
          "name": "tokenIDs",
          "type": "uint256[]"
        }
      ],
      "name": "safeTransferFromBatch",
      "outputs": [],
      "stateMutability": "nonpayable",
      "type": "function"
    },
    {
      "inputs": [
        {
          "internalType": "address[]",
          "name": "froms",
          "type": "address[]"
        },
        {
          "internalType": "address[]",
          "name": "tos",
          "type": "address[]"
        },
        {
          "internalType": "uint256[]",
          "name": "tokenIDs",
          "type": "uint256[]"
        },
        {
          "internalType": "bytes[]",
          "name": "datas",
          "type": "bytes[]"
        }
      ],
      "name": "safeTransferFromWithDataBatch",
      "outputs": [],
      "stateMutability": "nonpayable",
      "type": "function"
    }
  ],
  "bytecode": "0x60806040526040518060400160405280600181526020017f3100000000000000000000000000000000000000000000000000000000000000815250601190816200004a9190620004c3565b503480156200005857600080fd5b506040518060400160405280600581526020017f4e4f4150730000000000000000000000000000000000000000000000000000008152506040518060400160405280600481526020017f4e4f4150000000000000000000000000000000000000000000000000000000008152508160019081620000d69190620004c3565b508060029081620000e89190620004c3565b50505062000103632a55205a60e01b6200012e60201b60201c565b620001287386c80a8aa58e0a4fa09a69624c31ab2a6cad56b86200020560201b60201c565b6200062d565b63ffffffff60e01b817bffffffffffffffffffffffffffffffffffffffffffffffffffffffff19160362000199576040517f08c379a000000000000000000000000000000000000000000000000000000000815260040162000190906200060b565b60405180910390fd5b6001600080837bffffffffffffffffffffffffffffffffffffffffffffffffffffffff19167bffffffffffffffffffffffffffffffffffffffffffffffffffffffff1916815260200190815260200160002060006101000a81548160ff02191690831515021790555050565b80600760006101000a81548173ffffffffffffffffffffffffffffffffffffffff021916908373ffffffffffffffffffffffffffffffffffffffff16021790555050565b600081519050919050565b7f4e487b7100000000000000000000000000000000000000000000000000000000600052604160045260246000fd5b7f4e487b7100000000000000000000000000000000000000000000000000000000600052602260045260246000fd5b60006002820490506001821680620002cb57607f821691505b602082108103620002e157620002e062000283565b5b50919050565b60008190508160005260206000209050919050565b60006020601f8301049050919050565b600082821b905092915050565b6000600883026200034b7fffffffffffffffffffffffffffffffffffffffffffffffffffffffffffffffff826200030c565b6200035786836200030c565b95508019841693508086168417925050509392505050565b6000819050919050565b6000819050919050565b6000620003a46200039e62000398846200036f565b62000379565b6200036f565b9050919050565b6000819050919050565b620003c08362000383565b620003d8620003cf82620003ab565b84845462000319565b825550505050565b600090565b620003ef620003e0565b620003fc818484620003b5565b505050565b5b81811015620004245762000418600082620003e5565b60018101905062000402565b5050565b601f82111562000473576200043d81620002e7565b6200044884620002fc565b8101602085101562000458578190505b620004706200046785620002fc565b83018262000401565b50505b505050565b600082821c905092915050565b6000620004986000198460080262000478565b1980831691505092915050565b6000620004b3838362000485565b9150826002028217905092915050565b620004ce8262000249565b67ffffffffffffffff811115620004ea57620004e962000254565b5b620004f68254620002b2565b6200050382828562000428565b600060209050601f8311600181146200053b576000841562000526578287015190505b620005328582620004a5565b865550620005a2565b601f1984166200054b86620002e7565b60005b8281101562000575578489015182556001820191506020850194506020810190506200054e565b8683101562000595578489015162000591601f89168262000485565b8355505b6001600288020188555050505b505050505050565b600082825260208201905092915050565b7f4552433136353a20696e76616c696420696e7465726661636520696400000000600082015250565b6000620005f3601c83620005aa565b91506200060082620005bb565b602082019050919050565b600060208201905081810360008301526200062681620005e4565b9050919050565b615b2f806200063d6000396000f3fe608060405234801561001057600080fd5b50600436106103a45760003560e01c806386fdbe70116101e9578063c5c715e41161010f578063e4623c1b116100ad578063f572002f1161007c578063f572002f14610c6a578063fc05a80e14610c9a578063fe2c7bbc14610cca578063fed3d31a14610cfa576103a4565b8063e4623c1b14610bbe578063e853888914610bda578063e985e9c514610c0a578063eac8d46314610c3a576103a4565b8063cfdc65cf116100e9578063cfdc65cf14610afe578063d437a1a714610b2e578063d97dc47d14610b5e578063dd30cf3914610b8e576103a4565b8063c5c715e414610a82578063c87b56dd14610a9e578063cee2013c14610ace576103a4565b8063a22cb46511610187578063b8f4943611610156578063b8f49436146109fe578063ba1b7e7614610a1a578063c3ca81a914610a36578063c4c9e26814610a52576103a4565b8063a22cb4651461097a578063a52676bf14610996578063b88d4fde146109c6578063b8dcb01f146109e2576103a4565b806393d7154a116101c357806393d7154a146108e057806395d89b41146109105780639cd3cad61461092e5780639d0e336a1461094a576103a4565b806386fdbe7014610850578063880c0cf21461088057806390d190ae146108b0576103a4565b806342842e0e116102ce578063572b6c051161026c57806370a082311161023b57806370a08231146107b65780637da0a877146107e65780637fa29d8714610804578063836a104014610834576103a4565b8063572b6c051461071c5780635b82c53f1461074c5780635da040ef146107685780636352211e14610786576103a4565b80634852a4c8116102a85780634852a4c81461066e578063486ff0cd1461069e5780634945fcc7146106bc578063545f1043146106ec576103a4565b806342842e0e1461060657806342966c6814610622578063430c20811461063e576103a4565b80630b4b67d6116103465780632a4ecbd3116103155780632a4ecbd3146105595780632a55205a146105895780632c05c7dd146105ba578063330a347b146105ea576103a4565b80630b4b67d6146104bf5780630e094137146104ef5780631746a2b61461050d57806323b872dd1461053d576103a4565b8063081812fc11610382578063081812fc1461041357806308d59cda14610443578063095ea7b31461047357806309db6aaf1461048f576103a4565b806301ffc9a7146103a957806302c37ddc146103d957806306fdde03146103f5575b600080fd5b6103c360048036038101906103be9190613d9a565b610d16565b6040516103d09190613de2565b60405180910390f35b6103f360048036038101906103ee9190613e33565b610d80565b005b6103fd610e1b565b60405161040a9190613ef0565b60405180910390f35b61042d60048036038101906104289190613e33565b610ead565b60405161043a9190613f53565b60405180910390f35b61045d60048036038101906104589190613e33565b610ef3565b60405161046a919061402c565b60405180910390f35b61048d6004803603810190610488919061407a565b610fa1565b005b6104a960048036038101906104a491906140ba565b6110b8565b6040516104b69190614109565b60405180910390f35b6104d960048036038101906104d49190613e33565b6110ea565b6040516104e69190614109565b60405180910390f35b6104f761110e565b6040516105049190614109565b60405180910390f35b61052760048036038101906105229190613e33565b611118565b60405161053491906141e2565b60405180910390f35b61055760048036038101906105529190614204565b6111fd565b005b610573600480360381019061056e9190613e33565b61125d565b6040516105809190613ef0565b60405180910390f35b6105a3600480360381019061059e91906140ba565b611305565b6040516105b1929190614257565b60405180910390f35b6105d460048036038101906105cf91906140ba565b6113b2565b6040516105e19190614109565b60405180910390f35b61060460048036038101906105ff9190613e33565b6113e1565b005b610620600480360381019061061b9190614204565b611422565b005b61063c60048036038101906106379190613e33565b611442565b005b6106586004803603810190610653919061407a565b61148a565b6040516106659190613de2565b60405180910390f35b610688600480360381019061068391906140ba565b61149e565b6040516106959190613f53565b60405180910390f35b6106a66114d0565b6040516106b39190613ef0565b60405180910390f35b6106d660048036038101906106d19190613e33565b61155e565b6040516106e39190613ef0565b60405180910390f35b61070660048036038101906107019190613e33565b611606565b6040516107139190613ef0565b60405180910390f35b61073660048036038101906107319190614280565b6116ae565b6040516107439190613de2565b60405180910390f35b610766600480360381019061076191906142ad565b611708565b005b610770611770565b60405161077d9190614109565b60405180910390f35b6107a0600480360381019061079b9190613e33565b61177a565b6040516107ad9190613f53565b60405180910390f35b6107d060048036038101906107cb9190614280565b61182b565b6040516107dd9190614109565b60405180910390f35b6107ee6118e2565b6040516107fb9190613f53565b60405180910390f35b61081e60048036038101906108199190613e33565b61190c565b60405161082b919061402c565b60405180910390f35b61084e600480360381019061084991906142ed565b6119bb565b005b61086a60048036038101906108659190613e33565b611a6c565b6040516108779190613ef0565b60405180910390f35b61089a60048036038101906108959190613e33565b611b14565b6040516108a79190613ef0565b60405180910390f35b6108ca60048036038101906108c59190613e33565b611bbc565b6040516108d79190613de2565b60405180910390f35b6108fa60048036038101906108f59190613e33565b611be9565b6040516109079190613ef0565b60405180910390f35b610918611c91565b6040516109259190613ef0565b60405180910390f35b610948600480360381019061094391906142ad565b611d23565b005b610964600480360381019061095f919061407a565b611db1565b6040516109719190614109565b60405180910390f35b610994600480360381019061098f919061436c565b611e0c565b005b6109b060048036038101906109ab9190614280565b611e22565b6040516109bd919061402c565b60405180910390f35b6109e060048036038101906109db91906144e1565b611ed0565b005b6109fc60048036038101906109f791906146ef565b611f32565b005b610a186004803603810190610a139190614837565b61202b565b005b610a346004803603810190610a2f91906146ef565b61219d565b005b610a506004803603810190610a4b9190614987565b612286565b005b610a6c6004803603810190610a679190613e33565b612424565b604051610a799190613ef0565b60405180910390f35b610a9c6004803603810190610a979190614a12565b6124cc565b005b610ab86004803603810190610ab39190613e33565b61258c565b604051610ac59190613ef0565b60405180910390f35b610ae86004803603810190610ae39190613e33565b61268f565b604051610af59190614109565b60405180910390f35b610b186004803603810190610b139190613e33565b6126b6565b604051610b259190613de2565b60405180910390f35b610b486004803603810190610b439190613e33565b6126e3565b604051610b559190613de2565b60405180910390f35b610b786004803603810190610b7391906142ad565b612710565b604051610b859190613de2565b60405180910390f35b610ba86004803603810190610ba39190613e33565b612742565b604051610bb59190613f53565b60405180910390f35b610bd86004803603810190610bd39190614a8a565b612782565b005b610bf46004803603810190610bef9190613e33565b6127c6565b604051610c019190613f53565b60405180910390f35b610c246004803603810190610c1f9190614ad3565b612806565b604051610c319190613de2565b60405180910390f35b610c546004803603810190610c4f9190614b13565b61289a565b604051610c619190614109565b60405180910390f35b610c846004803603810190610c7f9190613e33565b6129a8565b604051610c919190614109565b60405180910390f35b610cb46004803603810190610caf9190614280565b6129cf565b604051610cc19190614109565b60405180910390f35b610ce46004803603810190610cdf9190613e33565b612a1f565b604051610cf19190613ef0565b60405180910390f35b610d146004803603810190610d0f9190614c8d565b612ac7565b005b60007f01ffc9a7000000000000000000000000000000000000000000000000000000007bffffffffffffffffffffffffffffffffffffffffffffffffffffffff1916827bffffffffffffffffffffffffffffffffffffffffffffffffffffffff1916149050919050565b6000600b60008381526020019081526020016000209050610da081612bd9565b610dbd610dab612c38565b82600b01612c4790919063ffffffff16565b50610e168260086000610dce612c38565b73ffffffffffffffffffffffffffffffffffffffff1673ffffffffffffffffffffffffffffffffffffffff168152602001908152602001600020612c7790919063ffffffff16565b505050565b606060018054610e2a90614d93565b80601f0160208091040260200160405190810160405280929190818152602001828054610e5690614d93565b8015610ea35780601f10610e7857610100808354040283529160200191610ea3565b820191906000526020600020905b815481529060010190602001808311610e8657829003601f168201915b5050505050905090565b6000610eb882612c91565b6005600083815260200190815260200160002060009054906101000a900473ffffffffffffffffffffffffffffffffffffffff169050919050565b60606000610f00836110ea565b905060008167ffffffffffffffff811115610f1e57610f1d6143b6565b5b604051908082528060200260200182016040528015610f4c5781602001602082028036833780820191505090505b50905060005b82811015610f9657610f6485826113b2565b828281518110610f7757610f76614dc4565b5b6020026020010181815250508080610f8e90614e22565b915050610f52565b508092505050919050565b6000610fac8261177a565b90508073ffffffffffffffffffffffffffffffffffffffff168373ffffffffffffffffffffffffffffffffffffffff160361101c576040517f08c379a000000000000000000000000000000000000000000000000000000000815260040161101390614edc565b60405180910390fd5b8073ffffffffffffffffffffffffffffffffffffffff1661103b612c38565b73ffffffffffffffffffffffffffffffffffffffff16148061106a575061106981611064612c38565b612806565b5b6110a9576040517f08c379a00000000000000000000000000000000000000000000000000000000081526004016110a090614f6e565b60405180910390fd5b6110b38383612cdc565b505050565b60006110e282600b6000868152602001908152602001600020600901612d9590919063ffffffff16565b905092915050565b600061110760096000848152602001908152602001600020612daf565b9050919050565b6000600e54905090565b606060006111258361268f565b905060008167ffffffffffffffff811115611143576111426143b6565b5b6040519080825280602002602001820160405280156111715781602001602082028036833780820191505090505b50905060005b81518110156111f25761119261118d86836110b8565b61177a565b8282815181106111a5576111a4614dc4565b5b602002602001019073ffffffffffffffffffffffffffffffffffffffff16908173ffffffffffffffffffffffffffffffffffffffff168152505080806111ea90614e22565b915050611177565b508092505050919050565b61120e611208612c38565b82612dc4565b61124d576040517f08c379a000000000000000000000000000000000000000000000000000000000815260040161124490615000565b60405180910390fd5b611258838383612e59565b505050565b6060600b6000838152602001908152602001600020600701805461128090614d93565b80601f01602080910402602001604051908101604052809291908181526020018280546112ac90614d93565b80156112f95780601f106112ce576101008083540402835291602001916112f9565b820191906000526020600020905b8154815290600101906020018083116112dc57829003601f168201915b50505050509050919050565b6000806000600b6000600c600088815260200190815260200160002054815260200190815260200160002060000160019054906101000a900473ffffffffffffffffffffffffffffffffffffffff169050600073ffffffffffffffffffffffffffffffffffffffff168173ffffffffffffffffffffffffffffffffffffffff16036113975760008092509250506113ab565b80600a856113a5919061504f565b92509250505b9250929050565b60006113d98260096000868152602001908152602001600020612d9590919063ffffffff16565b905092915050565b6000600b6000838152602001908152602001600020905061140181612bd9565b60018160000160006101000a81548160ff0219169083151502179055505050565b61143d83838360405180602001604052806000815250611ed0565b505050565b61144b816130bf565b61148681600b6000600c6000868152602001908152602001600020548152602001908152602001600020600901612c7790919063ffffffff16565b5050565b60006114968383612dc4565b905092915050565b60006114c882600b6000868152602001908152602001600020600b0161311b90919063ffffffff16565b905092915050565b601180546114dd90614d93565b80601f016020809104026020016040519081016040528092919081815260200182805461150990614d93565b80156115565780601f1061152b57610100808354040283529160200191611556565b820191906000526020600020905b81548152906001019060200180831161153957829003601f168201915b505050505081565b6060600b6000838152602001908152602001600020600301805461158190614d93565b80601f01602080910402602001604051908101604052809291908181526020018280546115ad90614d93565b80156115fa5780601f106115cf576101008083540402835291602001916115fa565b820191906000526020600020905b8154815290600101906020018083116115dd57829003601f168201915b50505050509050919050565b6060600b6000838152602001908152602001600020600201805461162990614d93565b80601f016020809104026020016040519081016040528092919081815260200182805461165590614d93565b80156116a25780601f10611677576101008083540402835291602001916116a2565b820191906000526020600020905b81548152906001019060200180831161168557829003601f168201915b50505050509050919050565b6000600760009054906101000a900473ffffffffffffffffffffffffffffffffffffffff1673ffffffffffffffffffffffffffffffffffffffff168273ffffffffffffffffffffffffffffffffffffffff16149050919050565b6000600b6000848152602001908152602001600020905061172881612bd9565b818160000160016101000a81548173ffffffffffffffffffffffffffffffffffffffff021916908373ffffffffffffffffffffffffffffffffffffffff160217905550505050565b6000600f54905090565b6000806003600084815260200190815260200160002060009054906101000a900473ffffffffffffffffffffffffffffffffffffffff169050600073ffffffffffffffffffffffffffffffffffffffff168173ffffffffffffffffffffffffffffffffffffffff1603611822576040517f08c379a0000000000000000000000000000000000000000000000000000000008152600401611819906150cc565b60405180910390fd5b80915050919050565b60008073ffffffffffffffffffffffffffffffffffffffff168273ffffffffffffffffffffffffffffffffffffffff160361189b576040517f08c379a00000000000000000000000000000000000000000000000000000000081526004016118929061515e565b60405180910390fd5b600460008373ffffffffffffffffffffffffffffffffffffffff1673ffffffffffffffffffffffffffffffffffffffff168152602001908152602001600020549050919050565b6000600760009054906101000a900473ffffffffffffffffffffffffffffffffffffffff16905090565b606060006119198361268f565b905060008167ffffffffffffffff811115611937576119366143b6565b5b6040519080825280602002602001820160405280156119655781602001602082028036833780820191505090505b50905060005b81518110156119b05761197e85826110b8565b82828151811061199157611990614dc4565b5b60200260200101818152505080806119a890614e22565b91505061196b565b508092505050919050565b6001600a600083815260200190815260200160002060030160006101000a81548160ff0219169083151502179055506000600b600085815260200190815260200160002090508060000160009054906101000a900460ff1615611a53576040517f08c379a0000000000000000000000000000000000000000000000000000000008152600401611a4a906151ca565b60405180910390fd5b611a5c81612bd9565b611a668385613135565b50505050565b6060600a60008381526020019081526020016000206002018054611a8f90614d93565b80601f0160208091040260200160405190810160405280929190818152602001828054611abb90614d93565b8015611b085780601f10611add57610100808354040283529160200191611b08565b820191906000526020600020905b815481529060010190602001808311611aeb57829003601f168201915b50505050509050919050565b6060600b60008381526020019081526020016000206004018054611b3790614d93565b80601f0160208091040260200160405190810160405280929190818152602001828054611b6390614d93565b8015611bb05780601f10611b8557610100808354040283529160200191611bb0565b820191906000526020600020905b815481529060010190602001808311611b9357829003601f168201915b50505050509050919050565b6000600a600083815260200190815260200160002060030160009054906101000a900460ff169050919050565b6060600b60008381526020019081526020016000206008018054611c0c90614d93565b80601f0160208091040260200160405190810160405280929190818152602001828054611c3890614d93565b8015611c855780601f10611c5a57610100808354040283529160200191611c85565b820191906000526020600020905b815481529060010190602001808311611c6857829003601f168201915b50505050509050919050565b606060028054611ca090614d93565b80601f0160208091040260200160405190810160405280929190818152602001828054611ccc90614d93565b8015611d195780601f10611cee57610100808354040283529160200191611d19565b820191906000526020600020905b815481529060010190602001808311611cfc57829003601f168201915b5050505050905090565b6000600b60008481526020019081526020016000209050611d4381612bd9565b611d598282600b0161319e90919063ffffffff16565b50611dab83600860008573ffffffffffffffffffffffffffffffffffffffff1673ffffffffffffffffffffffffffffffffffffffff1681526020019081526020016000206131ce90919063ffffffff16565b50505050565b6000611e0482600860008673ffffffffffffffffffffffffffffffffffffffff1673ffffffffffffffffffffffffffffffffffffffff168152602001908152602001600020612d9590919063ffffffff16565b905092915050565b611e1e611e17612c38565b83836131e8565b5050565b60606000611e2f836129cf565b905060008167ffffffffffffffff811115611e4d57611e4c6143b6565b5b604051908082528060200260200182016040528015611e7b5781602001602082028036833780820191505090505b50905060005b82811015611ec557611e938582611db1565b828281518110611ea657611ea5614dc4565b5b6020026020010181815250508080611ebd90614e22565b915050611e81565b508092505050919050565b611ee1611edb612c38565b83612dc4565b611f20576040517f08c379a0000000000000000000000000000000000000000000000000000000008152600401611f1790615000565b60405180910390fd5b611f2c84848484613354565b50505050565b81518351148015611f44575080518351145b6040518060600160405280602e8152602001615acc602e913990611f9e576040517f08c379a0000000000000000000000000000000000000000000000000000000008152600401611f959190613ef0565b60405180910390fd5b5060005b835181101561202557612014848281518110611fc157611fc0614dc4565b5b6020026020010151848381518110611fdc57611fdb614dc4565b5b6020026020010151848481518110611ff757611ff6614dc4565b5b602002602001015160405180602001604052806000815250611ed0565b8061201e90614e22565b9050611fa2565b50505050565b6000600b600085815260200190815260200160002090508060000160009054906101000a900460ff1615612094576040517f08c379a000000000000000000000000000000000000000000000000000000000815260040161208b906151ca565b60405180910390fd5b60006010600081546120a590614e22565b919050819055905084600a60008381526020019081526020016000206000018190555083600a600083815260200190815260200160002060010160006101000a81548173ffffffffffffffffffffffffffffffffffffffff021916908373ffffffffffffffffffffffffffffffffffffffff16021790555082600a600083815260200190815260200160002060020190816121409190615396565b506000600a600083815260200190815260200160002060030160006101000a81548160ff02191690831515021790555061219581600960008881526020019081526020016000206131ce90919063ffffffff16565b505050505050565b815183511480156121af575080518351145b6040518060600160405280602e8152602001615acc602e913990612209576040517f08c379a00000000000000000000000000000000000000000000000000000000081526004016122009190613ef0565b60405180910390fd5b5060005b83518110156122805761226f84828151811061222c5761222b614dc4565b5b602002602001015184838151811061224757612246614dc4565b5b602002602001015184848151811061226257612261614dc4565b5b60200260200101516111fd565b8061227990614e22565b905061220d565b50505050565b6000600b600085815260200190815260200160002090508060000160009054906101000a900460ff16156122ef576040517f08c379a00000000000000000000000000000000000000000000000000000000081526004016122e6906151ca565b60405180910390fd5b6122f881612bd9565b606060005b8351811015612348576001600a600083815260200190815260200160002060030160006101000a81548160ff021916908315150217905550808061234090614e22565b9150506122fd565b5060005b84518110156123d85761237885828151811061236b5761236a614dc4565b5b60200260200101516133b0565b82828151811061238b5761238a614dc4565b5b602002602001019073ffffffffffffffffffffffffffffffffffffffff16908173ffffffffffffffffffffffffffffffffffffffff168152505080806123d090614e22565b91505061234c565b5060005b845181101561241c576124098282815181106123fb576123fa614dc4565b5b602002602001015187613135565b808061241490614e22565b9150506123dc565b505050505050565b6060600b6000838152602001908152602001600020600101805461244790614d93565b80601f016020809104026020016040519081016040528092919081815260200182805461247390614d93565b80156124c05780601f10612495576101008083540402835291602001916124c0565b820191906000526020600020905b8154815290600101906020018083116124a357829003601f168201915b50505050509050919050565b80518251146040518060600160405280602e8152602001615acc602e91399061252b576040517f08c379a00000000000000000000000000000000000000000000000000000000081526004016125229190613ef0565b60405180910390fd5b5060005b82518110156125875761257683828151811061254e5761254d614dc4565b5b602002602001015183838151811061256957612568614dc4565b5b6020026020010151610fa1565b8061258090614e22565b905061252f565b505050565b6060612597826133be565b6125d6576040517f08c379a00000000000000000000000000000000000000000000000000000000081526004016125cd906154da565b60405180910390fd5b600b6000600c6000858152602001908152602001600020548152602001908152602001600020600101805461260a90614d93565b80601f016020809104026020016040519081016040528092919081815260200182805461263690614d93565b80156126835780601f1061265857610100808354040283529160200191612683565b820191906000526020600020905b81548152906001019060200180831161266657829003601f168201915b50505050509050919050565b60006126af600b6000848152602001908152602001600020600901612daf565b9050919050565b6000600b600083815260200190815260200160002060060160009054906101000a900460ff169050919050565b6000600b600083815260200190815260200160002060000160009054906101000a900460ff169050919050565b600061273a82600b6000868152602001908152602001600020600b0161342a90919063ffffffff16565b905092915050565b6000600b600083815260200190815260200160002060000160019054906101000a900473ffffffffffffffffffffffffffffffffffffffff169050919050565b60005b81518110156127c2576127b18282815181106127a4576127a3614dc4565b5b6020026020010151611442565b806127bb90614e22565b9050612785565b5050565b6000600a600083815260200190815260200160002060010160009054906101000a900473ffffffffffffffffffffffffffffffffffffffff169050919050565b6000600660008473ffffffffffffffffffffffffffffffffffffffff1673ffffffffffffffffffffffffffffffffffffffff16815260200190815260200160002060008373ffffffffffffffffffffffffffffffffffffffff1673ffffffffffffffffffffffffffffffffffffffff16815260200190815260200160002060009054906101000a900460ff16905092915050565b6000806128a7308b61345a565b905060006128bc828c8c8c8c8c8c8c8c61348d565b90506000600b600083815260200190815260200160002090506128f26128e0612c38565b82600b0161319e90919063ffffffff16565b506128fb612c38565b8160000160016101000a81548173ffffffffffffffffffffffffffffffffffffffff021916908373ffffffffffffffffffffffffffffffffffffffff160217905550612995826008600061294d612c38565b73ffffffffffffffffffffffffffffffffffffffff1673ffffffffffffffffffffffffffffffffffffffff1681526020019081526020016000206131ce90919063ffffffff16565b5081935050505098975050505050505050565b60006129c8600b6000848152602001908152602001600020600b01613650565b9050919050565b6000612a18600860008473ffffffffffffffffffffffffffffffffffffffff1673ffffffffffffffffffffffffffffffffffffffff168152602001908152602001600020612daf565b9050919050565b6060600b60008381526020019081526020016000206005018054612a4290614d93565b80601f0160208091040260200160405190810160405280929190818152602001828054612a6e90614d93565b8015612abb5780601f10612a9057610100808354040283529160200191612abb565b820191906000526020600020905b815481529060010190602001808311612a9e57829003601f168201915b50505050509050919050565b82518451148015612ad9575081518451145b8015612ae6575080518451145b6040518060600160405280602e8152602001615acc602e913990612b40576040517f08c379a0000000000000000000000000000000000000000000000000000000008152600401612b379190613ef0565b60405180910390fd5b5060005b8451811015612bd257612bc1858281518110612b6357612b62614dc4565b5b6020026020010151858381518110612b7e57612b7d614dc4565b5b6020026020010151858481518110612b9957612b98614dc4565b5b6020026020010151858581518110612bb457612bb3614dc4565b5b6020026020010151611ed0565b80612bcb90614e22565b9050612b44565b5050505050565b612bf6612be4612c38565b82600b0161342a90919063ffffffff16565b612c35576040517f08c379a0000000000000000000000000000000000000000000000000000000008152600401612c2c90615546565b60405180910390fd5b50565b6000612c42613665565b905090565b6000612c6f836000018373ffffffffffffffffffffffffffffffffffffffff1660001b6136a1565b905092915050565b6000612c89836000018360001b6136a1565b905092915050565b612c9a816133be565b612cd9576040517f08c379a0000000000000000000000000000000000000000000000000000000008152600401612cd0906150cc565b60405180910390fd5b50565b816005600083815260200190815260200160002060006101000a81548173ffffffffffffffffffffffffffffffffffffffff021916908373ffffffffffffffffffffffffffffffffffffffff160217905550808273ffffffffffffffffffffffffffffffffffffffff16612d4f8361177a565b73ffffffffffffffffffffffffffffffffffffffff167f8c5be1e5ebec7d5bd14f71427d1e84f3dd0314c0f7b2291e5b200ac8c7c3b92560405160405180910390a45050565b6000612da483600001836137b5565b60001c905092915050565b6000612dbd826000016137e0565b9050919050565b600080612dd08361177a565b90508073ffffffffffffffffffffffffffffffffffffffff168473ffffffffffffffffffffffffffffffffffffffff161480612e125750612e118185612806565b5b80612e5057508373ffffffffffffffffffffffffffffffffffffffff16612e3884610ead565b73ffffffffffffffffffffffffffffffffffffffff16145b91505092915050565b8273ffffffffffffffffffffffffffffffffffffffff16612e798261177a565b73ffffffffffffffffffffffffffffffffffffffff1614612ecf576040517f08c379a0000000000000000000000000000000000000000000000000000000008152600401612ec6906155d8565b60405180910390fd5b600073ffffffffffffffffffffffffffffffffffffffff168273ffffffffffffffffffffffffffffffffffffffff1603612f3e576040517f08c379a0000000000000000000000000000000000000000000000000000000008152600401612f359061566a565b60405180910390fd5b612f498383836137f1565b612f54600082612cdc565b6001600460008573ffffffffffffffffffffffffffffffffffffffff1673ffffffffffffffffffffffffffffffffffffffff1681526020019081526020016000206000828254612fa4919061568a565b925050819055506001600460008473ffffffffffffffffffffffffffffffffffffffff1673ffffffffffffffffffffffffffffffffffffffff1681526020019081526020016000206000828254612ffb91906156be565b92505081905550816003600083815260200190815260200160002060006101000a81548173ffffffffffffffffffffffffffffffffffffffff021916908373ffffffffffffffffffffffffffffffffffffffff160217905550808273ffffffffffffffffffffffffffffffffffffffff168473ffffffffffffffffffffffffffffffffffffffff167fddf252ad1be2c89b69c2b068fc378daa952ba7f163c4a11628f55a4df523b3ef60405160405180910390a46130ba8383836137f6565b505050565b6130d06130ca612c38565b82612dc4565b61310f576040517f08c379a000000000000000000000000000000000000000000000000000000000815260040161310690615000565b60405180910390fd5b613118816137fb565b50565b600061312a83600001836137b5565b60001c905092915050565b6000600e6000815461314690614e22565b91905081905590506131588382613918565b61318081600b60008581526020019081526020016000206009016131ce90919063ffffffff16565b5081600c600083815260200190815260200160002081905550505050565b60006131c6836000018373ffffffffffffffffffffffffffffffffffffffff1660001b613af1565b905092915050565b60006131e0836000018360001b613af1565b905092915050565b8173ffffffffffffffffffffffffffffffffffffffff168373ffffffffffffffffffffffffffffffffffffffff1603613256576040517f08c379a000000000000000000000000000000000000000000000000000000000815260040161324d9061573e565b60405180910390fd5b80600660008573ffffffffffffffffffffffffffffffffffffffff1673ffffffffffffffffffffffffffffffffffffffff16815260200190815260200160002060008473ffffffffffffffffffffffffffffffffffffffff1673ffffffffffffffffffffffffffffffffffffffff16815260200190815260200160002060006101000a81548160ff0219169083151502179055508173ffffffffffffffffffffffffffffffffffffffff168373ffffffffffffffffffffffffffffffffffffffff167f17307eab39ab6107e8899845ad3d59bd9653f200f220920489ca2b5937696c31836040516133479190613de2565b60405180910390a3505050565b61335f848484612e59565b61336b84848484613b61565b6133aa576040517f08c379a00000000000000000000000000000000000000000000000000000000081526004016133a1906157d0565b60405180910390fd5b50505050565b600060208201519050919050565b60008073ffffffffffffffffffffffffffffffffffffffff166003600084815260200190815260200160002060009054906101000a900473ffffffffffffffffffffffffffffffffffffffff1673ffffffffffffffffffffffffffffffffffffffff1614159050919050565b6000613452836000018373ffffffffffffffffffffffffffffffffffffffff1660001b613ce8565b905092915050565b6000828260405160200161346f9291906157f0565b60405160208183030381529060405280519060200120905092915050565b600080600d60008c815260200190815260200160002054146134e4576040517f08c379a00000000000000000000000000000000000000000000000000000000081526004016134db9061586c565b60405180910390fd5b6000600f600081546134f590614e22565b919050819055905089600b600083815260200190815260200160002060010190816135209190615396565b5088600b600083815260200190815260200160002060020190816135449190615396565b5087600b600083815260200190815260200160002060030190816135689190615396565b5086600b6000838152602001908152602001600020600401908161358c9190615396565b5085600b600083815260200190815260200160002060050190816135b09190615396565b5083600b600083815260200190815260200160002060070190816135d49190615396565b5082600b600083815260200190815260200160002060080190816135f89190615396565b5084600b600083815260200190815260200160002060060160006101000a81548160ff02191690831515021790555080600d60008d815260200190815260200160002081905550809150509998505050505050505050565b600061365e826000016137e0565b9050919050565b600060146000369050101580156136815750613680336116ae565b5b1561369557601436033560601c905061369d565b33905061369e565b5b90565b600080836001016000848152602001908152602001600020549050600081146137a95760006001826136d3919061568a565b90506000600186600001805490506136eb919061568a565b905081811461375a57600086600001828154811061370c5761370b614dc4565b5b90600052602060002001549050808760000184815481106137305761372f614dc4565b5b90600052602060002001819055508387600101600083815260200190815260200160002081905550505b8560000180548061376e5761376d61588c565b5b6001900381819060005260206000200160009055905585600101600086815260200190815260200160002060009055600193505050506137af565b60009150505b92915050565b60008260000182815481106137cd576137cc614dc4565b5b9060005260206000200154905092915050565b600081600001805490509050919050565b505050565b505050565b60006138068261177a565b9050613814816000846137f1565b61381f600083612cdc565b6001600460008373ffffffffffffffffffffffffffffffffffffffff1673ffffffffffffffffffffffffffffffffffffffff168152602001908152602001600020600082825461386f919061568a565b925050819055506003600083815260200190815260200160002060006101000a81549073ffffffffffffffffffffffffffffffffffffffff021916905581600073ffffffffffffffffffffffffffffffffffffffff168273ffffffffffffffffffffffffffffffffffffffff167fddf252ad1be2c89b69c2b068fc378daa952ba7f163c4a11628f55a4df523b3ef60405160405180910390a4613914816000846137f6565b5050565b600073ffffffffffffffffffffffffffffffffffffffff168273ffffffffffffffffffffffffffffffffffffffff1603613987576040517f08c379a000000000000000000000000000000000000000000000000000000000815260040161397e90615907565b60405180910390fd5b613990816133be565b156139d0576040517f08c379a00000000000000000000000000000000000000000000000000000000081526004016139c790615973565b60405180910390fd5b6139dc600083836137f1565b6001600460008473ffffffffffffffffffffffffffffffffffffffff1673ffffffffffffffffffffffffffffffffffffffff1681526020019081526020016000206000828254613a2c91906156be565b92505081905550816003600083815260200190815260200160002060006101000a81548173ffffffffffffffffffffffffffffffffffffffff021916908373ffffffffffffffffffffffffffffffffffffffff160217905550808273ffffffffffffffffffffffffffffffffffffffff16600073ffffffffffffffffffffffffffffffffffffffff167fddf252ad1be2c89b69c2b068fc378daa952ba7f163c4a11628f55a4df523b3ef60405160405180910390a4613aed600083836137f6565b5050565b6000613afd8383613ce8565b613b56578260000182908060018154018082558091505060019003906000526020600020016000909190919091505582600001805490508360010160008481526020019081526020016000208190555060019050613b5b565b600090505b92915050565b6000613b828473ffffffffffffffffffffffffffffffffffffffff16613d0b565b15613cdb578373ffffffffffffffffffffffffffffffffffffffff1663150b7a02613bab612c38565b8786866040518563ffffffff1660e01b8152600401613bcd9493929190615a3d565b6020604051808303816000875af1925050508015613c0957506040513d601f19601f82011682018060405250810190613c069190615a9e565b60015b613c8b573d8060008114613c39576040519150601f19603f3d011682016040523d82523d6000602084013e613c3e565b606091505b506000815103613c83576040517f08c379a0000000000000000000000000000000000000000000000000000000008152600401613c7a906157d0565b60405180910390fd5b805181602001fd5b63150b7a0260e01b7bffffffffffffffffffffffffffffffffffffffffffffffffffffffff1916817bffffffffffffffffffffffffffffffffffffffffffffffffffffffff191614915050613ce0565b600190505b949350505050565b600080836001016000848152602001908152602001600020541415905092915050565b6000808273ffffffffffffffffffffffffffffffffffffffff163b119050919050565b6000604051905090565b600080fd5b600080fd5b60007fffffffff0000000000000000000000000000000000000000000000000000000082169050919050565b613d7781613d42565b8114613d8257600080fd5b50565b600081359050613d9481613d6e565b92915050565b600060208284031215613db057613daf613d38565b5b6000613dbe84828501613d85565b91505092915050565b60008115159050919050565b613ddc81613dc7565b82525050565b6000602082019050613df76000830184613dd3565b92915050565b6000819050919050565b613e1081613dfd565b8114613e1b57600080fd5b50565b600081359050613e2d81613e07565b92915050565b600060208284031215613e4957613e48613d38565b5b6000613e5784828501613e1e565b91505092915050565b600081519050919050565b600082825260208201905092915050565b60005b83811015613e9a578082015181840152602081019050613e7f565b60008484015250505050565b6000601f19601f8301169050919050565b6000613ec282613e60565b613ecc8185613e6b565b9350613edc818560208601613e7c565b613ee581613ea6565b840191505092915050565b60006020820190508181036000830152613f0a8184613eb7565b905092915050565b600073ffffffffffffffffffffffffffffffffffffffff82169050919050565b6000613f3d82613f12565b9050919050565b613f4d81613f32565b82525050565b6000602082019050613f686000830184613f44565b92915050565b600081519050919050565b600082825260208201905092915050565b6000819050602082019050919050565b613fa381613dfd565b82525050565b6000613fb58383613f9a565b60208301905092915050565b6000602082019050919050565b6000613fd982613f6e565b613fe38185613f79565b9350613fee83613f8a565b8060005b8381101561401f5781516140068882613fa9565b975061401183613fc1565b925050600181019050613ff2565b5085935050505092915050565b600060208201905081810360008301526140468184613fce565b905092915050565b61405781613f32565b811461406257600080fd5b50565b6000813590506140748161404e565b92915050565b6000806040838503121561409157614090613d38565b5b600061409f85828601614065565b92505060206140b085828601613e1e565b9150509250929050565b600080604083850312156140d1576140d0613d38565b5b60006140df85828601613e1e565b92505060206140f085828601613e1e565b9150509250929050565b61410381613dfd565b82525050565b600060208201905061411e60008301846140fa565b92915050565b600081519050919050565b600082825260208201905092915050565b6000819050602082019050919050565b61415981613f32565b82525050565b600061416b8383614150565b60208301905092915050565b6000602082019050919050565b600061418f82614124565b614199818561412f565b93506141a483614140565b8060005b838110156141d55781516141bc888261415f565b97506141c783614177565b9250506001810190506141a8565b5085935050505092915050565b600060208201905081810360008301526141fc8184614184565b905092915050565b60008060006060848603121561421d5761421c613d38565b5b600061422b86828701614065565b935050602061423c86828701614065565b925050604061424d86828701613e1e565b9150509250925092565b600060408201905061426c6000830185613f44565b61427960208301846140fa565b9392505050565b60006020828403121561429657614295613d38565b5b60006142a484828501614065565b91505092915050565b600080604083850312156142c4576142c3613d38565b5b60006142d285828601613e1e565b92505060206142e385828601614065565b9150509250929050565b60008060006060848603121561430657614305613d38565b5b600061431486828701613e1e565b935050602061432586828701614065565b925050604061433686828701613e1e565b9150509250925092565b61434981613dc7565b811461435457600080fd5b50565b60008135905061436681614340565b92915050565b6000806040838503121561438357614382613d38565b5b600061439185828601614065565b92505060206143a285828601614357565b9150509250929050565b600080fd5b600080fd5b7f4e487b7100000000000000000000000000000000000000000000000000000000600052604160045260246000fd5b6143ee82613ea6565b810181811067ffffffffffffffff8211171561440d5761440c6143b6565b5b80604052505050565b6000614420613d2e565b905061442c82826143e5565b919050565b600067ffffffffffffffff82111561444c5761444b6143b6565b5b61445582613ea6565b9050602081019050919050565b82818337600083830152505050565b600061448461447f84614431565b614416565b9050828152602081018484840111156144a05761449f6143b1565b5b6144ab848285614462565b509392505050565b600082601f8301126144c8576144c76143ac565b5b81356144d8848260208601614471565b91505092915050565b600080600080608085870312156144fb576144fa613d38565b5b600061450987828801614065565b945050602061451a87828801614065565b935050604061452b87828801613e1e565b925050606085013567ffffffffffffffff81111561454c5761454b613d3d565b5b614558878288016144b3565b91505092959194509250565b600067ffffffffffffffff82111561457f5761457e6143b6565b5b602082029050602081019050919050565b600080fd5b60006145a86145a384614564565b614416565b905080838252602082019050602084028301858111156145cb576145ca614590565b5b835b818110156145f457806145e08882614065565b8452602084019350506020810190506145cd565b5050509392505050565b600082601f830112614613576146126143ac565b5b8135614623848260208601614595565b91505092915050565b600067ffffffffffffffff821115614647576146466143b6565b5b602082029050602081019050919050565b600061466b6146668461462c565b614416565b9050808382526020820190506020840283018581111561468e5761468d614590565b5b835b818110156146b757806146a38882613e1e565b845260208401935050602081019050614690565b5050509392505050565b600082601f8301126146d6576146d56143ac565b5b81356146e6848260208601614658565b91505092915050565b60008060006060848603121561470857614707613d38565b5b600084013567ffffffffffffffff81111561472657614725613d3d565b5b614732868287016145fe565b935050602084013567ffffffffffffffff81111561475357614752613d3d565b5b61475f868287016145fe565b925050604084013567ffffffffffffffff8111156147805761477f613d3d565b5b61478c868287016146c1565b9150509250925092565b600067ffffffffffffffff8211156147b1576147b06143b6565b5b6147ba82613ea6565b9050602081019050919050565b60006147da6147d584614796565b614416565b9050828152602081018484840111156147f6576147f56143b1565b5b614801848285614462565b509392505050565b600082601f83011261481e5761481d6143ac565b5b813561482e8482602086016147c7565b91505092915050565b6000806000606084860312156148505761484f613d38565b5b600061485e86828701613e1e565b935050602061486f86828701614065565b925050604084013567ffffffffffffffff8111156148905761488f613d3d565b5b61489c86828701614809565b9150509250925092565b600067ffffffffffffffff8211156148c1576148c06143b6565b5b602082029050602081019050919050565b60006148e56148e0846148a6565b614416565b9050808382526020820190506020840283018581111561490857614907614590565b5b835b8181101561494f57803567ffffffffffffffff81111561492d5761492c6143ac565b5b80860161493a89826144b3565b8552602085019450505060208101905061490a565b5050509392505050565b600082601f83011261496e5761496d6143ac565b5b813561497e8482602086016148d2565b91505092915050565b6000806000606084860312156149a05761499f613d38565b5b60006149ae86828701613e1e565b935050602084013567ffffffffffffffff8111156149cf576149ce613d3d565b5b6149db86828701614959565b925050604084013567ffffffffffffffff8111156149fc576149fb613d3d565b5b614a08868287016146c1565b9150509250925092565b60008060408385031215614a2957614a28613d38565b5b600083013567ffffffffffffffff811115614a4757614a46613d3d565b5b614a53858286016145fe565b925050602083013567ffffffffffffffff811115614a7457614a73613d3d565b5b614a80858286016146c1565b9150509250929050565b600060208284031215614aa057614a9f613d38565b5b600082013567ffffffffffffffff811115614abe57614abd613d3d565b5b614aca848285016146c1565b91505092915050565b60008060408385031215614aea57614ae9613d38565b5b6000614af885828601614065565b9250506020614b0985828601614065565b9150509250929050565b600080600080600080600080610100898b031215614b3457614b33613d38565b5b600089013567ffffffffffffffff811115614b5257614b51613d3d565b5b614b5e8b828c01614809565b985050602089013567ffffffffffffffff811115614b7f57614b7e613d3d565b5b614b8b8b828c01614809565b975050604089013567ffffffffffffffff811115614bac57614bab613d3d565b5b614bb88b828c01614809565b965050606089013567ffffffffffffffff811115614bd957614bd8613d3d565b5b614be58b828c01614809565b955050608089013567ffffffffffffffff811115614c0657614c05613d3d565b5b614c128b828c01614809565b94505060a0614c238b828c01614357565b93505060c089013567ffffffffffffffff811115614c4457614c43613d3d565b5b614c508b828c01614809565b92505060e089013567ffffffffffffffff811115614c7157614c70613d3d565b5b614c7d8b828c01614809565b9150509295985092959890939650565b60008060008060808587031215614ca757614ca6613d38565b5b600085013567ffffffffffffffff811115614cc557614cc4613d3d565b5b614cd1878288016145fe565b945050602085013567ffffffffffffffff811115614cf257614cf1613d3d565b5b614cfe878288016145fe565b935050604085013567ffffffffffffffff811115614d1f57614d1e613d3d565b5b614d2b878288016146c1565b925050606085013567ffffffffffffffff811115614d4c57614d4b613d3d565b5b614d5887828801614959565b91505092959194509250565b7f4e487b7100000000000000000000000000000000000000000000000000000000600052602260045260246000fd5b60006002820490506001821680614dab57607f821691505b602082108103614dbe57614dbd614d64565b5b50919050565b7f4e487b7100000000000000000000000000000000000000000000000000000000600052603260045260246000fd5b7f4e487b7100000000000000000000000000000000000000000000000000000000600052601160045260246000fd5b6000614e2d82613dfd565b91507fffffffffffffffffffffffffffffffffffffffffffffffffffffffffffffffff8203614e5f57614e5e614df3565b5b600182019050919050565b7f4552433732313a20617070726f76616c20746f2063757272656e74206f776e6560008201527f7200000000000000000000000000000000000000000000000000000000000000602082015250565b6000614ec6602183613e6b565b9150614ed182614e6a565b604082019050919050565b60006020820190508181036000830152614ef581614eb9565b9050919050565b7f4552433732313a20617070726f76652063616c6c6572206973206e6f7420746f60008201527f6b656e206f776e6572206e6f7220617070726f76656420666f7220616c6c0000602082015250565b6000614f58603e83613e6b565b9150614f6382614efc565b604082019050919050565b60006020820190508181036000830152614f8781614f4b565b9050919050565b7f4552433732313a2063616c6c6572206973206e6f7420746f6b656e206f776e6560008201527f72206e6f7220617070726f766564000000000000000000000000000000000000602082015250565b6000614fea602e83613e6b565b9150614ff582614f8e565b604082019050919050565b6000602082019050818103600083015261501981614fdd565b9050919050565b7f4e487b7100000000000000000000000000000000000000000000000000000000600052601260045260246000fd5b600061505a82613dfd565b915061506583613dfd565b92508261507557615074615020565b5b828204905092915050565b7f4552433732313a20696e76616c696420746f6b656e2049440000000000000000600082015250565b60006150b6601883613e6b565b91506150c182615080565b602082019050919050565b600060208201905081810360008301526150e5816150a9565b9050919050565b7f4552433732313a2061646472657373207a65726f206973206e6f74206120766160008201527f6c6964206f776e65720000000000000000000000000000000000000000000000602082015250565b6000615148602983613e6b565b9150615153826150ec565b604082019050919050565b600060208201905081810360008301526151778161513b565b9050919050565b7f4576656e7420456e646564000000000000000000000000000000000000000000600082015250565b60006151b4600b83613e6b565b91506151bf8261517e565b602082019050919050565b600060208201905081810360008301526151e3816151a7565b9050919050565b60008190508160005260206000209050919050565b60006020601f8301049050919050565b600082821b905092915050565b60006008830261524c7fffffffffffffffffffffffffffffffffffffffffffffffffffffffffffffffff8261520f565b615256868361520f565b95508019841693508086168417925050509392505050565b6000819050919050565b600061529361528e61528984613dfd565b61526e565b613dfd565b9050919050565b6000819050919050565b6152ad83615278565b6152c16152b98261529a565b84845461521c565b825550505050565b600090565b6152d66152c9565b6152e18184846152a4565b505050565b5b81811015615305576152fa6000826152ce565b6001810190506152e7565b5050565b601f82111561534a5761531b816151ea565b615324846151ff565b81016020851015615333578190505b61534761533f856151ff565b8301826152e6565b50505b505050565b600082821c905092915050565b600061536d6000198460080261534f565b1980831691505092915050565b6000615386838361535c565b9150826002028217905092915050565b61539f82613e60565b67ffffffffffffffff8111156153b8576153b76143b6565b5b6153c28254614d93565b6153cd828285615309565b600060209050601f83116001811461540057600084156153ee578287015190505b6153f8858261537a565b865550615460565b601f19841661540e866151ea565b60005b8281101561543657848901518255600182019150602085019450602081019050615411565b86831015615453578489015161544f601f89168261535c565b8355505b6001600288020188555050505b505050505050565b7f4552433732314d657461646174613a2055524920717565727920666f72206e6f60008201527f6e6578697374656e7420746f6b656e0000000000000000000000000000000000602082015250565b60006154c4602f83613e6b565b91506154cf82615468565b604082019050919050565b600060208201905081810360008301526154f3816154b7565b9050919050565b7f4e6f74206576656e74206d696e74657200000000000000000000000000000000600082015250565b6000615530601083613e6b565b915061553b826154fa565b602082019050919050565b6000602082019050818103600083015261555f81615523565b9050919050565b7f4552433732313a207472616e736665722066726f6d20696e636f72726563742060008201527f6f776e6572000000000000000000000000000000000000000000000000000000602082015250565b60006155c2602583613e6b565b91506155cd82615566565b604082019050919050565b600060208201905081810360008301526155f1816155b5565b9050919050565b7f4552433732313a207472616e7366657220746f20746865207a65726f2061646460008201527f7265737300000000000000000000000000000000000000000000000000000000602082015250565b6000615654602483613e6b565b915061565f826155f8565b604082019050919050565b6000602082019050818103600083015261568381615647565b9050919050565b600061569582613dfd565b91506156a083613dfd565b92508282039050818111156156b8576156b7614df3565b5b92915050565b60006156c982613dfd565b91506156d483613dfd565b92508282019050808211156156ec576156eb614df3565b5b92915050565b7f4552433732313a20617070726f766520746f2063616c6c657200000000000000600082015250565b6000615728601983613e6b565b9150615733826156f2565b602082019050919050565b600060208201905081810360008301526157578161571b565b9050919050565b7f4552433732313a207472616e7366657220746f206e6f6e20455243373231526560008201527f63656976657220696d706c656d656e7465720000000000000000000000000000602082015250565b60006157ba603283613e6b565b91506157c58261575e565b604082019050919050565b600060208201905081810360008301526157e9816157ad565b9050919050565b60006040820190506158056000830185613f44565b81810360208301526158178184613eb7565b90509392505050565b7f4576656e7420616c726561647920637265617465640000000000000000000000600082015250565b6000615856601583613e6b565b915061586182615820565b602082019050919050565b6000602082019050818103600083015261588581615849565b9050919050565b7f4e487b7100000000000000000000000000000000000000000000000000000000600052603160045260246000fd5b7f4552433732313a206d696e7420746f20746865207a65726f2061646472657373600082015250565b60006158f1602083613e6b565b91506158fc826158bb565b602082019050919050565b60006020820190508181036000830152615920816158e4565b9050919050565b7f4552433732313a20746f6b656e20616c7265616479206d696e74656400000000600082015250565b600061595d601c83613e6b565b915061596882615927565b602082019050919050565b6000602082019050818103600083015261598c81615950565b9050919050565b60006159ae6159a96159a484613f12565b61526e565b613f12565b9050919050565b60006159c082615993565b9050919050565b60006159d2826159b5565b9050919050565b6159e2816159c7565b82525050565b600081519050919050565b600082825260208201905092915050565b6000615a0f826159e8565b615a1981856159f3565b9350615a29818560208601613e7c565b615a3281613ea6565b840191505092915050565b6000608082019050615a5260008301876159d9565b615a5f6020830186613f44565b615a6c60408301856140fa565b8181036060830152615a7e8184615a04565b905095945050505050565b600081519050615a9881613d6e565b92915050565b600060208284031215615ab457615ab3613d38565b5b6000615ac284828501615a89565b9150509291505056fe45616368206669656c64206d7573742068617665207468652073616d65206e756d626572206f662076616c756573a2646970667358221220122eac3166a2546763018a101f387996c7aa2b1aad940dfcd78b7e43b040a7fa64736f6c63430008100033",
  "immutableReferences": {},
  "source": "// SPDX-License-Identifier: MIT\n// https://github.com/OpenZeppelin/openzeppelin-contracts/commit/8e0296096449d9b1cd7c5631e917330635244c37\nimport \"../node_modules/@openzeppelin/contracts/utils/structs/EnumerableSet.sol\";\nimport \"../node_modules/@openzeppelin/contracts/token/ERC721/extensions/ERC721Burnable.sol\";\nimport \"../node_modules/@openzeppelin/contracts/utils/cryptography/ECDSA.sol\";\nimport \"../node_modules/@openzeppelin/contracts/utils/math/SafeMath.sol\";\nimport \"../node_modules/@openzeppelin/contracts/utils/introspection/ERC165Storage.sol\";\nimport \"../node_modules/@openzeppelin/contracts/utils/Context.sol\";\n\nimport \"./IERC2981.sol\";\nimport \"./BaseRelayRecipient.sol\";\n\npragma experimental ABIEncoderV2;\npragma solidity >=0.4.22 <0.9.0;\n\ncontract NOAP is\n    Context,\n    ERC165Storage,\n    ERC721Burnable,\n    BaseRelayRecipient,\n    IERC2981\n{\n    using EnumerableSet for EnumerableSet.AddressSet;\n    using EnumerableSet for EnumerableSet.UintSet;\n\n    string private constant ERROR_INVALID_INPUTS =\n        \"Each field must have the same number of values\";\n\n    struct Evt {\n        bool ended;\n        address royalty;\n        string tokenURI;\n        string description;\n        string name;\n        string country;\n        string city;\n        bool online;\n        string date;\n        string creatorEmail;\n        EnumerableSet.UintSet tokens;\n        EnumerableSet.AddressSet minters;\n    }\n\n    struct Req {\n        uint256 eventID;\n        address attender;\n        string date;\n        bool minted;\n    }\n\n\n   \n    \n\n    mapping(address => EnumerableSet.UintSet) private userEventIDs;\n    mapping(uint256 => EnumerableSet.UintSet) private eventRequestIDs;\n\n    mapping(uint256 => Req) requests;\n    mapping(uint256 => Evt) evts;\n    mapping(uint256 => uint256) private tokenToEventID;\n    mapping(bytes32 => uint256) private hashToEventID;\n    uint256 private tokenIDCounter;\n    uint256 private eventIDCounter;\n    uint256 private requestIDCounter;\n\n    uint256 private constant _NULL_EVENT_ID = 0;\n    address private constant _NULL_ADDRESS =\n        0x0000000000000000000000000000000000000000;\n\n    bytes4 private constant _INTERFACE_ID_ERC2981 = 0x2a55205a;\n\n    // override supportsInterface\n    function supportsInterface(bytes4 interfaceId)\n        public\n        view\n        virtual\n        override(ERC165Storage, ERC721, IERC165)\n        returns (bool)\n    {\n        return interfaceId == type(IERC165).interfaceId;\n    }\n\n    //\n\n    constructor() ERC721(\"NOAPs\", \"NOAP\") {\n        _registerInterface(_INTERFACE_ID_ERC2981);\n\n        // hardcode the trusted forwarded for EIP2771 metatransactions\n        _setTrustedForwarder(0x86C80a8aa58e0A4fa09A69624c31Ab2a6CAD56b8); // xDAI trusted forwarder\n    }\n\n    /**\n     * Mint a single token\n     */\n    function mint(uint256 eventID, address recipient,uint requestID) external {\n        requests[requestID].minted = true;\n        Evt storage evt = evts[eventID];\n        require(!evt.ended, \"Event Ended\");\n        _checkSenderIsMinter(evt);\n        _mintEventToken(recipient, eventID);\n    }\n\n    function bytesToAddress(bytes memory bys) private pure returns (address addr) {\n    assembly {\n        addr := mload(add(bys, 32))\n    } \n}\n    /**\n     * Mint multiple tokens for a single event\n     */\n    function mintBatch(uint256 eventID, bytes[] memory recipients,uint256[] memory requestIds) external {\n        Evt storage evt = evts[eventID];\n        require(!evt.ended, \"Event Ended\");\n        _checkSenderIsMinter(evt);\n        address[] memory addr;\n\n        for (uint256 i=0;i<requestIds.length;i++) {\n            requests[i].minted =true;\n        }\n\n        for(uint256 i = 0; i < recipients.length; i++) {\n            addr[i] = bytesToAddress(recipients[i]);\n        }\n\n        for (uint256 i = 0; i < recipients.length; i++) {\n            _mintEventToken(addr[i], eventID);\n        }\n    }\n\n    /**\n     * Burn a token from another contract and mint it here, copying the metadata\n     * The token owner must have `approve` this contract to access the token beforehand\n     */\n    // function burnAndRemint(address tokenContract, uint256 tokenID) public {\n    //     require(\n    //         tokenContract != address(this),\n    //         \"Cannot burn and remint on the same contract\"\n    //     );\n\n    //     // Grab the tokenURI\n    //     ERC721Burnable collection = ERC721Burnable(tokenContract);\n    //     string memory tokenURI = collection.tokenURI(tokenID);\n\n    //     // Burn the source NFT\n    //     collection.transferFrom(_msgSender(), address(this), tokenID);\n    //     collection.burn(tokenID);\n\n    //     // Load the event obj from the URI, creating a new event ID if non-existent\n    //     bytes32 eventHash = _computeEventHash(tokenContract, tokenURI);\n    //     uint256 eventID = hashToEventID[eventHash];\n    //     if (eventID == _NULL_EVENT_ID) {\n    //         eventID = _createEvent(eventHash, tokenURI);\n    //     }\n\n    //     _mintEventToken(_msgSender(), eventID);\n    // }\n\n    /**\n     * Batch API to burn and remint, for those feeling frisky.\n     */\n    // function burnAndRemintBatch(\n    //     address[] memory tokenContracts,\n    //     uint256[] memory tokenIDs\n    // ) external {\n    //     require(tokenContracts.length == tokenIDs.length, ERROR_INVALID_INPUTS);\n    //     for (uint256 i = 0; i < tokenContracts.length; i++) {\n    //         burnAndRemint(tokenContracts[i], tokenIDs[i]);\n    //     }\n    // }\n\n    /**\n     * Batch API to burn and remint, for those feeling frisky.\n     * need to repeat it\n     */\n    // function burnAndRemintBatchDenver(\n    //     address[] memory tokenContracts,\n    //     uint256[] memory tokenIDs,\n    //     string memory tokenURI\n    // ) external {\n    //     bytes32 eventHash = _computeEventHash(address(this), tokenURI);\n    //     uint256 eventID = hashToEventID[eventHash];\n    //     require(eventID != _NULL_EVENT_ID, \"Event Does Not Exist!\");\n    //     Evt storage evt = evts[eventID];\n    //     require(!evt.ended, \"Event Ended\");\n    //     require(\n    //         tokenContracts.length == tokenIDs.length && tokenIDs.length == 5,\n    //         ERROR_INVALID_INPUTS\n    //     );\n    //     for (uint256 i = 0; i < tokenContracts.length; i++) {\n    //         burnAndRemint(tokenContracts[i], tokenIDs[i]);\n    //     }\n    //     _mintEventToken(_msgSender(), eventID);\n    // }\n\n    /**\n     * Create an event based on the metadata URI.\n     * The caller is the sole minter.\n     * Each event is a unique <contract, tokenURI> pair and cannot be recreated.\n     */\n    function createEvent(string memory tokenURI,\n     string memory description,\n     string memory name,\n     string memory country,\n     string memory city,\n     bool  online,\n     string memory date,\n     string memory creatorEmail) external returns(uint256) {\n        //address(this) refers to the address of the contract instance\n        bytes32 eventHash = _computeEventHash(address(this), tokenURI);\n\n        uint256 eventID = _createEvent(eventHash, tokenURI,description,name,country,city,online,date,creatorEmail);\n\n        Evt storage evt = evts[eventID];\n        evt.minters.add(_msgSender());\n        evt.royalty = _msgSender();\n\n        userEventIDs[_msgSender()].add(eventID);\n        return eventID;\n    }\n\n     //createRequest(eventId,attender,date)\n    \n    //mint for one person\n    //mint for multi-user\n    //add minters\n    //end event\n /**\n     * Claim a noap\n     * authorized to be done by everyone\n     */\n    function createRequest(uint256 eventID,address attender,string memory date) \n    external {\n        Evt storage evt = evts[eventID];\n        require(!evt.ended, \"Event Ended\");\n        uint256 requestID = ++requestIDCounter;\n        requests[requestID].eventID = eventID;\n        requests[requestID].attender = attender;\n        requests[requestID].date = date;\n        requests[requestID].minted = false;\n        eventRequestIDs[eventID].add(requestID);\n    }\n\n\n\n\n    /**\n     * End the event, halting minting.\n     function _endEvent(uint256 eventID) external {\n        Evt storage evt = evts[evntID];\n        checkSenderIsMinter(evt);\n        evts[evntID].ended = true;\n     }\n     * Token minting from other contracts (burned and reminted here) cannot be halted.\n     */\n    function endEvent(uint256 eventID) external {\n        Evt storage evt = evts[eventID];\n        _checkSenderIsMinter(evt);\n        evt.ended = true;\n    }\n\n    /**\n     * Add a minter to the event. Minter can create infinite tokens. Caller must be a minter\n     */\n    function addEventMinter(uint256 eventID, address minter) external {\n        Evt storage evt = evts[eventID];\n        _checkSenderIsMinter(evt);\n        evt.minters.add(minter);\n\n        userEventIDs[minter].add(eventID);\n    }\n\n    function renounceEventMinter(uint256 eventID) external {\n        Evt storage evt = evts[eventID];\n        _checkSenderIsMinter(evt);\n        evt.minters.remove(_msgSender());\n\n        userEventIDs[_msgSender()].remove(eventID);\n    }\n\n    function _checkSenderIsMinter(Evt storage evt) internal view {\n        require(evt.minters.contains(_msgSender()), \"Not event minter\");\n    }\n\n    function _createEvent(\n        bytes32 eventHash,\n     string memory tokenURI,\n     string memory description,\n     string memory name,\n     string memory country,\n     string memory city,\n     bool  online,\n     string memory date,\n     string memory creatorEmail\n    )\n        internal\n        returns (uint256)\n    {\n        require(\n            hashToEventID[eventHash] == _NULL_EVENT_ID,\n            \"Event already created\"\n        );\n\n        uint256 eventID = ++eventIDCounter;\n        evts[eventID].tokenURI = tokenURI;\n        evts[eventID].description = description;\n        evts[eventID].name = name;\n        evts[eventID].country = country;\n        evts[eventID].city = city;\n        evts[eventID].date = date;\n        evts[eventID].creatorEmail = creatorEmail;\n        evts[eventID].online = online;\n\n        // Map the event hash back to the Event\n        hashToEventID[eventHash] = eventID;\n\n        return eventID;\n    }\n\n    function _mintEventToken(address recipient, uint256 eventID) internal {\n        // Mint the token. ID is generated by hashing the source contract and id, bitmasked for shortness\n        uint256 tokenID = ++tokenIDCounter;\n        _mint(recipient, tokenID);\n\n        // Increment the minted counter\n        evts[eventID].tokens.add(tokenID);\n\n        // Map the token back to the Event\n        tokenToEventID[tokenID] = eventID;\n    }\n\n    function _computeEventHash(address tokenContract, string memory tokenURI)\n        internal\n        pure\n        returns (bytes32)\n    {\n        return keccak256(abi.encode(tokenContract, tokenURI));\n    }\n\n    function getEventMinterTotal(uint256 eventID)\n        public\n        view\n        returns (uint256)\n    {\n        return evts[eventID].minters.length();\n    }\n\n    //this is what I added \n     function getRequestUser(uint256 requestId)\n        public\n        view \n        returns(address) \n        {\n            return requests[requestId].attender;\n        }\n\n function getRequestDate(uint256 requestId)\n        public\n        view \n        returns(string memory) \n        {\n            return requests[requestId].date;\n        }\n\n         function getRequestIsMinted(uint256 requestId)\n        public\n        view \n        returns(bool) \n        {\n            return requests[requestId].minted;\n        }\n\n\n    function getEventDescription(uint256 eventID)\n        public\n        view \n        returns(string memory) \n        {\n            return evts[eventID].description;\n        }\n\n\n         function getEventName(uint256 eventID)\n        public\n        view \n        returns(string memory) \n        {\n            return evts[eventID].name;\n        }\n\n        function getEventCountry(uint256 eventID)\n        public\n        view \n        returns(string memory) \n        {\n            return evts[eventID].country;\n        }\n\n         function getEventCity(uint256 eventID)\n        public\n        view \n        returns(string memory) \n        {\n            return evts[eventID].city;\n        }\n\n         function getCreatorEmail(uint256 eventID)\n        public\n        view \n        returns(string memory) \n        {\n            return evts[eventID].creatorEmail;\n        }\n\n    function getEventMinterAt(uint256 eventID, uint256 index)\n        public\n        view\n        returns (address)\n    {\n        return evts[eventID].minters.at(index);\n    }\n\n     function getEventDate(uint256 eventID)\n        public\n        view \n        returns(string memory) \n        {\n            return evts[eventID].date;\n        }\n\n         function getEventIsOnline(uint256 eventID)\n        public\n        view\n        returns (bool)\n    {\n        return evts[eventID].online;\n    }\n\n\n    function getEventIsMinter(uint256 eventID, address addr)\n        public\n        view\n        returns (bool)\n    {\n        return evts[eventID].minters.contains(addr);\n    }\n\n    function getEventTokenSupply(uint256 eventID)\n        public\n        view\n        returns (uint256)\n    {\n        return evts[eventID].tokens.length();\n    }\n\n    function getEventTokenURI(uint256 eventID)\n        public\n        view\n        returns (string memory)\n    {\n        return evts[eventID].tokenURI;\n    }\n\n    function getEventTokenIDAt(uint256 eventID, uint256 index)\n        public\n        view\n        returns (uint256)\n    {\n        return evts[eventID].tokens.at(index);\n    }\n\n    function getEventTokenIDs(uint256 eventID)\n        public\n        view\n        returns (uint256[] memory)\n    {\n        uint256 supply = getEventTokenSupply(eventID);\n        uint256[] memory tokenIDs = new uint256[](supply);\n        for (uint256 i = 0; i < tokenIDs.length; i++) {\n            tokenIDs[i] = getEventTokenIDAt(eventID, i);\n        }\n        return tokenIDs;\n    }\n\n    function getEventTokenHolders(uint256 eventID)\n        public\n        view\n        returns (address[] memory)\n    {\n        uint256 supply = getEventTokenSupply(eventID);\n        address[] memory owners = new address[](supply);\n        for (uint256 i = 0; i < owners.length; i++) {\n            owners[i] = ownerOf(getEventTokenIDAt(eventID, i));\n        }\n        return owners;\n    }\n\n    function getEventEnded(uint256 eventID) public view returns (bool) {\n        return evts[eventID].ended;\n    }\n\n    function getEventRoyaltyAddress(uint256 eventID)\n        public\n        view\n        returns (address)\n    {\n        return evts[eventID].royalty;\n    }\n\n    function getLastTokenID() public view returns (uint256) {\n        return tokenIDCounter;\n    }\n\n    function getLastEventID() public view returns (uint256) {\n        return eventIDCounter;\n    }\n\n    function getUserEventTotal(address user) public view returns (uint256) {\n        return userEventIDs[user].length();\n    }\n\n      function getRequestsLength(uint256 eventID) public view returns (uint256) {\n        return eventRequestIDs[eventID].length();\n    }\n\n\n    function getUserEventAt(address user, uint256 index)\n        public\n        view\n        returns (uint256)\n    {\n        return userEventIDs[user].at(index);\n    }\n\n    function getEventRequestAt(uint256 eventID, uint256 index)\n        public\n        view\n        returns (uint256)\n    {\n        return eventRequestIDs[eventID].at(index);\n    }\n\n\n\n    function getUserEventIDs(address user)\n        public\n        view\n        returns (uint256[] memory)\n    {\n        uint256 numEvents = getUserEventTotal(user);\n        uint256[] memory eventIDs = new uint256[](numEvents);\n        for (uint256 i = 0; i < numEvents; i++) {\n            eventIDs[i] = getUserEventAt(user, i);\n        }\n        return eventIDs;\n    }\n\n   \n    function getEventRequestIDs(uint256 eventID)\n        public\n        view\n        returns(uint256[] memory) {\n            uint256 totalRequests = getRequestsLength(eventID);\n            uint256[] memory requestIDs = new uint256[](totalRequests);\n            for(uint256 i=0;i < totalRequests ; i++) {\n                requestIDs[i] = getEventRequestAt(eventID,i);\n            }\n            return requestIDs;\n        }\n\n    \n\n\n    /**\n     * ERC2981 royalty implementation\n     * For events created using this contract, we hardcode a 10% resale royalty the corresponding tokens\n     * The recipient of this royalty is controlled by the event minters.\n     */\n    function royaltyInfo(uint256 tokenID, uint256 salePrice)\n        external\n        view\n        override\n        returns (address, uint256)\n    {\n        address royalty = evts[tokenToEventID[tokenID]].royalty;\n        if (royalty == _NULL_ADDRESS) {\n            // For tokens that are burned and reminted,\n            // we don't track the creator, so zero royalties.\n            return (_NULL_ADDRESS, 0);\n        }\n\n        return (royalty, salePrice / 10);\n    }\n\n    /**\n     * Allow any of the event minters to change the royalty recipient\n     */\n    function changeRoyaltyReceiver(uint256 eventID, address receiver) external {\n        Evt storage evt = evts[eventID];\n        _checkSenderIsMinter(evt);\n        evt.royalty = receiver;\n    }\n\n    /* -- END ERC2981 methods */\n\n    /**\n     * Overwrite the default `tokenURI` getter.\n     * Since all events have the same tokenURI, resolve tokenIDs to events load the URI from the event\n     */\n    //this will make a warning because it is the same name as tokenURI variable\n    function tokenURI(uint256 tokenID)\n        public\n        view\n        virtual\n        override\n        returns (string memory)\n    {\n        require(\n            _exists(tokenID),\n            \"ERC721Metadata: URI query for nonexistent token\"\n        );\n        return evts[tokenToEventID[tokenID]].tokenURI;\n    }\n\n    function burn(uint256 tokenID) public virtual override {\n        super.burn(tokenID);\n        evts[tokenToEventID[tokenID]].tokens.remove(tokenID);\n    }\n\n    function isApprovedOrOwner(address spender, uint256 tokenID)\n        external\n        view\n        returns (bool)\n    {\n        return _isApprovedOrOwner(spender, tokenID);\n    }\n\n    /* -- BEGIN batch methods */\n    function burnBatch(uint256[] memory tokenIDs) external {\n        for (uint256 i = 0; i < tokenIDs.length; ++i) {\n            burn(tokenIDs[i]);\n        }\n    }\n\n    function approveBatch(address[] memory tos, uint256[] memory tokenIDs)\n        external\n    {\n        require(tos.length == tokenIDs.length, ERROR_INVALID_INPUTS);\n        for (uint256 i = 0; i < tos.length; ++i) {\n            approve(tos[i], tokenIDs[i]);\n        }\n    }\n\n    function transferFromBatch(\n        address[] memory froms,\n        address[] memory tos,\n        uint256[] memory tokenIDs\n    ) external {\n        require(\n            froms.length == tos.length && froms.length == tokenIDs.length,\n            ERROR_INVALID_INPUTS\n        );\n        for (uint256 i = 0; i < froms.length; ++i) {\n            transferFrom(froms[i], tos[i], tokenIDs[i]);\n        }\n    }\n\n    function safeTransferFromBatch(\n        address[] memory froms,\n        address[] memory tos,\n        uint256[] memory tokenIDs\n    ) external {\n        require(\n            froms.length == tos.length && froms.length == tokenIDs.length,\n            ERROR_INVALID_INPUTS\n        );\n        for (uint256 i = 0; i < froms.length; ++i) {\n            safeTransferFrom(froms[i], tos[i], tokenIDs[i], \"\");\n        }\n    }\n\n    function safeTransferFromWithDataBatch(\n        address[] memory froms,\n        address[] memory tos,\n        uint256[] memory tokenIDs,\n        bytes[] memory datas\n    ) external {\n        require(\n            froms.length == tos.length &&\n                froms.length == tokenIDs.length &&\n                froms.length == datas.length,\n            ERROR_INVALID_INPUTS\n        );\n        for (uint256 i = 0; i < froms.length; ++i) {\n            safeTransferFrom(froms[i], tos[i], tokenIDs[i], datas[i]);\n        }\n    }\n\n    /* -- END batch methods */\n\n    /* -- BEGIN IRelayRecipient overrides -- */\n    function _msgSender()\n        internal\n        view\n        override(Context, BaseRelayRecipient)\n        returns (address payable)\n    {\n        return payable(BaseRelayRecipient._msgSender());\n    }\n\n    string public override versionRecipient = \"1\";\n    /* -- END IRelayRecipient overrides -- */\n}\n",
  "sourcePath": "/home/senyou/freecodecamp/NOAP-Project/truffle/contracts/NOAP.sol",
  "compiler": {
    "name": "solc",
    "version": "0.8.16+commit.07a7930e.Emscripten.clang"
  },
  "schemaVersion": "3.4.9",
  "updatedAt": "2022-09-01T14:18:12.034Z",
  "networkType": "ethereum",
  "devdoc": {
    "kind": "dev",
    "methods": {
      "approve(address,uint256)": {
        "details": "See {IERC721-approve}."
      },
      "balanceOf(address)": {
        "details": "See {IERC721-balanceOf}."
      },
      "getApproved(uint256)": {
        "details": "See {IERC721-getApproved}."
      },
      "isApprovedForAll(address,address)": {
        "details": "See {IERC721-isApprovedForAll}."
      },
      "name()": {
        "details": "See {IERC721Metadata-name}."
      },
      "ownerOf(uint256)": {
        "details": "See {IERC721-ownerOf}."
      },
      "safeTransferFrom(address,address,uint256)": {
        "details": "See {IERC721-safeTransferFrom}."
      },
      "safeTransferFrom(address,address,uint256,bytes)": {
        "details": "See {IERC721-safeTransferFrom}."
      },
      "setApprovalForAll(address,bool)": {
        "details": "See {IERC721-setApprovalForAll}."
      },
      "symbol()": {
        "details": "See {IERC721Metadata-symbol}."
      },
      "transferFrom(address,address,uint256)": {
        "details": "See {IERC721-transferFrom}."
      }
    },
    "version": 1
  },
  "userdoc": {
    "kind": "user",
    "methods": {
      "addEventMinter(uint256,address)": {
        "notice": "Add a minter to the event. Minter can create infinite tokens. Caller must be a minter"
      },
      "changeRoyaltyReceiver(uint256,address)": {
        "notice": "Allow any of the event minters to change the royalty recipient"
      },
      "createEvent(string,string,string,string,string,bool,string,string)": {
        "notice": "Create an event based on the metadata URI. The caller is the sole minter. Each event is a unique <contract, tokenURI> pair and cannot be recreated."
      },
      "createRequest(uint256,address,string)": {
        "notice": "Claim a noap authorized to be done by everyone"
      },
      "endEvent(uint256)": {
        "notice": "End the event, halting minting. function _endEvent(uint256 eventID) external { Evt storage evt = evts[evntID]; checkSenderIsMinter(evt); evts[evntID].ended = true; } Token minting from other contracts (burned and reminted here) cannot be halted."
      },
      "isTrustedForwarder(address)": {
        "notice": "return if the forwarder is trusted to forward relayed transactions to us. the forwarder is required to verify the sender's signature, and verify the call is not a replay."
      },
      "mint(uint256,address,uint256)": {
        "notice": "Mint a single token"
      },
      "mintBatch(uint256,bytes[],uint256[])": {
        "notice": "Mint multiple tokens for a single event"
      },
      "royaltyInfo(uint256,uint256)": {
        "notice": "ERC2981 royalty implementation For events created using this contract, we hardcode a 10% resale royalty the corresponding tokens The recipient of this royalty is controlled by the event minters."
      },
      "tokenURI(uint256)": {
        "notice": "Overwrite the default `tokenURI` getter. Since all events have the same tokenURI, resolve tokenIDs to events load the URI from the event"
      }
    },
    "version": 1
  }
}