{
  "contractName": "NOAP",
  "abi": [
    {
      "inputs": [],
      "stateMutability": "nonpayable",
      "type": "constructor"
    },
    {
      "anonymous": false,
      "inputs": [
        {
          "indexed": true,
          "internalType": "address",
          "name": "owner",
          "type": "address"
        },
        {
          "indexed": true,
          "internalType": "address",
          "name": "approved",
          "type": "address"
        },
        {
          "indexed": true,
          "internalType": "uint256",
          "name": "tokenId",
          "type": "uint256"
        }
      ],
      "name": "Approval",
      "type": "event"
    },
    {
      "anonymous": false,
      "inputs": [
        {
          "indexed": true,
          "internalType": "address",
          "name": "owner",
          "type": "address"
        },
        {
          "indexed": true,
          "internalType": "address",
          "name": "operator",
          "type": "address"
        },
        {
          "indexed": false,
          "internalType": "bool",
          "name": "approved",
          "type": "bool"
        }
      ],
      "name": "ApprovalForAll",
      "type": "event"
    },
    {
      "anonymous": false,
      "inputs": [
        {
          "indexed": true,
          "internalType": "address",
          "name": "from",
          "type": "address"
        },
        {
          "indexed": true,
          "internalType": "address",
          "name": "to",
          "type": "address"
        },
        {
          "indexed": true,
          "internalType": "uint256",
          "name": "tokenId",
          "type": "uint256"
        }
      ],
      "name": "Transfer",
      "type": "event"
    },
    {
      "inputs": [
        {
          "internalType": "address",
          "name": "to",
          "type": "address"
        },
        {
          "internalType": "uint256",
          "name": "tokenId",
          "type": "uint256"
        }
      ],
      "name": "approve",
      "outputs": [],
      "stateMutability": "nonpayable",
      "type": "function"
    },
    {
      "inputs": [
        {
          "internalType": "address",
          "name": "owner",
          "type": "address"
        }
      ],
      "name": "balanceOf",
      "outputs": [
        {
          "internalType": "uint256",
          "name": "",
          "type": "uint256"
        }
      ],
      "stateMutability": "view",
      "type": "function",
      "constant": true
    },
    {
      "inputs": [
        {
          "internalType": "uint256",
          "name": "tokenId",
          "type": "uint256"
        }
      ],
      "name": "getApproved",
      "outputs": [
        {
          "internalType": "address",
          "name": "",
          "type": "address"
        }
      ],
      "stateMutability": "view",
      "type": "function",
      "constant": true
    },
    {
      "inputs": [
        {
          "internalType": "address",
          "name": "owner",
          "type": "address"
        },
        {
          "internalType": "address",
          "name": "operator",
          "type": "address"
        }
      ],
      "name": "isApprovedForAll",
      "outputs": [
        {
          "internalType": "bool",
          "name": "",
          "type": "bool"
        }
      ],
      "stateMutability": "view",
      "type": "function",
      "constant": true
    },
    {
      "inputs": [
        {
          "internalType": "address",
          "name": "forwarder",
          "type": "address"
        }
      ],
      "name": "isTrustedForwarder",
      "outputs": [
        {
          "internalType": "bool",
          "name": "",
          "type": "bool"
        }
      ],
      "stateMutability": "view",
      "type": "function",
      "constant": true
    },
    {
      "inputs": [],
      "name": "name",
      "outputs": [
        {
          "internalType": "string",
          "name": "",
          "type": "string"
        }
      ],
      "stateMutability": "view",
      "type": "function",
      "constant": true
    },
    {
      "inputs": [
        {
          "internalType": "uint256",
          "name": "tokenId",
          "type": "uint256"
        }
      ],
      "name": "ownerOf",
      "outputs": [
        {
          "internalType": "address",
          "name": "",
          "type": "address"
        }
      ],
      "stateMutability": "view",
      "type": "function",
      "constant": true
    },
    {
      "inputs": [
        {
          "internalType": "address",
          "name": "from",
          "type": "address"
        },
        {
          "internalType": "address",
          "name": "to",
          "type": "address"
        },
        {
          "internalType": "uint256",
          "name": "tokenId",
          "type": "uint256"
        }
      ],
      "name": "safeTransferFrom",
      "outputs": [],
      "stateMutability": "nonpayable",
      "type": "function"
    },
    {
      "inputs": [
        {
          "internalType": "address",
          "name": "from",
          "type": "address"
        },
        {
          "internalType": "address",
          "name": "to",
          "type": "address"
        },
        {
          "internalType": "uint256",
          "name": "tokenId",
          "type": "uint256"
        },
        {
          "internalType": "bytes",
          "name": "data",
          "type": "bytes"
        }
      ],
      "name": "safeTransferFrom",
      "outputs": [],
      "stateMutability": "nonpayable",
      "type": "function"
    },
    {
      "inputs": [
        {
          "internalType": "address",
          "name": "operator",
          "type": "address"
        },
        {
          "internalType": "bool",
          "name": "approved",
          "type": "bool"
        }
      ],
      "name": "setApprovalForAll",
      "outputs": [],
      "stateMutability": "nonpayable",
      "type": "function"
    },
    {
      "inputs": [],
      "name": "symbol",
      "outputs": [
        {
          "internalType": "string",
          "name": "",
          "type": "string"
        }
      ],
      "stateMutability": "view",
      "type": "function",
      "constant": true
    },
    {
      "inputs": [
        {
          "internalType": "address",
          "name": "from",
          "type": "address"
        },
        {
          "internalType": "address",
          "name": "to",
          "type": "address"
        },
        {
          "internalType": "uint256",
          "name": "tokenId",
          "type": "uint256"
        }
      ],
      "name": "transferFrom",
      "outputs": [],
      "stateMutability": "nonpayable",
      "type": "function"
    },
    {
      "inputs": [],
      "name": "trustedForwarder",
      "outputs": [
        {
          "internalType": "address",
          "name": "",
          "type": "address"
        }
      ],
      "stateMutability": "view",
      "type": "function",
      "constant": true
    },
    {
      "inputs": [],
      "name": "versionRecipient",
      "outputs": [
        {
          "internalType": "string",
          "name": "",
          "type": "string"
        }
      ],
      "stateMutability": "view",
      "type": "function",
      "constant": true
    },
    {
      "inputs": [
        {
          "internalType": "bytes4",
          "name": "interfaceId",
          "type": "bytes4"
        }
      ],
      "name": "supportsInterface",
      "outputs": [
        {
          "internalType": "bool",
          "name": "",
          "type": "bool"
        }
      ],
      "stateMutability": "view",
      "type": "function",
      "constant": true
    },
    {
      "inputs": [
        {
          "internalType": "uint256",
          "name": "eventID",
          "type": "uint256"
        },
        {
          "internalType": "address",
          "name": "recipient",
          "type": "address"
        },
        {
          "internalType": "uint256",
          "name": "requestID",
          "type": "uint256"
        }
      ],
      "name": "mint",
      "outputs": [],
      "stateMutability": "nonpayable",
      "type": "function"
    },
    {
      "inputs": [
        {
          "internalType": "uint256",
          "name": "eventID",
          "type": "uint256"
        },
        {
          "internalType": "bytes[]",
          "name": "recipients",
          "type": "bytes[]"
        },
        {
          "internalType": "uint256[]",
          "name": "requestIds",
          "type": "uint256[]"
        }
      ],
      "name": "mintBatch",
      "outputs": [],
      "stateMutability": "nonpayable",
      "type": "function"
    },
    {
      "inputs": [
        {
          "internalType": "string",
          "name": "tokenURI",
          "type": "string"
        },
        {
          "internalType": "string",
          "name": "description",
          "type": "string"
        },
        {
          "internalType": "string",
          "name": "name",
          "type": "string"
        },
        {
          "internalType": "string",
          "name": "country",
          "type": "string"
        },
        {
          "internalType": "string",
          "name": "city",
          "type": "string"
        },
        {
          "internalType": "bool",
          "name": "online",
          "type": "bool"
        },
        {
          "internalType": "string",
          "name": "startdate",
          "type": "string"
        },
        {
          "internalType": "string",
          "name": "enddate",
          "type": "string"
        },
        {
          "internalType": "string",
          "name": "creatorEmail",
          "type": "string"
        },
        {
          "internalType": "uint256",
          "name": "limitSupply",
          "type": "uint256"
        }
      ],
      "name": "createEvent",
      "outputs": [
        {
          "internalType": "uint256",
          "name": "",
          "type": "uint256"
        }
      ],
      "stateMutability": "nonpayable",
      "type": "function"
    },
    {
      "inputs": [
        {
          "internalType": "uint256",
          "name": "eventID",
          "type": "uint256"
        },
        {
          "internalType": "address",
          "name": "attender",
          "type": "address"
        },
        {
          "internalType": "string",
          "name": "date",
          "type": "string"
        }
      ],
      "name": "createRequest",
      "outputs": [],
      "stateMutability": "nonpayable",
      "type": "function"
    },
    {
      "inputs": [
        {
          "internalType": "uint256",
          "name": "eventID",
          "type": "uint256"
        }
      ],
      "name": "endEvent",
      "outputs": [],
      "stateMutability": "nonpayable",
      "type": "function"
    },
    {
      "inputs": [
        {
          "internalType": "uint256",
          "name": "eventID",
          "type": "uint256"
        },
        {
          "internalType": "address",
          "name": "minter",
          "type": "address"
        }
      ],
      "name": "addEventMinter",
      "outputs": [],
      "stateMutability": "nonpayable",
      "type": "function"
    },
    {
      "inputs": [
        {
          "internalType": "uint256",
          "name": "eventID",
          "type": "uint256"
        }
      ],
      "name": "renounceEventMinter",
      "outputs": [],
      "stateMutability": "nonpayable",
      "type": "function"
    },
    {
      "inputs": [
        {
          "internalType": "uint256",
          "name": "eventID",
          "type": "uint256"
        }
      ],
      "name": "getEventMinterTotal",
      "outputs": [
        {
          "internalType": "uint256",
          "name": "",
          "type": "uint256"
        }
      ],
      "stateMutability": "view",
      "type": "function",
      "constant": true
    },
    {
      "inputs": [
        {
          "internalType": "uint256",
          "name": "requestId",
          "type": "uint256"
        }
      ],
      "name": "getRequestUser",
      "outputs": [
        {
          "internalType": "address",
          "name": "",
          "type": "address"
        }
      ],
      "stateMutability": "view",
      "type": "function",
      "constant": true
    },
    {
      "inputs": [
        {
          "internalType": "uint256",
          "name": "requestId",
          "type": "uint256"
        }
      ],
      "name": "getRequestDate",
      "outputs": [
        {
          "internalType": "string",
          "name": "",
          "type": "string"
        }
      ],
      "stateMutability": "view",
      "type": "function",
      "constant": true
    },
    {
      "inputs": [
        {
          "internalType": "uint256",
          "name": "requestId",
          "type": "uint256"
        }
      ],
      "name": "getRequestIsMinted",
      "outputs": [
        {
          "internalType": "bool",
          "name": "",
          "type": "bool"
        }
      ],
      "stateMutability": "view",
      "type": "function",
      "constant": true
    },
    {
      "inputs": [
        {
          "internalType": "uint256",
          "name": "eventID",
          "type": "uint256"
        }
      ],
      "name": "getEventDescription",
      "outputs": [
        {
          "internalType": "string",
          "name": "",
          "type": "string"
        }
      ],
      "stateMutability": "view",
      "type": "function",
      "constant": true
    },
    {
      "inputs": [
        {
          "internalType": "uint256",
          "name": "eventID",
          "type": "uint256"
        }
      ],
      "name": "getEventName",
      "outputs": [
        {
          "internalType": "string",
          "name": "",
          "type": "string"
        }
      ],
      "stateMutability": "view",
      "type": "function",
      "constant": true
    },
    {
      "inputs": [
        {
          "internalType": "uint256",
          "name": "eventID",
          "type": "uint256"
        }
      ],
      "name": "getEventCountry",
      "outputs": [
        {
          "internalType": "string",
          "name": "",
          "type": "string"
        }
      ],
      "stateMutability": "view",
      "type": "function",
      "constant": true
    },
    {
      "inputs": [
        {
          "internalType": "uint256",
          "name": "eventID",
          "type": "uint256"
        }
      ],
      "name": "getEventCity",
      "outputs": [
        {
          "internalType": "string",
          "name": "",
          "type": "string"
        }
      ],
      "stateMutability": "view",
      "type": "function",
      "constant": true
    },
    {
      "inputs": [
        {
          "internalType": "uint256",
          "name": "eventID",
          "type": "uint256"
        }
      ],
      "name": "getCreatorEmail",
      "outputs": [
        {
          "internalType": "string",
          "name": "",
          "type": "string"
        }
      ],
      "stateMutability": "view",
      "type": "function",
      "constant": true
    },
    {
      "inputs": [
        {
          "internalType": "uint256",
          "name": "eventID",
          "type": "uint256"
        },
        {
          "internalType": "uint256",
          "name": "index",
          "type": "uint256"
        }
      ],
      "name": "getEventMinterAt",
      "outputs": [
        {
          "internalType": "address",
          "name": "",
          "type": "address"
        }
      ],
      "stateMutability": "view",
      "type": "function",
      "constant": true
    },
    {
      "inputs": [
        {
          "internalType": "uint256",
          "name": "eventID",
          "type": "uint256"
        }
      ],
      "name": "getEventDate",
      "outputs": [
        {
          "internalType": "string",
          "name": "",
          "type": "string"
        }
      ],
      "stateMutability": "view",
      "type": "function",
      "constant": true
    },
    {
      "inputs": [
        {
          "internalType": "uint256",
          "name": "eventID",
          "type": "uint256"
        }
      ],
      "name": "getEventIsOnline",
      "outputs": [
        {
          "internalType": "bool",
          "name": "",
          "type": "bool"
        }
      ],
      "stateMutability": "view",
      "type": "function",
      "constant": true
    },
    {
      "inputs": [
        {
          "internalType": "uint256",
          "name": "eventID",
          "type": "uint256"
        },
        {
          "internalType": "address",
          "name": "addr",
          "type": "address"
        }
      ],
      "name": "getEventIsMinter",
      "outputs": [
        {
          "internalType": "bool",
          "name": "",
          "type": "bool"
        }
      ],
      "stateMutability": "view",
      "type": "function",
      "constant": true
    },
    {
      "inputs": [
        {
          "internalType": "uint256",
          "name": "eventID",
          "type": "uint256"
        }
      ],
      "name": "getEventTokenSupply",
      "outputs": [
        {
          "internalType": "uint256",
          "name": "",
          "type": "uint256"
        }
      ],
      "stateMutability": "view",
      "type": "function",
      "constant": true
    },
    {
      "inputs": [
        {
          "internalType": "uint256",
          "name": "eventID",
          "type": "uint256"
        }
      ],
      "name": "getEventTokenURI",
      "outputs": [
        {
          "internalType": "string",
          "name": "",
          "type": "string"
        }
      ],
      "stateMutability": "view",
      "type": "function",
      "constant": true
    },
    {
      "inputs": [
        {
          "internalType": "uint256",
          "name": "eventID",
          "type": "uint256"
        },
        {
          "internalType": "uint256",
          "name": "index",
          "type": "uint256"
        }
      ],
      "name": "getEventTokenIDAt",
      "outputs": [
        {
          "internalType": "uint256",
          "name": "",
          "type": "uint256"
        }
      ],
      "stateMutability": "view",
      "type": "function",
      "constant": true
    },
    {
      "inputs": [
        {
          "internalType": "uint256",
          "name": "eventID",
          "type": "uint256"
        }
      ],
      "name": "getEventTokenIDs",
      "outputs": [
        {
          "internalType": "uint256[]",
          "name": "",
          "type": "uint256[]"
        }
      ],
      "stateMutability": "view",
      "type": "function",
      "constant": true
    },
    {
      "inputs": [
        {
          "internalType": "uint256",
          "name": "eventID",
          "type": "uint256"
        }
      ],
      "name": "getEventTokenHolders",
      "outputs": [
        {
          "internalType": "address[]",
          "name": "",
          "type": "address[]"
        }
      ],
      "stateMutability": "view",
      "type": "function",
      "constant": true
    },
    {
      "inputs": [
        {
          "internalType": "uint256",
          "name": "eventID",
          "type": "uint256"
        }
      ],
      "name": "getEventEnded",
      "outputs": [
        {
          "internalType": "bool",
          "name": "",
          "type": "bool"
        }
      ],
      "stateMutability": "view",
      "type": "function",
      "constant": true
    },
    {
      "inputs": [
        {
          "internalType": "uint256",
          "name": "eventID",
          "type": "uint256"
        }
      ],
      "name": "getEventRoyaltyAddress",
      "outputs": [
        {
          "internalType": "address",
          "name": "",
          "type": "address"
        }
      ],
      "stateMutability": "view",
      "type": "function",
      "constant": true
    },
    {
      "inputs": [],
      "name": "getLastTokenID",
      "outputs": [
        {
          "internalType": "uint256",
          "name": "",
          "type": "uint256"
        }
      ],
      "stateMutability": "view",
      "type": "function",
      "constant": true
    },
    {
      "inputs": [],
      "name": "getLastEventID",
      "outputs": [
        {
          "internalType": "uint256",
          "name": "",
          "type": "uint256"
        }
      ],
      "stateMutability": "view",
      "type": "function",
      "constant": true
    },
    {
      "inputs": [
        {
          "internalType": "address",
          "name": "user",
          "type": "address"
        }
      ],
      "name": "getUserEventTotal",
      "outputs": [
        {
          "internalType": "uint256",
          "name": "",
          "type": "uint256"
        }
      ],
      "stateMutability": "view",
      "type": "function",
      "constant": true
    },
    {
      "inputs": [
        {
          "internalType": "uint256",
          "name": "eventID",
          "type": "uint256"
        }
      ],
      "name": "getRequestsLength",
      "outputs": [
        {
          "internalType": "uint256",
          "name": "",
          "type": "uint256"
        }
      ],
      "stateMutability": "view",
      "type": "function",
      "constant": true
    },
    {
      "inputs": [
        {
          "internalType": "address",
          "name": "user",
          "type": "address"
        },
        {
          "internalType": "uint256",
          "name": "index",
          "type": "uint256"
        }
      ],
      "name": "getUserEventAt",
      "outputs": [
        {
          "internalType": "uint256",
          "name": "",
          "type": "uint256"
        }
      ],
      "stateMutability": "view",
      "type": "function",
      "constant": true
    },
    {
      "inputs": [
        {
          "internalType": "uint256",
          "name": "eventID",
          "type": "uint256"
        },
        {
          "internalType": "uint256",
          "name": "index",
          "type": "uint256"
        }
      ],
      "name": "getEventRequestAt",
      "outputs": [
        {
          "internalType": "uint256",
          "name": "",
          "type": "uint256"
        }
      ],
      "stateMutability": "view",
      "type": "function",
      "constant": true
    },
    {
      "inputs": [
        {
          "internalType": "address",
          "name": "user",
          "type": "address"
        }
      ],
      "name": "getUserEventIDs",
      "outputs": [
        {
          "internalType": "uint256[]",
          "name": "",
          "type": "uint256[]"
        }
      ],
      "stateMutability": "view",
      "type": "function",
      "constant": true
    },
    {
      "inputs": [
        {
          "internalType": "uint256",
          "name": "eventID",
          "type": "uint256"
        }
      ],
      "name": "getEventRequestIDs",
      "outputs": [
        {
          "internalType": "uint256[]",
          "name": "",
          "type": "uint256[]"
        }
      ],
      "stateMutability": "view",
      "type": "function",
      "constant": true
    },
    {
      "inputs": [
        {
          "internalType": "uint256",
          "name": "tokenID",
          "type": "uint256"
        },
        {
          "internalType": "uint256",
          "name": "salePrice",
          "type": "uint256"
        }
      ],
      "name": "royaltyInfo",
      "outputs": [
        {
          "internalType": "address",
          "name": "",
          "type": "address"
        },
        {
          "internalType": "uint256",
          "name": "",
          "type": "uint256"
        }
      ],
      "stateMutability": "view",
      "type": "function",
      "constant": true
    },
    {
      "inputs": [
        {
          "internalType": "uint256",
          "name": "eventID",
          "type": "uint256"
        },
        {
          "internalType": "address",
          "name": "receiver",
          "type": "address"
        }
      ],
      "name": "changeRoyaltyReceiver",
      "outputs": [],
      "stateMutability": "nonpayable",
      "type": "function"
    },
    {
      "inputs": [
        {
          "internalType": "uint256",
          "name": "tokenID",
          "type": "uint256"
        }
      ],
      "name": "tokenURI",
      "outputs": [
        {
          "internalType": "string",
          "name": "",
          "type": "string"
        }
      ],
      "stateMutability": "view",
      "type": "function",
      "constant": true
    },
    {
      "inputs": [
        {
          "internalType": "uint256",
          "name": "tokenID",
          "type": "uint256"
        }
      ],
      "name": "burn",
      "outputs": [],
      "stateMutability": "nonpayable",
      "type": "function"
    },
    {
      "inputs": [
        {
          "internalType": "address",
          "name": "spender",
          "type": "address"
        },
        {
          "internalType": "uint256",
          "name": "tokenID",
          "type": "uint256"
        }
      ],
      "name": "isApprovedOrOwner",
      "outputs": [
        {
          "internalType": "bool",
          "name": "",
          "type": "bool"
        }
      ],
      "stateMutability": "view",
      "type": "function",
      "constant": true
    },
    {
      "inputs": [
        {
          "internalType": "uint256[]",
          "name": "tokenIDs",
          "type": "uint256[]"
        }
      ],
      "name": "burnBatch",
      "outputs": [],
      "stateMutability": "nonpayable",
      "type": "function"
    },
    {
      "inputs": [
        {
          "internalType": "address[]",
          "name": "tos",
          "type": "address[]"
        },
        {
          "internalType": "uint256[]",
          "name": "tokenIDs",
          "type": "uint256[]"
        }
      ],
      "name": "approveBatch",
      "outputs": [],
      "stateMutability": "nonpayable",
      "type": "function"
    },
    {
      "inputs": [
        {
          "internalType": "address[]",
          "name": "froms",
          "type": "address[]"
        },
        {
          "internalType": "address[]",
          "name": "tos",
          "type": "address[]"
        },
        {
          "internalType": "uint256[]",
          "name": "tokenIDs",
          "type": "uint256[]"
        }
      ],
      "name": "transferFromBatch",
      "outputs": [],
      "stateMutability": "nonpayable",
      "type": "function"
    },
    {
      "inputs": [
        {
          "internalType": "address[]",
          "name": "froms",
          "type": "address[]"
        },
        {
          "internalType": "address[]",
          "name": "tos",
          "type": "address[]"
        },
        {
          "internalType": "uint256[]",
          "name": "tokenIDs",
          "type": "uint256[]"
        }
      ],
      "name": "safeTransferFromBatch",
      "outputs": [],
      "stateMutability": "nonpayable",
      "type": "function"
    },
    {
      "inputs": [
        {
          "internalType": "address[]",
          "name": "froms",
          "type": "address[]"
        },
        {
          "internalType": "address[]",
          "name": "tos",
          "type": "address[]"
        },
        {
          "internalType": "uint256[]",
          "name": "tokenIDs",
          "type": "uint256[]"
        },
        {
          "internalType": "bytes[]",
          "name": "datas",
          "type": "bytes[]"
        }
      ],
      "name": "safeTransferFromWithDataBatch",
      "outputs": [],
      "stateMutability": "nonpayable",
      "type": "function"
    }
  ],
  "bytecode": "0x60806040526040518060400160405280600181526020017f3100000000000000000000000000000000000000000000000000000000000000815250601190816200004a9190620004c3565b503480156200005857600080fd5b506040518060400160405280600581526020017f4e4f4150730000000000000000000000000000000000000000000000000000008152506040518060400160405280600481526020017f4e4f4150000000000000000000000000000000000000000000000000000000008152508160019081620000d69190620004c3565b508060029081620000e89190620004c3565b50505062000103632a55205a60e01b6200012e60201b60201c565b620001287386c80a8aa58e0a4fa09a69624c31ab2a6cad56b86200020560201b60201c565b6200062d565b63ffffffff60e01b817bffffffffffffffffffffffffffffffffffffffffffffffffffffffff19160362000199576040517f08c379a000000000000000000000000000000000000000000000000000000000815260040162000190906200060b565b60405180910390fd5b6001600080837bffffffffffffffffffffffffffffffffffffffffffffffffffffffff19167bffffffffffffffffffffffffffffffffffffffffffffffffffffffff1916815260200190815260200160002060006101000a81548160ff02191690831515021790555050565b80600760006101000a81548173ffffffffffffffffffffffffffffffffffffffff021916908373ffffffffffffffffffffffffffffffffffffffff16021790555050565b600081519050919050565b7f4e487b7100000000000000000000000000000000000000000000000000000000600052604160045260246000fd5b7f4e487b7100000000000000000000000000000000000000000000000000000000600052602260045260246000fd5b60006002820490506001821680620002cb57607f821691505b602082108103620002e157620002e062000283565b5b50919050565b60008190508160005260206000209050919050565b60006020601f8301049050919050565b600082821b905092915050565b6000600883026200034b7fffffffffffffffffffffffffffffffffffffffffffffffffffffffffffffffff826200030c565b6200035786836200030c565b95508019841693508086168417925050509392505050565b6000819050919050565b6000819050919050565b6000620003a46200039e62000398846200036f565b62000379565b6200036f565b9050919050565b6000819050919050565b620003c08362000383565b620003d8620003cf82620003ab565b84845462000319565b825550505050565b600090565b620003ef620003e0565b620003fc818484620003b5565b505050565b5b81811015620004245762000418600082620003e5565b60018101905062000402565b5050565b601f82111562000473576200043d81620002e7565b6200044884620002fc565b8101602085101562000458578190505b620004706200046785620002fc565b83018262000401565b50505b505050565b600082821c905092915050565b6000620004986000198460080262000478565b1980831691505092915050565b6000620004b3838362000485565b9150826002028217905092915050565b620004ce8262000249565b67ffffffffffffffff811115620004ea57620004e962000254565b5b620004f68254620002b2565b6200050382828562000428565b600060209050601f8311600181146200053b576000841562000526578287015190505b620005328582620004a5565b865550620005a2565b601f1984166200054b86620002e7565b60005b8281101562000575578489015182556001820191506020850194506020810190506200054e565b8683101562000595578489015162000591601f89168262000485565b8355505b6001600288020188555050505b505050505050565b600082825260208201905092915050565b7f4552433136353a20696e76616c696420696e7465726661636520696400000000600082015250565b6000620005f3601c83620005aa565b91506200060082620005bb565b602082019050919050565b600060208201905081810360008301526200062681620005e4565b9050919050565b615c47806200063d6000396000f3fe608060405234801561001057600080fd5b50600436106103a45760003560e01c806386fdbe70116101e9578063c4c9e2681161010f578063dd30cf39116100ad578063f572002f1161007c578063f572002f14610c6a578063fc05a80e14610c9a578063fe2c7bbc14610cca578063fed3d31a14610cfa576103a4565b8063dd30cf3914610bbe578063e4623c1b14610bee578063e853888914610c0a578063e985e9c514610c3a576103a4565b8063cee2013c116100e9578063cee2013c14610afe578063cfdc65cf14610b2e578063d437a1a714610b5e578063d97dc47d14610b8e576103a4565b8063c4c9e26814610a82578063c5c715e414610ab2578063c87b56dd14610ace576103a4565b80639d0e336a11610187578063b8dcb01f11610156578063b8dcb01f14610a12578063b8f4943614610a2e578063ba1b7e7614610a4a578063c3ca81a914610a66576103a4565b80639d0e336a1461097a578063a22cb465146109aa578063a52676bf146109c6578063b88d4fde146109f6576103a4565b806393d7154a116101c357806393d7154a146108e057806394313e6b1461091057806395d89b41146109405780639cd3cad61461095e576103a4565b806386fdbe7014610850578063880c0cf21461088057806390d190ae146108b0576103a4565b806342842e0e116102ce578063572b6c051161026c57806370a082311161023b57806370a08231146107b65780637da0a877146107e65780637fa29d8714610804578063836a104014610834576103a4565b8063572b6c051461071c5780635b82c53f1461074c5780635da040ef146107685780636352211e14610786576103a4565b80634852a4c8116102a85780634852a4c81461066e578063486ff0cd1461069e5780634945fcc7146106bc578063545f1043146106ec576103a4565b806342842e0e1461060657806342966c6814610622578063430c20811461063e576103a4565b80630b4b67d6116103465780632a4ecbd3116103155780632a4ecbd3146105595780632a55205a146105895780632c05c7dd146105ba578063330a347b146105ea576103a4565b80630b4b67d6146104bf5780630e094137146104ef5780631746a2b61461050d57806323b872dd1461053d576103a4565b8063081812fc11610382578063081812fc1461041357806308d59cda14610443578063095ea7b31461047357806309db6aaf1461048f576103a4565b806301ffc9a7146103a957806302c37ddc146103d957806306fdde03146103f5575b600080fd5b6103c360048036038101906103be9190613e30565b610d16565b6040516103d09190613e78565b60405180910390f35b6103f360048036038101906103ee9190613ec9565b610d80565b005b6103fd610e1b565b60405161040a9190613f86565b60405180910390f35b61042d60048036038101906104289190613ec9565b610ead565b60405161043a9190613fe9565b60405180910390f35b61045d60048036038101906104589190613ec9565b610ef3565b60405161046a91906140c2565b60405180910390f35b61048d60048036038101906104889190614110565b610fa1565b005b6104a960048036038101906104a49190614150565b6110b8565b6040516104b6919061419f565b60405180910390f35b6104d960048036038101906104d49190613ec9565b6110ea565b6040516104e6919061419f565b60405180910390f35b6104f761110e565b604051610504919061419f565b60405180910390f35b61052760048036038101906105229190613ec9565b611118565b6040516105349190614278565b60405180910390f35b6105576004803603810190610552919061429a565b6111fd565b005b610573600480360381019061056e9190613ec9565b61125d565b6040516105809190613f86565b60405180910390f35b6105a3600480360381019061059e9190614150565b611305565b6040516105b19291906142ed565b60405180910390f35b6105d460048036038101906105cf9190614150565b6113b2565b6040516105e1919061419f565b60405180910390f35b61060460048036038101906105ff9190613ec9565b6113e1565b005b610620600480360381019061061b919061429a565b611422565b005b61063c60048036038101906106379190613ec9565b611442565b005b61065860048036038101906106539190614110565b61148a565b6040516106659190613e78565b60405180910390f35b61068860048036038101906106839190614150565b61149e565b6040516106959190613fe9565b60405180910390f35b6106a66114d0565b6040516106b39190613f86565b60405180910390f35b6106d660048036038101906106d19190613ec9565b61155e565b6040516106e39190613f86565b60405180910390f35b61070660048036038101906107019190613ec9565b611606565b6040516107139190613f86565b60405180910390f35b61073660048036038101906107319190614316565b6116ae565b6040516107439190613e78565b60405180910390f35b61076660048036038101906107619190614343565b611708565b005b610770611770565b60405161077d919061419f565b60405180910390f35b6107a0600480360381019061079b9190613ec9565b61177a565b6040516107ad9190613fe9565b60405180910390f35b6107d060048036038101906107cb9190614316565b61182b565b6040516107dd919061419f565b60405180910390f35b6107ee6118e2565b6040516107fb9190613fe9565b60405180910390f35b61081e60048036038101906108199190613ec9565b61190c565b60405161082b91906140c2565b60405180910390f35b61084e60048036038101906108499190614383565b6119bb565b005b61086a60048036038101906108659190613ec9565b611abd565b6040516108779190613f86565b60405180910390f35b61089a60048036038101906108959190613ec9565b611b65565b6040516108a79190613f86565b60405180910390f35b6108ca60048036038101906108c59190613ec9565b611c0d565b6040516108d79190613e78565b60405180910390f35b6108fa60048036038101906108f59190613ec9565b611c3a565b6040516109079190613f86565b60405180910390f35b61092a60048036038101906109259190614537565b611ce2565b604051610937919061419f565b60405180910390f35b610948611df4565b6040516109559190613f86565b60405180910390f35b61097860048036038101906109739190614343565b611e86565b005b610994600480360381019061098f9190614110565b611f14565b6040516109a1919061419f565b60405180910390f35b6109c460048036038101906109bf91906146f6565b611f6f565b005b6109e060048036038101906109db9190614316565b611f85565b6040516109ed91906140c2565b60405180910390f35b610a106004803603810190610a0b91906147d7565b612033565b005b610a2c6004803603810190610a2791906149e5565b612095565b005b610a486004803603810190610a439190614a8c565b61218e565b005b610a646004803603810190610a5f91906149e5565b612300565b005b610a806004803603810190610a7b9190614bdc565b6123e9565b005b610a9c6004803603810190610a979190613ec9565b612587565b604051610aa99190613f86565b60405180910390f35b610acc6004803603810190610ac79190614c67565b61262f565b005b610ae86004803603810190610ae39190613ec9565b6126ef565b604051610af59190613f86565b60405180910390f35b610b186004803603810190610b139190613ec9565b6127f2565b604051610b25919061419f565b60405180910390f35b610b486004803603810190610b439190613ec9565b612819565b604051610b559190613e78565b60405180910390f35b610b786004803603810190610b739190613ec9565b612846565b604051610b859190613e78565b60405180910390f35b610ba86004803603810190610ba39190614343565b612873565b604051610bb59190613e78565b60405180910390f35b610bd86004803603810190610bd39190613ec9565b6128a5565b604051610be59190613fe9565b60405180910390f35b610c086004803603810190610c039190614cdf565b6128e5565b005b610c246004803603810190610c1f9190613ec9565b612929565b604051610c319190613fe9565b60405180910390f35b610c546004803603810190610c4f9190614d28565b612969565b604051610c619190613e78565b60405180910390f35b610c846004803603810190610c7f9190613ec9565b6129fd565b604051610c91919061419f565b60405180910390f35b610cb46004803603810190610caf9190614316565b612a24565b604051610cc1919061419f565b60405180910390f35b610ce46004803603810190610cdf9190613ec9565b612a74565b604051610cf19190613f86565b60405180910390f35b610d146004803603810190610d0f9190614d68565b612b1c565b005b60007f01ffc9a7000000000000000000000000000000000000000000000000000000007bffffffffffffffffffffffffffffffffffffffffffffffffffffffff1916827bffffffffffffffffffffffffffffffffffffffffffffffffffffffff1916149050919050565b6000600b60008381526020019081526020016000209050610da081612c2e565b610dbd610dab612c8d565b82600d01612c9c90919063ffffffff16565b50610e168260086000610dce612c8d565b73ffffffffffffffffffffffffffffffffffffffff1673ffffffffffffffffffffffffffffffffffffffff168152602001908152602001600020612ccc90919063ffffffff16565b505050565b606060018054610e2a90614e6e565b80601f0160208091040260200160405190810160405280929190818152602001828054610e5690614e6e565b8015610ea35780601f10610e7857610100808354040283529160200191610ea3565b820191906000526020600020905b815481529060010190602001808311610e8657829003601f168201915b5050505050905090565b6000610eb882612ce6565b6005600083815260200190815260200160002060009054906101000a900473ffffffffffffffffffffffffffffffffffffffff169050919050565b60606000610f00836110ea565b905060008167ffffffffffffffff811115610f1e57610f1d6143e0565b5b604051908082528060200260200182016040528015610f4c5781602001602082028036833780820191505090505b50905060005b82811015610f9657610f6485826113b2565b828281518110610f7757610f76614e9f565b5b6020026020010181815250508080610f8e90614efd565b915050610f52565b508092505050919050565b6000610fac8261177a565b90508073ffffffffffffffffffffffffffffffffffffffff168373ffffffffffffffffffffffffffffffffffffffff160361101c576040517f08c379a000000000000000000000000000000000000000000000000000000000815260040161101390614fb7565b60405180910390fd5b8073ffffffffffffffffffffffffffffffffffffffff1661103b612c8d565b73ffffffffffffffffffffffffffffffffffffffff16148061106a575061106981611064612c8d565b612969565b5b6110a9576040517f08c379a00000000000000000000000000000000000000000000000000000000081526004016110a090615049565b60405180910390fd5b6110b38383612d31565b505050565b60006110e282600b6000868152602001908152602001600020600b01612dea90919063ffffffff16565b905092915050565b600061110760096000848152602001908152602001600020612e04565b9050919050565b6000600e54905090565b60606000611125836127f2565b905060008167ffffffffffffffff811115611143576111426143e0565b5b6040519080825280602002602001820160405280156111715781602001602082028036833780820191505090505b50905060005b81518110156111f25761119261118d86836110b8565b61177a565b8282815181106111a5576111a4614e9f565b5b602002602001019073ffffffffffffffffffffffffffffffffffffffff16908173ffffffffffffffffffffffffffffffffffffffff168152505080806111ea90614efd565b915050611177565b508092505050919050565b61120e611208612c8d565b82612e19565b61124d576040517f08c379a0000000000000000000000000000000000000000000000000000000008152600401611244906150db565b60405180910390fd5b611258838383612eae565b505050565b6060600b6000838152602001908152602001600020600801805461128090614e6e565b80601f01602080910402602001604051908101604052809291908181526020018280546112ac90614e6e565b80156112f95780601f106112ce576101008083540402835291602001916112f9565b820191906000526020600020905b8154815290600101906020018083116112dc57829003601f168201915b50505050509050919050565b6000806000600b6000600c600088815260200190815260200160002054815260200190815260200160002060000160019054906101000a900473ffffffffffffffffffffffffffffffffffffffff169050600073ffffffffffffffffffffffffffffffffffffffff168173ffffffffffffffffffffffffffffffffffffffff16036113975760008092509250506113ab565b80600a856113a5919061512a565b92509250505b9250929050565b60006113d98260096000868152602001908152602001600020612dea90919063ffffffff16565b905092915050565b6000600b6000838152602001908152602001600020905061140181612c2e565b60018160000160006101000a81548160ff0219169083151502179055505050565b61143d83838360405180602001604052806000815250612033565b505050565b61144b81613114565b61148681600b6000600c6000868152602001908152602001600020548152602001908152602001600020600b01612ccc90919063ffffffff16565b5050565b60006114968383612e19565b905092915050565b60006114c882600b6000868152602001908152602001600020600d0161317090919063ffffffff16565b905092915050565b601180546114dd90614e6e565b80601f016020809104026020016040519081016040528092919081815260200182805461150990614e6e565b80156115565780601f1061152b57610100808354040283529160200191611556565b820191906000526020600020905b81548152906001019060200180831161153957829003601f168201915b505050505081565b6060600b6000838152602001908152602001600020600301805461158190614e6e565b80601f01602080910402602001604051908101604052809291908181526020018280546115ad90614e6e565b80156115fa5780601f106115cf576101008083540402835291602001916115fa565b820191906000526020600020905b8154815290600101906020018083116115dd57829003601f168201915b50505050509050919050565b6060600b6000838152602001908152602001600020600201805461162990614e6e565b80601f016020809104026020016040519081016040528092919081815260200182805461165590614e6e565b80156116a25780601f10611677576101008083540402835291602001916116a2565b820191906000526020600020905b81548152906001019060200180831161168557829003601f168201915b50505050509050919050565b6000600760009054906101000a900473ffffffffffffffffffffffffffffffffffffffff1673ffffffffffffffffffffffffffffffffffffffff168273ffffffffffffffffffffffffffffffffffffffff16149050919050565b6000600b6000848152602001908152602001600020905061172881612c2e565b818160000160016101000a81548173ffffffffffffffffffffffffffffffffffffffff021916908373ffffffffffffffffffffffffffffffffffffffff160217905550505050565b6000600f54905090565b6000806003600084815260200190815260200160002060009054906101000a900473ffffffffffffffffffffffffffffffffffffffff169050600073ffffffffffffffffffffffffffffffffffffffff168173ffffffffffffffffffffffffffffffffffffffff1603611822576040517f08c379a0000000000000000000000000000000000000000000000000000000008152600401611819906151a7565b60405180910390fd5b80915050919050565b60008073ffffffffffffffffffffffffffffffffffffffff168273ffffffffffffffffffffffffffffffffffffffff160361189b576040517f08c379a000000000000000000000000000000000000000000000000000000000815260040161189290615239565b60405180910390fd5b600460008373ffffffffffffffffffffffffffffffffffffffff1673ffffffffffffffffffffffffffffffffffffffff168152602001908152602001600020549050919050565b6000600760009054906101000a900473ffffffffffffffffffffffffffffffffffffffff16905090565b60606000611919836127f2565b905060008167ffffffffffffffff811115611937576119366143e0565b5b6040519080825280602002602001820160405280156119655781602001602082028036833780820191505090505b50905060005b81518110156119b05761197e85826110b8565b82828151811061199157611990614e9f565b5b60200260200101818152505080806119a890614efd565b91505061196b565b508092505050919050565b6001600a600083815260200190815260200160002060030160006101000a81548160ff0219169083151502179055506000600b60008581526020019081526020016000209050611a0d81600b01612e04565b816009015411611a52576040517f08c379a0000000000000000000000000000000000000000000000000000000008152600401611a49906152cb565b60405180910390fd5b8060000160009054906101000a900460ff1615611aa4576040517f08c379a0000000000000000000000000000000000000000000000000000000008152600401611a9b90615337565b60405180910390fd5b611aad81612c2e565b611ab7838561318a565b50505050565b6060600a60008381526020019081526020016000206002018054611ae090614e6e565b80601f0160208091040260200160405190810160405280929190818152602001828054611b0c90614e6e565b8015611b595780601f10611b2e57610100808354040283529160200191611b59565b820191906000526020600020905b815481529060010190602001808311611b3c57829003601f168201915b50505050509050919050565b6060600b60008381526020019081526020016000206004018054611b8890614e6e565b80601f0160208091040260200160405190810160405280929190818152602001828054611bb490614e6e565b8015611c015780601f10611bd657610100808354040283529160200191611c01565b820191906000526020600020905b815481529060010190602001808311611be457829003601f168201915b50505050509050919050565b6000600a600083815260200190815260200160002060030160009054906101000a900460ff169050919050565b6060600b6000838152602001908152602001600020600a018054611c5d90614e6e565b80601f0160208091040260200160405190810160405280929190818152602001828054611c8990614e6e565b8015611cd65780601f10611cab57610100808354040283529160200191611cd6565b820191906000526020600020905b815481529060010190602001808311611cb957829003601f168201915b50505050509050919050565b600080611cef308d6131f3565b90506000611d06828e8e8e8e8e8e8e8e8e8e613226565b90506000600b60008381526020019081526020016000209050611d3c611d2a612c8d565b82600d0161342a90919063ffffffff16565b50611d45612c8d565b8160000160016101000a81548173ffffffffffffffffffffffffffffffffffffffff021916908373ffffffffffffffffffffffffffffffffffffffff160217905550611ddf8260086000611d97612c8d565b73ffffffffffffffffffffffffffffffffffffffff1673ffffffffffffffffffffffffffffffffffffffff16815260200190815260200160002061345a90919063ffffffff16565b508193505050509a9950505050505050505050565b606060028054611e0390614e6e565b80601f0160208091040260200160405190810160405280929190818152602001828054611e2f90614e6e565b8015611e7c5780601f10611e5157610100808354040283529160200191611e7c565b820191906000526020600020905b815481529060010190602001808311611e5f57829003601f168201915b5050505050905090565b6000600b60008481526020019081526020016000209050611ea681612c2e565b611ebc8282600d0161342a90919063ffffffff16565b50611f0e83600860008573ffffffffffffffffffffffffffffffffffffffff1673ffffffffffffffffffffffffffffffffffffffff16815260200190815260200160002061345a90919063ffffffff16565b50505050565b6000611f6782600860008673ffffffffffffffffffffffffffffffffffffffff1673ffffffffffffffffffffffffffffffffffffffff168152602001908152602001600020612dea90919063ffffffff16565b905092915050565b611f81611f7a612c8d565b8383613474565b5050565b60606000611f9283612a24565b905060008167ffffffffffffffff811115611fb057611faf6143e0565b5b604051908082528060200260200182016040528015611fde5781602001602082028036833780820191505090505b50905060005b8281101561202857611ff68582611f14565b82828151811061200957612008614e9f565b5b602002602001018181525050808061202090614efd565b915050611fe4565b508092505050919050565b61204461203e612c8d565b83612e19565b612083576040517f08c379a000000000000000000000000000000000000000000000000000000000815260040161207a906150db565b60405180910390fd5b61208f848484846135e0565b50505050565b815183511480156120a7575080518351145b6040518060600160405280602e8152602001615be4602e913990612101576040517f08c379a00000000000000000000000000000000000000000000000000000000081526004016120f89190613f86565b60405180910390fd5b5060005b83518110156121885761217784828151811061212457612123614e9f565b5b602002602001015184838151811061213f5761213e614e9f565b5b602002602001015184848151811061215a57612159614e9f565b5b602002602001015160405180602001604052806000815250612033565b8061218190614efd565b9050612105565b50505050565b6000600b600085815260200190815260200160002090508060000160009054906101000a900460ff16156121f7576040517f08c379a00000000000000000000000000000000000000000000000000000000081526004016121ee90615337565b60405180910390fd5b600060106000815461220890614efd565b919050819055905084600a60008381526020019081526020016000206000018190555083600a600083815260200190815260200160002060010160006101000a81548173ffffffffffffffffffffffffffffffffffffffff021916908373ffffffffffffffffffffffffffffffffffffffff16021790555082600a600083815260200190815260200160002060020190816122a39190615503565b506000600a600083815260200190815260200160002060030160006101000a81548160ff0219169083151502179055506122f8816009600088815260200190815260200160002061345a90919063ffffffff16565b505050505050565b81518351148015612312575080518351145b6040518060600160405280602e8152602001615be4602e91399061236c576040517f08c379a00000000000000000000000000000000000000000000000000000000081526004016123639190613f86565b60405180910390fd5b5060005b83518110156123e3576123d284828151811061238f5761238e614e9f565b5b60200260200101518483815181106123aa576123a9614e9f565b5b60200260200101518484815181106123c5576123c4614e9f565b5b60200260200101516111fd565b806123dc90614efd565b9050612370565b50505050565b6000600b600085815260200190815260200160002090508060000160009054906101000a900460ff1615612452576040517f08c379a000000000000000000000000000000000000000000000000000000000815260040161244990615337565b60405180910390fd5b61245b81612c2e565b606060005b83518110156124ab576001600a600083815260200190815260200160002060030160006101000a81548160ff02191690831515021790555080806124a390614efd565b915050612460565b5060005b845181101561253b576124db8582815181106124ce576124cd614e9f565b5b602002602001015161363c565b8282815181106124ee576124ed614e9f565b5b602002602001019073ffffffffffffffffffffffffffffffffffffffff16908173ffffffffffffffffffffffffffffffffffffffff1681525050808061253390614efd565b9150506124af565b5060005b845181101561257f5761256c82828151811061255e5761255d614e9f565b5b60200260200101518761318a565b808061257790614efd565b91505061253f565b505050505050565b6060600b600083815260200190815260200160002060010180546125aa90614e6e565b80601f01602080910402602001604051908101604052809291908181526020018280546125d690614e6e565b80156126235780601f106125f857610100808354040283529160200191612623565b820191906000526020600020905b81548152906001019060200180831161260657829003601f168201915b50505050509050919050565b80518251146040518060600160405280602e8152602001615be4602e91399061268e576040517f08c379a00000000000000000000000000000000000000000000000000000000081526004016126859190613f86565b60405180910390fd5b5060005b82518110156126ea576126d98382815181106126b1576126b0614e9f565b5b60200260200101518383815181106126cc576126cb614e9f565b5b6020026020010151610fa1565b806126e390614efd565b9050612692565b505050565b60606126fa8261364a565b612739576040517f08c379a000000000000000000000000000000000000000000000000000000000815260040161273090615647565b60405180910390fd5b600b6000600c6000858152602001908152602001600020548152602001908152602001600020600101805461276d90614e6e565b80601f016020809104026020016040519081016040528092919081815260200182805461279990614e6e565b80156127e65780601f106127bb576101008083540402835291602001916127e6565b820191906000526020600020905b8154815290600101906020018083116127c957829003601f168201915b50505050509050919050565b6000612812600b6000848152602001908152602001600020600b01612e04565b9050919050565b6000600b600083815260200190815260200160002060060160009054906101000a900460ff169050919050565b6000600b600083815260200190815260200160002060000160009054906101000a900460ff169050919050565b600061289d82600b6000868152602001908152602001600020600d016136b690919063ffffffff16565b905092915050565b6000600b600083815260200190815260200160002060000160019054906101000a900473ffffffffffffffffffffffffffffffffffffffff169050919050565b60005b81518110156129255761291482828151811061290757612906614e9f565b5b6020026020010151611442565b8061291e90614efd565b90506128e8565b5050565b6000600a600083815260200190815260200160002060010160009054906101000a900473ffffffffffffffffffffffffffffffffffffffff169050919050565b6000600660008473ffffffffffffffffffffffffffffffffffffffff1673ffffffffffffffffffffffffffffffffffffffff16815260200190815260200160002060008373ffffffffffffffffffffffffffffffffffffffff1673ffffffffffffffffffffffffffffffffffffffff16815260200190815260200160002060009054906101000a900460ff16905092915050565b6000612a1d600b6000848152602001908152602001600020600d016136e6565b9050919050565b6000612a6d600860008473ffffffffffffffffffffffffffffffffffffffff1673ffffffffffffffffffffffffffffffffffffffff168152602001908152602001600020612e04565b9050919050565b6060600b60008381526020019081526020016000206005018054612a9790614e6e565b80601f0160208091040260200160405190810160405280929190818152602001828054612ac390614e6e565b8015612b105780601f10612ae557610100808354040283529160200191612b10565b820191906000526020600020905b815481529060010190602001808311612af357829003601f168201915b50505050509050919050565b82518451148015612b2e575081518451145b8015612b3b575080518451145b6040518060600160405280602e8152602001615be4602e913990612b95576040517f08c379a0000000000000000000000000000000000000000000000000000000008152600401612b8c9190613f86565b60405180910390fd5b5060005b8451811015612c2757612c16858281518110612bb857612bb7614e9f565b5b6020026020010151858381518110612bd357612bd2614e9f565b5b6020026020010151858481518110612bee57612bed614e9f565b5b6020026020010151858581518110612c0957612c08614e9f565b5b6020026020010151612033565b80612c2090614efd565b9050612b99565b5050505050565b612c4b612c39612c8d565b82600d016136b690919063ffffffff16565b612c8a576040517f08c379a0000000000000000000000000000000000000000000000000000000008152600401612c81906156b3565b60405180910390fd5b50565b6000612c976136fb565b905090565b6000612cc4836000018373ffffffffffffffffffffffffffffffffffffffff1660001b613737565b905092915050565b6000612cde836000018360001b613737565b905092915050565b612cef8161364a565b612d2e576040517f08c379a0000000000000000000000000000000000000000000000000000000008152600401612d25906151a7565b60405180910390fd5b50565b816005600083815260200190815260200160002060006101000a81548173ffffffffffffffffffffffffffffffffffffffff021916908373ffffffffffffffffffffffffffffffffffffffff160217905550808273ffffffffffffffffffffffffffffffffffffffff16612da48361177a565b73ffffffffffffffffffffffffffffffffffffffff167f8c5be1e5ebec7d5bd14f71427d1e84f3dd0314c0f7b2291e5b200ac8c7c3b92560405160405180910390a45050565b6000612df9836000018361384b565b60001c905092915050565b6000612e1282600001613876565b9050919050565b600080612e258361177a565b90508073ffffffffffffffffffffffffffffffffffffffff168473ffffffffffffffffffffffffffffffffffffffff161480612e675750612e668185612969565b5b80612ea557508373ffffffffffffffffffffffffffffffffffffffff16612e8d84610ead565b73ffffffffffffffffffffffffffffffffffffffff16145b91505092915050565b8273ffffffffffffffffffffffffffffffffffffffff16612ece8261177a565b73ffffffffffffffffffffffffffffffffffffffff1614612f24576040517f08c379a0000000000000000000000000000000000000000000000000000000008152600401612f1b90615745565b60405180910390fd5b600073ffffffffffffffffffffffffffffffffffffffff168273ffffffffffffffffffffffffffffffffffffffff1603612f93576040517f08c379a0000000000000000000000000000000000000000000000000000000008152600401612f8a906157d7565b60405180910390fd5b612f9e838383613887565b612fa9600082612d31565b6001600460008573ffffffffffffffffffffffffffffffffffffffff1673ffffffffffffffffffffffffffffffffffffffff1681526020019081526020016000206000828254612ff991906157f7565b925050819055506001600460008473ffffffffffffffffffffffffffffffffffffffff1673ffffffffffffffffffffffffffffffffffffffff1681526020019081526020016000206000828254613050919061582b565b92505081905550816003600083815260200190815260200160002060006101000a81548173ffffffffffffffffffffffffffffffffffffffff021916908373ffffffffffffffffffffffffffffffffffffffff160217905550808273ffffffffffffffffffffffffffffffffffffffff168473ffffffffffffffffffffffffffffffffffffffff167fddf252ad1be2c89b69c2b068fc378daa952ba7f163c4a11628f55a4df523b3ef60405160405180910390a461310f83838361388c565b505050565b61312561311f612c8d565b82612e19565b613164576040517f08c379a000000000000000000000000000000000000000000000000000000000815260040161315b906150db565b60405180910390fd5b61316d81613891565b50565b600061317f836000018361384b565b60001c905092915050565b6000600e6000815461319b90614efd565b91905081905590506131ad83826139ae565b6131d581600b6000858152602001908152602001600020600b0161345a90919063ffffffff16565b5081600c600083815260200190815260200160002081905550505050565b6000828260405160200161320892919061585f565b60405160208183030381529060405280519060200120905092915050565b600080600d60008e8152602001908152602001600020541461327d576040517f08c379a0000000000000000000000000000000000000000000000000000000008152600401613274906158db565b60405180910390fd5b6000600f6000815461328e90614efd565b91905081905590508b600b600083815260200190815260200160002060010190816132b99190615503565b508a600b600083815260200190815260200160002060020190816132dd9190615503565b5089600b600083815260200190815260200160002060030190816133019190615503565b5088600b600083815260200190815260200160002060040190816133259190615503565b5087600b600083815260200190815260200160002060050190816133499190615503565b5085600b6000838152602001908152602001600020600701908161336d9190615503565b5084600b600083815260200190815260200160002060080190816133919190615503565b5083600b6000838152602001908152602001600020600a0190816133b59190615503565b5086600b600083815260200190815260200160002060060160006101000a81548160ff02191690831515021790555082600b60008381526020019081526020016000206009018190555080600d60008f815260200190815260200160002081905550809150509b9a5050505050505050505050565b6000613452836000018373ffffffffffffffffffffffffffffffffffffffff1660001b613b87565b905092915050565b600061346c836000018360001b613b87565b905092915050565b8173ffffffffffffffffffffffffffffffffffffffff168373ffffffffffffffffffffffffffffffffffffffff16036134e2576040517f08c379a00000000000000000000000000000000000000000000000000000000081526004016134d990615947565b60405180910390fd5b80600660008573ffffffffffffffffffffffffffffffffffffffff1673ffffffffffffffffffffffffffffffffffffffff16815260200190815260200160002060008473ffffffffffffffffffffffffffffffffffffffff1673ffffffffffffffffffffffffffffffffffffffff16815260200190815260200160002060006101000a81548160ff0219169083151502179055508173ffffffffffffffffffffffffffffffffffffffff168373ffffffffffffffffffffffffffffffffffffffff167f17307eab39ab6107e8899845ad3d59bd9653f200f220920489ca2b5937696c31836040516135d39190613e78565b60405180910390a3505050565b6135eb848484612eae565b6135f784848484613bf7565b613636576040517f08c379a000000000000000000000000000000000000000000000000000000000815260040161362d906159d9565b60405180910390fd5b50505050565b600060208201519050919050565b60008073ffffffffffffffffffffffffffffffffffffffff166003600084815260200190815260200160002060009054906101000a900473ffffffffffffffffffffffffffffffffffffffff1673ffffffffffffffffffffffffffffffffffffffff1614159050919050565b60006136de836000018373ffffffffffffffffffffffffffffffffffffffff1660001b613d7e565b905092915050565b60006136f482600001613876565b9050919050565b600060146000369050101580156137175750613716336116ae565b5b1561372b57601436033560601c9050613733565b339050613734565b5b90565b6000808360010160008481526020019081526020016000205490506000811461383f57600060018261376991906157f7565b905060006001866000018054905061378191906157f7565b90508181146137f05760008660000182815481106137a2576137a1614e9f565b5b90600052602060002001549050808760000184815481106137c6576137c5614e9f565b5b90600052602060002001819055508387600101600083815260200190815260200160002081905550505b85600001805480613804576138036159f9565b5b600190038181906000526020600020016000905590558560010160008681526020019081526020016000206000905560019350505050613845565b60009150505b92915050565b600082600001828154811061386357613862614e9f565b5b9060005260206000200154905092915050565b600081600001805490509050919050565b505050565b505050565b600061389c8261177a565b90506138aa81600084613887565b6138b5600083612d31565b6001600460008373ffffffffffffffffffffffffffffffffffffffff1673ffffffffffffffffffffffffffffffffffffffff168152602001908152602001600020600082825461390591906157f7565b925050819055506003600083815260200190815260200160002060006101000a81549073ffffffffffffffffffffffffffffffffffffffff021916905581600073ffffffffffffffffffffffffffffffffffffffff168273ffffffffffffffffffffffffffffffffffffffff167fddf252ad1be2c89b69c2b068fc378daa952ba7f163c4a11628f55a4df523b3ef60405160405180910390a46139aa8160008461388c565b5050565b600073ffffffffffffffffffffffffffffffffffffffff168273ffffffffffffffffffffffffffffffffffffffff1603613a1d576040517f08c379a0000000000000000000000000000000000000000000000000000000008152600401613a1490615a74565b60405180910390fd5b613a268161364a565b15613a66576040517f08c379a0000000000000000000000000000000000000000000000000000000008152600401613a5d90615ae0565b60405180910390fd5b613a7260008383613887565b6001600460008473ffffffffffffffffffffffffffffffffffffffff1673ffffffffffffffffffffffffffffffffffffffff1681526020019081526020016000206000828254613ac2919061582b565b92505081905550816003600083815260200190815260200160002060006101000a81548173ffffffffffffffffffffffffffffffffffffffff021916908373ffffffffffffffffffffffffffffffffffffffff160217905550808273ffffffffffffffffffffffffffffffffffffffff16600073ffffffffffffffffffffffffffffffffffffffff167fddf252ad1be2c89b69c2b068fc378daa952ba7f163c4a11628f55a4df523b3ef60405160405180910390a4613b836000838361388c565b5050565b6000613b938383613d7e565b613bec578260000182908060018154018082558091505060019003906000526020600020016000909190919091505582600001805490508360010160008481526020019081526020016000208190555060019050613bf1565b600090505b92915050565b6000613c188473ffffffffffffffffffffffffffffffffffffffff16613da1565b15613d71578373ffffffffffffffffffffffffffffffffffffffff1663150b7a02613c41612c8d565b8786866040518563ffffffff1660e01b8152600401613c639493929190615b55565b6020604051808303816000875af1925050508015613c9f57506040513d601f19601f82011682018060405250810190613c9c9190615bb6565b60015b613d21573d8060008114613ccf576040519150601f19603f3d011682016040523d82523d6000602084013e613cd4565b606091505b506000815103613d19576040517f08c379a0000000000000000000000000000000000000000000000000000000008152600401613d10906159d9565b60405180910390fd5b805181602001fd5b63150b7a0260e01b7bffffffffffffffffffffffffffffffffffffffffffffffffffffffff1916817bffffffffffffffffffffffffffffffffffffffffffffffffffffffff191614915050613d76565b600190505b949350505050565b600080836001016000848152602001908152602001600020541415905092915050565b6000808273ffffffffffffffffffffffffffffffffffffffff163b119050919050565b6000604051905090565b600080fd5b600080fd5b60007fffffffff0000000000000000000000000000000000000000000000000000000082169050919050565b613e0d81613dd8565b8114613e1857600080fd5b50565b600081359050613e2a81613e04565b92915050565b600060208284031215613e4657613e45613dce565b5b6000613e5484828501613e1b565b91505092915050565b60008115159050919050565b613e7281613e5d565b82525050565b6000602082019050613e8d6000830184613e69565b92915050565b6000819050919050565b613ea681613e93565b8114613eb157600080fd5b50565b600081359050613ec381613e9d565b92915050565b600060208284031215613edf57613ede613dce565b5b6000613eed84828501613eb4565b91505092915050565b600081519050919050565b600082825260208201905092915050565b60005b83811015613f30578082015181840152602081019050613f15565b60008484015250505050565b6000601f19601f8301169050919050565b6000613f5882613ef6565b613f628185613f01565b9350613f72818560208601613f12565b613f7b81613f3c565b840191505092915050565b60006020820190508181036000830152613fa08184613f4d565b905092915050565b600073ffffffffffffffffffffffffffffffffffffffff82169050919050565b6000613fd382613fa8565b9050919050565b613fe381613fc8565b82525050565b6000602082019050613ffe6000830184613fda565b92915050565b600081519050919050565b600082825260208201905092915050565b6000819050602082019050919050565b61403981613e93565b82525050565b600061404b8383614030565b60208301905092915050565b6000602082019050919050565b600061406f82614004565b614079818561400f565b935061408483614020565b8060005b838110156140b557815161409c888261403f565b97506140a783614057565b925050600181019050614088565b5085935050505092915050565b600060208201905081810360008301526140dc8184614064565b905092915050565b6140ed81613fc8565b81146140f857600080fd5b50565b60008135905061410a816140e4565b92915050565b6000806040838503121561412757614126613dce565b5b6000614135858286016140fb565b925050602061414685828601613eb4565b9150509250929050565b6000806040838503121561416757614166613dce565b5b600061417585828601613eb4565b925050602061418685828601613eb4565b9150509250929050565b61419981613e93565b82525050565b60006020820190506141b46000830184614190565b92915050565b600081519050919050565b600082825260208201905092915050565b6000819050602082019050919050565b6141ef81613fc8565b82525050565b600061420183836141e6565b60208301905092915050565b6000602082019050919050565b6000614225826141ba565b61422f81856141c5565b935061423a836141d6565b8060005b8381101561426b57815161425288826141f5565b975061425d8361420d565b92505060018101905061423e565b5085935050505092915050565b60006020820190508181036000830152614292818461421a565b905092915050565b6000806000606084860312156142b3576142b2613dce565b5b60006142c1868287016140fb565b93505060206142d2868287016140fb565b92505060406142e386828701613eb4565b9150509250925092565b60006040820190506143026000830185613fda565b61430f6020830184614190565b9392505050565b60006020828403121561432c5761432b613dce565b5b600061433a848285016140fb565b91505092915050565b6000806040838503121561435a57614359613dce565b5b600061436885828601613eb4565b9250506020614379858286016140fb565b9150509250929050565b60008060006060848603121561439c5761439b613dce565b5b60006143aa86828701613eb4565b93505060206143bb868287016140fb565b92505060406143cc86828701613eb4565b9150509250925092565b600080fd5b600080fd5b7f4e487b7100000000000000000000000000000000000000000000000000000000600052604160045260246000fd5b61441882613f3c565b810181811067ffffffffffffffff82111715614437576144366143e0565b5b80604052505050565b600061444a613dc4565b9050614456828261440f565b919050565b600067ffffffffffffffff821115614476576144756143e0565b5b61447f82613f3c565b9050602081019050919050565b82818337600083830152505050565b60006144ae6144a98461445b565b614440565b9050828152602081018484840111156144ca576144c96143db565b5b6144d584828561448c565b509392505050565b600082601f8301126144f2576144f16143d6565b5b813561450284826020860161449b565b91505092915050565b61451481613e5d565b811461451f57600080fd5b50565b6000813590506145318161450b565b92915050565b6000806000806000806000806000806101408b8d03121561455b5761455a613dce565b5b60008b013567ffffffffffffffff81111561457957614578613dd3565b5b6145858d828e016144dd565b9a505060208b013567ffffffffffffffff8111156145a6576145a5613dd3565b5b6145b28d828e016144dd565b99505060408b013567ffffffffffffffff8111156145d3576145d2613dd3565b5b6145df8d828e016144dd565b98505060608b013567ffffffffffffffff811115614600576145ff613dd3565b5b61460c8d828e016144dd565b97505060808b013567ffffffffffffffff81111561462d5761462c613dd3565b5b6146398d828e016144dd565b96505060a061464a8d828e01614522565b95505060c08b013567ffffffffffffffff81111561466b5761466a613dd3565b5b6146778d828e016144dd565b94505060e08b013567ffffffffffffffff81111561469857614697613dd3565b5b6146a48d828e016144dd565b9350506101008b013567ffffffffffffffff8111156146c6576146c5613dd3565b5b6146d28d828e016144dd565b9250506101206146e48d828e01613eb4565b9150509295989b9194979a5092959850565b6000806040838503121561470d5761470c613dce565b5b600061471b858286016140fb565b925050602061472c85828601614522565b9150509250929050565b600067ffffffffffffffff821115614751576147506143e0565b5b61475a82613f3c565b9050602081019050919050565b600061477a61477584614736565b614440565b905082815260208101848484011115614796576147956143db565b5b6147a184828561448c565b509392505050565b600082601f8301126147be576147bd6143d6565b5b81356147ce848260208601614767565b91505092915050565b600080600080608085870312156147f1576147f0613dce565b5b60006147ff878288016140fb565b9450506020614810878288016140fb565b935050604061482187828801613eb4565b925050606085013567ffffffffffffffff81111561484257614841613dd3565b5b61484e878288016147a9565b91505092959194509250565b600067ffffffffffffffff821115614875576148746143e0565b5b602082029050602081019050919050565b600080fd5b600061489e6148998461485a565b614440565b905080838252602082019050602084028301858111156148c1576148c0614886565b5b835b818110156148ea57806148d688826140fb565b8452602084019350506020810190506148c3565b5050509392505050565b600082601f830112614909576149086143d6565b5b813561491984826020860161488b565b91505092915050565b600067ffffffffffffffff82111561493d5761493c6143e0565b5b602082029050602081019050919050565b600061496161495c84614922565b614440565b9050808382526020820190506020840283018581111561498457614983614886565b5b835b818110156149ad57806149998882613eb4565b845260208401935050602081019050614986565b5050509392505050565b600082601f8301126149cc576149cb6143d6565b5b81356149dc84826020860161494e565b91505092915050565b6000806000606084860312156149fe576149fd613dce565b5b600084013567ffffffffffffffff811115614a1c57614a1b613dd3565b5b614a28868287016148f4565b935050602084013567ffffffffffffffff811115614a4957614a48613dd3565b5b614a55868287016148f4565b925050604084013567ffffffffffffffff811115614a7657614a75613dd3565b5b614a82868287016149b7565b9150509250925092565b600080600060608486031215614aa557614aa4613dce565b5b6000614ab386828701613eb4565b9350506020614ac4868287016140fb565b925050604084013567ffffffffffffffff811115614ae557614ae4613dd3565b5b614af1868287016144dd565b9150509250925092565b600067ffffffffffffffff821115614b1657614b156143e0565b5b602082029050602081019050919050565b6000614b3a614b3584614afb565b614440565b90508083825260208201905060208402830185811115614b5d57614b5c614886565b5b835b81811015614ba457803567ffffffffffffffff811115614b8257614b816143d6565b5b808601614b8f89826147a9565b85526020850194505050602081019050614b5f565b5050509392505050565b600082601f830112614bc357614bc26143d6565b5b8135614bd3848260208601614b27565b91505092915050565b600080600060608486031215614bf557614bf4613dce565b5b6000614c0386828701613eb4565b935050602084013567ffffffffffffffff811115614c2457614c23613dd3565b5b614c3086828701614bae565b925050604084013567ffffffffffffffff811115614c5157614c50613dd3565b5b614c5d868287016149b7565b9150509250925092565b60008060408385031215614c7e57614c7d613dce565b5b600083013567ffffffffffffffff811115614c9c57614c9b613dd3565b5b614ca8858286016148f4565b925050602083013567ffffffffffffffff811115614cc957614cc8613dd3565b5b614cd5858286016149b7565b9150509250929050565b600060208284031215614cf557614cf4613dce565b5b600082013567ffffffffffffffff811115614d1357614d12613dd3565b5b614d1f848285016149b7565b91505092915050565b60008060408385031215614d3f57614d3e613dce565b5b6000614d4d858286016140fb565b9250506020614d5e858286016140fb565b9150509250929050565b60008060008060808587031215614d8257614d81613dce565b5b600085013567ffffffffffffffff811115614da057614d9f613dd3565b5b614dac878288016148f4565b945050602085013567ffffffffffffffff811115614dcd57614dcc613dd3565b5b614dd9878288016148f4565b935050604085013567ffffffffffffffff811115614dfa57614df9613dd3565b5b614e06878288016149b7565b925050606085013567ffffffffffffffff811115614e2757614e26613dd3565b5b614e3387828801614bae565b91505092959194509250565b7f4e487b7100000000000000000000000000000000000000000000000000000000600052602260045260246000fd5b60006002820490506001821680614e8657607f821691505b602082108103614e9957614e98614e3f565b5b50919050565b7f4e487b7100000000000000000000000000000000000000000000000000000000600052603260045260246000fd5b7f4e487b7100000000000000000000000000000000000000000000000000000000600052601160045260246000fd5b6000614f0882613e93565b91507fffffffffffffffffffffffffffffffffffffffffffffffffffffffffffffffff8203614f3a57614f39614ece565b5b600182019050919050565b7f4552433732313a20617070726f76616c20746f2063757272656e74206f776e6560008201527f7200000000000000000000000000000000000000000000000000000000000000602082015250565b6000614fa1602183613f01565b9150614fac82614f45565b604082019050919050565b60006020820190508181036000830152614fd081614f94565b9050919050565b7f4552433732313a20617070726f76652063616c6c6572206973206e6f7420746f60008201527f6b656e206f776e6572206e6f7220617070726f76656420666f7220616c6c0000602082015250565b6000615033603e83613f01565b915061503e82614fd7565b604082019050919050565b6000602082019050818103600083015261506281615026565b9050919050565b7f4552433732313a2063616c6c6572206973206e6f7420746f6b656e206f776e6560008201527f72206e6f7220617070726f766564000000000000000000000000000000000000602082015250565b60006150c5602e83613f01565b91506150d082615069565b604082019050919050565b600060208201905081810360008301526150f4816150b8565b9050919050565b7f4e487b7100000000000000000000000000000000000000000000000000000000600052601260045260246000fd5b600061513582613e93565b915061514083613e93565b9250826151505761514f6150fb565b5b828204905092915050565b7f4552433732313a20696e76616c696420746f6b656e2049440000000000000000600082015250565b6000615191601883613f01565b915061519c8261515b565b602082019050919050565b600060208201905081810360008301526151c081615184565b9050919050565b7f4552433732313a2061646472657373207a65726f206973206e6f74206120766160008201527f6c6964206f776e65720000000000000000000000000000000000000000000000602082015250565b6000615223602983613f01565b915061522e826151c7565b604082019050919050565b6000602082019050818103600083015261525281615216565b9050919050565b7f74686520746f74616c20737570706c7920666f722074686973206576656e742060008201527f6973207265616368656421000000000000000000000000000000000000000000602082015250565b60006152b5602b83613f01565b91506152c082615259565b604082019050919050565b600060208201905081810360008301526152e4816152a8565b9050919050565b7f4576656e7420456e646564000000000000000000000000000000000000000000600082015250565b6000615321600b83613f01565b915061532c826152eb565b602082019050919050565b6000602082019050818103600083015261535081615314565b9050919050565b60008190508160005260206000209050919050565b60006020601f8301049050919050565b600082821b905092915050565b6000600883026153b97fffffffffffffffffffffffffffffffffffffffffffffffffffffffffffffffff8261537c565b6153c3868361537c565b95508019841693508086168417925050509392505050565b6000819050919050565b60006154006153fb6153f684613e93565b6153db565b613e93565b9050919050565b6000819050919050565b61541a836153e5565b61542e61542682615407565b848454615389565b825550505050565b600090565b615443615436565b61544e818484615411565b505050565b5b818110156154725761546760008261543b565b600181019050615454565b5050565b601f8211156154b75761548881615357565b6154918461536c565b810160208510156154a0578190505b6154b46154ac8561536c565b830182615453565b50505b505050565b600082821c905092915050565b60006154da600019846008026154bc565b1980831691505092915050565b60006154f383836154c9565b9150826002028217905092915050565b61550c82613ef6565b67ffffffffffffffff811115615525576155246143e0565b5b61552f8254614e6e565b61553a828285615476565b600060209050601f83116001811461556d576000841561555b578287015190505b61556585826154e7565b8655506155cd565b601f19841661557b86615357565b60005b828110156155a35784890151825560018201915060208501945060208101905061557e565b868310156155c057848901516155bc601f8916826154c9565b8355505b6001600288020188555050505b505050505050565b7f4552433732314d657461646174613a2055524920717565727920666f72206e6f60008201527f6e6578697374656e7420746f6b656e0000000000000000000000000000000000602082015250565b6000615631602f83613f01565b915061563c826155d5565b604082019050919050565b6000602082019050818103600083015261566081615624565b9050919050565b7f4e6f74206576656e74206d696e74657200000000000000000000000000000000600082015250565b600061569d601083613f01565b91506156a882615667565b602082019050919050565b600060208201905081810360008301526156cc81615690565b9050919050565b7f4552433732313a207472616e736665722066726f6d20696e636f72726563742060008201527f6f776e6572000000000000000000000000000000000000000000000000000000602082015250565b600061572f602583613f01565b915061573a826156d3565b604082019050919050565b6000602082019050818103600083015261575e81615722565b9050919050565b7f4552433732313a207472616e7366657220746f20746865207a65726f2061646460008201527f7265737300000000000000000000000000000000000000000000000000000000602082015250565b60006157c1602483613f01565b91506157cc82615765565b604082019050919050565b600060208201905081810360008301526157f0816157b4565b9050919050565b600061580282613e93565b915061580d83613e93565b925082820390508181111561582557615824614ece565b5b92915050565b600061583682613e93565b915061584183613e93565b925082820190508082111561585957615858614ece565b5b92915050565b60006040820190506158746000830185613fda565b81810360208301526158868184613f4d565b90509392505050565b7f4576656e7420616c726561647920637265617465640000000000000000000000600082015250565b60006158c5601583613f01565b91506158d08261588f565b602082019050919050565b600060208201905081810360008301526158f4816158b8565b9050919050565b7f4552433732313a20617070726f766520746f2063616c6c657200000000000000600082015250565b6000615931601983613f01565b915061593c826158fb565b602082019050919050565b6000602082019050818103600083015261596081615924565b9050919050565b7f4552433732313a207472616e7366657220746f206e6f6e20455243373231526560008201527f63656976657220696d706c656d656e7465720000000000000000000000000000602082015250565b60006159c3603283613f01565b91506159ce82615967565b604082019050919050565b600060208201905081810360008301526159f2816159b6565b9050919050565b7f4e487b7100000000000000000000000000000000000000000000000000000000600052603160045260246000fd5b7f4552433732313a206d696e7420746f20746865207a65726f2061646472657373600082015250565b6000615a5e602083613f01565b9150615a6982615a28565b602082019050919050565b60006020820190508181036000830152615a8d81615a51565b9050919050565b7f4552433732313a20746f6b656e20616c7265616479206d696e74656400000000600082015250565b6000615aca601c83613f01565b9150615ad582615a94565b602082019050919050565b60006020820190508181036000830152615af981615abd565b9050919050565b600081519050919050565b600082825260208201905092915050565b6000615b2782615b00565b615b318185615b0b565b9350615b41818560208601613f12565b615b4a81613f3c565b840191505092915050565b6000608082019050615b6a6000830187613fda565b615b776020830186613fda565b615b846040830185614190565b8181036060830152615b968184615b1c565b905095945050505050565b600081519050615bb081613e04565b92915050565b600060208284031215615bcc57615bcb613dce565b5b6000615bda84828501615ba1565b9150509291505056fe45616368206669656c64206d7573742068617665207468652073616d65206e756d626572206f662076616c756573a2646970667358221220e57d64a918a20ca32b34ac0e090ccdfea689872cbce0dcc48ff0cc0cffab71e564736f6c63430008100033",
  "immutableReferences": {},
  "source": "// SPDX-License-Identifier: MIT\n// https://github.com/OpenZeppelin/openzeppelin-contracts/commit/8e0296096449d9b1cd7c5631e917330635244c37\nimport \"../node_modules/@openzeppelin/contracts/utils/structs/EnumerableSet.sol\";\nimport \"../node_modules/@openzeppelin/contracts/token/ERC721/extensions/ERC721Burnable.sol\";\nimport \"../node_modules/@openzeppelin/contracts/utils/cryptography/ECDSA.sol\";\nimport \"../node_modules/@openzeppelin/contracts/utils/math/SafeMath.sol\";\nimport \"../node_modules/@openzeppelin/contracts/utils/introspection/ERC165Storage.sol\";\nimport \"../node_modules/@openzeppelin/contracts/utils/Context.sol\";\n\nimport \"./IERC2981.sol\";\nimport \"./BaseRelayRecipient.sol\";\n\npragma experimental ABIEncoderV2;\npragma solidity >=0.4.22 <0.9.0;\n\ncontract NOAP is Context, ERC165Storage, ERC721Burnable, BaseRelayRecipient, IERC2981 {\n    using EnumerableSet for EnumerableSet.AddressSet;\n    using EnumerableSet for EnumerableSet.UintSet;\n\n    string private constant ERROR_INVALID_INPUTS = \"Each field must have the same number of values\";\n\n    struct Evt {\n        bool ended;\n        address royalty;\n        string tokenURI;\n        string description;\n        string name;\n        string country;\n        string city;\n        bool online;\n        string startdate;\n        string endDate;\n        uint256 limitSupply;\n        string creatorEmail;\n        EnumerableSet.UintSet tokens;\n        EnumerableSet.AddressSet minters;\n    }\n\n    struct Req {\n        uint256 eventID;\n        address attender;\n        string date;\n        bool minted;\n    }\n\n    mapping(address => EnumerableSet.UintSet) private userEventIDs;\n    mapping(uint256 => EnumerableSet.UintSet) private eventRequestIDs;\n\n    mapping(uint256 => Req) requests;\n    mapping(uint256 => Evt) evts;\n    mapping(uint256 => uint256) private tokenToEventID;\n    mapping(bytes32 => uint256) private hashToEventID;\n    uint256 private tokenIDCounter;\n    uint256 private eventIDCounter;\n    uint256 private requestIDCounter;\n\n    uint256 private constant _NULL_EVENT_ID = 0;\n    address private constant _NULL_ADDRESS = 0x0000000000000000000000000000000000000000;\n\n    bytes4 private constant _INTERFACE_ID_ERC2981 = 0x2a55205a;\n\n    // override supportsInterface\n    function supportsInterface(bytes4 interfaceId)\n        public\n        view\n        virtual\n        override(ERC165Storage, ERC721, IERC165)\n        returns (bool)\n    {\n        return interfaceId == type(IERC165).interfaceId;\n    }\n\n    //\n\n    constructor() ERC721(\"NOAPs\", \"NOAP\") {\n        _registerInterface(_INTERFACE_ID_ERC2981);\n\n        // hardcode the trusted forwarded for EIP2771 metatransactions\n        _setTrustedForwarder(0x86C80a8aa58e0A4fa09A69624c31Ab2a6CAD56b8); // xDAI trusted forwarder\n    }\n\n    /**\n     * Mint a single token\n     */\n    function mint(\n        uint256 eventID,\n        address recipient,\n        uint256 requestID\n    ) external {\n        requests[requestID].minted = true;\n        Evt storage evt = evts[eventID];\n        require(\n            evt.limitSupply > evt.tokens.length(),\n            \"the total supply for this event is reached!\"\n        );\n        require(!evt.ended, \"Event Ended\");\n        _checkSenderIsMinter(evt);\n        _mintEventToken(recipient, eventID);\n    }\n\n    function bytesToAddress(bytes memory bys) private pure returns (address addr) {\n        assembly {\n            addr := mload(add(bys, 32))\n        }\n    }\n\n    /**\n     * Mint multiple tokens for a single event\n     */\n    function mintBatch(\n        uint256 eventID,\n        bytes[] memory recipients,\n        uint256[] memory requestIds\n    ) external {\n        Evt storage evt = evts[eventID];\n        require(!evt.ended, \"Event Ended\");\n        _checkSenderIsMinter(evt);\n        address[] memory addr;\n\n        for (uint256 i = 0; i < requestIds.length; i++) {\n            requests[i].minted = true;\n        }\n\n        for (uint256 i = 0; i < recipients.length; i++) {\n            addr[i] = bytesToAddress(recipients[i]);\n        }\n\n        for (uint256 i = 0; i < recipients.length; i++) {\n            _mintEventToken(addr[i], eventID);\n        }\n    }\n\n    /**\n     * Create an event based on the metadata URI.\n     * The caller is the sole minter.\n     * Each event is a unique <contract, tokenURI> pair and cannot be recreated.\n     */\n    function createEvent(\n        string memory tokenURI,\n        string memory description,\n        string memory name,\n        string memory country,\n        string memory city,\n        bool online,\n        string memory startdate,\n        string memory enddate,\n        string memory creatorEmail,\n        uint256 limitSupply\n    ) external returns (uint256) {\n        //address(this) refers to the address of the contract instance\n        bytes32 eventHash = _computeEventHash(address(this), tokenURI);\n\n        uint256 eventID = _createEvent(\n            eventHash,\n            tokenURI,\n            description,\n            name,\n            country,\n            city,\n            online,\n            startdate,\n            enddate,\n            creatorEmail,\n            limitSupply\n        );\n\n        Evt storage evt = evts[eventID];\n        evt.minters.add(_msgSender());\n        evt.royalty = _msgSender();\n\n        userEventIDs[_msgSender()].add(eventID);\n        return eventID;\n    }\n\n    //createRequest(eventId,attender,date)\n\n    //mint for one person\n    //mint for multi-user\n    //add minters\n    //end event\n    /**\n     * Claim a noap\n     * authorized to be done by everyone\n     */\n    function createRequest(\n        uint256 eventID,\n        address attender,\n        string memory date\n    ) external {\n        Evt storage evt = evts[eventID];\n        require(!evt.ended, \"Event Ended\");\n        uint256 requestID = ++requestIDCounter;\n        requests[requestID].eventID = eventID;\n        requests[requestID].attender = attender;\n        requests[requestID].date = date;\n        requests[requestID].minted = false;\n        eventRequestIDs[eventID].add(requestID);\n    }\n\n    /**\n     * Token minting from other contracts (burned and reminted here) cannot be halted.\n     */\n    function endEvent(uint256 eventID) external {\n        Evt storage evt = evts[eventID];\n        _checkSenderIsMinter(evt);\n        evt.ended = true;\n    }\n\n    /**\n     * Add a minter to the event. Minter can create infinite tokens. Caller must be a minter\n     */\n    function addEventMinter(uint256 eventID, address minter) external {\n        Evt storage evt = evts[eventID];\n        _checkSenderIsMinter(evt);\n        evt.minters.add(minter);\n\n        userEventIDs[minter].add(eventID);\n    }\n\n    function renounceEventMinter(uint256 eventID) external {\n        Evt storage evt = evts[eventID];\n        _checkSenderIsMinter(evt);\n        evt.minters.remove(_msgSender());\n\n        userEventIDs[_msgSender()].remove(eventID);\n    }\n\n    function _checkSenderIsMinter(Evt storage evt) internal view {\n        require(evt.minters.contains(_msgSender()), \"Not event minter\");\n    }\n\n    function _createEvent(\n        bytes32 eventHash,\n        string memory tokenURI,\n        string memory description,\n        string memory name,\n        string memory country,\n        string memory city,\n        bool online,\n        string memory startdate,\n        string memory enddate,\n        string memory creatorEmail,\n        uint256 limitSupply\n    ) internal returns (uint256) {\n        require(hashToEventID[eventHash] == _NULL_EVENT_ID, \"Event already created\");\n\n        uint256 eventID = ++eventIDCounter;\n        evts[eventID].tokenURI = tokenURI;\n        evts[eventID].description = description;\n        evts[eventID].name = name;\n        evts[eventID].country = country;\n        evts[eventID].city = city;\n        evts[eventID].startdate = startdate;\n        evts[eventID].endDate = enddate;\n        evts[eventID].creatorEmail = creatorEmail;\n        evts[eventID].online = online;\n        evts[eventID].limitSupply = limitSupply;\n\n        // Map the event hash back to the Event\n        hashToEventID[eventHash] = eventID;\n\n        return eventID;\n    }\n\n    function _mintEventToken(address recipient, uint256 eventID) internal {\n        // Mint the token. ID is generated by hashing the source contract and id, bitmasked for shortness\n        uint256 tokenID = ++tokenIDCounter;\n        _mint(recipient, tokenID);\n\n        // Increment the minted counter\n        evts[eventID].tokens.add(tokenID);\n\n        // Map the token back to the Event\n        tokenToEventID[tokenID] = eventID;\n    }\n\n    function _computeEventHash(address tokenContract, string memory tokenURI)\n        internal\n        pure\n        returns (bytes32)\n    {\n        return keccak256(abi.encode(tokenContract, tokenURI));\n    }\n\n    function getEventMinterTotal(uint256 eventID) public view returns (uint256) {\n        return evts[eventID].minters.length();\n    }\n\n    //this is what I added\n    function getRequestUser(uint256 requestId) public view returns (address) {\n        return requests[requestId].attender;\n    }\n\n    function getRequestDate(uint256 requestId) public view returns (string memory) {\n        return requests[requestId].date;\n    }\n\n    function getRequestIsMinted(uint256 requestId) public view returns (bool) {\n        return requests[requestId].minted;\n    }\n\n    function getEventDescription(uint256 eventID) public view returns (string memory) {\n        return evts[eventID].description;\n    }\n\n    function getEventName(uint256 eventID) public view returns (string memory) {\n        return evts[eventID].name;\n    }\n\n    function getEventCountry(uint256 eventID) public view returns (string memory) {\n        return evts[eventID].country;\n    }\n\n    function getEventCity(uint256 eventID) public view returns (string memory) {\n        return evts[eventID].city;\n    }\n\n    function getCreatorEmail(uint256 eventID) public view returns (string memory) {\n        return evts[eventID].creatorEmail;\n    }\n\n    function getEventMinterAt(uint256 eventID, uint256 index) public view returns (address) {\n        return evts[eventID].minters.at(index);\n    }\n\n    function getEventDate(uint256 eventID) public view returns (string memory) {\n        return evts[eventID].endDate;\n    }\n\n    function getEventIsOnline(uint256 eventID) public view returns (bool) {\n        return evts[eventID].online;\n    }\n\n    function getEventIsMinter(uint256 eventID, address addr) public view returns (bool) {\n        return evts[eventID].minters.contains(addr);\n    }\n\n    function getEventTokenSupply(uint256 eventID) public view returns (uint256) {\n        return evts[eventID].tokens.length();\n    }\n\n    function getEventTokenURI(uint256 eventID) public view returns (string memory) {\n        return evts[eventID].tokenURI;\n    }\n\n    function getEventTokenIDAt(uint256 eventID, uint256 index) public view returns (uint256) {\n        return evts[eventID].tokens.at(index);\n    }\n\n    function getEventTokenIDs(uint256 eventID) public view returns (uint256[] memory) {\n        uint256 supply = getEventTokenSupply(eventID);\n        uint256[] memory tokenIDs = new uint256[](supply);\n        for (uint256 i = 0; i < tokenIDs.length; i++) {\n            tokenIDs[i] = getEventTokenIDAt(eventID, i);\n        }\n        return tokenIDs;\n    }\n\n    function getEventTokenHolders(uint256 eventID) public view returns (address[] memory) {\n        uint256 supply = getEventTokenSupply(eventID);\n        address[] memory owners = new address[](supply);\n        for (uint256 i = 0; i < owners.length; i++) {\n            owners[i] = ownerOf(getEventTokenIDAt(eventID, i));\n        }\n        return owners;\n    }\n\n    function getEventEnded(uint256 eventID) public view returns (bool) {\n        return evts[eventID].ended;\n    }\n\n    function getEventRoyaltyAddress(uint256 eventID) public view returns (address) {\n        return evts[eventID].royalty;\n    }\n\n    function getLastTokenID() public view returns (uint256) {\n        return tokenIDCounter;\n    }\n\n    function getLastEventID() public view returns (uint256) {\n        return eventIDCounter;\n    }\n\n    function getUserEventTotal(address user) public view returns (uint256) {\n        return userEventIDs[user].length();\n    }\n\n    function getRequestsLength(uint256 eventID) public view returns (uint256) {\n        return eventRequestIDs[eventID].length();\n    }\n\n    function getUserEventAt(address user, uint256 index) public view returns (uint256) {\n        return userEventIDs[user].at(index);\n    }\n\n    function getEventRequestAt(uint256 eventID, uint256 index) public view returns (uint256) {\n        return eventRequestIDs[eventID].at(index);\n    }\n\n    function getUserEventIDs(address user) public view returns (uint256[] memory) {\n        uint256 numEvents = getUserEventTotal(user);\n        uint256[] memory eventIDs = new uint256[](numEvents);\n        for (uint256 i = 0; i < numEvents; i++) {\n            eventIDs[i] = getUserEventAt(user, i);\n        }\n        return eventIDs;\n    }\n\n    function getEventRequestIDs(uint256 eventID) public view returns (uint256[] memory) {\n        uint256 totalRequests = getRequestsLength(eventID);\n        uint256[] memory requestIDs = new uint256[](totalRequests);\n        for (uint256 i = 0; i < totalRequests; i++) {\n            requestIDs[i] = getEventRequestAt(eventID, i);\n        }\n        return requestIDs;\n    }\n\n    /**\n     * ERC2981 royalty implementation\n     * For events created using this contract, we hardcode a 10% resale royalty the corresponding tokens\n     * The recipient of this royalty is controlled by the event minters.\n     */\n    function royaltyInfo(uint256 tokenID, uint256 salePrice)\n        external\n        view\n        override\n        returns (address, uint256)\n    {\n        address royalty = evts[tokenToEventID[tokenID]].royalty;\n        if (royalty == _NULL_ADDRESS) {\n            // For tokens that are burned and reminted,\n            // we don't track the creator, so zero royalties.\n            return (_NULL_ADDRESS, 0);\n        }\n\n        return (royalty, salePrice / 10);\n    }\n\n    /**\n     * Allow any of the event minters to change the royalty recipient\n     */\n    function changeRoyaltyReceiver(uint256 eventID, address receiver) external {\n        Evt storage evt = evts[eventID];\n        _checkSenderIsMinter(evt);\n        evt.royalty = receiver;\n    }\n\n    /* -- END ERC2981 methods */\n\n    /**\n     * Overwrite the default `tokenURI` getter.\n     * Since all events have the same tokenURI, resolve tokenIDs to events load the URI from the event\n     */\n    //this will make a warning because it is the same name as tokenURI variable\n    function tokenURI(uint256 tokenID) public view virtual override returns (string memory) {\n        require(_exists(tokenID), \"ERC721Metadata: URI query for nonexistent token\");\n        return evts[tokenToEventID[tokenID]].tokenURI;\n    }\n\n    function burn(uint256 tokenID) public virtual override {\n        super.burn(tokenID);\n        evts[tokenToEventID[tokenID]].tokens.remove(tokenID);\n    }\n\n    function isApprovedOrOwner(address spender, uint256 tokenID) external view returns (bool) {\n        return _isApprovedOrOwner(spender, tokenID);\n    }\n\n    /* -- BEGIN batch methods */\n    function burnBatch(uint256[] memory tokenIDs) external {\n        for (uint256 i = 0; i < tokenIDs.length; ++i) {\n            burn(tokenIDs[i]);\n        }\n    }\n\n    function approveBatch(address[] memory tos, uint256[] memory tokenIDs) external {\n        require(tos.length == tokenIDs.length, ERROR_INVALID_INPUTS);\n        for (uint256 i = 0; i < tos.length; ++i) {\n            approve(tos[i], tokenIDs[i]);\n        }\n    }\n\n    function transferFromBatch(\n        address[] memory froms,\n        address[] memory tos,\n        uint256[] memory tokenIDs\n    ) external {\n        require(\n            froms.length == tos.length && froms.length == tokenIDs.length,\n            ERROR_INVALID_INPUTS\n        );\n        for (uint256 i = 0; i < froms.length; ++i) {\n            transferFrom(froms[i], tos[i], tokenIDs[i]);\n        }\n    }\n\n    function safeTransferFromBatch(\n        address[] memory froms,\n        address[] memory tos,\n        uint256[] memory tokenIDs\n    ) external {\n        require(\n            froms.length == tos.length && froms.length == tokenIDs.length,\n            ERROR_INVALID_INPUTS\n        );\n        for (uint256 i = 0; i < froms.length; ++i) {\n            safeTransferFrom(froms[i], tos[i], tokenIDs[i], \"\");\n        }\n    }\n\n    function safeTransferFromWithDataBatch(\n        address[] memory froms,\n        address[] memory tos,\n        uint256[] memory tokenIDs,\n        bytes[] memory datas\n    ) external {\n        require(\n            froms.length == tos.length &&\n                froms.length == tokenIDs.length &&\n                froms.length == datas.length,\n            ERROR_INVALID_INPUTS\n        );\n        for (uint256 i = 0; i < froms.length; ++i) {\n            safeTransferFrom(froms[i], tos[i], tokenIDs[i], datas[i]);\n        }\n    }\n\n    /* -- END batch methods */\n\n    /* -- BEGIN IRelayRecipient overrides -- */\n    function _msgSender() internal view override(Context, BaseRelayRecipient) returns (address) {\n        return BaseRelayRecipient._msgSender();\n    }\n\n    string public override versionRecipient = \"1\";\n    /* -- END IRelayRecipient overrides -- */\n}\n",
  "sourcePath": "/home/senyou/freecodecamp/PBC/NOAP/contracts/NOAP.sol",
  "compiler": {
    "name": "solc",
    "version": "0.8.16+commit.07a7930e.Emscripten.clang"
  },
  "schemaVersion": "3.4.9",
  "updatedAt": "2022-09-17T15:58:02.928Z",
  "networkType": "ethereum",
  "devdoc": {
    "kind": "dev",
    "methods": {
      "approve(address,uint256)": {
        "details": "See {IERC721-approve}."
      },
      "balanceOf(address)": {
        "details": "See {IERC721-balanceOf}."
      },
      "getApproved(uint256)": {
        "details": "See {IERC721-getApproved}."
      },
      "isApprovedForAll(address,address)": {
        "details": "See {IERC721-isApprovedForAll}."
      },
      "name()": {
        "details": "See {IERC721Metadata-name}."
      },
      "ownerOf(uint256)": {
        "details": "See {IERC721-ownerOf}."
      },
      "safeTransferFrom(address,address,uint256)": {
        "details": "See {IERC721-safeTransferFrom}."
      },
      "safeTransferFrom(address,address,uint256,bytes)": {
        "details": "See {IERC721-safeTransferFrom}."
      },
      "setApprovalForAll(address,bool)": {
        "details": "See {IERC721-setApprovalForAll}."
      },
      "symbol()": {
        "details": "See {IERC721Metadata-symbol}."
      },
      "transferFrom(address,address,uint256)": {
        "details": "See {IERC721-transferFrom}."
      }
    },
    "version": 1
  },
  "userdoc": {
    "kind": "user",
    "methods": {
      "addEventMinter(uint256,address)": {
        "notice": "Add a minter to the event. Minter can create infinite tokens. Caller must be a minter"
      },
      "changeRoyaltyReceiver(uint256,address)": {
        "notice": "Allow any of the event minters to change the royalty recipient"
      },
      "createEvent(string,string,string,string,string,bool,string,string,string,uint256)": {
        "notice": "Create an event based on the metadata URI. The caller is the sole minter. Each event is a unique <contract, tokenURI> pair and cannot be recreated."
      },
      "createRequest(uint256,address,string)": {
        "notice": "Claim a noap authorized to be done by everyone"
      },
      "endEvent(uint256)": {
        "notice": "Token minting from other contracts (burned and reminted here) cannot be halted."
      },
      "isTrustedForwarder(address)": {
        "notice": "return if the forwarder is trusted to forward relayed transactions to us. the forwarder is required to verify the sender's signature, and verify the call is not a replay."
      },
      "mint(uint256,address,uint256)": {
        "notice": "Mint a single token"
      },
      "mintBatch(uint256,bytes[],uint256[])": {
        "notice": "Mint multiple tokens for a single event"
      },
      "royaltyInfo(uint256,uint256)": {
        "notice": "ERC2981 royalty implementation For events created using this contract, we hardcode a 10% resale royalty the corresponding tokens The recipient of this royalty is controlled by the event minters."
      },
      "tokenURI(uint256)": {
        "notice": "Overwrite the default `tokenURI` getter. Since all events have the same tokenURI, resolve tokenIDs to events load the URI from the event"
      }
    },
    "version": 1
  }
}