{
  "contractName": "NOAP",
  "abi": [
    {
      "inputs": [],
      "stateMutability": "nonpayable",
      "type": "constructor"
    },
    {
      "anonymous": false,
      "inputs": [
        {
          "indexed": true,
          "internalType": "address",
          "name": "owner",
          "type": "address"
        },
        {
          "indexed": true,
          "internalType": "address",
          "name": "approved",
          "type": "address"
        },
        {
          "indexed": true,
          "internalType": "uint256",
          "name": "tokenId",
          "type": "uint256"
        }
      ],
      "name": "Approval",
      "type": "event"
    },
    {
      "anonymous": false,
      "inputs": [
        {
          "indexed": true,
          "internalType": "address",
          "name": "owner",
          "type": "address"
        },
        {
          "indexed": true,
          "internalType": "address",
          "name": "operator",
          "type": "address"
        },
        {
          "indexed": false,
          "internalType": "bool",
          "name": "approved",
          "type": "bool"
        }
      ],
      "name": "ApprovalForAll",
      "type": "event"
    },
    {
      "anonymous": false,
      "inputs": [
        {
          "indexed": true,
          "internalType": "address",
          "name": "from",
          "type": "address"
        },
        {
          "indexed": true,
          "internalType": "address",
          "name": "to",
          "type": "address"
        },
        {
          "indexed": true,
          "internalType": "uint256",
          "name": "tokenId",
          "type": "uint256"
        }
      ],
      "name": "Transfer",
      "type": "event"
    },
    {
      "inputs": [
        {
          "internalType": "address",
          "name": "to",
          "type": "address"
        },
        {
          "internalType": "uint256",
          "name": "tokenId",
          "type": "uint256"
        }
      ],
      "name": "approve",
      "outputs": [],
      "stateMutability": "nonpayable",
      "type": "function"
    },
    {
      "inputs": [
        {
          "internalType": "address",
          "name": "owner",
          "type": "address"
        }
      ],
      "name": "balanceOf",
      "outputs": [
        {
          "internalType": "uint256",
          "name": "",
          "type": "uint256"
        }
      ],
      "stateMutability": "view",
      "type": "function",
      "constant": true
    },
    {
      "inputs": [
        {
          "internalType": "uint256",
          "name": "tokenId",
          "type": "uint256"
        }
      ],
      "name": "getApproved",
      "outputs": [
        {
          "internalType": "address",
          "name": "",
          "type": "address"
        }
      ],
      "stateMutability": "view",
      "type": "function",
      "constant": true
    },
    {
      "inputs": [
        {
          "internalType": "address",
          "name": "owner",
          "type": "address"
        },
        {
          "internalType": "address",
          "name": "operator",
          "type": "address"
        }
      ],
      "name": "isApprovedForAll",
      "outputs": [
        {
          "internalType": "bool",
          "name": "",
          "type": "bool"
        }
      ],
      "stateMutability": "view",
      "type": "function",
      "constant": true
    },
    {
      "inputs": [
        {
          "internalType": "address",
          "name": "forwarder",
          "type": "address"
        }
      ],
      "name": "isTrustedForwarder",
      "outputs": [
        {
          "internalType": "bool",
          "name": "",
          "type": "bool"
        }
      ],
      "stateMutability": "view",
      "type": "function",
      "constant": true
    },
    {
      "inputs": [],
      "name": "name",
      "outputs": [
        {
          "internalType": "string",
          "name": "",
          "type": "string"
        }
      ],
      "stateMutability": "view",
      "type": "function",
      "constant": true
    },
    {
      "inputs": [
        {
          "internalType": "uint256",
          "name": "tokenId",
          "type": "uint256"
        }
      ],
      "name": "ownerOf",
      "outputs": [
        {
          "internalType": "address",
          "name": "",
          "type": "address"
        }
      ],
      "stateMutability": "view",
      "type": "function",
      "constant": true
    },
    {
      "inputs": [
        {
          "internalType": "address",
          "name": "from",
          "type": "address"
        },
        {
          "internalType": "address",
          "name": "to",
          "type": "address"
        },
        {
          "internalType": "uint256",
          "name": "tokenId",
          "type": "uint256"
        }
      ],
      "name": "safeTransferFrom",
      "outputs": [],
      "stateMutability": "nonpayable",
      "type": "function"
    },
    {
      "inputs": [
        {
          "internalType": "address",
          "name": "from",
          "type": "address"
        },
        {
          "internalType": "address",
          "name": "to",
          "type": "address"
        },
        {
          "internalType": "uint256",
          "name": "tokenId",
          "type": "uint256"
        },
        {
          "internalType": "bytes",
          "name": "data",
          "type": "bytes"
        }
      ],
      "name": "safeTransferFrom",
      "outputs": [],
      "stateMutability": "nonpayable",
      "type": "function"
    },
    {
      "inputs": [
        {
          "internalType": "address",
          "name": "operator",
          "type": "address"
        },
        {
          "internalType": "bool",
          "name": "approved",
          "type": "bool"
        }
      ],
      "name": "setApprovalForAll",
      "outputs": [],
      "stateMutability": "nonpayable",
      "type": "function"
    },
    {
      "inputs": [],
      "name": "symbol",
      "outputs": [
        {
          "internalType": "string",
          "name": "",
          "type": "string"
        }
      ],
      "stateMutability": "view",
      "type": "function",
      "constant": true
    },
    {
      "inputs": [
        {
          "internalType": "address",
          "name": "from",
          "type": "address"
        },
        {
          "internalType": "address",
          "name": "to",
          "type": "address"
        },
        {
          "internalType": "uint256",
          "name": "tokenId",
          "type": "uint256"
        }
      ],
      "name": "transferFrom",
      "outputs": [],
      "stateMutability": "nonpayable",
      "type": "function"
    },
    {
      "inputs": [],
      "name": "trustedForwarder",
      "outputs": [
        {
          "internalType": "address",
          "name": "",
          "type": "address"
        }
      ],
      "stateMutability": "view",
      "type": "function",
      "constant": true
    },
    {
      "inputs": [],
      "name": "versionRecipient",
      "outputs": [
        {
          "internalType": "string",
          "name": "",
          "type": "string"
        }
      ],
      "stateMutability": "view",
      "type": "function",
      "constant": true
    },
    {
      "inputs": [
        {
          "internalType": "bytes4",
          "name": "interfaceId",
          "type": "bytes4"
        }
      ],
      "name": "supportsInterface",
      "outputs": [
        {
          "internalType": "bool",
          "name": "",
          "type": "bool"
        }
      ],
      "stateMutability": "view",
      "type": "function",
      "constant": true
    },
    {
      "inputs": [
        {
          "internalType": "uint256",
          "name": "eventID",
          "type": "uint256"
        },
        {
          "internalType": "address",
          "name": "recipient",
          "type": "address"
        },
        {
          "internalType": "uint256",
          "name": "requestID",
          "type": "uint256"
        }
      ],
      "name": "mint",
      "outputs": [],
      "stateMutability": "nonpayable",
      "type": "function"
    },
    {
      "inputs": [
        {
          "internalType": "uint256",
          "name": "eventID",
          "type": "uint256"
        },
        {
          "internalType": "bytes[]",
          "name": "recipients",
          "type": "bytes[]"
        },
        {
          "internalType": "uint256[]",
          "name": "requestIds",
          "type": "uint256[]"
        }
      ],
      "name": "mintBatch",
      "outputs": [],
      "stateMutability": "nonpayable",
      "type": "function"
    },
    {
      "inputs": [
        {
          "internalType": "string",
          "name": "tokenURI",
          "type": "string"
        },
        {
          "internalType": "string",
          "name": "description",
          "type": "string"
        },
        {
          "internalType": "string",
          "name": "name",
          "type": "string"
        },
        {
          "internalType": "string",
          "name": "country",
          "type": "string"
        },
        {
          "internalType": "string",
          "name": "city",
          "type": "string"
        },
        {
          "internalType": "bool",
          "name": "online",
          "type": "bool"
        },
        {
          "internalType": "string",
          "name": "startdate",
          "type": "string"
        },
        {
          "internalType": "string",
          "name": "enddate",
          "type": "string"
        },
        {
          "internalType": "string",
          "name": "creatorEmail",
          "type": "string"
        },
        {
          "internalType": "uint256",
          "name": "limitSupply",
          "type": "uint256"
        }
      ],
      "name": "createEvent",
      "outputs": [
        {
          "internalType": "uint256",
          "name": "",
          "type": "uint256"
        }
      ],
      "stateMutability": "nonpayable",
      "type": "function"
    },
    {
      "inputs": [
        {
          "internalType": "uint256",
          "name": "eventID",
          "type": "uint256"
        },
        {
          "internalType": "address",
          "name": "attender",
          "type": "address"
        },
        {
          "internalType": "string",
          "name": "date",
          "type": "string"
        }
      ],
      "name": "createRequest",
      "outputs": [],
      "stateMutability": "nonpayable",
      "type": "function"
    },
    {
      "inputs": [
        {
          "internalType": "uint256",
          "name": "eventID",
          "type": "uint256"
        }
      ],
      "name": "endEvent",
      "outputs": [],
      "stateMutability": "nonpayable",
      "type": "function"
    },
    {
      "inputs": [
        {
          "internalType": "uint256",
          "name": "eventID",
          "type": "uint256"
        },
        {
          "internalType": "address",
          "name": "minter",
          "type": "address"
        }
      ],
      "name": "addEventMinter",
      "outputs": [],
      "stateMutability": "nonpayable",
      "type": "function"
    },
    {
      "inputs": [
        {
          "internalType": "uint256",
          "name": "eventID",
          "type": "uint256"
        }
      ],
      "name": "renounceEventMinter",
      "outputs": [],
      "stateMutability": "nonpayable",
      "type": "function"
    },
    {
      "inputs": [
        {
          "internalType": "uint256",
          "name": "eventID",
          "type": "uint256"
        }
      ],
      "name": "getEventMinterTotal",
      "outputs": [
        {
          "internalType": "uint256",
          "name": "",
          "type": "uint256"
        }
      ],
      "stateMutability": "view",
      "type": "function",
      "constant": true
    },
    {
      "inputs": [
        {
          "internalType": "uint256",
          "name": "requestId",
          "type": "uint256"
        }
      ],
      "name": "getRequestUser",
      "outputs": [
        {
          "internalType": "address",
          "name": "",
          "type": "address"
        }
      ],
      "stateMutability": "view",
      "type": "function",
      "constant": true
    },
    {
      "inputs": [
        {
          "internalType": "uint256",
          "name": "requestId",
          "type": "uint256"
        }
      ],
      "name": "getRequestDate",
      "outputs": [
        {
          "internalType": "string",
          "name": "",
          "type": "string"
        }
      ],
      "stateMutability": "view",
      "type": "function",
      "constant": true
    },
    {
      "inputs": [
        {
          "internalType": "uint256",
          "name": "requestId",
          "type": "uint256"
        }
      ],
      "name": "getRequestIsMinted",
      "outputs": [
        {
          "internalType": "bool",
          "name": "",
          "type": "bool"
        }
      ],
      "stateMutability": "view",
      "type": "function",
      "constant": true
    },
    {
      "inputs": [
        {
          "internalType": "uint256",
          "name": "eventID",
          "type": "uint256"
        }
      ],
      "name": "getEventDescription",
      "outputs": [
        {
          "internalType": "string",
          "name": "",
          "type": "string"
        }
      ],
      "stateMutability": "view",
      "type": "function",
      "constant": true
    },
    {
      "inputs": [
        {
          "internalType": "uint256",
          "name": "eventID",
          "type": "uint256"
        }
      ],
      "name": "getEventName",
      "outputs": [
        {
          "internalType": "string",
          "name": "",
          "type": "string"
        }
      ],
      "stateMutability": "view",
      "type": "function",
      "constant": true
    },
    {
      "inputs": [
        {
          "internalType": "string",
          "name": "name",
          "type": "string"
        }
      ],
      "name": "getEventIdByName",
      "outputs": [
        {
          "internalType": "uint256",
          "name": "",
          "type": "uint256"
        }
      ],
      "stateMutability": "view",
      "type": "function",
      "constant": true
    },
    {
      "inputs": [
        {
          "internalType": "uint256",
          "name": "eventID",
          "type": "uint256"
        }
      ],
      "name": "getEventCountry",
      "outputs": [
        {
          "internalType": "string",
          "name": "",
          "type": "string"
        }
      ],
      "stateMutability": "view",
      "type": "function",
      "constant": true
    },
    {
      "inputs": [
        {
          "internalType": "uint256",
          "name": "eventID",
          "type": "uint256"
        }
      ],
      "name": "getEventCity",
      "outputs": [
        {
          "internalType": "string",
          "name": "",
          "type": "string"
        }
      ],
      "stateMutability": "view",
      "type": "function",
      "constant": true
    },
    {
      "inputs": [
        {
          "internalType": "uint256",
          "name": "eventID",
          "type": "uint256"
        }
      ],
      "name": "getCreatorEmail",
      "outputs": [
        {
          "internalType": "string",
          "name": "",
          "type": "string"
        }
      ],
      "stateMutability": "view",
      "type": "function",
      "constant": true
    },
    {
      "inputs": [
        {
          "internalType": "uint256",
          "name": "eventID",
          "type": "uint256"
        },
        {
          "internalType": "uint256",
          "name": "index",
          "type": "uint256"
        }
      ],
      "name": "getEventMinterAt",
      "outputs": [
        {
          "internalType": "address",
          "name": "",
          "type": "address"
        }
      ],
      "stateMutability": "view",
      "type": "function",
      "constant": true
    },
    {
      "inputs": [
        {
          "internalType": "uint256",
          "name": "eventID",
          "type": "uint256"
        }
      ],
      "name": "getEventDate",
      "outputs": [
        {
          "internalType": "string",
          "name": "",
          "type": "string"
        }
      ],
      "stateMutability": "view",
      "type": "function",
      "constant": true
    },
    {
      "inputs": [
        {
          "internalType": "uint256",
          "name": "eventID",
          "type": "uint256"
        }
      ],
      "name": "getEventIsOnline",
      "outputs": [
        {
          "internalType": "bool",
          "name": "",
          "type": "bool"
        }
      ],
      "stateMutability": "view",
      "type": "function",
      "constant": true
    },
    {
      "inputs": [
        {
          "internalType": "uint256",
          "name": "eventID",
          "type": "uint256"
        },
        {
          "internalType": "address",
          "name": "addr",
          "type": "address"
        }
      ],
      "name": "getEventIsMinter",
      "outputs": [
        {
          "internalType": "bool",
          "name": "",
          "type": "bool"
        }
      ],
      "stateMutability": "view",
      "type": "function",
      "constant": true
    },
    {
      "inputs": [
        {
          "internalType": "uint256",
          "name": "eventID",
          "type": "uint256"
        }
      ],
      "name": "getEventTokenSupply",
      "outputs": [
        {
          "internalType": "uint256",
          "name": "",
          "type": "uint256"
        }
      ],
      "stateMutability": "view",
      "type": "function",
      "constant": true
    },
    {
      "inputs": [
        {
          "internalType": "uint256",
          "name": "eventID",
          "type": "uint256"
        }
      ],
      "name": "getEventTokenURI",
      "outputs": [
        {
          "internalType": "string",
          "name": "",
          "type": "string"
        }
      ],
      "stateMutability": "view",
      "type": "function",
      "constant": true
    },
    {
      "inputs": [
        {
          "internalType": "uint256",
          "name": "eventID",
          "type": "uint256"
        },
        {
          "internalType": "uint256",
          "name": "index",
          "type": "uint256"
        }
      ],
      "name": "getEventTokenIDAt",
      "outputs": [
        {
          "internalType": "uint256",
          "name": "",
          "type": "uint256"
        }
      ],
      "stateMutability": "view",
      "type": "function",
      "constant": true
    },
    {
      "inputs": [
        {
          "internalType": "uint256",
          "name": "eventID",
          "type": "uint256"
        }
      ],
      "name": "getEventTokenIDs",
      "outputs": [
        {
          "internalType": "uint256[]",
          "name": "",
          "type": "uint256[]"
        }
      ],
      "stateMutability": "view",
      "type": "function",
      "constant": true
    },
    {
      "inputs": [
        {
          "internalType": "uint256",
          "name": "eventID",
          "type": "uint256"
        }
      ],
      "name": "getEventTokenHolders",
      "outputs": [
        {
          "internalType": "address[]",
          "name": "",
          "type": "address[]"
        }
      ],
      "stateMutability": "view",
      "type": "function",
      "constant": true
    },
    {
      "inputs": [
        {
          "internalType": "uint256",
          "name": "eventID",
          "type": "uint256"
        }
      ],
      "name": "getEventEnded",
      "outputs": [
        {
          "internalType": "bool",
          "name": "",
          "type": "bool"
        }
      ],
      "stateMutability": "view",
      "type": "function",
      "constant": true
    },
    {
      "inputs": [
        {
          "internalType": "uint256",
          "name": "eventID",
          "type": "uint256"
        }
      ],
      "name": "getEventRoyaltyAddress",
      "outputs": [
        {
          "internalType": "address",
          "name": "",
          "type": "address"
        }
      ],
      "stateMutability": "view",
      "type": "function",
      "constant": true
    },
    {
      "inputs": [],
      "name": "getLastTokenID",
      "outputs": [
        {
          "internalType": "uint256",
          "name": "",
          "type": "uint256"
        }
      ],
      "stateMutability": "view",
      "type": "function",
      "constant": true
    },
    {
      "inputs": [],
      "name": "getLastEventID",
      "outputs": [
        {
          "internalType": "uint256",
          "name": "",
          "type": "uint256"
        }
      ],
      "stateMutability": "view",
      "type": "function",
      "constant": true
    },
    {
      "inputs": [
        {
          "internalType": "address",
          "name": "user",
          "type": "address"
        }
      ],
      "name": "getUserEventTotal",
      "outputs": [
        {
          "internalType": "uint256",
          "name": "",
          "type": "uint256"
        }
      ],
      "stateMutability": "view",
      "type": "function",
      "constant": true
    },
    {
      "inputs": [
        {
          "internalType": "uint256",
          "name": "eventID",
          "type": "uint256"
        }
      ],
      "name": "getRequestsLength",
      "outputs": [
        {
          "internalType": "uint256",
          "name": "",
          "type": "uint256"
        }
      ],
      "stateMutability": "view",
      "type": "function",
      "constant": true
    },
    {
      "inputs": [
        {
          "internalType": "address",
          "name": "user",
          "type": "address"
        },
        {
          "internalType": "uint256",
          "name": "index",
          "type": "uint256"
        }
      ],
      "name": "getUserEventAt",
      "outputs": [
        {
          "internalType": "uint256",
          "name": "",
          "type": "uint256"
        }
      ],
      "stateMutability": "view",
      "type": "function",
      "constant": true
    },
    {
      "inputs": [
        {
          "internalType": "uint256",
          "name": "eventID",
          "type": "uint256"
        },
        {
          "internalType": "uint256",
          "name": "index",
          "type": "uint256"
        }
      ],
      "name": "getEventRequestAt",
      "outputs": [
        {
          "internalType": "uint256",
          "name": "",
          "type": "uint256"
        }
      ],
      "stateMutability": "view",
      "type": "function",
      "constant": true
    },
    {
      "inputs": [
        {
          "internalType": "address",
          "name": "user",
          "type": "address"
        }
      ],
      "name": "getUserEventIDs",
      "outputs": [
        {
          "internalType": "uint256[]",
          "name": "",
          "type": "uint256[]"
        }
      ],
      "stateMutability": "view",
      "type": "function",
      "constant": true
    },
    {
      "inputs": [
        {
          "internalType": "uint256",
          "name": "eventID",
          "type": "uint256"
        }
      ],
      "name": "getEventRequestIDs",
      "outputs": [
        {
          "internalType": "uint256[]",
          "name": "",
          "type": "uint256[]"
        }
      ],
      "stateMutability": "view",
      "type": "function",
      "constant": true
    },
    {
      "inputs": [
        {
          "internalType": "uint256",
          "name": "tokenID",
          "type": "uint256"
        },
        {
          "internalType": "uint256",
          "name": "salePrice",
          "type": "uint256"
        }
      ],
      "name": "royaltyInfo",
      "outputs": [
        {
          "internalType": "address",
          "name": "",
          "type": "address"
        },
        {
          "internalType": "uint256",
          "name": "",
          "type": "uint256"
        }
      ],
      "stateMutability": "view",
      "type": "function",
      "constant": true
    },
    {
      "inputs": [
        {
          "internalType": "uint256",
          "name": "eventID",
          "type": "uint256"
        },
        {
          "internalType": "address",
          "name": "receiver",
          "type": "address"
        }
      ],
      "name": "changeRoyaltyReceiver",
      "outputs": [],
      "stateMutability": "nonpayable",
      "type": "function"
    },
    {
      "inputs": [
        {
          "internalType": "uint256",
          "name": "tokenID",
          "type": "uint256"
        }
      ],
      "name": "tokenURI",
      "outputs": [
        {
          "internalType": "string",
          "name": "",
          "type": "string"
        }
      ],
      "stateMutability": "view",
      "type": "function",
      "constant": true
    },
    {
      "inputs": [
        {
          "internalType": "uint256",
          "name": "tokenID",
          "type": "uint256"
        }
      ],
      "name": "burn",
      "outputs": [],
      "stateMutability": "nonpayable",
      "type": "function"
    },
    {
      "inputs": [
        {
          "internalType": "address",
          "name": "spender",
          "type": "address"
        },
        {
          "internalType": "uint256",
          "name": "tokenID",
          "type": "uint256"
        }
      ],
      "name": "isApprovedOrOwner",
      "outputs": [
        {
          "internalType": "bool",
          "name": "",
          "type": "bool"
        }
      ],
      "stateMutability": "view",
      "type": "function",
      "constant": true
    },
    {
      "inputs": [
        {
          "internalType": "uint256[]",
          "name": "tokenIDs",
          "type": "uint256[]"
        }
      ],
      "name": "burnBatch",
      "outputs": [],
      "stateMutability": "nonpayable",
      "type": "function"
    },
    {
      "inputs": [
        {
          "internalType": "address[]",
          "name": "tos",
          "type": "address[]"
        },
        {
          "internalType": "uint256[]",
          "name": "tokenIDs",
          "type": "uint256[]"
        }
      ],
      "name": "approveBatch",
      "outputs": [],
      "stateMutability": "nonpayable",
      "type": "function"
    },
    {
      "inputs": [
        {
          "internalType": "address[]",
          "name": "froms",
          "type": "address[]"
        },
        {
          "internalType": "address[]",
          "name": "tos",
          "type": "address[]"
        },
        {
          "internalType": "uint256[]",
          "name": "tokenIDs",
          "type": "uint256[]"
        }
      ],
      "name": "transferFromBatch",
      "outputs": [],
      "stateMutability": "nonpayable",
      "type": "function"
    },
    {
      "inputs": [
        {
          "internalType": "address[]",
          "name": "froms",
          "type": "address[]"
        },
        {
          "internalType": "address[]",
          "name": "tos",
          "type": "address[]"
        },
        {
          "internalType": "uint256[]",
          "name": "tokenIDs",
          "type": "uint256[]"
        }
      ],
      "name": "safeTransferFromBatch",
      "outputs": [],
      "stateMutability": "nonpayable",
      "type": "function"
    },
    {
      "inputs": [
        {
          "internalType": "address[]",
          "name": "froms",
          "type": "address[]"
        },
        {
          "internalType": "address[]",
          "name": "tos",
          "type": "address[]"
        },
        {
          "internalType": "uint256[]",
          "name": "tokenIDs",
          "type": "uint256[]"
        },
        {
          "internalType": "bytes[]",
          "name": "datas",
          "type": "bytes[]"
        }
      ],
      "name": "safeTransferFromWithDataBatch",
      "outputs": [],
      "stateMutability": "nonpayable",
      "type": "function"
    }
  ],
  "bytecode": "0x60806040526040518060400160405280600181526020017f3100000000000000000000000000000000000000000000000000000000000000815250601290816200004a9190620004c3565b503480156200005857600080fd5b506040518060400160405280600581526020017f4e4f4150730000000000000000000000000000000000000000000000000000008152506040518060400160405280600481526020017f4e4f4150000000000000000000000000000000000000000000000000000000008152508160019081620000d69190620004c3565b508060029081620000e89190620004c3565b50505062000103632a55205a60e01b6200012e60201b60201c565b620001287386c80a8aa58e0a4fa09a69624c31ab2a6cad56b86200020560201b60201c565b6200062d565b63ffffffff60e01b817bffffffffffffffffffffffffffffffffffffffffffffffffffffffff19160362000199576040517f08c379a000000000000000000000000000000000000000000000000000000000815260040162000190906200060b565b60405180910390fd5b6001600080837bffffffffffffffffffffffffffffffffffffffffffffffffffffffff19167bffffffffffffffffffffffffffffffffffffffffffffffffffffffff1916815260200190815260200160002060006101000a81548160ff02191690831515021790555050565b80600760006101000a81548173ffffffffffffffffffffffffffffffffffffffff021916908373ffffffffffffffffffffffffffffffffffffffff16021790555050565b600081519050919050565b7f4e487b7100000000000000000000000000000000000000000000000000000000600052604160045260246000fd5b7f4e487b7100000000000000000000000000000000000000000000000000000000600052602260045260246000fd5b60006002820490506001821680620002cb57607f821691505b602082108103620002e157620002e062000283565b5b50919050565b60008190508160005260206000209050919050565b60006020601f8301049050919050565b600082821b905092915050565b6000600883026200034b7fffffffffffffffffffffffffffffffffffffffffffffffffffffffffffffffff826200030c565b6200035786836200030c565b95508019841693508086168417925050509392505050565b6000819050919050565b6000819050919050565b6000620003a46200039e62000398846200036f565b62000379565b6200036f565b9050919050565b6000819050919050565b620003c08362000383565b620003d8620003cf82620003ab565b84845462000319565b825550505050565b600090565b620003ef620003e0565b620003fc818484620003b5565b505050565b5b81811015620004245762000418600082620003e5565b60018101905062000402565b5050565b601f82111562000473576200043d81620002e7565b6200044884620002fc565b8101602085101562000458578190505b620004706200046785620002fc565b83018262000401565b50505b505050565b600082821c905092915050565b6000620004986000198460080262000478565b1980831691505092915050565b6000620004b3838362000485565b9150826002028217905092915050565b620004ce8262000249565b67ffffffffffffffff811115620004ea57620004e962000254565b5b620004f68254620002b2565b6200050382828562000428565b600060209050601f8311600181146200053b576000841562000526578287015190505b620005328582620004a5565b865550620005a2565b601f1984166200054b86620002e7565b60005b8281101562000575578489015182556001820191506020850194506020810190506200054e565b8683101562000595578489015162000591601f89168262000485565b8355505b6001600288020188555050505b505050505050565b600082825260208201905092915050565b7f4552433136353a20696e76616c696420696e7465726661636520696400000000600082015250565b6000620005f3601c83620005aa565b91506200060082620005bb565b602082019050919050565b600060208201905081810360008301526200062681620005e4565b9050919050565b615d69806200063d6000396000f3fe608060405234801561001057600080fd5b50600436106103af5760003560e01c806386fdbe70116101f4578063c4c9e2681161011a578063dd30cf39116100ad578063f572002f1161007c578063f572002f14610ca5578063fc05a80e14610cd5578063fe2c7bbc14610d05578063fed3d31a14610d35576103af565b8063dd30cf3914610bf9578063e4623c1b14610c29578063e853888914610c45578063e985e9c514610c75576103af565b8063cfdc65cf116100e9578063cfdc65cf14610b39578063d437a1a714610b69578063d97dc47d14610b99578063daf451a814610bc9576103af565b8063c4c9e26814610a8d578063c5c715e414610abd578063c87b56dd14610ad9578063cee2013c14610b09576103af565b80639d0e336a11610192578063b8dcb01f11610161578063b8dcb01f14610a1d578063b8f4943614610a39578063ba1b7e7614610a55578063c3ca81a914610a71576103af565b80639d0e336a14610985578063a22cb465146109b5578063a52676bf146109d1578063b88d4fde14610a01576103af565b806393d7154a116101ce57806393d7154a146108eb57806394313e6b1461091b57806395d89b411461094b5780639cd3cad614610969576103af565b806386fdbe701461085b578063880c0cf21461088b57806390d190ae146108bb576103af565b806342842e0e116102d9578063572b6c051161027757806370a082311161024657806370a08231146107c15780637da0a877146107f15780637fa29d871461080f578063836a10401461083f576103af565b8063572b6c05146107275780635b82c53f146107575780635da040ef146107735780636352211e14610791576103af565b80634852a4c8116102b35780634852a4c814610679578063486ff0cd146106a95780634945fcc7146106c7578063545f1043146106f7576103af565b806342842e0e1461061157806342966c681461062d578063430c208114610649576103af565b80630b4b67d6116103515780632a4ecbd3116103205780632a4ecbd3146105645780632a55205a146105945780632c05c7dd146105c5578063330a347b146105f5576103af565b80630b4b67d6146104ca5780630e094137146104fa5780631746a2b61461051857806323b872dd14610548576103af565b8063081812fc1161038d578063081812fc1461041e57806308d59cda1461044e578063095ea7b31461047e57806309db6aaf1461049a576103af565b806301ffc9a7146103b457806302c37ddc146103e457806306fdde0314610400575b600080fd5b6103ce60048036038101906103c99190613eb6565b610d51565b6040516103db9190613efe565b60405180910390f35b6103fe60048036038101906103f99190613f4f565b610dbb565b005b610408610e56565b604051610415919061400c565b60405180910390f35b61043860048036038101906104339190613f4f565b610ee8565b604051610445919061406f565b60405180910390f35b61046860048036038101906104639190613f4f565b610f2e565b6040516104759190614148565b60405180910390f35b61049860048036038101906104939190614196565b610fdc565b005b6104b460048036038101906104af91906141d6565b6110f3565b6040516104c19190614225565b60405180910390f35b6104e460048036038101906104df9190613f4f565b611125565b6040516104f19190614225565b60405180910390f35b610502611149565b60405161050f9190614225565b60405180910390f35b610532600480360381019061052d9190613f4f565b611153565b60405161053f91906142fe565b60405180910390f35b610562600480360381019061055d9190614320565b611238565b005b61057e60048036038101906105799190613f4f565b611298565b60405161058b919061400c565b60405180910390f35b6105ae60048036038101906105a991906141d6565b611340565b6040516105bc929190614373565b60405180910390f35b6105df60048036038101906105da91906141d6565b6113ed565b6040516105ec9190614225565b60405180910390f35b61060f600480360381019061060a9190613f4f565b61141c565b005b61062b60048036038101906106269190614320565b61145d565b005b61064760048036038101906106429190613f4f565b61147d565b005b610663600480360381019061065e9190614196565b6114c5565b6040516106709190613efe565b60405180910390f35b610693600480360381019061068e91906141d6565b6114d9565b6040516106a0919061406f565b60405180910390f35b6106b161150b565b6040516106be919061400c565b60405180910390f35b6106e160048036038101906106dc9190613f4f565b611599565b6040516106ee919061400c565b60405180910390f35b610711600480360381019061070c9190613f4f565b611641565b60405161071e919061400c565b60405180910390f35b610741600480360381019061073c919061439c565b6116e9565b60405161074e9190613efe565b60405180910390f35b610771600480360381019061076c91906143c9565b611743565b005b61077b6117ab565b6040516107889190614225565b60405180910390f35b6107ab60048036038101906107a69190613f4f565b6117b5565b6040516107b8919061406f565b60405180910390f35b6107db60048036038101906107d6919061439c565b611866565b6040516107e89190614225565b60405180910390f35b6107f961191d565b604051610806919061406f565b60405180910390f35b61082960048036038101906108249190613f4f565b611947565b6040516108369190614148565b60405180910390f35b61085960048036038101906108549190614409565b6119f6565b005b61087560048036038101906108709190613f4f565b611af8565b604051610882919061400c565b60405180910390f35b6108a560048036038101906108a09190613f4f565b611ba0565b6040516108b2919061400c565b60405180910390f35b6108d560048036038101906108d09190613f4f565b611c48565b6040516108e29190613efe565b60405180910390f35b61090560048036038101906109009190613f4f565b611c75565b604051610912919061400c565b60405180910390f35b610935600480360381019061093091906145bd565b611d1d565b6040516109429190614225565b60405180910390f35b610953611e2f565b604051610960919061400c565b60405180910390f35b610983600480360381019061097e91906143c9565b611ec1565b005b61099f600480360381019061099a9190614196565b611f4f565b6040516109ac9190614225565b60405180910390f35b6109cf60048036038101906109ca919061477c565b611faa565b005b6109eb60048036038101906109e6919061439c565b611fc0565b6040516109f89190614148565b60405180910390f35b610a1b6004803603810190610a16919061485d565b61206e565b005b610a376004803603810190610a329190614a6b565b6120d0565b005b610a536004803603810190610a4e9190614b12565b6121c9565b005b610a6f6004803603810190610a6a9190614a6b565b61233b565b005b610a8b6004803603810190610a869190614c62565b612424565b005b610aa76004803603810190610aa29190613f4f565b6125c2565b604051610ab4919061400c565b60405180910390f35b610ad76004803603810190610ad29190614ced565b61266a565b005b610af36004803603810190610aee9190613f4f565b61272a565b604051610b00919061400c565b60405180910390f35b610b236004803603810190610b1e9190613f4f565b61282d565b604051610b309190614225565b60405180910390f35b610b536004803603810190610b4e9190613f4f565b612854565b604051610b609190613efe565b60405180910390f35b610b836004803603810190610b7e9190613f4f565b612881565b604051610b909190613efe565b60405180910390f35b610bb36004803603810190610bae91906143c9565b6128ae565b604051610bc09190613efe565b60405180910390f35b610be36004803603810190610bde9190614d65565b6128e0565b604051610bf09190614225565b60405180910390f35b610c136004803603810190610c0e9190613f4f565b612908565b604051610c20919061406f565b60405180910390f35b610c436004803603810190610c3e9190614dae565b612948565b005b610c5f6004803603810190610c5a9190613f4f565b61298c565b604051610c6c919061406f565b60405180910390f35b610c8f6004803603810190610c8a9190614df7565b6129cc565b604051610c9c9190613efe565b60405180910390f35b610cbf6004803603810190610cba9190613f4f565b612a60565b604051610ccc9190614225565b60405180910390f35b610cef6004803603810190610cea919061439c565b612a87565b604051610cfc9190614225565b60405180910390f35b610d1f6004803603810190610d1a9190613f4f565b612ad7565b604051610d2c919061400c565b60405180910390f35b610d4f6004803603810190610d4a9190614e37565b612b7f565b005b60007f01ffc9a7000000000000000000000000000000000000000000000000000000007bffffffffffffffffffffffffffffffffffffffffffffffffffffffff1916827bffffffffffffffffffffffffffffffffffffffffffffffffffffffff1916149050919050565b6000600b60008381526020019081526020016000209050610ddb81612c91565b610df8610de6612cf0565b82600d01612cff90919063ffffffff16565b50610e518260086000610e09612cf0565b73ffffffffffffffffffffffffffffffffffffffff1673ffffffffffffffffffffffffffffffffffffffff168152602001908152602001600020612d2f90919063ffffffff16565b505050565b606060018054610e6590614f3d565b80601f0160208091040260200160405190810160405280929190818152602001828054610e9190614f3d565b8015610ede5780601f10610eb357610100808354040283529160200191610ede565b820191906000526020600020905b815481529060010190602001808311610ec157829003601f168201915b5050505050905090565b6000610ef382612d49565b6005600083815260200190815260200160002060009054906101000a900473ffffffffffffffffffffffffffffffffffffffff169050919050565b60606000610f3b83611125565b905060008167ffffffffffffffff811115610f5957610f58614466565b5b604051908082528060200260200182016040528015610f875781602001602082028036833780820191505090505b50905060005b82811015610fd157610f9f85826113ed565b828281518110610fb257610fb1614f6e565b5b6020026020010181815250508080610fc990614fcc565b915050610f8d565b508092505050919050565b6000610fe7826117b5565b90508073ffffffffffffffffffffffffffffffffffffffff168373ffffffffffffffffffffffffffffffffffffffff1603611057576040517f08c379a000000000000000000000000000000000000000000000000000000000815260040161104e90615086565b60405180910390fd5b8073ffffffffffffffffffffffffffffffffffffffff16611076612cf0565b73ffffffffffffffffffffffffffffffffffffffff1614806110a557506110a48161109f612cf0565b6129cc565b5b6110e4576040517f08c379a00000000000000000000000000000000000000000000000000000000081526004016110db90615118565b60405180910390fd5b6110ee8383612d94565b505050565b600061111d82600b6000868152602001908152602001600020600b01612e4d90919063ffffffff16565b905092915050565b600061114260096000848152602001908152602001600020612e67565b9050919050565b6000600f54905090565b606060006111608361282d565b905060008167ffffffffffffffff81111561117e5761117d614466565b5b6040519080825280602002602001820160405280156111ac5781602001602082028036833780820191505090505b50905060005b815181101561122d576111cd6111c886836110f3565b6117b5565b8282815181106111e0576111df614f6e565b5b602002602001019073ffffffffffffffffffffffffffffffffffffffff16908173ffffffffffffffffffffffffffffffffffffffff1681525050808061122590614fcc565b9150506111b2565b508092505050919050565b611249611243612cf0565b82612e7c565b611288576040517f08c379a000000000000000000000000000000000000000000000000000000000815260040161127f906151aa565b60405180910390fd5b611293838383612f11565b505050565b6060600b600083815260200190815260200160002060080180546112bb90614f3d565b80601f01602080910402602001604051908101604052809291908181526020018280546112e790614f3d565b80156113345780601f1061130957610100808354040283529160200191611334565b820191906000526020600020905b81548152906001019060200180831161131757829003601f168201915b50505050509050919050565b6000806000600b6000600d600088815260200190815260200160002054815260200190815260200160002060000160019054906101000a900473ffffffffffffffffffffffffffffffffffffffff169050600073ffffffffffffffffffffffffffffffffffffffff168173ffffffffffffffffffffffffffffffffffffffff16036113d25760008092509250506113e6565b80600a856113e091906151f9565b92509250505b9250929050565b60006114148260096000868152602001908152602001600020612e4d90919063ffffffff16565b905092915050565b6000600b6000838152602001908152602001600020905061143c81612c91565b60018160000160006101000a81548160ff0219169083151502179055505050565b6114788383836040518060200160405280600081525061206e565b505050565b61148681613177565b6114c181600b6000600d6000868152602001908152602001600020548152602001908152602001600020600b01612d2f90919063ffffffff16565b5050565b60006114d18383612e7c565b905092915050565b600061150382600b6000868152602001908152602001600020600d016131d390919063ffffffff16565b905092915050565b6012805461151890614f3d565b80601f016020809104026020016040519081016040528092919081815260200182805461154490614f3d565b80156115915780601f1061156657610100808354040283529160200191611591565b820191906000526020600020905b81548152906001019060200180831161157457829003601f168201915b505050505081565b6060600b600083815260200190815260200160002060030180546115bc90614f3d565b80601f01602080910402602001604051908101604052809291908181526020018280546115e890614f3d565b80156116355780601f1061160a57610100808354040283529160200191611635565b820191906000526020600020905b81548152906001019060200180831161161857829003601f168201915b50505050509050919050565b6060600b6000838152602001908152602001600020600201805461166490614f3d565b80601f016020809104026020016040519081016040528092919081815260200182805461169090614f3d565b80156116dd5780601f106116b2576101008083540402835291602001916116dd565b820191906000526020600020905b8154815290600101906020018083116116c057829003601f168201915b50505050509050919050565b6000600760009054906101000a900473ffffffffffffffffffffffffffffffffffffffff1673ffffffffffffffffffffffffffffffffffffffff168273ffffffffffffffffffffffffffffffffffffffff16149050919050565b6000600b6000848152602001908152602001600020905061176381612c91565b818160000160016101000a81548173ffffffffffffffffffffffffffffffffffffffff021916908373ffffffffffffffffffffffffffffffffffffffff160217905550505050565b6000601054905090565b6000806003600084815260200190815260200160002060009054906101000a900473ffffffffffffffffffffffffffffffffffffffff169050600073ffffffffffffffffffffffffffffffffffffffff168173ffffffffffffffffffffffffffffffffffffffff160361185d576040517f08c379a000000000000000000000000000000000000000000000000000000000815260040161185490615276565b60405180910390fd5b80915050919050565b60008073ffffffffffffffffffffffffffffffffffffffff168273ffffffffffffffffffffffffffffffffffffffff16036118d6576040517f08c379a00000000000000000000000000000000000000000000000000000000081526004016118cd90615308565b60405180910390fd5b600460008373ffffffffffffffffffffffffffffffffffffffff1673ffffffffffffffffffffffffffffffffffffffff168152602001908152602001600020549050919050565b6000600760009054906101000a900473ffffffffffffffffffffffffffffffffffffffff16905090565b606060006119548361282d565b905060008167ffffffffffffffff81111561197257611971614466565b5b6040519080825280602002602001820160405280156119a05781602001602082028036833780820191505090505b50905060005b81518110156119eb576119b985826110f3565b8282815181106119cc576119cb614f6e565b5b60200260200101818152505080806119e390614fcc565b9150506119a6565b508092505050919050565b6001600a600083815260200190815260200160002060030160006101000a81548160ff0219169083151502179055506000600b60008581526020019081526020016000209050611a4881600b01612e67565b816009015411611a8d576040517f08c379a0000000000000000000000000000000000000000000000000000000008152600401611a849061539a565b60405180910390fd5b8060000160009054906101000a900460ff1615611adf576040517f08c379a0000000000000000000000000000000000000000000000000000000008152600401611ad690615406565b60405180910390fd5b611ae881612c91565b611af283856131ed565b50505050565b6060600a60008381526020019081526020016000206002018054611b1b90614f3d565b80601f0160208091040260200160405190810160405280929190818152602001828054611b4790614f3d565b8015611b945780601f10611b6957610100808354040283529160200191611b94565b820191906000526020600020905b815481529060010190602001808311611b7757829003601f168201915b50505050509050919050565b6060600b60008381526020019081526020016000206004018054611bc390614f3d565b80601f0160208091040260200160405190810160405280929190818152602001828054611bef90614f3d565b8015611c3c5780601f10611c1157610100808354040283529160200191611c3c565b820191906000526020600020905b815481529060010190602001808311611c1f57829003601f168201915b50505050509050919050565b6000600a600083815260200190815260200160002060030160009054906101000a900460ff169050919050565b6060600b6000838152602001908152602001600020600a018054611c9890614f3d565b80601f0160208091040260200160405190810160405280929190818152602001828054611cc490614f3d565b8015611d115780601f10611ce657610100808354040283529160200191611d11565b820191906000526020600020905b815481529060010190602001808311611cf457829003601f168201915b50505050509050919050565b600080611d2a308d613256565b90506000611d41828e8e8e8e8e8e8e8e8e8e613289565b90506000600b60008381526020019081526020016000209050611d77611d65612cf0565b82600d016134b090919063ffffffff16565b50611d80612cf0565b8160000160016101000a81548173ffffffffffffffffffffffffffffffffffffffff021916908373ffffffffffffffffffffffffffffffffffffffff160217905550611e1a8260086000611dd2612cf0565b73ffffffffffffffffffffffffffffffffffffffff1673ffffffffffffffffffffffffffffffffffffffff1681526020019081526020016000206134e090919063ffffffff16565b508193505050509a9950505050505050505050565b606060028054611e3e90614f3d565b80601f0160208091040260200160405190810160405280929190818152602001828054611e6a90614f3d565b8015611eb75780601f10611e8c57610100808354040283529160200191611eb7565b820191906000526020600020905b815481529060010190602001808311611e9a57829003601f168201915b5050505050905090565b6000600b60008481526020019081526020016000209050611ee181612c91565b611ef78282600d016134b090919063ffffffff16565b50611f4983600860008573ffffffffffffffffffffffffffffffffffffffff1673ffffffffffffffffffffffffffffffffffffffff1681526020019081526020016000206134e090919063ffffffff16565b50505050565b6000611fa282600860008673ffffffffffffffffffffffffffffffffffffffff1673ffffffffffffffffffffffffffffffffffffffff168152602001908152602001600020612e4d90919063ffffffff16565b905092915050565b611fbc611fb5612cf0565b83836134fa565b5050565b60606000611fcd83612a87565b905060008167ffffffffffffffff811115611feb57611fea614466565b5b6040519080825280602002602001820160405280156120195781602001602082028036833780820191505090505b50905060005b82811015612063576120318582611f4f565b82828151811061204457612043614f6e565b5b602002602001018181525050808061205b90614fcc565b91505061201f565b508092505050919050565b61207f612079612cf0565b83612e7c565b6120be576040517f08c379a00000000000000000000000000000000000000000000000000000000081526004016120b5906151aa565b60405180910390fd5b6120ca84848484613666565b50505050565b815183511480156120e2575080518351145b6040518060600160405280602e8152602001615d06602e91399061213c576040517f08c379a0000000000000000000000000000000000000000000000000000000008152600401612133919061400c565b60405180910390fd5b5060005b83518110156121c3576121b284828151811061215f5761215e614f6e565b5b602002602001015184838151811061217a57612179614f6e565b5b602002602001015184848151811061219557612194614f6e565b5b60200260200101516040518060200160405280600081525061206e565b806121bc90614fcc565b9050612140565b50505050565b6000600b600085815260200190815260200160002090508060000160009054906101000a900460ff1615612232576040517f08c379a000000000000000000000000000000000000000000000000000000000815260040161222990615406565b60405180910390fd5b600060116000815461224390614fcc565b919050819055905084600a60008381526020019081526020016000206000018190555083600a600083815260200190815260200160002060010160006101000a81548173ffffffffffffffffffffffffffffffffffffffff021916908373ffffffffffffffffffffffffffffffffffffffff16021790555082600a600083815260200190815260200160002060020190816122de91906155d2565b506000600a600083815260200190815260200160002060030160006101000a81548160ff02191690831515021790555061233381600960008881526020019081526020016000206134e090919063ffffffff16565b505050505050565b8151835114801561234d575080518351145b6040518060600160405280602e8152602001615d06602e9139906123a7576040517f08c379a000000000000000000000000000000000000000000000000000000000815260040161239e919061400c565b60405180910390fd5b5060005b835181101561241e5761240d8482815181106123ca576123c9614f6e565b5b60200260200101518483815181106123e5576123e4614f6e565b5b6020026020010151848481518110612400576123ff614f6e565b5b6020026020010151611238565b8061241790614fcc565b90506123ab565b50505050565b6000600b600085815260200190815260200160002090508060000160009054906101000a900460ff161561248d576040517f08c379a000000000000000000000000000000000000000000000000000000000815260040161248490615406565b60405180910390fd5b61249681612c91565b606060005b83518110156124e6576001600a600083815260200190815260200160002060030160006101000a81548160ff02191690831515021790555080806124de90614fcc565b91505061249b565b5060005b84518110156125765761251685828151811061250957612508614f6e565b5b60200260200101516136c2565b82828151811061252957612528614f6e565b5b602002602001019073ffffffffffffffffffffffffffffffffffffffff16908173ffffffffffffffffffffffffffffffffffffffff1681525050808061256e90614fcc565b9150506124ea565b5060005b84518110156125ba576125a782828151811061259957612598614f6e565b5b6020026020010151876131ed565b80806125b290614fcc565b91505061257a565b505050505050565b6060600b600083815260200190815260200160002060010180546125e590614f3d565b80601f016020809104026020016040519081016040528092919081815260200182805461261190614f3d565b801561265e5780601f106126335761010080835404028352916020019161265e565b820191906000526020600020905b81548152906001019060200180831161264157829003601f168201915b50505050509050919050565b80518251146040518060600160405280602e8152602001615d06602e9139906126c9576040517f08c379a00000000000000000000000000000000000000000000000000000000081526004016126c0919061400c565b60405180910390fd5b5060005b8251811015612725576127148382815181106126ec576126eb614f6e565b5b602002602001015183838151811061270757612706614f6e565b5b6020026020010151610fdc565b8061271e90614fcc565b90506126cd565b505050565b6060612735826136d0565b612774576040517f08c379a000000000000000000000000000000000000000000000000000000000815260040161276b90615716565b60405180910390fd5b600b6000600d600085815260200190815260200160002054815260200190815260200160002060010180546127a890614f3d565b80601f01602080910402602001604051908101604052809291908181526020018280546127d490614f3d565b80156128215780601f106127f657610100808354040283529160200191612821565b820191906000526020600020905b81548152906001019060200180831161280457829003601f168201915b50505050509050919050565b600061284d600b6000848152602001908152602001600020600b01612e67565b9050919050565b6000600b600083815260200190815260200160002060060160009054906101000a900460ff169050919050565b6000600b600083815260200190815260200160002060000160009054906101000a900460ff169050919050565b60006128d882600b6000868152602001908152602001600020600d0161373c90919063ffffffff16565b905092915050565b6000600c826040516128f29190615772565b9081526020016040518091039020549050919050565b6000600b600083815260200190815260200160002060000160019054906101000a900473ffffffffffffffffffffffffffffffffffffffff169050919050565b60005b81518110156129885761297782828151811061296a57612969614f6e565b5b602002602001015161147d565b8061298190614fcc565b905061294b565b5050565b6000600a600083815260200190815260200160002060010160009054906101000a900473ffffffffffffffffffffffffffffffffffffffff169050919050565b6000600660008473ffffffffffffffffffffffffffffffffffffffff1673ffffffffffffffffffffffffffffffffffffffff16815260200190815260200160002060008373ffffffffffffffffffffffffffffffffffffffff1673ffffffffffffffffffffffffffffffffffffffff16815260200190815260200160002060009054906101000a900460ff16905092915050565b6000612a80600b6000848152602001908152602001600020600d0161376c565b9050919050565b6000612ad0600860008473ffffffffffffffffffffffffffffffffffffffff1673ffffffffffffffffffffffffffffffffffffffff168152602001908152602001600020612e67565b9050919050565b6060600b60008381526020019081526020016000206005018054612afa90614f3d565b80601f0160208091040260200160405190810160405280929190818152602001828054612b2690614f3d565b8015612b735780601f10612b4857610100808354040283529160200191612b73565b820191906000526020600020905b815481529060010190602001808311612b5657829003601f168201915b50505050509050919050565b82518451148015612b91575081518451145b8015612b9e575080518451145b6040518060600160405280602e8152602001615d06602e913990612bf8576040517f08c379a0000000000000000000000000000000000000000000000000000000008152600401612bef919061400c565b60405180910390fd5b5060005b8451811015612c8a57612c79858281518110612c1b57612c1a614f6e565b5b6020026020010151858381518110612c3657612c35614f6e565b5b6020026020010151858481518110612c5157612c50614f6e565b5b6020026020010151858581518110612c6c57612c6b614f6e565b5b602002602001015161206e565b80612c8390614fcc565b9050612bfc565b5050505050565b612cae612c9c612cf0565b82600d0161373c90919063ffffffff16565b612ced576040517f08c379a0000000000000000000000000000000000000000000000000000000008152600401612ce4906157d5565b60405180910390fd5b50565b6000612cfa613781565b905090565b6000612d27836000018373ffffffffffffffffffffffffffffffffffffffff1660001b6137bd565b905092915050565b6000612d41836000018360001b6137bd565b905092915050565b612d52816136d0565b612d91576040517f08c379a0000000000000000000000000000000000000000000000000000000008152600401612d8890615276565b60405180910390fd5b50565b816005600083815260200190815260200160002060006101000a81548173ffffffffffffffffffffffffffffffffffffffff021916908373ffffffffffffffffffffffffffffffffffffffff160217905550808273ffffffffffffffffffffffffffffffffffffffff16612e07836117b5565b73ffffffffffffffffffffffffffffffffffffffff167f8c5be1e5ebec7d5bd14f71427d1e84f3dd0314c0f7b2291e5b200ac8c7c3b92560405160405180910390a45050565b6000612e5c83600001836138d1565b60001c905092915050565b6000612e75826000016138fc565b9050919050565b600080612e88836117b5565b90508073ffffffffffffffffffffffffffffffffffffffff168473ffffffffffffffffffffffffffffffffffffffff161480612eca5750612ec981856129cc565b5b80612f0857508373ffffffffffffffffffffffffffffffffffffffff16612ef084610ee8565b73ffffffffffffffffffffffffffffffffffffffff16145b91505092915050565b8273ffffffffffffffffffffffffffffffffffffffff16612f31826117b5565b73ffffffffffffffffffffffffffffffffffffffff1614612f87576040517f08c379a0000000000000000000000000000000000000000000000000000000008152600401612f7e90615867565b60405180910390fd5b600073ffffffffffffffffffffffffffffffffffffffff168273ffffffffffffffffffffffffffffffffffffffff1603612ff6576040517f08c379a0000000000000000000000000000000000000000000000000000000008152600401612fed906158f9565b60405180910390fd5b61300183838361390d565b61300c600082612d94565b6001600460008573ffffffffffffffffffffffffffffffffffffffff1673ffffffffffffffffffffffffffffffffffffffff168152602001908152602001600020600082825461305c9190615919565b925050819055506001600460008473ffffffffffffffffffffffffffffffffffffffff1673ffffffffffffffffffffffffffffffffffffffff16815260200190815260200160002060008282546130b3919061594d565b92505081905550816003600083815260200190815260200160002060006101000a81548173ffffffffffffffffffffffffffffffffffffffff021916908373ffffffffffffffffffffffffffffffffffffffff160217905550808273ffffffffffffffffffffffffffffffffffffffff168473ffffffffffffffffffffffffffffffffffffffff167fddf252ad1be2c89b69c2b068fc378daa952ba7f163c4a11628f55a4df523b3ef60405160405180910390a4613172838383613912565b505050565b613188613182612cf0565b82612e7c565b6131c7576040517f08c379a00000000000000000000000000000000000000000000000000000000081526004016131be906151aa565b60405180910390fd5b6131d081613917565b50565b60006131e283600001836138d1565b60001c905092915050565b6000600f600081546131fe90614fcc565b91905081905590506132108382613a34565b61323881600b6000858152602001908152602001600020600b016134e090919063ffffffff16565b5081600d600083815260200190815260200160002081905550505050565b6000828260405160200161326b929190615981565b60405160208183030381529060405280519060200120905092915050565b600080600e60008e815260200190815260200160002054146132e0576040517f08c379a00000000000000000000000000000000000000000000000000000000081526004016132d7906159fd565b60405180910390fd5b60006010600081546132f190614fcc565b91905081905590508b600b6000838152602001908152602001600020600101908161331c91906155d2565b508a600b6000838152602001908152602001600020600201908161334091906155d2565b5089600b6000838152602001908152602001600020600301908161336491906155d2565b5088600b6000838152602001908152602001600020600401908161338891906155d2565b5087600b600083815260200190815260200160002060050190816133ac91906155d2565b5085600b600083815260200190815260200160002060070190816133d091906155d2565b5084600b600083815260200190815260200160002060080190816133f491906155d2565b5083600b6000838152602001908152602001600020600a01908161341891906155d2565b5086600b600083815260200190815260200160002060060160006101000a81548160ff02191690831515021790555082600b60008381526020019081526020016000206009018190555080600c8b6040516134739190615772565b90815260200160405180910390208190555080600e60008f815260200190815260200160002081905550809150509b9a5050505050505050505050565b60006134d8836000018373ffffffffffffffffffffffffffffffffffffffff1660001b613c0d565b905092915050565b60006134f2836000018360001b613c0d565b905092915050565b8173ffffffffffffffffffffffffffffffffffffffff168373ffffffffffffffffffffffffffffffffffffffff1603613568576040517f08c379a000000000000000000000000000000000000000000000000000000000815260040161355f90615a69565b60405180910390fd5b80600660008573ffffffffffffffffffffffffffffffffffffffff1673ffffffffffffffffffffffffffffffffffffffff16815260200190815260200160002060008473ffffffffffffffffffffffffffffffffffffffff1673ffffffffffffffffffffffffffffffffffffffff16815260200190815260200160002060006101000a81548160ff0219169083151502179055508173ffffffffffffffffffffffffffffffffffffffff168373ffffffffffffffffffffffffffffffffffffffff167f17307eab39ab6107e8899845ad3d59bd9653f200f220920489ca2b5937696c31836040516136599190613efe565b60405180910390a3505050565b613671848484612f11565b61367d84848484613c7d565b6136bc576040517f08c379a00000000000000000000000000000000000000000000000000000000081526004016136b390615afb565b60405180910390fd5b50505050565b600060208201519050919050565b60008073ffffffffffffffffffffffffffffffffffffffff166003600084815260200190815260200160002060009054906101000a900473ffffffffffffffffffffffffffffffffffffffff1673ffffffffffffffffffffffffffffffffffffffff1614159050919050565b6000613764836000018373ffffffffffffffffffffffffffffffffffffffff1660001b613e04565b905092915050565b600061377a826000016138fc565b9050919050565b6000601460003690501015801561379d575061379c336116e9565b5b156137b157601436033560601c90506137b9565b3390506137ba565b5b90565b600080836001016000848152602001908152602001600020549050600081146138c55760006001826137ef9190615919565b90506000600186600001805490506138079190615919565b905081811461387657600086600001828154811061382857613827614f6e565b5b906000526020600020015490508087600001848154811061384c5761384b614f6e565b5b90600052602060002001819055508387600101600083815260200190815260200160002081905550505b8560000180548061388a57613889615b1b565b5b6001900381819060005260206000200160009055905585600101600086815260200190815260200160002060009055600193505050506138cb565b60009150505b92915050565b60008260000182815481106138e9576138e8614f6e565b5b9060005260206000200154905092915050565b600081600001805490509050919050565b505050565b505050565b6000613922826117b5565b90506139308160008461390d565b61393b600083612d94565b6001600460008373ffffffffffffffffffffffffffffffffffffffff1673ffffffffffffffffffffffffffffffffffffffff168152602001908152602001600020600082825461398b9190615919565b925050819055506003600083815260200190815260200160002060006101000a81549073ffffffffffffffffffffffffffffffffffffffff021916905581600073ffffffffffffffffffffffffffffffffffffffff168273ffffffffffffffffffffffffffffffffffffffff167fddf252ad1be2c89b69c2b068fc378daa952ba7f163c4a11628f55a4df523b3ef60405160405180910390a4613a3081600084613912565b5050565b600073ffffffffffffffffffffffffffffffffffffffff168273ffffffffffffffffffffffffffffffffffffffff1603613aa3576040517f08c379a0000000000000000000000000000000000000000000000000000000008152600401613a9a90615b96565b60405180910390fd5b613aac816136d0565b15613aec576040517f08c379a0000000000000000000000000000000000000000000000000000000008152600401613ae390615c02565b60405180910390fd5b613af86000838361390d565b6001600460008473ffffffffffffffffffffffffffffffffffffffff1673ffffffffffffffffffffffffffffffffffffffff1681526020019081526020016000206000828254613b48919061594d565b92505081905550816003600083815260200190815260200160002060006101000a81548173ffffffffffffffffffffffffffffffffffffffff021916908373ffffffffffffffffffffffffffffffffffffffff160217905550808273ffffffffffffffffffffffffffffffffffffffff16600073ffffffffffffffffffffffffffffffffffffffff167fddf252ad1be2c89b69c2b068fc378daa952ba7f163c4a11628f55a4df523b3ef60405160405180910390a4613c0960008383613912565b5050565b6000613c198383613e04565b613c72578260000182908060018154018082558091505060019003906000526020600020016000909190919091505582600001805490508360010160008481526020019081526020016000208190555060019050613c77565b600090505b92915050565b6000613c9e8473ffffffffffffffffffffffffffffffffffffffff16613e27565b15613df7578373ffffffffffffffffffffffffffffffffffffffff1663150b7a02613cc7612cf0565b8786866040518563ffffffff1660e01b8152600401613ce99493929190615c77565b6020604051808303816000875af1925050508015613d2557506040513d601f19601f82011682018060405250810190613d229190615cd8565b60015b613da7573d8060008114613d55576040519150601f19603f3d011682016040523d82523d6000602084013e613d5a565b606091505b506000815103613d9f576040517f08c379a0000000000000000000000000000000000000000000000000000000008152600401613d9690615afb565b60405180910390fd5b805181602001fd5b63150b7a0260e01b7bffffffffffffffffffffffffffffffffffffffffffffffffffffffff1916817bffffffffffffffffffffffffffffffffffffffffffffffffffffffff191614915050613dfc565b600190505b949350505050565b600080836001016000848152602001908152602001600020541415905092915050565b6000808273ffffffffffffffffffffffffffffffffffffffff163b119050919050565b6000604051905090565b600080fd5b600080fd5b60007fffffffff0000000000000000000000000000000000000000000000000000000082169050919050565b613e9381613e5e565b8114613e9e57600080fd5b50565b600081359050613eb081613e8a565b92915050565b600060208284031215613ecc57613ecb613e54565b5b6000613eda84828501613ea1565b91505092915050565b60008115159050919050565b613ef881613ee3565b82525050565b6000602082019050613f136000830184613eef565b92915050565b6000819050919050565b613f2c81613f19565b8114613f3757600080fd5b50565b600081359050613f4981613f23565b92915050565b600060208284031215613f6557613f64613e54565b5b6000613f7384828501613f3a565b91505092915050565b600081519050919050565b600082825260208201905092915050565b60005b83811015613fb6578082015181840152602081019050613f9b565b60008484015250505050565b6000601f19601f8301169050919050565b6000613fde82613f7c565b613fe88185613f87565b9350613ff8818560208601613f98565b61400181613fc2565b840191505092915050565b600060208201905081810360008301526140268184613fd3565b905092915050565b600073ffffffffffffffffffffffffffffffffffffffff82169050919050565b60006140598261402e565b9050919050565b6140698161404e565b82525050565b60006020820190506140846000830184614060565b92915050565b600081519050919050565b600082825260208201905092915050565b6000819050602082019050919050565b6140bf81613f19565b82525050565b60006140d183836140b6565b60208301905092915050565b6000602082019050919050565b60006140f58261408a565b6140ff8185614095565b935061410a836140a6565b8060005b8381101561413b57815161412288826140c5565b975061412d836140dd565b92505060018101905061410e565b5085935050505092915050565b6000602082019050818103600083015261416281846140ea565b905092915050565b6141738161404e565b811461417e57600080fd5b50565b6000813590506141908161416a565b92915050565b600080604083850312156141ad576141ac613e54565b5b60006141bb85828601614181565b92505060206141cc85828601613f3a565b9150509250929050565b600080604083850312156141ed576141ec613e54565b5b60006141fb85828601613f3a565b925050602061420c85828601613f3a565b9150509250929050565b61421f81613f19565b82525050565b600060208201905061423a6000830184614216565b92915050565b600081519050919050565b600082825260208201905092915050565b6000819050602082019050919050565b6142758161404e565b82525050565b6000614287838361426c565b60208301905092915050565b6000602082019050919050565b60006142ab82614240565b6142b5818561424b565b93506142c08361425c565b8060005b838110156142f15781516142d8888261427b565b97506142e383614293565b9250506001810190506142c4565b5085935050505092915050565b6000602082019050818103600083015261431881846142a0565b905092915050565b60008060006060848603121561433957614338613e54565b5b600061434786828701614181565b935050602061435886828701614181565b925050604061436986828701613f3a565b9150509250925092565b60006040820190506143886000830185614060565b6143956020830184614216565b9392505050565b6000602082840312156143b2576143b1613e54565b5b60006143c084828501614181565b91505092915050565b600080604083850312156143e0576143df613e54565b5b60006143ee85828601613f3a565b92505060206143ff85828601614181565b9150509250929050565b60008060006060848603121561442257614421613e54565b5b600061443086828701613f3a565b935050602061444186828701614181565b925050604061445286828701613f3a565b9150509250925092565b600080fd5b600080fd5b7f4e487b7100000000000000000000000000000000000000000000000000000000600052604160045260246000fd5b61449e82613fc2565b810181811067ffffffffffffffff821117156144bd576144bc614466565b5b80604052505050565b60006144d0613e4a565b90506144dc8282614495565b919050565b600067ffffffffffffffff8211156144fc576144fb614466565b5b61450582613fc2565b9050602081019050919050565b82818337600083830152505050565b600061453461452f846144e1565b6144c6565b9050828152602081018484840111156145505761454f614461565b5b61455b848285614512565b509392505050565b600082601f8301126145785761457761445c565b5b8135614588848260208601614521565b91505092915050565b61459a81613ee3565b81146145a557600080fd5b50565b6000813590506145b781614591565b92915050565b6000806000806000806000806000806101408b8d0312156145e1576145e0613e54565b5b60008b013567ffffffffffffffff8111156145ff576145fe613e59565b5b61460b8d828e01614563565b9a505060208b013567ffffffffffffffff81111561462c5761462b613e59565b5b6146388d828e01614563565b99505060408b013567ffffffffffffffff81111561465957614658613e59565b5b6146658d828e01614563565b98505060608b013567ffffffffffffffff81111561468657614685613e59565b5b6146928d828e01614563565b97505060808b013567ffffffffffffffff8111156146b3576146b2613e59565b5b6146bf8d828e01614563565b96505060a06146d08d828e016145a8565b95505060c08b013567ffffffffffffffff8111156146f1576146f0613e59565b5b6146fd8d828e01614563565b94505060e08b013567ffffffffffffffff81111561471e5761471d613e59565b5b61472a8d828e01614563565b9350506101008b013567ffffffffffffffff81111561474c5761474b613e59565b5b6147588d828e01614563565b92505061012061476a8d828e01613f3a565b9150509295989b9194979a5092959850565b6000806040838503121561479357614792613e54565b5b60006147a185828601614181565b92505060206147b2858286016145a8565b9150509250929050565b600067ffffffffffffffff8211156147d7576147d6614466565b5b6147e082613fc2565b9050602081019050919050565b60006148006147fb846147bc565b6144c6565b90508281526020810184848401111561481c5761481b614461565b5b614827848285614512565b509392505050565b600082601f8301126148445761484361445c565b5b81356148548482602086016147ed565b91505092915050565b6000806000806080858703121561487757614876613e54565b5b600061488587828801614181565b945050602061489687828801614181565b93505060406148a787828801613f3a565b925050606085013567ffffffffffffffff8111156148c8576148c7613e59565b5b6148d48782880161482f565b91505092959194509250565b600067ffffffffffffffff8211156148fb576148fa614466565b5b602082029050602081019050919050565b600080fd5b600061492461491f846148e0565b6144c6565b905080838252602082019050602084028301858111156149475761494661490c565b5b835b81811015614970578061495c8882614181565b845260208401935050602081019050614949565b5050509392505050565b600082601f83011261498f5761498e61445c565b5b813561499f848260208601614911565b91505092915050565b600067ffffffffffffffff8211156149c3576149c2614466565b5b602082029050602081019050919050565b60006149e76149e2846149a8565b6144c6565b90508083825260208201905060208402830185811115614a0a57614a0961490c565b5b835b81811015614a335780614a1f8882613f3a565b845260208401935050602081019050614a0c565b5050509392505050565b600082601f830112614a5257614a5161445c565b5b8135614a628482602086016149d4565b91505092915050565b600080600060608486031215614a8457614a83613e54565b5b600084013567ffffffffffffffff811115614aa257614aa1613e59565b5b614aae8682870161497a565b935050602084013567ffffffffffffffff811115614acf57614ace613e59565b5b614adb8682870161497a565b925050604084013567ffffffffffffffff811115614afc57614afb613e59565b5b614b0886828701614a3d565b9150509250925092565b600080600060608486031215614b2b57614b2a613e54565b5b6000614b3986828701613f3a565b9350506020614b4a86828701614181565b925050604084013567ffffffffffffffff811115614b6b57614b6a613e59565b5b614b7786828701614563565b9150509250925092565b600067ffffffffffffffff821115614b9c57614b9b614466565b5b602082029050602081019050919050565b6000614bc0614bbb84614b81565b6144c6565b90508083825260208201905060208402830185811115614be357614be261490c565b5b835b81811015614c2a57803567ffffffffffffffff811115614c0857614c0761445c565b5b808601614c15898261482f565b85526020850194505050602081019050614be5565b5050509392505050565b600082601f830112614c4957614c4861445c565b5b8135614c59848260208601614bad565b91505092915050565b600080600060608486031215614c7b57614c7a613e54565b5b6000614c8986828701613f3a565b935050602084013567ffffffffffffffff811115614caa57614ca9613e59565b5b614cb686828701614c34565b925050604084013567ffffffffffffffff811115614cd757614cd6613e59565b5b614ce386828701614a3d565b9150509250925092565b60008060408385031215614d0457614d03613e54565b5b600083013567ffffffffffffffff811115614d2257614d21613e59565b5b614d2e8582860161497a565b925050602083013567ffffffffffffffff811115614d4f57614d4e613e59565b5b614d5b85828601614a3d565b9150509250929050565b600060208284031215614d7b57614d7a613e54565b5b600082013567ffffffffffffffff811115614d9957614d98613e59565b5b614da584828501614563565b91505092915050565b600060208284031215614dc457614dc3613e54565b5b600082013567ffffffffffffffff811115614de257614de1613e59565b5b614dee84828501614a3d565b91505092915050565b60008060408385031215614e0e57614e0d613e54565b5b6000614e1c85828601614181565b9250506020614e2d85828601614181565b9150509250929050565b60008060008060808587031215614e5157614e50613e54565b5b600085013567ffffffffffffffff811115614e6f57614e6e613e59565b5b614e7b8782880161497a565b945050602085013567ffffffffffffffff811115614e9c57614e9b613e59565b5b614ea88782880161497a565b935050604085013567ffffffffffffffff811115614ec957614ec8613e59565b5b614ed587828801614a3d565b925050606085013567ffffffffffffffff811115614ef657614ef5613e59565b5b614f0287828801614c34565b91505092959194509250565b7f4e487b7100000000000000000000000000000000000000000000000000000000600052602260045260246000fd5b60006002820490506001821680614f5557607f821691505b602082108103614f6857614f67614f0e565b5b50919050565b7f4e487b7100000000000000000000000000000000000000000000000000000000600052603260045260246000fd5b7f4e487b7100000000000000000000000000000000000000000000000000000000600052601160045260246000fd5b6000614fd782613f19565b91507fffffffffffffffffffffffffffffffffffffffffffffffffffffffffffffffff820361500957615008614f9d565b5b600182019050919050565b7f4552433732313a20617070726f76616c20746f2063757272656e74206f776e6560008201527f7200000000000000000000000000000000000000000000000000000000000000602082015250565b6000615070602183613f87565b915061507b82615014565b604082019050919050565b6000602082019050818103600083015261509f81615063565b9050919050565b7f4552433732313a20617070726f76652063616c6c6572206973206e6f7420746f60008201527f6b656e206f776e6572206e6f7220617070726f76656420666f7220616c6c0000602082015250565b6000615102603e83613f87565b915061510d826150a6565b604082019050919050565b60006020820190508181036000830152615131816150f5565b9050919050565b7f4552433732313a2063616c6c6572206973206e6f7420746f6b656e206f776e6560008201527f72206e6f7220617070726f766564000000000000000000000000000000000000602082015250565b6000615194602e83613f87565b915061519f82615138565b604082019050919050565b600060208201905081810360008301526151c381615187565b9050919050565b7f4e487b7100000000000000000000000000000000000000000000000000000000600052601260045260246000fd5b600061520482613f19565b915061520f83613f19565b92508261521f5761521e6151ca565b5b828204905092915050565b7f4552433732313a20696e76616c696420746f6b656e2049440000000000000000600082015250565b6000615260601883613f87565b915061526b8261522a565b602082019050919050565b6000602082019050818103600083015261528f81615253565b9050919050565b7f4552433732313a2061646472657373207a65726f206973206e6f74206120766160008201527f6c6964206f776e65720000000000000000000000000000000000000000000000602082015250565b60006152f2602983613f87565b91506152fd82615296565b604082019050919050565b60006020820190508181036000830152615321816152e5565b9050919050565b7f74686520746f74616c20737570706c7920666f722074686973206576656e742060008201527f6973207265616368656421000000000000000000000000000000000000000000602082015250565b6000615384602b83613f87565b915061538f82615328565b604082019050919050565b600060208201905081810360008301526153b381615377565b9050919050565b7f4576656e7420456e646564000000000000000000000000000000000000000000600082015250565b60006153f0600b83613f87565b91506153fb826153ba565b602082019050919050565b6000602082019050818103600083015261541f816153e3565b9050919050565b60008190508160005260206000209050919050565b60006020601f8301049050919050565b600082821b905092915050565b6000600883026154887fffffffffffffffffffffffffffffffffffffffffffffffffffffffffffffffff8261544b565b615492868361544b565b95508019841693508086168417925050509392505050565b6000819050919050565b60006154cf6154ca6154c584613f19565b6154aa565b613f19565b9050919050565b6000819050919050565b6154e9836154b4565b6154fd6154f5826154d6565b848454615458565b825550505050565b600090565b615512615505565b61551d8184846154e0565b505050565b5b818110156155415761553660008261550a565b600181019050615523565b5050565b601f8211156155865761555781615426565b6155608461543b565b8101602085101561556f578190505b61558361557b8561543b565b830182615522565b50505b505050565b600082821c905092915050565b60006155a96000198460080261558b565b1980831691505092915050565b60006155c28383615598565b9150826002028217905092915050565b6155db82613f7c565b67ffffffffffffffff8111156155f4576155f3614466565b5b6155fe8254614f3d565b615609828285615545565b600060209050601f83116001811461563c576000841561562a578287015190505b61563485826155b6565b86555061569c565b601f19841661564a86615426565b60005b828110156156725784890151825560018201915060208501945060208101905061564d565b8683101561568f578489015161568b601f891682615598565b8355505b6001600288020188555050505b505050505050565b7f4552433732314d657461646174613a2055524920717565727920666f72206e6f60008201527f6e6578697374656e7420746f6b656e0000000000000000000000000000000000602082015250565b6000615700602f83613f87565b915061570b826156a4565b604082019050919050565b6000602082019050818103600083015261572f816156f3565b9050919050565b600081905092915050565b600061574c82613f7c565b6157568185615736565b9350615766818560208601613f98565b80840191505092915050565b600061577e8284615741565b915081905092915050565b7f4e6f74206576656e74206d696e74657200000000000000000000000000000000600082015250565b60006157bf601083613f87565b91506157ca82615789565b602082019050919050565b600060208201905081810360008301526157ee816157b2565b9050919050565b7f4552433732313a207472616e736665722066726f6d20696e636f72726563742060008201527f6f776e6572000000000000000000000000000000000000000000000000000000602082015250565b6000615851602583613f87565b915061585c826157f5565b604082019050919050565b6000602082019050818103600083015261588081615844565b9050919050565b7f4552433732313a207472616e7366657220746f20746865207a65726f2061646460008201527f7265737300000000000000000000000000000000000000000000000000000000602082015250565b60006158e3602483613f87565b91506158ee82615887565b604082019050919050565b60006020820190508181036000830152615912816158d6565b9050919050565b600061592482613f19565b915061592f83613f19565b925082820390508181111561594757615946614f9d565b5b92915050565b600061595882613f19565b915061596383613f19565b925082820190508082111561597b5761597a614f9d565b5b92915050565b60006040820190506159966000830185614060565b81810360208301526159a88184613fd3565b90509392505050565b7f4576656e7420616c726561647920637265617465640000000000000000000000600082015250565b60006159e7601583613f87565b91506159f2826159b1565b602082019050919050565b60006020820190508181036000830152615a16816159da565b9050919050565b7f4552433732313a20617070726f766520746f2063616c6c657200000000000000600082015250565b6000615a53601983613f87565b9150615a5e82615a1d565b602082019050919050565b60006020820190508181036000830152615a8281615a46565b9050919050565b7f4552433732313a207472616e7366657220746f206e6f6e20455243373231526560008201527f63656976657220696d706c656d656e7465720000000000000000000000000000602082015250565b6000615ae5603283613f87565b9150615af082615a89565b604082019050919050565b60006020820190508181036000830152615b1481615ad8565b9050919050565b7f4e487b7100000000000000000000000000000000000000000000000000000000600052603160045260246000fd5b7f4552433732313a206d696e7420746f20746865207a65726f2061646472657373600082015250565b6000615b80602083613f87565b9150615b8b82615b4a565b602082019050919050565b60006020820190508181036000830152615baf81615b73565b9050919050565b7f4552433732313a20746f6b656e20616c7265616479206d696e74656400000000600082015250565b6000615bec601c83613f87565b9150615bf782615bb6565b602082019050919050565b60006020820190508181036000830152615c1b81615bdf565b9050919050565b600081519050919050565b600082825260208201905092915050565b6000615c4982615c22565b615c538185615c2d565b9350615c63818560208601613f98565b615c6c81613fc2565b840191505092915050565b6000608082019050615c8c6000830187614060565b615c996020830186614060565b615ca66040830185614216565b8181036060830152615cb88184615c3e565b905095945050505050565b600081519050615cd281613e8a565b92915050565b600060208284031215615cee57615ced613e54565b5b6000615cfc84828501615cc3565b9150509291505056fe45616368206669656c64206d7573742068617665207468652073616d65206e756d626572206f662076616c756573a264697066735822122073d4560b6acea5bfac320dc2fb9ecbb3199462d8092f9a6a1198f149e111eca764736f6c63430008100033",
  "immutableReferences": {},
  "source": "// SPDX-License-Identifier: MIT\n// https://github.com/OpenZeppelin/openzeppelin-contracts/commit/8e0296096449d9b1cd7c5631e917330635244c37\nimport \"../node_modules/@openzeppelin/contracts/utils/structs/EnumerableSet.sol\";\nimport \"../node_modules/@openzeppelin/contracts/token/ERC721/extensions/ERC721Burnable.sol\";\nimport \"../node_modules/@openzeppelin/contracts/utils/cryptography/ECDSA.sol\";\nimport \"../node_modules/@openzeppelin/contracts/utils/math/SafeMath.sol\";\nimport \"../node_modules/@openzeppelin/contracts/utils/introspection/ERC165Storage.sol\";\nimport \"../node_modules/@openzeppelin/contracts/utils/Context.sol\";\n\nimport \"./IERC2981.sol\";\nimport \"./BaseRelayRecipient.sol\";\n\npragma experimental ABIEncoderV2;\npragma solidity >=0.4.22 <0.9.0;\n\ncontract NOAP is Context, ERC165Storage, ERC721Burnable, BaseRelayRecipient, IERC2981 {\n    using EnumerableSet for EnumerableSet.AddressSet;\n    using EnumerableSet for EnumerableSet.UintSet;\n\n    string private constant ERROR_INVALID_INPUTS = \"Each field must have the same number of values\";\n\n    struct Evt {\n        bool ended;\n        address royalty;\n        string tokenURI;\n        string description;\n        string name;\n        string country;\n        string city;\n        bool online;\n        string startdate;\n        string endDate;\n        uint256 limitSupply;\n        string creatorEmail;\n        EnumerableSet.UintSet tokens;\n        EnumerableSet.AddressSet minters;\n    }\n\n    struct Req {\n        uint256 eventID;\n        address attender;\n        string date;\n        bool minted;\n    }\n\n    mapping(address => EnumerableSet.UintSet) private userEventIDs;\n    mapping(uint256 => EnumerableSet.UintSet) private eventRequestIDs;\n\n    mapping(uint256 => Req) requests;\n    mapping(uint256 => Evt) evts;\n    mapping(string => uint256) events;\n    mapping(uint256 => uint256) private tokenToEventID;\n    mapping(bytes32 => uint256) private hashToEventID;\n    uint256 private tokenIDCounter;\n    uint256 private eventIDCounter;\n    uint256 private requestIDCounter;\n\n    uint256 private constant _NULL_EVENT_ID = 0;\n    address private constant _NULL_ADDRESS = 0x0000000000000000000000000000000000000000;\n\n    bytes4 private constant _INTERFACE_ID_ERC2981 = 0x2a55205a;\n\n    // override supportsInterface\n    function supportsInterface(bytes4 interfaceId)\n        public\n        view\n        virtual\n        override(ERC165Storage, ERC721, IERC165)\n        returns (bool)\n    {\n        return interfaceId == type(IERC165).interfaceId;\n    }\n\n    //\n\n    constructor() ERC721(\"NOAPs\", \"NOAP\") {\n        _registerInterface(_INTERFACE_ID_ERC2981);\n\n        // hardcode the trusted forwarded for EIP2771 metatransactions\n        _setTrustedForwarder(0x86C80a8aa58e0A4fa09A69624c31Ab2a6CAD56b8); // xDAI trusted forwarder\n    }\n\n    /**\n     * Mint a single token\n     */\n    function mint(\n        uint256 eventID,\n        address recipient,\n        uint256 requestID\n    ) external {\n        requests[requestID].minted = true;\n        Evt storage evt = evts[eventID];\n        require(\n            evt.limitSupply > evt.tokens.length(),\n            \"the total supply for this event is reached!\"\n        );\n        require(!evt.ended, \"Event Ended\");\n        _checkSenderIsMinter(evt);\n        _mintEventToken(recipient, eventID);\n    }\n\n    function bytesToAddress(bytes memory bys) private pure returns (address addr) {\n        assembly {\n            addr := mload(add(bys, 32))\n        }\n    }\n\n    /**\n     * Mint multiple tokens for a single event\n     */\n    function mintBatch(\n        uint256 eventID,\n        bytes[] memory recipients,\n        uint256[] memory requestIds\n    ) external {\n        Evt storage evt = evts[eventID];\n        require(!evt.ended, \"Event Ended\");\n        _checkSenderIsMinter(evt);\n        address[] memory addr;\n\n        for (uint256 i = 0; i < requestIds.length; i++) {\n            requests[i].minted = true;\n        }\n\n        for (uint256 i = 0; i < recipients.length; i++) {\n            addr[i] = bytesToAddress(recipients[i]);\n        }\n\n        for (uint256 i = 0; i < recipients.length; i++) {\n            _mintEventToken(addr[i], eventID);\n        }\n    }\n\n    /**\n     * Create an event based on the metadata URI.\n     * The caller is the sole minter.\n     * Each event is a unique <contract, tokenURI> pair and cannot be recreated.\n     */\n    function createEvent(\n        string memory tokenURI,\n        string memory description,\n        string memory name,\n        string memory country,\n        string memory city,\n        bool online,\n        string memory startdate,\n        string memory enddate,\n        string memory creatorEmail,\n        uint256 limitSupply\n    ) external returns (uint256) {\n        //address(this) refers to the address of the contract instance\n        bytes32 eventHash = _computeEventHash(address(this), tokenURI);\n\n        uint256 eventID = _createEvent(\n            eventHash,\n            tokenURI,\n            description,\n            name,\n            country,\n            city,\n            online,\n            startdate,\n            enddate,\n            creatorEmail,\n            limitSupply\n        );\n\n        Evt storage evt = evts[eventID];\n        evt.minters.add(_msgSender());\n        evt.royalty = _msgSender();\n\n        userEventIDs[_msgSender()].add(eventID);\n        return eventID;\n    }\n\n    //createRequest(eventId,attender,date)\n\n    //mint for one person\n    //mint for multi-user\n    //add minters\n    //end event\n    /**\n     * Claim a noap\n     * authorized to be done by everyone\n     */\n    function createRequest(\n        uint256 eventID,\n        address attender,\n        string memory date\n    ) external {\n        Evt storage evt = evts[eventID];\n        require(!evt.ended, \"Event Ended\");\n        uint256 requestID = ++requestIDCounter;\n        requests[requestID].eventID = eventID;\n        requests[requestID].attender = attender;\n        requests[requestID].date = date;\n        requests[requestID].minted = false;\n        eventRequestIDs[eventID].add(requestID);\n    }\n\n    /**\n     * Token minting from other contracts (burned and reminted here) cannot be halted.\n     */\n    function endEvent(uint256 eventID) external {\n        Evt storage evt = evts[eventID];\n        _checkSenderIsMinter(evt);\n        evt.ended = true;\n    }\n\n    /**\n     * Add a minter to the event. Minter can create infinite tokens. Caller must be a minter\n     */\n    function addEventMinter(uint256 eventID, address minter) external {\n        Evt storage evt = evts[eventID];\n        _checkSenderIsMinter(evt);\n        evt.minters.add(minter);\n\n        userEventIDs[minter].add(eventID);\n    }\n\n    function renounceEventMinter(uint256 eventID) external {\n        Evt storage evt = evts[eventID];\n        _checkSenderIsMinter(evt);\n        evt.minters.remove(_msgSender());\n\n        userEventIDs[_msgSender()].remove(eventID);\n    }\n\n    function _checkSenderIsMinter(Evt storage evt) internal view {\n        require(evt.minters.contains(_msgSender()), \"Not event minter\");\n    }\n\n    function _createEvent(\n        bytes32 eventHash,\n        string memory tokenURI,\n        string memory description,\n        string memory name,\n        string memory country,\n        string memory city,\n        bool online,\n        string memory startdate,\n        string memory enddate,\n        string memory creatorEmail,\n        uint256 limitSupply\n    ) internal returns (uint256) {\n        require(hashToEventID[eventHash] == _NULL_EVENT_ID, \"Event already created\");\n\n        uint256 eventID = ++eventIDCounter;\n        evts[eventID].tokenURI = tokenURI;\n        evts[eventID].description = description;\n        evts[eventID].name = name;\n        evts[eventID].country = country;\n        evts[eventID].city = city;\n        evts[eventID].startdate = startdate;\n        evts[eventID].endDate = enddate;\n        evts[eventID].creatorEmail = creatorEmail;\n        evts[eventID].online = online;\n        evts[eventID].limitSupply = limitSupply;\n        events[name] = eventID;\n\n        // Map the event hash back to the Event\n        hashToEventID[eventHash] = eventID;\n\n        return eventID;\n    }\n\n    function _mintEventToken(address recipient, uint256 eventID) internal {\n        // Mint the token. ID is generated by hashing the source contract and id, bitmasked for shortness\n        uint256 tokenID = ++tokenIDCounter;\n        _mint(recipient, tokenID);\n\n        // Increment the minted counter\n        evts[eventID].tokens.add(tokenID);\n\n        // Map the token back to the Event\n        tokenToEventID[tokenID] = eventID;\n    }\n\n    function _computeEventHash(address tokenContract, string memory tokenURI)\n        internal\n        pure\n        returns (bytes32)\n    {\n        return keccak256(abi.encode(tokenContract, tokenURI));\n    }\n\n    function getEventMinterTotal(uint256 eventID) public view returns (uint256) {\n        return evts[eventID].minters.length();\n    }\n\n    //this is what I added\n    function getRequestUser(uint256 requestId) public view returns (address) {\n        return requests[requestId].attender;\n    }\n\n    function getRequestDate(uint256 requestId) public view returns (string memory) {\n        return requests[requestId].date;\n    }\n\n    function getRequestIsMinted(uint256 requestId) public view returns (bool) {\n        return requests[requestId].minted;\n    }\n\n    function getEventDescription(uint256 eventID) public view returns (string memory) {\n        return evts[eventID].description;\n    }\n\n    function getEventName(uint256 eventID) public view returns (string memory) {\n        return evts[eventID].name;\n    }\n    function getEventIdByName(string memory name) public view returns (uint256) {\n        return events[name];\n    }\n\n    function getEventCountry(uint256 eventID) public view returns (string memory) {\n        return evts[eventID].country;\n    }\n\n    function getEventCity(uint256 eventID) public view returns (string memory) {\n        return evts[eventID].city;\n    }\n\n    function getCreatorEmail(uint256 eventID) public view returns (string memory) {\n        return evts[eventID].creatorEmail;\n    }\n\n    function getEventMinterAt(uint256 eventID, uint256 index) public view returns (address) {\n        return evts[eventID].minters.at(index);\n    }\n\n    function getEventDate(uint256 eventID) public view returns (string memory) {\n        return evts[eventID].endDate;\n    }\n\n    function getEventIsOnline(uint256 eventID) public view returns (bool) {\n        return evts[eventID].online;\n    }\n\n    function getEventIsMinter(uint256 eventID, address addr) public view returns (bool) {\n        return evts[eventID].minters.contains(addr);\n    }\n\n    function getEventTokenSupply(uint256 eventID) public view returns (uint256) {\n        return evts[eventID].tokens.length();\n    }\n\n    function getEventTokenURI(uint256 eventID) public view returns (string memory) {\n        return evts[eventID].tokenURI;\n    }\n\n    function getEventTokenIDAt(uint256 eventID, uint256 index) public view returns (uint256) {\n        return evts[eventID].tokens.at(index);\n    }\n\n    function getEventTokenIDs(uint256 eventID) public view returns (uint256[] memory) {\n        uint256 supply = getEventTokenSupply(eventID);\n        uint256[] memory tokenIDs = new uint256[](supply);\n        for (uint256 i = 0; i < tokenIDs.length; i++) {\n            tokenIDs[i] = getEventTokenIDAt(eventID, i);\n        }\n        return tokenIDs;\n    }\n\n    function getEventTokenHolders(uint256 eventID) public view returns (address[] memory) {\n        uint256 supply = getEventTokenSupply(eventID);\n        address[] memory owners = new address[](supply);\n        for (uint256 i = 0; i < owners.length; i++) {\n            owners[i] = ownerOf(getEventTokenIDAt(eventID, i));\n        }\n        return owners;\n    }\n\n    function getEventEnded(uint256 eventID) public view returns (bool) {\n        return evts[eventID].ended;\n    }\n\n    function getEventRoyaltyAddress(uint256 eventID) public view returns (address) {\n        return evts[eventID].royalty;\n    }\n\n    function getLastTokenID() public view returns (uint256) {\n        return tokenIDCounter;\n    }\n\n    function getLastEventID() public view returns (uint256) {\n        return eventIDCounter;\n    }\n\n    function getUserEventTotal(address user) public view returns (uint256) {\n        return userEventIDs[user].length();\n    }\n\n    function getRequestsLength(uint256 eventID) public view returns (uint256) {\n        return eventRequestIDs[eventID].length();\n    }\n\n    function getUserEventAt(address user, uint256 index) public view returns (uint256) {\n        return userEventIDs[user].at(index);\n    }\n\n    function getEventRequestAt(uint256 eventID, uint256 index) public view returns (uint256) {\n        return eventRequestIDs[eventID].at(index);\n    }\n\n    function getUserEventIDs(address user) public view returns (uint256[] memory) {\n        uint256 numEvents = getUserEventTotal(user);\n        uint256[] memory eventIDs = new uint256[](numEvents);\n        for (uint256 i = 0; i < numEvents; i++) {\n            eventIDs[i] = getUserEventAt(user, i);\n        }\n        return eventIDs;\n    }\n\n    function getEventRequestIDs(uint256 eventID) public view returns (uint256[] memory) {\n        uint256 totalRequests = getRequestsLength(eventID);\n        uint256[] memory requestIDs = new uint256[](totalRequests);\n        for (uint256 i = 0; i < totalRequests; i++) {\n            requestIDs[i] = getEventRequestAt(eventID, i);\n        }\n        return requestIDs;\n    }\n\n    /**\n     * ERC2981 royalty implementation\n     * For events created using this contract, we hardcode a 10% resale royalty the corresponding tokens\n     * The recipient of this royalty is controlled by the event minters.\n     */\n    function royaltyInfo(uint256 tokenID, uint256 salePrice)\n        external\n        view\n        override\n        returns (address, uint256)\n    {\n        address royalty = evts[tokenToEventID[tokenID]].royalty;\n        if (royalty == _NULL_ADDRESS) {\n            // For tokens that are burned and reminted,\n            // we don't track the creator, so zero royalties.\n            return (_NULL_ADDRESS, 0);\n        }\n\n        return (royalty, salePrice / 10);\n    }\n\n    /**\n     * Allow any of the event minters to change the royalty recipient\n     */\n    function changeRoyaltyReceiver(uint256 eventID, address receiver) external {\n        Evt storage evt = evts[eventID];\n        _checkSenderIsMinter(evt);\n        evt.royalty = receiver;\n    }\n\n    /* -- END ERC2981 methods */\n\n    /**\n     * Overwrite the default `tokenURI` getter.\n     * Since all events have the same tokenURI, resolve tokenIDs to events load the URI from the event\n     */\n    //this will make a warning because it is the same name as tokenURI variable\n    function tokenURI(uint256 tokenID) public view virtual override returns (string memory) {\n        require(_exists(tokenID), \"ERC721Metadata: URI query for nonexistent token\");\n        return evts[tokenToEventID[tokenID]].tokenURI;\n    }\n\n    function burn(uint256 tokenID) public virtual override {\n        super.burn(tokenID);\n        evts[tokenToEventID[tokenID]].tokens.remove(tokenID);\n    }\n\n    function isApprovedOrOwner(address spender, uint256 tokenID) external view returns (bool) {\n        return _isApprovedOrOwner(spender, tokenID);\n    }\n\n    /* -- BEGIN batch methods */\n    function burnBatch(uint256[] memory tokenIDs) external {\n        for (uint256 i = 0; i < tokenIDs.length; ++i) {\n            burn(tokenIDs[i]);\n        }\n    }\n\n    function approveBatch(address[] memory tos, uint256[] memory tokenIDs) external {\n        require(tos.length == tokenIDs.length, ERROR_INVALID_INPUTS);\n        for (uint256 i = 0; i < tos.length; ++i) {\n            approve(tos[i], tokenIDs[i]);\n        }\n    }\n\n    function transferFromBatch(\n        address[] memory froms,\n        address[] memory tos,\n        uint256[] memory tokenIDs\n    ) external {\n        require(\n            froms.length == tos.length && froms.length == tokenIDs.length,\n            ERROR_INVALID_INPUTS\n        );\n        for (uint256 i = 0; i < froms.length; ++i) {\n            transferFrom(froms[i], tos[i], tokenIDs[i]);\n        }\n    }\n\n    function safeTransferFromBatch(\n        address[] memory froms,\n        address[] memory tos,\n        uint256[] memory tokenIDs\n    ) external {\n        require(\n            froms.length == tos.length && froms.length == tokenIDs.length,\n            ERROR_INVALID_INPUTS\n        );\n        for (uint256 i = 0; i < froms.length; ++i) {\n            safeTransferFrom(froms[i], tos[i], tokenIDs[i], \"\");\n        }\n    }\n\n    function safeTransferFromWithDataBatch(\n        address[] memory froms,\n        address[] memory tos,\n        uint256[] memory tokenIDs,\n        bytes[] memory datas\n    ) external {\n        require(\n            froms.length == tos.length &&\n                froms.length == tokenIDs.length &&\n                froms.length == datas.length,\n            ERROR_INVALID_INPUTS\n        );\n        for (uint256 i = 0; i < froms.length; ++i) {\n            safeTransferFrom(froms[i], tos[i], tokenIDs[i], datas[i]);\n        }\n    }\n\n    /* -- END batch methods */\n\n    /* -- BEGIN IRelayRecipient overrides -- */\n    function _msgSender() internal view override(Context, BaseRelayRecipient) returns (address) {\n        return BaseRelayRecipient._msgSender();\n    }\n\n    string public override versionRecipient = \"1\";\n    /* -- END IRelayRecipient overrides -- */\n}\n",
  "sourcePath": "/home/senyou/freecodecamp/PBC/NOAP/contracts/NOAP.sol",
  "compiler": {
    "name": "solc",
    "version": "0.8.16+commit.07a7930e.Emscripten.clang"
  },
  "schemaVersion": "3.4.9",
  "updatedAt": "2022-09-23T11:45:16.061Z",
  "networkType": "ethereum",
  "devdoc": {
    "kind": "dev",
    "methods": {
      "approve(address,uint256)": {
        "details": "See {IERC721-approve}."
      },
      "balanceOf(address)": {
        "details": "See {IERC721-balanceOf}."
      },
      "getApproved(uint256)": {
        "details": "See {IERC721-getApproved}."
      },
      "isApprovedForAll(address,address)": {
        "details": "See {IERC721-isApprovedForAll}."
      },
      "name()": {
        "details": "See {IERC721Metadata-name}."
      },
      "ownerOf(uint256)": {
        "details": "See {IERC721-ownerOf}."
      },
      "safeTransferFrom(address,address,uint256)": {
        "details": "See {IERC721-safeTransferFrom}."
      },
      "safeTransferFrom(address,address,uint256,bytes)": {
        "details": "See {IERC721-safeTransferFrom}."
      },
      "setApprovalForAll(address,bool)": {
        "details": "See {IERC721-setApprovalForAll}."
      },
      "symbol()": {
        "details": "See {IERC721Metadata-symbol}."
      },
      "transferFrom(address,address,uint256)": {
        "details": "See {IERC721-transferFrom}."
      }
    },
    "version": 1
  },
  "userdoc": {
    "kind": "user",
    "methods": {
      "addEventMinter(uint256,address)": {
        "notice": "Add a minter to the event. Minter can create infinite tokens. Caller must be a minter"
      },
      "changeRoyaltyReceiver(uint256,address)": {
        "notice": "Allow any of the event minters to change the royalty recipient"
      },
      "createEvent(string,string,string,string,string,bool,string,string,string,uint256)": {
        "notice": "Create an event based on the metadata URI. The caller is the sole minter. Each event is a unique <contract, tokenURI> pair and cannot be recreated."
      },
      "createRequest(uint256,address,string)": {
        "notice": "Claim a noap authorized to be done by everyone"
      },
      "endEvent(uint256)": {
        "notice": "Token minting from other contracts (burned and reminted here) cannot be halted."
      },
      "isTrustedForwarder(address)": {
        "notice": "return if the forwarder is trusted to forward relayed transactions to us. the forwarder is required to verify the sender's signature, and verify the call is not a replay."
      },
      "mint(uint256,address,uint256)": {
        "notice": "Mint a single token"
      },
      "mintBatch(uint256,bytes[],uint256[])": {
        "notice": "Mint multiple tokens for a single event"
      },
      "royaltyInfo(uint256,uint256)": {
        "notice": "ERC2981 royalty implementation For events created using this contract, we hardcode a 10% resale royalty the corresponding tokens The recipient of this royalty is controlled by the event minters."
      },
      "tokenURI(uint256)": {
        "notice": "Overwrite the default `tokenURI` getter. Since all events have the same tokenURI, resolve tokenIDs to events load the URI from the event"
      }
    },
    "version": 1
  }
}