{
  "contractName": "NOAP",
  "abi": [
    {
      "inputs": [],
      "stateMutability": "nonpayable",
      "type": "constructor"
    },
    {
      "anonymous": false,
      "inputs": [
        {
          "indexed": true,
          "internalType": "address",
          "name": "owner",
          "type": "address"
        },
        {
          "indexed": true,
          "internalType": "address",
          "name": "approved",
          "type": "address"
        },
        {
          "indexed": true,
          "internalType": "uint256",
          "name": "tokenId",
          "type": "uint256"
        }
      ],
      "name": "Approval",
      "type": "event"
    },
    {
      "anonymous": false,
      "inputs": [
        {
          "indexed": true,
          "internalType": "address",
          "name": "owner",
          "type": "address"
        },
        {
          "indexed": true,
          "internalType": "address",
          "name": "operator",
          "type": "address"
        },
        {
          "indexed": false,
          "internalType": "bool",
          "name": "approved",
          "type": "bool"
        }
      ],
      "name": "ApprovalForAll",
      "type": "event"
    },
    {
      "anonymous": false,
      "inputs": [
        {
          "indexed": true,
          "internalType": "address",
          "name": "from",
          "type": "address"
        },
        {
          "indexed": true,
          "internalType": "address",
          "name": "to",
          "type": "address"
        },
        {
          "indexed": true,
          "internalType": "uint256",
          "name": "tokenId",
          "type": "uint256"
        }
      ],
      "name": "Transfer",
      "type": "event"
    },
    {
      "inputs": [
        {
          "internalType": "address",
          "name": "to",
          "type": "address"
        },
        {
          "internalType": "uint256",
          "name": "tokenId",
          "type": "uint256"
        }
      ],
      "name": "approve",
      "outputs": [],
      "stateMutability": "nonpayable",
      "type": "function"
    },
    {
      "inputs": [
        {
          "internalType": "address",
          "name": "owner",
          "type": "address"
        }
      ],
      "name": "balanceOf",
      "outputs": [
        {
          "internalType": "uint256",
          "name": "",
          "type": "uint256"
        }
      ],
      "stateMutability": "view",
      "type": "function",
      "constant": true
    },
    {
      "inputs": [
        {
          "internalType": "uint256",
          "name": "tokenId",
          "type": "uint256"
        }
      ],
      "name": "getApproved",
      "outputs": [
        {
          "internalType": "address",
          "name": "",
          "type": "address"
        }
      ],
      "stateMutability": "view",
      "type": "function",
      "constant": true
    },
    {
      "inputs": [
        {
          "internalType": "address",
          "name": "owner",
          "type": "address"
        },
        {
          "internalType": "address",
          "name": "operator",
          "type": "address"
        }
      ],
      "name": "isApprovedForAll",
      "outputs": [
        {
          "internalType": "bool",
          "name": "",
          "type": "bool"
        }
      ],
      "stateMutability": "view",
      "type": "function",
      "constant": true
    },
    {
      "inputs": [
        {
          "internalType": "address",
          "name": "forwarder",
          "type": "address"
        }
      ],
      "name": "isTrustedForwarder",
      "outputs": [
        {
          "internalType": "bool",
          "name": "",
          "type": "bool"
        }
      ],
      "stateMutability": "view",
      "type": "function",
      "constant": true
    },
    {
      "inputs": [],
      "name": "name",
      "outputs": [
        {
          "internalType": "string",
          "name": "",
          "type": "string"
        }
      ],
      "stateMutability": "view",
      "type": "function",
      "constant": true
    },
    {
      "inputs": [
        {
          "internalType": "uint256",
          "name": "tokenId",
          "type": "uint256"
        }
      ],
      "name": "ownerOf",
      "outputs": [
        {
          "internalType": "address",
          "name": "",
          "type": "address"
        }
      ],
      "stateMutability": "view",
      "type": "function",
      "constant": true
    },
    {
      "inputs": [
        {
          "internalType": "address",
          "name": "from",
          "type": "address"
        },
        {
          "internalType": "address",
          "name": "to",
          "type": "address"
        },
        {
          "internalType": "uint256",
          "name": "tokenId",
          "type": "uint256"
        }
      ],
      "name": "safeTransferFrom",
      "outputs": [],
      "stateMutability": "nonpayable",
      "type": "function"
    },
    {
      "inputs": [
        {
          "internalType": "address",
          "name": "from",
          "type": "address"
        },
        {
          "internalType": "address",
          "name": "to",
          "type": "address"
        },
        {
          "internalType": "uint256",
          "name": "tokenId",
          "type": "uint256"
        },
        {
          "internalType": "bytes",
          "name": "data",
          "type": "bytes"
        }
      ],
      "name": "safeTransferFrom",
      "outputs": [],
      "stateMutability": "nonpayable",
      "type": "function"
    },
    {
      "inputs": [
        {
          "internalType": "address",
          "name": "operator",
          "type": "address"
        },
        {
          "internalType": "bool",
          "name": "approved",
          "type": "bool"
        }
      ],
      "name": "setApprovalForAll",
      "outputs": [],
      "stateMutability": "nonpayable",
      "type": "function"
    },
    {
      "inputs": [],
      "name": "symbol",
      "outputs": [
        {
          "internalType": "string",
          "name": "",
          "type": "string"
        }
      ],
      "stateMutability": "view",
      "type": "function",
      "constant": true
    },
    {
      "inputs": [
        {
          "internalType": "address",
          "name": "from",
          "type": "address"
        },
        {
          "internalType": "address",
          "name": "to",
          "type": "address"
        },
        {
          "internalType": "uint256",
          "name": "tokenId",
          "type": "uint256"
        }
      ],
      "name": "transferFrom",
      "outputs": [],
      "stateMutability": "nonpayable",
      "type": "function"
    },
    {
      "inputs": [],
      "name": "trustedForwarder",
      "outputs": [
        {
          "internalType": "address",
          "name": "",
          "type": "address"
        }
      ],
      "stateMutability": "view",
      "type": "function",
      "constant": true
    },
    {
      "inputs": [],
      "name": "versionRecipient",
      "outputs": [
        {
          "internalType": "string",
          "name": "",
          "type": "string"
        }
      ],
      "stateMutability": "view",
      "type": "function",
      "constant": true
    },
    {
      "inputs": [],
      "name": "getTime",
      "outputs": [
        {
          "internalType": "uint256",
          "name": "",
          "type": "uint256"
        }
      ],
      "stateMutability": "view",
      "type": "function",
      "constant": true
    },
    {
      "inputs": [
        {
          "internalType": "bytes4",
          "name": "interfaceId",
          "type": "bytes4"
        }
      ],
      "name": "supportsInterface",
      "outputs": [
        {
          "internalType": "bool",
          "name": "",
          "type": "bool"
        }
      ],
      "stateMutability": "view",
      "type": "function",
      "constant": true
    },
    {
      "inputs": [
        {
          "internalType": "uint256",
          "name": "eventID",
          "type": "uint256"
        },
        {
          "internalType": "address",
          "name": "recipient",
          "type": "address"
        },
        {
          "internalType": "uint256",
          "name": "requestID",
          "type": "uint256"
        }
      ],
      "name": "mint",
      "outputs": [],
      "stateMutability": "nonpayable",
      "type": "function"
    },
    {
      "inputs": [
        {
          "internalType": "uint256",
          "name": "eventID",
          "type": "uint256"
        },
        {
          "internalType": "bytes[]",
          "name": "recipients",
          "type": "bytes[]"
        },
        {
          "internalType": "uint256[]",
          "name": "requestIds",
          "type": "uint256[]"
        }
      ],
      "name": "mintBatch",
      "outputs": [],
      "stateMutability": "nonpayable",
      "type": "function"
    },
    {
      "inputs": [
        {
          "internalType": "string",
          "name": "tokenURI",
          "type": "string"
        },
        {
          "internalType": "string",
          "name": "description",
          "type": "string"
        },
        {
          "internalType": "string",
          "name": "name",
          "type": "string"
        },
        {
          "internalType": "string",
          "name": "country",
          "type": "string"
        },
        {
          "internalType": "string",
          "name": "city",
          "type": "string"
        },
        {
          "internalType": "bool",
          "name": "online",
          "type": "bool"
        },
        {
          "internalType": "uint256",
          "name": "startdate",
          "type": "uint256"
        },
        {
          "internalType": "uint256",
          "name": "enddate",
          "type": "uint256"
        },
        {
          "internalType": "string",
          "name": "creatorEmail",
          "type": "string"
        },
        {
          "internalType": "uint256",
          "name": "limitSupply",
          "type": "uint256"
        }
      ],
      "name": "createEvent",
      "outputs": [
        {
          "internalType": "uint256",
          "name": "",
          "type": "uint256"
        }
      ],
      "stateMutability": "nonpayable",
      "type": "function"
    },
    {
      "inputs": [
        {
          "internalType": "uint256",
          "name": "eventID",
          "type": "uint256"
        },
        {
          "internalType": "address",
          "name": "attender",
          "type": "address"
        },
        {
          "internalType": "string",
          "name": "date",
          "type": "string"
        }
      ],
      "name": "createRequest",
      "outputs": [],
      "stateMutability": "nonpayable",
      "type": "function"
    },
    {
      "inputs": [
        {
          "internalType": "uint256",
          "name": "eventID",
          "type": "uint256"
        }
      ],
      "name": "endEvent",
      "outputs": [],
      "stateMutability": "nonpayable",
      "type": "function"
    },
    {
      "inputs": [
        {
          "internalType": "uint256",
          "name": "eventID",
          "type": "uint256"
        },
        {
          "internalType": "address",
          "name": "minter",
          "type": "address"
        }
      ],
      "name": "addEventMinter",
      "outputs": [],
      "stateMutability": "nonpayable",
      "type": "function"
    },
    {
      "inputs": [
        {
          "internalType": "uint256",
          "name": "eventID",
          "type": "uint256"
        }
      ],
      "name": "renounceEventMinter",
      "outputs": [],
      "stateMutability": "nonpayable",
      "type": "function"
    },
    {
      "inputs": [
        {
          "internalType": "uint256",
          "name": "eventID",
          "type": "uint256"
        }
      ],
      "name": "getEventMinterTotal",
      "outputs": [
        {
          "internalType": "uint256",
          "name": "",
          "type": "uint256"
        }
      ],
      "stateMutability": "view",
      "type": "function",
      "constant": true
    },
    {
      "inputs": [
        {
          "internalType": "uint256",
          "name": "requestId",
          "type": "uint256"
        }
      ],
      "name": "getRequestUser",
      "outputs": [
        {
          "internalType": "address",
          "name": "",
          "type": "address"
        }
      ],
      "stateMutability": "view",
      "type": "function",
      "constant": true
    },
    {
      "inputs": [
        {
          "internalType": "uint256",
          "name": "requestId",
          "type": "uint256"
        }
      ],
      "name": "getRequestDate",
      "outputs": [
        {
          "internalType": "string",
          "name": "",
          "type": "string"
        }
      ],
      "stateMutability": "view",
      "type": "function",
      "constant": true
    },
    {
      "inputs": [
        {
          "internalType": "uint256",
          "name": "requestId",
          "type": "uint256"
        }
      ],
      "name": "getRequestIsMinted",
      "outputs": [
        {
          "internalType": "bool",
          "name": "",
          "type": "bool"
        }
      ],
      "stateMutability": "view",
      "type": "function",
      "constant": true
    },
    {
      "inputs": [
        {
          "internalType": "uint256",
          "name": "eventID",
          "type": "uint256"
        }
      ],
      "name": "getEventDescription",
      "outputs": [
        {
          "internalType": "string",
          "name": "",
          "type": "string"
        }
      ],
      "stateMutability": "view",
      "type": "function",
      "constant": true
    },
    {
      "inputs": [
        {
          "internalType": "uint256",
          "name": "eventID",
          "type": "uint256"
        }
      ],
      "name": "getEventName",
      "outputs": [
        {
          "internalType": "string",
          "name": "",
          "type": "string"
        }
      ],
      "stateMutability": "view",
      "type": "function",
      "constant": true
    },
    {
      "inputs": [
        {
          "internalType": "string",
          "name": "name",
          "type": "string"
        }
      ],
      "name": "getEventIdByName",
      "outputs": [
        {
          "internalType": "uint256",
          "name": "",
          "type": "uint256"
        }
      ],
      "stateMutability": "view",
      "type": "function",
      "constant": true
    },
    {
      "inputs": [
        {
          "internalType": "uint256",
          "name": "eventID",
          "type": "uint256"
        }
      ],
      "name": "getEventCountry",
      "outputs": [
        {
          "internalType": "string",
          "name": "",
          "type": "string"
        }
      ],
      "stateMutability": "view",
      "type": "function",
      "constant": true
    },
    {
      "inputs": [
        {
          "internalType": "uint256",
          "name": "eventID",
          "type": "uint256"
        }
      ],
      "name": "getEventCity",
      "outputs": [
        {
          "internalType": "string",
          "name": "",
          "type": "string"
        }
      ],
      "stateMutability": "view",
      "type": "function",
      "constant": true
    },
    {
      "inputs": [
        {
          "internalType": "uint256",
          "name": "eventID",
          "type": "uint256"
        }
      ],
      "name": "getCreatorEmail",
      "outputs": [
        {
          "internalType": "string",
          "name": "",
          "type": "string"
        }
      ],
      "stateMutability": "view",
      "type": "function",
      "constant": true
    },
    {
      "inputs": [
        {
          "internalType": "uint256",
          "name": "eventID",
          "type": "uint256"
        },
        {
          "internalType": "uint256",
          "name": "index",
          "type": "uint256"
        }
      ],
      "name": "getEventMinterAt",
      "outputs": [
        {
          "internalType": "address",
          "name": "",
          "type": "address"
        }
      ],
      "stateMutability": "view",
      "type": "function",
      "constant": true
    },
    {
      "inputs": [
        {
          "internalType": "uint256",
          "name": "eventID",
          "type": "uint256"
        }
      ],
      "name": "getEventEndDate",
      "outputs": [
        {
          "internalType": "uint256",
          "name": "",
          "type": "uint256"
        }
      ],
      "stateMutability": "view",
      "type": "function",
      "constant": true
    },
    {
      "inputs": [
        {
          "internalType": "uint256",
          "name": "eventID",
          "type": "uint256"
        }
      ],
      "name": "getEventStartDate",
      "outputs": [
        {
          "internalType": "uint256",
          "name": "",
          "type": "uint256"
        }
      ],
      "stateMutability": "view",
      "type": "function",
      "constant": true
    },
    {
      "inputs": [
        {
          "internalType": "uint256",
          "name": "eventID",
          "type": "uint256"
        }
      ],
      "name": "getEventIsOnline",
      "outputs": [
        {
          "internalType": "bool",
          "name": "",
          "type": "bool"
        }
      ],
      "stateMutability": "view",
      "type": "function",
      "constant": true
    },
    {
      "inputs": [
        {
          "internalType": "uint256",
          "name": "eventID",
          "type": "uint256"
        },
        {
          "internalType": "address",
          "name": "addr",
          "type": "address"
        }
      ],
      "name": "getEventIsMinter",
      "outputs": [
        {
          "internalType": "bool",
          "name": "",
          "type": "bool"
        }
      ],
      "stateMutability": "view",
      "type": "function",
      "constant": true
    },
    {
      "inputs": [
        {
          "internalType": "uint256",
          "name": "eventID",
          "type": "uint256"
        }
      ],
      "name": "getEventTokenSupply",
      "outputs": [
        {
          "internalType": "uint256",
          "name": "",
          "type": "uint256"
        }
      ],
      "stateMutability": "view",
      "type": "function",
      "constant": true
    },
    {
      "inputs": [
        {
          "internalType": "uint256",
          "name": "eventID",
          "type": "uint256"
        }
      ],
      "name": "getEventTokenURI",
      "outputs": [
        {
          "internalType": "string",
          "name": "",
          "type": "string"
        }
      ],
      "stateMutability": "view",
      "type": "function",
      "constant": true
    },
    {
      "inputs": [
        {
          "internalType": "uint256",
          "name": "eventID",
          "type": "uint256"
        },
        {
          "internalType": "uint256",
          "name": "index",
          "type": "uint256"
        }
      ],
      "name": "getEventTokenIDAt",
      "outputs": [
        {
          "internalType": "uint256",
          "name": "",
          "type": "uint256"
        }
      ],
      "stateMutability": "view",
      "type": "function",
      "constant": true
    },
    {
      "inputs": [
        {
          "internalType": "uint256",
          "name": "eventID",
          "type": "uint256"
        }
      ],
      "name": "getEventTokenIDs",
      "outputs": [
        {
          "internalType": "uint256[]",
          "name": "",
          "type": "uint256[]"
        }
      ],
      "stateMutability": "view",
      "type": "function",
      "constant": true
    },
    {
      "inputs": [
        {
          "internalType": "uint256",
          "name": "eventID",
          "type": "uint256"
        }
      ],
      "name": "getEventTokenHolders",
      "outputs": [
        {
          "internalType": "address[]",
          "name": "",
          "type": "address[]"
        }
      ],
      "stateMutability": "view",
      "type": "function",
      "constant": true
    },
    {
      "inputs": [
        {
          "internalType": "uint256",
          "name": "eventID",
          "type": "uint256"
        }
      ],
      "name": "getEventEnded",
      "outputs": [
        {
          "internalType": "bool",
          "name": "",
          "type": "bool"
        }
      ],
      "stateMutability": "view",
      "type": "function",
      "constant": true
    },
    {
      "inputs": [
        {
          "internalType": "uint256",
          "name": "eventID",
          "type": "uint256"
        }
      ],
      "name": "getEventRoyaltyAddress",
      "outputs": [
        {
          "internalType": "address",
          "name": "",
          "type": "address"
        }
      ],
      "stateMutability": "view",
      "type": "function",
      "constant": true
    },
    {
      "inputs": [],
      "name": "getLastTokenID",
      "outputs": [
        {
          "internalType": "uint256",
          "name": "",
          "type": "uint256"
        }
      ],
      "stateMutability": "view",
      "type": "function",
      "constant": true
    },
    {
      "inputs": [],
      "name": "getLastEventID",
      "outputs": [
        {
          "internalType": "uint256",
          "name": "",
          "type": "uint256"
        }
      ],
      "stateMutability": "view",
      "type": "function",
      "constant": true
    },
    {
      "inputs": [
        {
          "internalType": "address",
          "name": "user",
          "type": "address"
        }
      ],
      "name": "getUserEventTotal",
      "outputs": [
        {
          "internalType": "uint256",
          "name": "",
          "type": "uint256"
        }
      ],
      "stateMutability": "view",
      "type": "function",
      "constant": true
    },
    {
      "inputs": [
        {
          "internalType": "uint256",
          "name": "eventID",
          "type": "uint256"
        }
      ],
      "name": "getRequestsLength",
      "outputs": [
        {
          "internalType": "uint256",
          "name": "",
          "type": "uint256"
        }
      ],
      "stateMutability": "view",
      "type": "function",
      "constant": true
    },
    {
      "inputs": [
        {
          "internalType": "address",
          "name": "user",
          "type": "address"
        },
        {
          "internalType": "uint256",
          "name": "index",
          "type": "uint256"
        }
      ],
      "name": "getUserEventAt",
      "outputs": [
        {
          "internalType": "uint256",
          "name": "",
          "type": "uint256"
        }
      ],
      "stateMutability": "view",
      "type": "function",
      "constant": true
    },
    {
      "inputs": [
        {
          "internalType": "uint256",
          "name": "eventID",
          "type": "uint256"
        },
        {
          "internalType": "uint256",
          "name": "index",
          "type": "uint256"
        }
      ],
      "name": "getEventRequestAt",
      "outputs": [
        {
          "internalType": "uint256",
          "name": "",
          "type": "uint256"
        }
      ],
      "stateMutability": "view",
      "type": "function",
      "constant": true
    },
    {
      "inputs": [
        {
          "internalType": "address",
          "name": "user",
          "type": "address"
        }
      ],
      "name": "getUserEventIDs",
      "outputs": [
        {
          "internalType": "uint256[]",
          "name": "",
          "type": "uint256[]"
        }
      ],
      "stateMutability": "view",
      "type": "function",
      "constant": true
    },
    {
      "inputs": [
        {
          "internalType": "uint256",
          "name": "eventID",
          "type": "uint256"
        }
      ],
      "name": "getEventRequestIDs",
      "outputs": [
        {
          "internalType": "uint256[]",
          "name": "",
          "type": "uint256[]"
        }
      ],
      "stateMutability": "view",
      "type": "function",
      "constant": true
    },
    {
      "inputs": [
        {
          "internalType": "uint256",
          "name": "tokenID",
          "type": "uint256"
        },
        {
          "internalType": "uint256",
          "name": "salePrice",
          "type": "uint256"
        }
      ],
      "name": "royaltyInfo",
      "outputs": [
        {
          "internalType": "address",
          "name": "",
          "type": "address"
        },
        {
          "internalType": "uint256",
          "name": "",
          "type": "uint256"
        }
      ],
      "stateMutability": "view",
      "type": "function",
      "constant": true
    },
    {
      "inputs": [
        {
          "internalType": "uint256",
          "name": "eventID",
          "type": "uint256"
        },
        {
          "internalType": "address",
          "name": "receiver",
          "type": "address"
        }
      ],
      "name": "changeRoyaltyReceiver",
      "outputs": [],
      "stateMutability": "nonpayable",
      "type": "function"
    },
    {
      "inputs": [
        {
          "internalType": "uint256",
          "name": "tokenID",
          "type": "uint256"
        }
      ],
      "name": "tokenURI",
      "outputs": [
        {
          "internalType": "string",
          "name": "",
          "type": "string"
        }
      ],
      "stateMutability": "view",
      "type": "function",
      "constant": true
    },
    {
      "inputs": [
        {
          "internalType": "uint256",
          "name": "tokenID",
          "type": "uint256"
        }
      ],
      "name": "burn",
      "outputs": [],
      "stateMutability": "nonpayable",
      "type": "function"
    },
    {
      "inputs": [
        {
          "internalType": "address",
          "name": "spender",
          "type": "address"
        },
        {
          "internalType": "uint256",
          "name": "tokenID",
          "type": "uint256"
        }
      ],
      "name": "isApprovedOrOwner",
      "outputs": [
        {
          "internalType": "bool",
          "name": "",
          "type": "bool"
        }
      ],
      "stateMutability": "view",
      "type": "function",
      "constant": true
    },
    {
      "inputs": [
        {
          "internalType": "uint256[]",
          "name": "tokenIDs",
          "type": "uint256[]"
        }
      ],
      "name": "burnBatch",
      "outputs": [],
      "stateMutability": "nonpayable",
      "type": "function"
    },
    {
      "inputs": [
        {
          "internalType": "address[]",
          "name": "tos",
          "type": "address[]"
        },
        {
          "internalType": "uint256[]",
          "name": "tokenIDs",
          "type": "uint256[]"
        }
      ],
      "name": "approveBatch",
      "outputs": [],
      "stateMutability": "nonpayable",
      "type": "function"
    },
    {
      "inputs": [
        {
          "internalType": "address[]",
          "name": "froms",
          "type": "address[]"
        },
        {
          "internalType": "address[]",
          "name": "tos",
          "type": "address[]"
        },
        {
          "internalType": "uint256[]",
          "name": "tokenIDs",
          "type": "uint256[]"
        }
      ],
      "name": "transferFromBatch",
      "outputs": [],
      "stateMutability": "nonpayable",
      "type": "function"
    },
    {
      "inputs": [
        {
          "internalType": "address[]",
          "name": "froms",
          "type": "address[]"
        },
        {
          "internalType": "address[]",
          "name": "tos",
          "type": "address[]"
        },
        {
          "internalType": "uint256[]",
          "name": "tokenIDs",
          "type": "uint256[]"
        }
      ],
      "name": "safeTransferFromBatch",
      "outputs": [],
      "stateMutability": "nonpayable",
      "type": "function"
    },
    {
      "inputs": [
        {
          "internalType": "address[]",
          "name": "froms",
          "type": "address[]"
        },
        {
          "internalType": "address[]",
          "name": "tos",
          "type": "address[]"
        },
        {
          "internalType": "uint256[]",
          "name": "tokenIDs",
          "type": "uint256[]"
        },
        {
          "internalType": "bytes[]",
          "name": "datas",
          "type": "bytes[]"
        }
      ],
      "name": "safeTransferFromWithDataBatch",
      "outputs": [],
      "stateMutability": "nonpayable",
      "type": "function"
    }
  ],
  "bytecode": "0x60806040526040518060400160405280600181526020017f3100000000000000000000000000000000000000000000000000000000000000815250601290816200004a9190620004c3565b503480156200005857600080fd5b506040518060400160405280600581526020017f4e4f4150730000000000000000000000000000000000000000000000000000008152506040518060400160405280600481526020017f4e4f4150000000000000000000000000000000000000000000000000000000008152508160019081620000d69190620004c3565b508060029081620000e89190620004c3565b50505062000103632a55205a60e01b6200012e60201b60201c565b620001287386c80a8aa58e0a4fa09a69624c31ab2a6cad56b86200020560201b60201c565b6200062d565b63ffffffff60e01b817bffffffffffffffffffffffffffffffffffffffffffffffffffffffff19160362000199576040517f08c379a000000000000000000000000000000000000000000000000000000000815260040162000190906200060b565b60405180910390fd5b6001600080837bffffffffffffffffffffffffffffffffffffffffffffffffffffffff19167bffffffffffffffffffffffffffffffffffffffffffffffffffffffff1916815260200190815260200160002060006101000a81548160ff02191690831515021790555050565b80600760006101000a81548173ffffffffffffffffffffffffffffffffffffffff021916908373ffffffffffffffffffffffffffffffffffffffff16021790555050565b600081519050919050565b7f4e487b7100000000000000000000000000000000000000000000000000000000600052604160045260246000fd5b7f4e487b7100000000000000000000000000000000000000000000000000000000600052602260045260246000fd5b60006002820490506001821680620002cb57607f821691505b602082108103620002e157620002e062000283565b5b50919050565b60008190508160005260206000209050919050565b60006020601f8301049050919050565b600082821b905092915050565b6000600883026200034b7fffffffffffffffffffffffffffffffffffffffffffffffffffffffffffffffff826200030c565b6200035786836200030c565b95508019841693508086168417925050509392505050565b6000819050919050565b6000819050919050565b6000620003a46200039e62000398846200036f565b62000379565b6200036f565b9050919050565b6000819050919050565b620003c08362000383565b620003d8620003cf82620003ab565b84845462000319565b825550505050565b600090565b620003ef620003e0565b620003fc818484620003b5565b505050565b5b81811015620004245762000418600082620003e5565b60018101905062000402565b5050565b601f82111562000473576200043d81620002e7565b6200044884620002fc565b8101602085101562000458578190505b620004706200046785620002fc565b83018262000401565b50505b505050565b600082821c905092915050565b6000620004986000198460080262000478565b1980831691505092915050565b6000620004b3838362000485565b9150826002028217905092915050565b620004ce8262000249565b67ffffffffffffffff811115620004ea57620004e962000254565b5b620004f68254620002b2565b6200050382828562000428565b600060209050601f8311600181146200053b576000841562000526578287015190505b620005328582620004a5565b865550620005a2565b601f1984166200054b86620002e7565b60005b8281101562000575578489015182556001820191506020850194506020810190506200054e565b8683101562000595578489015162000591601f89168262000485565b8355505b6001600288020188555050505b505050505050565b600082825260208201905092915050565b7f4552433136353a20696e76616c696420696e7465726661636520696400000000600082015250565b6000620005f3601c83620005aa565b91506200060082620005bb565b602082019050919050565b600060208201905081810360008301526200062681620005e4565b9050919050565b615f52806200063d6000396000f3fe608060405234801561001057600080fd5b50600436106103c55760003560e01c806386fdbe70116101ff578063c5c715e41161011a578063e4623c1b116100ad578063fc05a80e1161007c578063fc05a80e14610d09578063fc3fcf1a14610d39578063fe2c7bbc14610d69578063fed3d31a14610d99576103c5565b8063e4623c1b14610c5d578063e853888914610c79578063e985e9c514610ca9578063f572002f14610cd9576103c5565b8063d437a1a7116100e9578063d437a1a714610b9d578063d97dc47d14610bcd578063daf451a814610bfd578063dd30cf3914610c2d576103c5565b8063c5c715e414610af1578063c87b56dd14610b0d578063cee2013c14610b3d578063cfdc65cf14610b6d576103c5565b8063a52676bf11610192578063b8f4943611610161578063b8f4943614610a6d578063ba1b7e7614610a89578063c3ca81a914610aa5578063c4c9e26814610ac1576103c5565b8063a52676bf146109d5578063b203eb1614610a05578063b88d4fde14610a35578063b8dcb01f14610a51576103c5565b806395d89b41116101ce57806395d89b411461094f5780639cd3cad61461096d5780639d0e336a14610989578063a22cb465146109b9576103c5565b806386fdbe701461088f578063880c0cf2146108bf57806390d190ae146108ef57806393d7154a1461091f576103c5565b806342842e0e116102ef578063572b6c051161028257806370a082311161025157806370a08231146107f55780637da0a877146108255780637fa29d8714610843578063836a104014610873576103c5565b8063572b6c051461075b5780635b82c53f1461078b5780635da040ef146107a75780636352211e146107c5576103c5565b8063486ff0cd116102be578063486ff0cd146106bf5780634945fcc7146106dd578063545f10431461070d578063557ed1ba1461073d576103c5565b806342842e0e1461062757806342966c6814610643578063430c20811461065f5780634852a4c81461068f576103c5565b80630b4b67d61161036757806323b872dd1161033657806323b872dd1461058e5780632a55205a146105aa5780632c05c7dd146105db578063330a347b1461060b576103c5565b80630b4b67d6146104e05780630e094137146105105780631746a2b61461052e5780631f7238a31461055e576103c5565b8063081812fc116103a3578063081812fc1461043457806308d59cda14610464578063095ea7b31461049457806309db6aaf146104b0576103c5565b806301ffc9a7146103ca57806302c37ddc146103fa57806306fdde0314610416575b600080fd5b6103e460048036038101906103df919061401f565b610db5565b6040516103f19190614067565b60405180910390f35b610414600480360381019061040f91906140b8565b610e1f565b005b61041e610eba565b60405161042b9190614175565b60405180910390f35b61044e600480360381019061044991906140b8565b610f4c565b60405161045b91906141d8565b60405180910390f35b61047e600480360381019061047991906140b8565b610f92565b60405161048b91906142b1565b60405180910390f35b6104ae60048036038101906104a991906142ff565b611040565b005b6104ca60048036038101906104c5919061433f565b611157565b6040516104d7919061438e565b60405180910390f35b6104fa60048036038101906104f591906140b8565b611189565b604051610507919061438e565b60405180910390f35b6105186111ad565b604051610525919061438e565b60405180910390f35b610548600480360381019061054391906140b8565b6111b7565b6040516105559190614467565b60405180910390f35b610578600480360381019061057391906140b8565b61129c565b604051610585919061438e565b60405180910390f35b6105a860048036038101906105a39190614489565b6112bc565b005b6105c460048036038101906105bf919061433f565b61131c565b6040516105d29291906144dc565b60405180910390f35b6105f560048036038101906105f0919061433f565b6113c9565b604051610602919061438e565b60405180910390f35b610625600480360381019061062091906140b8565b6113f8565b005b610641600480360381019061063c9190614489565b611439565b005b61065d600480360381019061065891906140b8565b611459565b005b610679600480360381019061067491906142ff565b6114a1565b6040516106869190614067565b60405180910390f35b6106a960048036038101906106a4919061433f565b6114b5565b6040516106b691906141d8565b60405180910390f35b6106c76114e7565b6040516106d49190614175565b60405180910390f35b6106f760048036038101906106f291906140b8565b611575565b6040516107049190614175565b60405180910390f35b610727600480360381019061072291906140b8565b61161d565b6040516107349190614175565b60405180910390f35b6107456116c5565b604051610752919061438e565b60405180910390f35b61077560048036038101906107709190614505565b6116cd565b6040516107829190614067565b60405180910390f35b6107a560048036038101906107a09190614532565b611727565b005b6107af61178f565b6040516107bc919061438e565b60405180910390f35b6107df60048036038101906107da91906140b8565b611799565b6040516107ec91906141d8565b60405180910390f35b61080f600480360381019061080a9190614505565b61184a565b60405161081c919061438e565b60405180910390f35b61082d611901565b60405161083a91906141d8565b60405180910390f35b61085d600480360381019061085891906140b8565b61192b565b60405161086a91906142b1565b60405180910390f35b61088d60048036038101906108889190614572565b6119da565b005b6108a960048036038101906108a491906140b8565b611b59565b6040516108b69190614175565b60405180910390f35b6108d960048036038101906108d491906140b8565b611c01565b6040516108e69190614175565b60405180910390f35b610909600480360381019061090491906140b8565b611ca9565b6040516109169190614067565b60405180910390f35b610939600480360381019061093491906140b8565b611cd6565b6040516109469190614175565b60405180910390f35b610957611d7e565b6040516109649190614175565b60405180910390f35b61098760048036038101906109829190614532565b611e10565b005b6109a3600480360381019061099e91906142ff565b611e9e565b6040516109b0919061438e565b60405180910390f35b6109d360048036038101906109ce91906145f1565b611ef9565b005b6109ef60048036038101906109ea9190614505565b611f0f565b6040516109fc91906142b1565b60405180910390f35b610a1f6004803603810190610a1a9190614766565b611fbd565b604051610a2c919061438e565b60405180910390f35b610a4f6004803603810190610a4a919061498e565b6120cf565b005b610a6b6004803603810190610a669190614b9c565b612131565b005b610a876004803603810190610a829190614c43565b61222a565b005b610aa36004803603810190610a9e9190614b9c565b612419565b005b610abf6004803603810190610aba9190614d93565b612502565b005b610adb6004803603810190610ad691906140b8565b61271d565b604051610ae89190614175565b60405180910390f35b610b0b6004803603810190610b069190614e1e565b6127c5565b005b610b276004803603810190610b2291906140b8565b612885565b604051610b349190614175565b60405180910390f35b610b576004803603810190610b5291906140b8565b612988565b604051610b64919061438e565b60405180910390f35b610b876004803603810190610b8291906140b8565b6129af565b604051610b949190614067565b60405180910390f35b610bb76004803603810190610bb291906140b8565b6129dc565b604051610bc49190614067565b60405180910390f35b610be76004803603810190610be29190614532565b612a09565b604051610bf49190614067565b60405180910390f35b610c176004803603810190610c129190614e96565b612a3b565b604051610c24919061438e565b60405180910390f35b610c476004803603810190610c4291906140b8565b612a63565b604051610c5491906141d8565b60405180910390f35b610c776004803603810190610c729190614edf565b612aa3565b005b610c936004803603810190610c8e91906140b8565b612ae7565b604051610ca091906141d8565b60405180910390f35b610cc36004803603810190610cbe9190614f28565b612b27565b604051610cd09190614067565b60405180910390f35b610cf36004803603810190610cee91906140b8565b612bbb565b604051610d00919061438e565b60405180910390f35b610d236004803603810190610d1e9190614505565b612be2565b604051610d30919061438e565b60405180910390f35b610d536004803603810190610d4e91906140b8565b612c32565b604051610d60919061438e565b60405180910390f35b610d836004803603810190610d7e91906140b8565b612c52565b604051610d909190614175565b60405180910390f35b610db36004803603810190610dae9190614f68565b612cfa565b005b60007f01ffc9a7000000000000000000000000000000000000000000000000000000007bffffffffffffffffffffffffffffffffffffffffffffffffffffffff1916827bffffffffffffffffffffffffffffffffffffffffffffffffffffffff1916149050919050565b6000600b60008381526020019081526020016000209050610e3f81612e0c565b610e5c610e4a612e6b565b82600d01612e7a90919063ffffffff16565b50610eb58260086000610e6d612e6b565b73ffffffffffffffffffffffffffffffffffffffff1673ffffffffffffffffffffffffffffffffffffffff168152602001908152602001600020612eaa90919063ffffffff16565b505050565b606060018054610ec99061506e565b80601f0160208091040260200160405190810160405280929190818152602001828054610ef59061506e565b8015610f425780601f10610f1757610100808354040283529160200191610f42565b820191906000526020600020905b815481529060010190602001808311610f2557829003601f168201915b5050505050905090565b6000610f5782612ec4565b6005600083815260200190815260200160002060009054906101000a900473ffffffffffffffffffffffffffffffffffffffff169050919050565b60606000610f9f83611189565b905060008167ffffffffffffffff811115610fbd57610fbc61463b565b5b604051908082528060200260200182016040528015610feb5781602001602082028036833780820191505090505b50905060005b828110156110355761100385826113c9565b8282815181106110165761101561509f565b5b602002602001018181525050808061102d906150fd565b915050610ff1565b508092505050919050565b600061104b82611799565b90508073ffffffffffffffffffffffffffffffffffffffff168373ffffffffffffffffffffffffffffffffffffffff16036110bb576040517f08c379a00000000000000000000000000000000000000000000000000000000081526004016110b2906151b7565b60405180910390fd5b8073ffffffffffffffffffffffffffffffffffffffff166110da612e6b565b73ffffffffffffffffffffffffffffffffffffffff161480611109575061110881611103612e6b565b612b27565b5b611148576040517f08c379a000000000000000000000000000000000000000000000000000000000815260040161113f90615249565b60405180910390fd5b6111528383612f0f565b505050565b600061118182600b6000868152602001908152602001600020600b01612fc890919063ffffffff16565b905092915050565b60006111a660096000848152602001908152602001600020612fe2565b9050919050565b6000600f54905090565b606060006111c483612988565b905060008167ffffffffffffffff8111156111e2576111e161463b565b5b6040519080825280602002602001820160405280156112105781602001602082028036833780820191505090505b50905060005b81518110156112915761123161122c8683611157565b611799565b8282815181106112445761124361509f565b5b602002602001019073ffffffffffffffffffffffffffffffffffffffff16908173ffffffffffffffffffffffffffffffffffffffff16815250508080611289906150fd565b915050611216565b508092505050919050565b6000600b6000838152602001908152602001600020600701549050919050565b6112cd6112c7612e6b565b82612ff7565b61130c576040517f08c379a0000000000000000000000000000000000000000000000000000000008152600401611303906152db565b60405180910390fd5b61131783838361308c565b505050565b6000806000600b6000600d600088815260200190815260200160002054815260200190815260200160002060000160019054906101000a900473ffffffffffffffffffffffffffffffffffffffff169050600073ffffffffffffffffffffffffffffffffffffffff168173ffffffffffffffffffffffffffffffffffffffff16036113ae5760008092509250506113c2565b80600a856113bc919061532a565b92509250505b9250929050565b60006113f08260096000868152602001908152602001600020612fc890919063ffffffff16565b905092915050565b6000600b6000838152602001908152602001600020905061141881612e0c565b60018160000160006101000a81548160ff0219169083151502179055505050565b611454838383604051806020016040528060008152506120cf565b505050565b611462816132f2565b61149d81600b6000600d6000868152602001908152602001600020548152602001908152602001600020600b01612eaa90919063ffffffff16565b5050565b60006114ad8383612ff7565b905092915050565b60006114df82600b6000868152602001908152602001600020600d0161334e90919063ffffffff16565b905092915050565b601280546114f49061506e565b80601f01602080910402602001604051908101604052809291908181526020018280546115209061506e565b801561156d5780601f106115425761010080835404028352916020019161156d565b820191906000526020600020905b81548152906001019060200180831161155057829003601f168201915b505050505081565b6060600b600083815260200190815260200160002060030180546115989061506e565b80601f01602080910402602001604051908101604052809291908181526020018280546115c49061506e565b80156116115780601f106115e657610100808354040283529160200191611611565b820191906000526020600020905b8154815290600101906020018083116115f457829003601f168201915b50505050509050919050565b6060600b600083815260200190815260200160002060020180546116409061506e565b80601f016020809104026020016040519081016040528092919081815260200182805461166c9061506e565b80156116b95780601f1061168e576101008083540402835291602001916116b9565b820191906000526020600020905b81548152906001019060200180831161169c57829003601f168201915b50505050509050919050565b600042905090565b6000600760009054906101000a900473ffffffffffffffffffffffffffffffffffffffff1673ffffffffffffffffffffffffffffffffffffffff168273ffffffffffffffffffffffffffffffffffffffff16149050919050565b6000600b6000848152602001908152602001600020905061174781612e0c565b818160000160016101000a81548173ffffffffffffffffffffffffffffffffffffffff021916908373ffffffffffffffffffffffffffffffffffffffff160217905550505050565b6000601054905090565b6000806003600084815260200190815260200160002060009054906101000a900473ffffffffffffffffffffffffffffffffffffffff169050600073ffffffffffffffffffffffffffffffffffffffff168173ffffffffffffffffffffffffffffffffffffffff1603611841576040517f08c379a0000000000000000000000000000000000000000000000000000000008152600401611838906153a7565b60405180910390fd5b80915050919050565b60008073ffffffffffffffffffffffffffffffffffffffff168273ffffffffffffffffffffffffffffffffffffffff16036118ba576040517f08c379a00000000000000000000000000000000000000000000000000000000081526004016118b190615439565b60405180910390fd5b600460008373ffffffffffffffffffffffffffffffffffffffff1673ffffffffffffffffffffffffffffffffffffffff168152602001908152602001600020549050919050565b6000600760009054906101000a900473ffffffffffffffffffffffffffffffffffffffff16905090565b6060600061193883612988565b905060008167ffffffffffffffff8111156119565761195561463b565b5b6040519080825280602002602001820160405280156119845781602001602082028036833780820191505090505b50905060005b81518110156119cf5761199d8582611157565b8282815181106119b0576119af61509f565b5b60200260200101818152505080806119c7906150fd565b91505061198a565b508092505050919050565b8242600b60008381526020019081526020016000206007015411158015611a17575042600b60008381526020019081526020016000206008015410155b611a56576040517f08c379a0000000000000000000000000000000000000000000000000000000008152600401611a4d906154f1565b60405180910390fd5b6001600a600084815260200190815260200160002060030160006101000a81548160ff0219169083151502179055506000600b60008681526020019081526020016000209050611aa881600b01612fe2565b816009015411611aed576040517f08c379a0000000000000000000000000000000000000000000000000000000008152600401611ae490615583565b60405180910390fd5b8060000160009054906101000a900460ff1615611b3f576040517f08c379a0000000000000000000000000000000000000000000000000000000008152600401611b36906155ef565b60405180910390fd5b611b4881612e0c565b611b528486613368565b5050505050565b6060600a60008381526020019081526020016000206002018054611b7c9061506e565b80601f0160208091040260200160405190810160405280929190818152602001828054611ba89061506e565b8015611bf55780601f10611bca57610100808354040283529160200191611bf5565b820191906000526020600020905b815481529060010190602001808311611bd857829003601f168201915b50505050509050919050565b6060600b60008381526020019081526020016000206004018054611c249061506e565b80601f0160208091040260200160405190810160405280929190818152602001828054611c509061506e565b8015611c9d5780601f10611c7257610100808354040283529160200191611c9d565b820191906000526020600020905b815481529060010190602001808311611c8057829003601f168201915b50505050509050919050565b6000600a600083815260200190815260200160002060030160009054906101000a900460ff169050919050565b6060600b6000838152602001908152602001600020600a018054611cf99061506e565b80601f0160208091040260200160405190810160405280929190818152602001828054611d259061506e565b8015611d725780601f10611d4757610100808354040283529160200191611d72565b820191906000526020600020905b815481529060010190602001808311611d5557829003601f168201915b50505050509050919050565b606060028054611d8d9061506e565b80601f0160208091040260200160405190810160405280929190818152602001828054611db99061506e565b8015611e065780601f10611ddb57610100808354040283529160200191611e06565b820191906000526020600020905b815481529060010190602001808311611de957829003601f168201915b5050505050905090565b6000600b60008481526020019081526020016000209050611e3081612e0c565b611e468282600d016133d190919063ffffffff16565b50611e9883600860008573ffffffffffffffffffffffffffffffffffffffff1673ffffffffffffffffffffffffffffffffffffffff16815260200190815260200160002061340190919063ffffffff16565b50505050565b6000611ef182600860008673ffffffffffffffffffffffffffffffffffffffff1673ffffffffffffffffffffffffffffffffffffffff168152602001908152602001600020612fc890919063ffffffff16565b905092915050565b611f0b611f04612e6b565b838361341b565b5050565b60606000611f1c83612be2565b905060008167ffffffffffffffff811115611f3a57611f3961463b565b5b604051908082528060200260200182016040528015611f685781602001602082028036833780820191505090505b50905060005b82811015611fb257611f808582611e9e565b828281518110611f9357611f9261509f565b5b6020026020010181815250508080611faa906150fd565b915050611f6e565b508092505050919050565b600080611fca308d613587565b90506000611fe1828e8e8e8e8e8e8e8e8e8e6135ba565b90506000600b60008381526020019081526020016000209050612017612005612e6b565b82600d016133d190919063ffffffff16565b50612020612e6b565b8160000160016101000a81548173ffffffffffffffffffffffffffffffffffffffff021916908373ffffffffffffffffffffffffffffffffffffffff1602179055506120ba8260086000612072612e6b565b73ffffffffffffffffffffffffffffffffffffffff1673ffffffffffffffffffffffffffffffffffffffff16815260200190815260200160002061340190919063ffffffff16565b508193505050509a9950505050505050505050565b6120e06120da612e6b565b83612ff7565b61211f576040517f08c379a0000000000000000000000000000000000000000000000000000000008152600401612116906152db565b60405180910390fd5b61212b848484846137cf565b50505050565b81518351148015612143575080518351145b6040518060600160405280602e8152602001615eef602e91399061219d576040517f08c379a00000000000000000000000000000000000000000000000000000000081526004016121949190614175565b60405180910390fd5b5060005b8351811015612224576122138482815181106121c0576121bf61509f565b5b60200260200101518483815181106121db576121da61509f565b5b60200260200101518484815181106121f6576121f561509f565b5b6020026020010151604051806020016040528060008152506120cf565b8061221d906150fd565b90506121a1565b50505050565b8242600b60008381526020019081526020016000206007015411158015612267575042600b60008381526020019081526020016000206008015410155b6122a6576040517f08c379a000000000000000000000000000000000000000000000000000000000815260040161229d906154f1565b60405180910390fd5b6000600b600086815260200190815260200160002090508060000160009054906101000a900460ff161561230f576040517f08c379a0000000000000000000000000000000000000000000000000000000008152600401612306906155ef565b60405180910390fd5b6000601160008154612320906150fd565b919050819055905085600a60008381526020019081526020016000206000018190555084600a600083815260200190815260200160002060010160006101000a81548173ffffffffffffffffffffffffffffffffffffffff021916908373ffffffffffffffffffffffffffffffffffffffff16021790555083600a600083815260200190815260200160002060020190816123bb91906157bb565b506000600a600083815260200190815260200160002060030160006101000a81548160ff021916908315150217905550612410816009600089815260200190815260200160002061340190919063ffffffff16565b50505050505050565b8151835114801561242b575080518351145b6040518060600160405280602e8152602001615eef602e913990612485576040517f08c379a000000000000000000000000000000000000000000000000000000000815260040161247c9190614175565b60405180910390fd5b5060005b83518110156124fc576124eb8482815181106124a8576124a761509f565b5b60200260200101518483815181106124c3576124c261509f565b5b60200260200101518484815181106124de576124dd61509f565b5b60200260200101516112bc565b806124f5906150fd565b9050612489565b50505050565b8242600b6000838152602001908152602001600020600701541115801561253f575042600b60008381526020019081526020016000206008015410155b61257e576040517f08c379a0000000000000000000000000000000000000000000000000000000008152600401612575906154f1565b60405180910390fd5b6000600b600086815260200190815260200160002090508060000160009054906101000a900460ff16156125e7576040517f08c379a00000000000000000000000000000000000000000000000000000000081526004016125de906155ef565b60405180910390fd5b6125f081612e0c565b606060005b8451811015612640576001600a600083815260200190815260200160002060030160006101000a81548160ff0219169083151502179055508080612638906150fd565b9150506125f5565b5060005b85518110156126d0576126708682815181106126635761266261509f565b5b602002602001015161382b565b8282815181106126835761268261509f565b5b602002602001019073ffffffffffffffffffffffffffffffffffffffff16908173ffffffffffffffffffffffffffffffffffffffff168152505080806126c8906150fd565b915050612644565b5060005b8551811015612714576127018282815181106126f3576126f261509f565b5b602002602001015188613368565b808061270c906150fd565b9150506126d4565b50505050505050565b6060600b600083815260200190815260200160002060010180546127409061506e565b80601f016020809104026020016040519081016040528092919081815260200182805461276c9061506e565b80156127b95780601f1061278e576101008083540402835291602001916127b9565b820191906000526020600020905b81548152906001019060200180831161279c57829003601f168201915b50505050509050919050565b80518251146040518060600160405280602e8152602001615eef602e913990612824576040517f08c379a000000000000000000000000000000000000000000000000000000000815260040161281b9190614175565b60405180910390fd5b5060005b82518110156128805761286f8382815181106128475761284661509f565b5b60200260200101518383815181106128625761286161509f565b5b6020026020010151611040565b80612879906150fd565b9050612828565b505050565b606061289082613839565b6128cf576040517f08c379a00000000000000000000000000000000000000000000000000000000081526004016128c6906158ff565b60405180910390fd5b600b6000600d600085815260200190815260200160002054815260200190815260200160002060010180546129039061506e565b80601f016020809104026020016040519081016040528092919081815260200182805461292f9061506e565b801561297c5780601f106129515761010080835404028352916020019161297c565b820191906000526020600020905b81548152906001019060200180831161295f57829003601f168201915b50505050509050919050565b60006129a8600b6000848152602001908152602001600020600b01612fe2565b9050919050565b6000600b600083815260200190815260200160002060060160009054906101000a900460ff169050919050565b6000600b600083815260200190815260200160002060000160009054906101000a900460ff169050919050565b6000612a3382600b6000868152602001908152602001600020600d016138a590919063ffffffff16565b905092915050565b6000600c82604051612a4d919061595b565b9081526020016040518091039020549050919050565b6000600b600083815260200190815260200160002060000160019054906101000a900473ffffffffffffffffffffffffffffffffffffffff169050919050565b60005b8151811015612ae357612ad2828281518110612ac557612ac461509f565b5b6020026020010151611459565b80612adc906150fd565b9050612aa6565b5050565b6000600a600083815260200190815260200160002060010160009054906101000a900473ffffffffffffffffffffffffffffffffffffffff169050919050565b6000600660008473ffffffffffffffffffffffffffffffffffffffff1673ffffffffffffffffffffffffffffffffffffffff16815260200190815260200160002060008373ffffffffffffffffffffffffffffffffffffffff1673ffffffffffffffffffffffffffffffffffffffff16815260200190815260200160002060009054906101000a900460ff16905092915050565b6000612bdb600b6000848152602001908152602001600020600d016138d5565b9050919050565b6000612c2b600860008473ffffffffffffffffffffffffffffffffffffffff1673ffffffffffffffffffffffffffffffffffffffff168152602001908152602001600020612fe2565b9050919050565b6000600b6000838152602001908152602001600020600801549050919050565b6060600b60008381526020019081526020016000206005018054612c759061506e565b80601f0160208091040260200160405190810160405280929190818152602001828054612ca19061506e565b8015612cee5780601f10612cc357610100808354040283529160200191612cee565b820191906000526020600020905b815481529060010190602001808311612cd157829003601f168201915b50505050509050919050565b82518451148015612d0c575081518451145b8015612d19575080518451145b6040518060600160405280602e8152602001615eef602e913990612d73576040517f08c379a0000000000000000000000000000000000000000000000000000000008152600401612d6a9190614175565b60405180910390fd5b5060005b8451811015612e0557612df4858281518110612d9657612d9561509f565b5b6020026020010151858381518110612db157612db061509f565b5b6020026020010151858481518110612dcc57612dcb61509f565b5b6020026020010151858581518110612de757612de661509f565b5b60200260200101516120cf565b80612dfe906150fd565b9050612d77565b5050505050565b612e29612e17612e6b565b82600d016138a590919063ffffffff16565b612e68576040517f08c379a0000000000000000000000000000000000000000000000000000000008152600401612e5f906159be565b60405180910390fd5b50565b6000612e756138ea565b905090565b6000612ea2836000018373ffffffffffffffffffffffffffffffffffffffff1660001b613926565b905092915050565b6000612ebc836000018360001b613926565b905092915050565b612ecd81613839565b612f0c576040517f08c379a0000000000000000000000000000000000000000000000000000000008152600401612f03906153a7565b60405180910390fd5b50565b816005600083815260200190815260200160002060006101000a81548173ffffffffffffffffffffffffffffffffffffffff021916908373ffffffffffffffffffffffffffffffffffffffff160217905550808273ffffffffffffffffffffffffffffffffffffffff16612f8283611799565b73ffffffffffffffffffffffffffffffffffffffff167f8c5be1e5ebec7d5bd14f71427d1e84f3dd0314c0f7b2291e5b200ac8c7c3b92560405160405180910390a45050565b6000612fd78360000183613a3a565b60001c905092915050565b6000612ff082600001613a65565b9050919050565b60008061300383611799565b90508073ffffffffffffffffffffffffffffffffffffffff168473ffffffffffffffffffffffffffffffffffffffff16148061304557506130448185612b27565b5b8061308357508373ffffffffffffffffffffffffffffffffffffffff1661306b84610f4c565b73ffffffffffffffffffffffffffffffffffffffff16145b91505092915050565b8273ffffffffffffffffffffffffffffffffffffffff166130ac82611799565b73ffffffffffffffffffffffffffffffffffffffff1614613102576040517f08c379a00000000000000000000000000000000000000000000000000000000081526004016130f990615a50565b60405180910390fd5b600073ffffffffffffffffffffffffffffffffffffffff168273ffffffffffffffffffffffffffffffffffffffff1603613171576040517f08c379a000000000000000000000000000000000000000000000000000000000815260040161316890615ae2565b60405180910390fd5b61317c838383613a76565b613187600082612f0f565b6001600460008573ffffffffffffffffffffffffffffffffffffffff1673ffffffffffffffffffffffffffffffffffffffff16815260200190815260200160002060008282546131d79190615b02565b925050819055506001600460008473ffffffffffffffffffffffffffffffffffffffff1673ffffffffffffffffffffffffffffffffffffffff168152602001908152602001600020600082825461322e9190615b36565b92505081905550816003600083815260200190815260200160002060006101000a81548173ffffffffffffffffffffffffffffffffffffffff021916908373ffffffffffffffffffffffffffffffffffffffff160217905550808273ffffffffffffffffffffffffffffffffffffffff168473ffffffffffffffffffffffffffffffffffffffff167fddf252ad1be2c89b69c2b068fc378daa952ba7f163c4a11628f55a4df523b3ef60405160405180910390a46132ed838383613a7b565b505050565b6133036132fd612e6b565b82612ff7565b613342576040517f08c379a0000000000000000000000000000000000000000000000000000000008152600401613339906152db565b60405180910390fd5b61334b81613a80565b50565b600061335d8360000183613a3a565b60001c905092915050565b6000600f60008154613379906150fd565b919050819055905061338b8382613b9d565b6133b381600b6000858152602001908152602001600020600b0161340190919063ffffffff16565b5081600d600083815260200190815260200160002081905550505050565b60006133f9836000018373ffffffffffffffffffffffffffffffffffffffff1660001b613d76565b905092915050565b6000613413836000018360001b613d76565b905092915050565b8173ffffffffffffffffffffffffffffffffffffffff168373ffffffffffffffffffffffffffffffffffffffff1603613489576040517f08c379a000000000000000000000000000000000000000000000000000000000815260040161348090615bb6565b60405180910390fd5b80600660008573ffffffffffffffffffffffffffffffffffffffff1673ffffffffffffffffffffffffffffffffffffffff16815260200190815260200160002060008473ffffffffffffffffffffffffffffffffffffffff1673ffffffffffffffffffffffffffffffffffffffff16815260200190815260200160002060006101000a81548160ff0219169083151502179055508173ffffffffffffffffffffffffffffffffffffffff168373ffffffffffffffffffffffffffffffffffffffff167f17307eab39ab6107e8899845ad3d59bd9653f200f220920489ca2b5937696c318360405161357a9190614067565b60405180910390a3505050565b6000828260405160200161359c929190615bd6565b60405160208183030381529060405280519060200120905092915050565b600080600e60008e81526020019081526020016000205414613611576040517f08c379a000000000000000000000000000000000000000000000000000000000815260040161360890615c52565b60405180910390fd5b6000601060008154613622906150fd565b91905081905590508b600b6000838152602001908152602001600020600101908161364d91906157bb565b508a600b6000838152602001908152602001600020600201908161367191906157bb565b5089600b6000838152602001908152602001600020600301908161369591906157bb565b5088600b600083815260200190815260200160002060040190816136b991906157bb565b5087600b600083815260200190815260200160002060050190816136dd91906157bb565b5085600b60008381526020019081526020016000206007018190555084600b60008381526020019081526020016000206008018190555083600b6000838152602001908152602001600020600a01908161373791906157bb565b5086600b600083815260200190815260200160002060060160006101000a81548160ff02191690831515021790555082600b60008381526020019081526020016000206009018190555080600c8b604051613792919061595b565b90815260200160405180910390208190555080600e60008f815260200190815260200160002081905550809150509b9a5050505050505050505050565b6137da84848461308c565b6137e684848484613de6565b613825576040517f08c379a000000000000000000000000000000000000000000000000000000000815260040161381c90615ce4565b60405180910390fd5b50505050565b600060208201519050919050565b60008073ffffffffffffffffffffffffffffffffffffffff166003600084815260200190815260200160002060009054906101000a900473ffffffffffffffffffffffffffffffffffffffff1673ffffffffffffffffffffffffffffffffffffffff1614159050919050565b60006138cd836000018373ffffffffffffffffffffffffffffffffffffffff1660001b613f6d565b905092915050565b60006138e382600001613a65565b9050919050565b600060146000369050101580156139065750613905336116cd565b5b1561391a57601436033560601c9050613922565b339050613923565b5b90565b60008083600101600084815260200190815260200160002054905060008114613a2e5760006001826139589190615b02565b90506000600186600001805490506139709190615b02565b90508181146139df5760008660000182815481106139915761399061509f565b5b90600052602060002001549050808760000184815481106139b5576139b461509f565b5b90600052602060002001819055508387600101600083815260200190815260200160002081905550505b856000018054806139f3576139f2615d04565b5b600190038181906000526020600020016000905590558560010160008681526020019081526020016000206000905560019350505050613a34565b60009150505b92915050565b6000826000018281548110613a5257613a5161509f565b5b9060005260206000200154905092915050565b600081600001805490509050919050565b505050565b505050565b6000613a8b82611799565b9050613a9981600084613a76565b613aa4600083612f0f565b6001600460008373ffffffffffffffffffffffffffffffffffffffff1673ffffffffffffffffffffffffffffffffffffffff1681526020019081526020016000206000828254613af49190615b02565b925050819055506003600083815260200190815260200160002060006101000a81549073ffffffffffffffffffffffffffffffffffffffff021916905581600073ffffffffffffffffffffffffffffffffffffffff168273ffffffffffffffffffffffffffffffffffffffff167fddf252ad1be2c89b69c2b068fc378daa952ba7f163c4a11628f55a4df523b3ef60405160405180910390a4613b9981600084613a7b565b5050565b600073ffffffffffffffffffffffffffffffffffffffff168273ffffffffffffffffffffffffffffffffffffffff1603613c0c576040517f08c379a0000000000000000000000000000000000000000000000000000000008152600401613c0390615d7f565b60405180910390fd5b613c1581613839565b15613c55576040517f08c379a0000000000000000000000000000000000000000000000000000000008152600401613c4c90615deb565b60405180910390fd5b613c6160008383613a76565b6001600460008473ffffffffffffffffffffffffffffffffffffffff1673ffffffffffffffffffffffffffffffffffffffff1681526020019081526020016000206000828254613cb19190615b36565b92505081905550816003600083815260200190815260200160002060006101000a81548173ffffffffffffffffffffffffffffffffffffffff021916908373ffffffffffffffffffffffffffffffffffffffff160217905550808273ffffffffffffffffffffffffffffffffffffffff16600073ffffffffffffffffffffffffffffffffffffffff167fddf252ad1be2c89b69c2b068fc378daa952ba7f163c4a11628f55a4df523b3ef60405160405180910390a4613d7260008383613a7b565b5050565b6000613d828383613f6d565b613ddb578260000182908060018154018082558091505060019003906000526020600020016000909190919091505582600001805490508360010160008481526020019081526020016000208190555060019050613de0565b600090505b92915050565b6000613e078473ffffffffffffffffffffffffffffffffffffffff16613f90565b15613f60578373ffffffffffffffffffffffffffffffffffffffff1663150b7a02613e30612e6b565b8786866040518563ffffffff1660e01b8152600401613e529493929190615e60565b6020604051808303816000875af1925050508015613e8e57506040513d601f19601f82011682018060405250810190613e8b9190615ec1565b60015b613f10573d8060008114613ebe576040519150601f19603f3d011682016040523d82523d6000602084013e613ec3565b606091505b506000815103613f08576040517f08c379a0000000000000000000000000000000000000000000000000000000008152600401613eff90615ce4565b60405180910390fd5b805181602001fd5b63150b7a0260e01b7bffffffffffffffffffffffffffffffffffffffffffffffffffffffff1916817bffffffffffffffffffffffffffffffffffffffffffffffffffffffff191614915050613f65565b600190505b949350505050565b600080836001016000848152602001908152602001600020541415905092915050565b6000808273ffffffffffffffffffffffffffffffffffffffff163b119050919050565b6000604051905090565b600080fd5b600080fd5b60007fffffffff0000000000000000000000000000000000000000000000000000000082169050919050565b613ffc81613fc7565b811461400757600080fd5b50565b60008135905061401981613ff3565b92915050565b60006020828403121561403557614034613fbd565b5b60006140438482850161400a565b91505092915050565b60008115159050919050565b6140618161404c565b82525050565b600060208201905061407c6000830184614058565b92915050565b6000819050919050565b61409581614082565b81146140a057600080fd5b50565b6000813590506140b28161408c565b92915050565b6000602082840312156140ce576140cd613fbd565b5b60006140dc848285016140a3565b91505092915050565b600081519050919050565b600082825260208201905092915050565b60005b8381101561411f578082015181840152602081019050614104565b60008484015250505050565b6000601f19601f8301169050919050565b6000614147826140e5565b61415181856140f0565b9350614161818560208601614101565b61416a8161412b565b840191505092915050565b6000602082019050818103600083015261418f818461413c565b905092915050565b600073ffffffffffffffffffffffffffffffffffffffff82169050919050565b60006141c282614197565b9050919050565b6141d2816141b7565b82525050565b60006020820190506141ed60008301846141c9565b92915050565b600081519050919050565b600082825260208201905092915050565b6000819050602082019050919050565b61422881614082565b82525050565b600061423a838361421f565b60208301905092915050565b6000602082019050919050565b600061425e826141f3565b61426881856141fe565b93506142738361420f565b8060005b838110156142a457815161428b888261422e565b975061429683614246565b925050600181019050614277565b5085935050505092915050565b600060208201905081810360008301526142cb8184614253565b905092915050565b6142dc816141b7565b81146142e757600080fd5b50565b6000813590506142f9816142d3565b92915050565b6000806040838503121561431657614315613fbd565b5b6000614324858286016142ea565b9250506020614335858286016140a3565b9150509250929050565b6000806040838503121561435657614355613fbd565b5b6000614364858286016140a3565b9250506020614375858286016140a3565b9150509250929050565b61438881614082565b82525050565b60006020820190506143a3600083018461437f565b92915050565b600081519050919050565b600082825260208201905092915050565b6000819050602082019050919050565b6143de816141b7565b82525050565b60006143f083836143d5565b60208301905092915050565b6000602082019050919050565b6000614414826143a9565b61441e81856143b4565b9350614429836143c5565b8060005b8381101561445a57815161444188826143e4565b975061444c836143fc565b92505060018101905061442d565b5085935050505092915050565b600060208201905081810360008301526144818184614409565b905092915050565b6000806000606084860312156144a2576144a1613fbd565b5b60006144b0868287016142ea565b93505060206144c1868287016142ea565b92505060406144d2868287016140a3565b9150509250925092565b60006040820190506144f160008301856141c9565b6144fe602083018461437f565b9392505050565b60006020828403121561451b5761451a613fbd565b5b6000614529848285016142ea565b91505092915050565b6000806040838503121561454957614548613fbd565b5b6000614557858286016140a3565b9250506020614568858286016142ea565b9150509250929050565b60008060006060848603121561458b5761458a613fbd565b5b6000614599868287016140a3565b93505060206145aa868287016142ea565b92505060406145bb868287016140a3565b9150509250925092565b6145ce8161404c565b81146145d957600080fd5b50565b6000813590506145eb816145c5565b92915050565b6000806040838503121561460857614607613fbd565b5b6000614616858286016142ea565b9250506020614627858286016145dc565b9150509250929050565b600080fd5b600080fd5b7f4e487b7100000000000000000000000000000000000000000000000000000000600052604160045260246000fd5b6146738261412b565b810181811067ffffffffffffffff821117156146925761469161463b565b5b80604052505050565b60006146a5613fb3565b90506146b1828261466a565b919050565b600067ffffffffffffffff8211156146d1576146d061463b565b5b6146da8261412b565b9050602081019050919050565b82818337600083830152505050565b6000614709614704846146b6565b61469b565b90508281526020810184848401111561472557614724614636565b5b6147308482856146e7565b509392505050565b600082601f83011261474d5761474c614631565b5b813561475d8482602086016146f6565b91505092915050565b6000806000806000806000806000806101408b8d03121561478a57614789613fbd565b5b60008b013567ffffffffffffffff8111156147a8576147a7613fc2565b5b6147b48d828e01614738565b9a505060208b013567ffffffffffffffff8111156147d5576147d4613fc2565b5b6147e18d828e01614738565b99505060408b013567ffffffffffffffff81111561480257614801613fc2565b5b61480e8d828e01614738565b98505060608b013567ffffffffffffffff81111561482f5761482e613fc2565b5b61483b8d828e01614738565b97505060808b013567ffffffffffffffff81111561485c5761485b613fc2565b5b6148688d828e01614738565b96505060a06148798d828e016145dc565b95505060c061488a8d828e016140a3565b94505060e061489b8d828e016140a3565b9350506101008b013567ffffffffffffffff8111156148bd576148bc613fc2565b5b6148c98d828e01614738565b9250506101206148db8d828e016140a3565b9150509295989b9194979a5092959850565b600067ffffffffffffffff8211156149085761490761463b565b5b6149118261412b565b9050602081019050919050565b600061493161492c846148ed565b61469b565b90508281526020810184848401111561494d5761494c614636565b5b6149588482856146e7565b509392505050565b600082601f83011261497557614974614631565b5b813561498584826020860161491e565b91505092915050565b600080600080608085870312156149a8576149a7613fbd565b5b60006149b6878288016142ea565b94505060206149c7878288016142ea565b93505060406149d8878288016140a3565b925050606085013567ffffffffffffffff8111156149f9576149f8613fc2565b5b614a0587828801614960565b91505092959194509250565b600067ffffffffffffffff821115614a2c57614a2b61463b565b5b602082029050602081019050919050565b600080fd5b6000614a55614a5084614a11565b61469b565b90508083825260208201905060208402830185811115614a7857614a77614a3d565b5b835b81811015614aa15780614a8d88826142ea565b845260208401935050602081019050614a7a565b5050509392505050565b600082601f830112614ac057614abf614631565b5b8135614ad0848260208601614a42565b91505092915050565b600067ffffffffffffffff821115614af457614af361463b565b5b602082029050602081019050919050565b6000614b18614b1384614ad9565b61469b565b90508083825260208201905060208402830185811115614b3b57614b3a614a3d565b5b835b81811015614b645780614b5088826140a3565b845260208401935050602081019050614b3d565b5050509392505050565b600082601f830112614b8357614b82614631565b5b8135614b93848260208601614b05565b91505092915050565b600080600060608486031215614bb557614bb4613fbd565b5b600084013567ffffffffffffffff811115614bd357614bd2613fc2565b5b614bdf86828701614aab565b935050602084013567ffffffffffffffff811115614c0057614bff613fc2565b5b614c0c86828701614aab565b925050604084013567ffffffffffffffff811115614c2d57614c2c613fc2565b5b614c3986828701614b6e565b9150509250925092565b600080600060608486031215614c5c57614c5b613fbd565b5b6000614c6a868287016140a3565b9350506020614c7b868287016142ea565b925050604084013567ffffffffffffffff811115614c9c57614c9b613fc2565b5b614ca886828701614738565b9150509250925092565b600067ffffffffffffffff821115614ccd57614ccc61463b565b5b602082029050602081019050919050565b6000614cf1614cec84614cb2565b61469b565b90508083825260208201905060208402830185811115614d1457614d13614a3d565b5b835b81811015614d5b57803567ffffffffffffffff811115614d3957614d38614631565b5b808601614d468982614960565b85526020850194505050602081019050614d16565b5050509392505050565b600082601f830112614d7a57614d79614631565b5b8135614d8a848260208601614cde565b91505092915050565b600080600060608486031215614dac57614dab613fbd565b5b6000614dba868287016140a3565b935050602084013567ffffffffffffffff811115614ddb57614dda613fc2565b5b614de786828701614d65565b925050604084013567ffffffffffffffff811115614e0857614e07613fc2565b5b614e1486828701614b6e565b9150509250925092565b60008060408385031215614e3557614e34613fbd565b5b600083013567ffffffffffffffff811115614e5357614e52613fc2565b5b614e5f85828601614aab565b925050602083013567ffffffffffffffff811115614e8057614e7f613fc2565b5b614e8c85828601614b6e565b9150509250929050565b600060208284031215614eac57614eab613fbd565b5b600082013567ffffffffffffffff811115614eca57614ec9613fc2565b5b614ed684828501614738565b91505092915050565b600060208284031215614ef557614ef4613fbd565b5b600082013567ffffffffffffffff811115614f1357614f12613fc2565b5b614f1f84828501614b6e565b91505092915050565b60008060408385031215614f3f57614f3e613fbd565b5b6000614f4d858286016142ea565b9250506020614f5e858286016142ea565b9150509250929050565b60008060008060808587031215614f8257614f81613fbd565b5b600085013567ffffffffffffffff811115614fa057614f9f613fc2565b5b614fac87828801614aab565b945050602085013567ffffffffffffffff811115614fcd57614fcc613fc2565b5b614fd987828801614aab565b935050604085013567ffffffffffffffff811115614ffa57614ff9613fc2565b5b61500687828801614b6e565b925050606085013567ffffffffffffffff81111561502757615026613fc2565b5b61503387828801614d65565b91505092959194509250565b7f4e487b7100000000000000000000000000000000000000000000000000000000600052602260045260246000fd5b6000600282049050600182168061508657607f821691505b6020821081036150995761509861503f565b5b50919050565b7f4e487b7100000000000000000000000000000000000000000000000000000000600052603260045260246000fd5b7f4e487b7100000000000000000000000000000000000000000000000000000000600052601160045260246000fd5b600061510882614082565b91507fffffffffffffffffffffffffffffffffffffffffffffffffffffffffffffffff820361513a576151396150ce565b5b600182019050919050565b7f4552433732313a20617070726f76616c20746f2063757272656e74206f776e6560008201527f7200000000000000000000000000000000000000000000000000000000000000602082015250565b60006151a16021836140f0565b91506151ac82615145565b604082019050919050565b600060208201905081810360008301526151d081615194565b9050919050565b7f4552433732313a20617070726f76652063616c6c6572206973206e6f7420746f60008201527f6b656e206f776e6572206e6f7220617070726f76656420666f7220616c6c0000602082015250565b6000615233603e836140f0565b915061523e826151d7565b604082019050919050565b6000602082019050818103600083015261526281615226565b9050919050565b7f4552433732313a2063616c6c6572206973206e6f7420746f6b656e206f776e6560008201527f72206e6f7220617070726f766564000000000000000000000000000000000000602082015250565b60006152c5602e836140f0565b91506152d082615269565b604082019050919050565b600060208201905081810360008301526152f4816152b8565b9050919050565b7f4e487b7100000000000000000000000000000000000000000000000000000000600052601260045260246000fd5b600061533582614082565b915061534083614082565b9250826153505761534f6152fb565b5b828204905092915050565b7f4552433732313a20696e76616c696420746f6b656e2049440000000000000000600082015250565b60006153916018836140f0565b915061539c8261535b565b602082019050919050565b600060208201905081810360008301526153c081615384565b9050919050565b7f4552433732313a2061646472657373207a65726f206973206e6f74206120766160008201527f6c6964206f776e65720000000000000000000000000000000000000000000000602082015250565b60006154236029836140f0565b915061542e826153c7565b604082019050919050565b6000602082019050818103600083015261545281615416565b9050919050565b7f796f752073686f756c6420696e7465726163742077697468207468652065766560008201527f6e7420696e207468652072616e6765206465636964656420627920746865206360208201527f726561746f720000000000000000000000000000000000000000000000000000604082015250565b60006154db6046836140f0565b91506154e682615459565b606082019050919050565b6000602082019050818103600083015261550a816154ce565b9050919050565b7f74686520746f74616c20737570706c7920666f722074686973206576656e742060008201527f6973207265616368656421000000000000000000000000000000000000000000602082015250565b600061556d602b836140f0565b915061557882615511565b604082019050919050565b6000602082019050818103600083015261559c81615560565b9050919050565b7f4576656e7420456e646564000000000000000000000000000000000000000000600082015250565b60006155d9600b836140f0565b91506155e4826155a3565b602082019050919050565b60006020820190508181036000830152615608816155cc565b9050919050565b60008190508160005260206000209050919050565b60006020601f8301049050919050565b600082821b905092915050565b6000600883026156717fffffffffffffffffffffffffffffffffffffffffffffffffffffffffffffffff82615634565b61567b8683615634565b95508019841693508086168417925050509392505050565b6000819050919050565b60006156b86156b36156ae84614082565b615693565b614082565b9050919050565b6000819050919050565b6156d28361569d565b6156e66156de826156bf565b848454615641565b825550505050565b600090565b6156fb6156ee565b6157068184846156c9565b505050565b5b8181101561572a5761571f6000826156f3565b60018101905061570c565b5050565b601f82111561576f576157408161560f565b61574984615624565b81016020851015615758578190505b61576c61576485615624565b83018261570b565b50505b505050565b600082821c905092915050565b600061579260001984600802615774565b1980831691505092915050565b60006157ab8383615781565b9150826002028217905092915050565b6157c4826140e5565b67ffffffffffffffff8111156157dd576157dc61463b565b5b6157e7825461506e565b6157f282828561572e565b600060209050601f8311600181146158255760008415615813578287015190505b61581d858261579f565b865550615885565b601f1984166158338661560f565b60005b8281101561585b57848901518255600182019150602085019450602081019050615836565b868310156158785784890151615874601f891682615781565b8355505b6001600288020188555050505b505050505050565b7f4552433732314d657461646174613a2055524920717565727920666f72206e6f60008201527f6e6578697374656e7420746f6b656e0000000000000000000000000000000000602082015250565b60006158e9602f836140f0565b91506158f48261588d565b604082019050919050565b60006020820190508181036000830152615918816158dc565b9050919050565b600081905092915050565b6000615935826140e5565b61593f818561591f565b935061594f818560208601614101565b80840191505092915050565b6000615967828461592a565b915081905092915050565b7f4e6f74206576656e74206d696e74657200000000000000000000000000000000600082015250565b60006159a86010836140f0565b91506159b382615972565b602082019050919050565b600060208201905081810360008301526159d78161599b565b9050919050565b7f4552433732313a207472616e736665722066726f6d20696e636f72726563742060008201527f6f776e6572000000000000000000000000000000000000000000000000000000602082015250565b6000615a3a6025836140f0565b9150615a45826159de565b604082019050919050565b60006020820190508181036000830152615a6981615a2d565b9050919050565b7f4552433732313a207472616e7366657220746f20746865207a65726f2061646460008201527f7265737300000000000000000000000000000000000000000000000000000000602082015250565b6000615acc6024836140f0565b9150615ad782615a70565b604082019050919050565b60006020820190508181036000830152615afb81615abf565b9050919050565b6000615b0d82614082565b9150615b1883614082565b9250828203905081811115615b3057615b2f6150ce565b5b92915050565b6000615b4182614082565b9150615b4c83614082565b9250828201905080821115615b6457615b636150ce565b5b92915050565b7f4552433732313a20617070726f766520746f2063616c6c657200000000000000600082015250565b6000615ba06019836140f0565b9150615bab82615b6a565b602082019050919050565b60006020820190508181036000830152615bcf81615b93565b9050919050565b6000604082019050615beb60008301856141c9565b8181036020830152615bfd818461413c565b90509392505050565b7f4576656e7420616c726561647920637265617465640000000000000000000000600082015250565b6000615c3c6015836140f0565b9150615c4782615c06565b602082019050919050565b60006020820190508181036000830152615c6b81615c2f565b9050919050565b7f4552433732313a207472616e7366657220746f206e6f6e20455243373231526560008201527f63656976657220696d706c656d656e7465720000000000000000000000000000602082015250565b6000615cce6032836140f0565b9150615cd982615c72565b604082019050919050565b60006020820190508181036000830152615cfd81615cc1565b9050919050565b7f4e487b7100000000000000000000000000000000000000000000000000000000600052603160045260246000fd5b7f4552433732313a206d696e7420746f20746865207a65726f2061646472657373600082015250565b6000615d696020836140f0565b9150615d7482615d33565b602082019050919050565b60006020820190508181036000830152615d9881615d5c565b9050919050565b7f4552433732313a20746f6b656e20616c7265616479206d696e74656400000000600082015250565b6000615dd5601c836140f0565b9150615de082615d9f565b602082019050919050565b60006020820190508181036000830152615e0481615dc8565b9050919050565b600081519050919050565b600082825260208201905092915050565b6000615e3282615e0b565b615e3c8185615e16565b9350615e4c818560208601614101565b615e558161412b565b840191505092915050565b6000608082019050615e7560008301876141c9565b615e8260208301866141c9565b615e8f604083018561437f565b8181036060830152615ea18184615e27565b905095945050505050565b600081519050615ebb81613ff3565b92915050565b600060208284031215615ed757615ed6613fbd565b5b6000615ee584828501615eac565b9150509291505056fe45616368206669656c64206d7573742068617665207468652073616d65206e756d626572206f662076616c756573a26469706673582212206aa21c878cc7ee4fff102fbfe89f8758048f011edb93a5450249ff21019fe30e64736f6c63430008100033",
  "immutableReferences": {},
  "source": "// SPDX-License-Identifier: MIT\n// https://github.com/OpenZeppelin/openzeppelin-contracts/commit/8e0296096449d9b1cd7c5631e917330635244c37\nimport \"../node_modules/@openzeppelin/contracts/utils/structs/EnumerableSet.sol\";\nimport \"../node_modules/@openzeppelin/contracts/token/ERC721/extensions/ERC721Burnable.sol\";\nimport \"../node_modules/@openzeppelin/contracts/utils/cryptography/ECDSA.sol\";\nimport \"../node_modules/@openzeppelin/contracts/utils/math/SafeMath.sol\";\nimport \"../node_modules/@openzeppelin/contracts/utils/introspection/ERC165Storage.sol\";\nimport \"../node_modules/@openzeppelin/contracts/utils/Context.sol\";\nimport \"../node_modules/@openzeppelin/contracts/metatx/ERC2771Context.sol\";\nimport \"../node_modules/@openzeppelin/contracts/metatx/MinimalForwarder.sol\";\n\nimport \"./IERC2981.sol\";\nimport \"./BaseRelayRecipient.sol\";\n\npragma experimental ABIEncoderV2;\npragma solidity >=0.4.22 <0.9.0;\n\ncontract NOAP is Context, ERC165Storage, ERC721Burnable, BaseRelayRecipient, IERC2981 {\n    using EnumerableSet for EnumerableSet.AddressSet;\n    using EnumerableSet for EnumerableSet.UintSet;\n\n    string private constant ERROR_INVALID_INPUTS = \"Each field must have the same number of values\";\n\n    \n\n    struct Evt {\n        bool ended;\n        address royalty;\n        string tokenURI;\n        string description;\n        string name;\n        string country;\n        string city;\n        bool online;\n        uint256 startdate;\n        uint256 endDate;\n        uint256 limitSupply;\n        string creatorEmail;\n        EnumerableSet.UintSet tokens;\n        EnumerableSet.AddressSet minters;\n        uint256 timestamp;\n    }\n   \n\n    struct Req {\n        uint256 eventID;\n        address attender;\n        string date;\n        bool minted;\n    }\n\n    mapping(address => EnumerableSet.UintSet) private userEventIDs;\n    mapping(uint256 => EnumerableSet.UintSet) private eventRequestIDs;\n\n    mapping(uint256 => Req) requests;\n    mapping(uint256 => Evt) evts;\n    mapping(string => uint256) events;\n    mapping(uint256 => uint256) private tokenToEventID;\n    mapping(bytes32 => uint256) private hashToEventID;\n    uint256 private tokenIDCounter;\n    uint256 private eventIDCounter;\n    uint256 private requestIDCounter;\n\n    uint256 private constant _NULL_EVENT_ID = 0;\n    address private constant _NULL_ADDRESS = 0x0000000000000000000000000000000000000000;\n\n    bytes4 private constant _INTERFACE_ID_ERC2981 = 0x2a55205a;\n\n\n    \n\n     modifier timeStampReached(uint256 eventId){\n      require(evts[eventId].startdate <= block.timestamp && evts[eventId].endDate >= block.timestamp, \"you should interact with the event in the range decided by the creator\");\n      _;\n    }\n\n    function getTime() public view virtual returns(uint256) {\n        return block.timestamp;\n    }\n\n    // override supportsInterface\n    function supportsInterface(bytes4 interfaceId)\n        public\n        view\n        virtual\n        override(ERC165Storage, ERC721, IERC165)\n        returns (bool)\n    {\n        return interfaceId == type(IERC165).interfaceId;\n    }\n\n    //\n\n    constructor() ERC721(\"NOAPs\", \"NOAP\") {\n        _registerInterface(_INTERFACE_ID_ERC2981);\n\n        // hardcode the trusted forwarded for EIP2771 metatransactions\n        _setTrustedForwarder(0x86C80a8aa58e0A4fa09A69624c31Ab2a6CAD56b8); // xDAI trusted forwarder\n    }\n\n    /**\n     * Mint a single token\n     */\n    function mint(\n        uint256 eventID,\n        address recipient,\n        uint256 requestID\n    ) external timeStampReached(eventID) {\n        requests[requestID].minted = true;\n        Evt storage evt = evts[eventID];\n        require(\n            evt.limitSupply > evt.tokens.length(),\n            \"the total supply for this event is reached!\"\n        );\n        require(!evt.ended, \"Event Ended\");\n        _checkSenderIsMinter(evt);\n        _mintEventToken(recipient, eventID);\n    }\n\n    function bytesToAddress(bytes memory bys) private pure returns (address addr) {\n        assembly {\n            addr := mload(add(bys, 32))\n        }\n    }\n\n    /**\n     * Mint multiple tokens for a single event\n     */\n    function mintBatch(\n        uint256 eventID,\n        bytes[] memory recipients,\n        uint256[] memory requestIds\n    ) external timeStampReached(eventID) {\n        Evt storage evt = evts[eventID];\n        require(!evt.ended, \"Event Ended\");\n        _checkSenderIsMinter(evt);\n        address[] memory addr;\n\n        for (uint256 i = 0; i < requestIds.length; i++) {\n            requests[i].minted = true;\n        }\n\n        for (uint256 i = 0; i < recipients.length; i++) {\n            addr[i] = bytesToAddress(recipients[i]);\n        }\n\n        for (uint256 i = 0; i < recipients.length; i++) {\n            _mintEventToken(addr[i], eventID);\n        }\n    }\n\n    /**\n     * Create an event based on the metadata URI.\n     * The caller is the sole minter.\n     * Each event is a unique <contract, tokenURI> pair and cannot be recreated.\n     */\n    function createEvent(\n        string memory tokenURI,\n        string memory description,\n        string memory name,\n        string memory country,\n        string memory city,\n        bool online,\n        uint256 startdate,\n        uint256 enddate,\n        string memory creatorEmail,\n        uint256 limitSupply\n    ) external returns (uint256) {\n        //address(this) refers to the address of the contract instance\n        bytes32 eventHash = _computeEventHash(address(this), tokenURI);\n\n        uint256 eventID = _createEvent(\n            eventHash,\n            tokenURI,\n            description,\n            name,\n            country,\n            city,\n            online,\n            startdate,\n            enddate,\n            creatorEmail,\n            limitSupply\n        );\n\n        Evt storage evt = evts[eventID];\n        evt.minters.add(_msgSender());\n        evt.royalty = _msgSender();\n\n        userEventIDs[_msgSender()].add(eventID);\n        return eventID;\n    }\n\n    //createRequest(eventId,attender,date)\n\n    //mint for one person\n    //mint for multi-user\n    //add minters\n    //end event\n    /**\n     * Claim a noap\n     * authorized to be done by everyone\n     */\n    function createRequest(\n        uint256 eventID,\n        address attender,\n        string memory date\n    ) external timeStampReached(eventID) {\n        Evt storage evt = evts[eventID];\n        require(!evt.ended, \"Event Ended\");\n        uint256 requestID = ++requestIDCounter;\n        requests[requestID].eventID = eventID;\n        requests[requestID].attender = attender;\n        requests[requestID].date = date;\n        requests[requestID].minted = false;\n        eventRequestIDs[eventID].add(requestID);\n    }\n\n    /**\n     * Token minting from other contracts (burned and reminted here) cannot be halted.\n     */\n    function endEvent(uint256 eventID) external {\n        Evt storage evt = evts[eventID];\n        _checkSenderIsMinter(evt);\n        evt.ended = true;\n    }\n\n    /**\n     * Add a minter to the event. Minter can create infinite tokens. Caller must be a minter\n     */\n    function addEventMinter(uint256 eventID, address minter) external {\n        Evt storage evt = evts[eventID];\n        _checkSenderIsMinter(evt);\n        evt.minters.add(minter);\n\n        userEventIDs[minter].add(eventID);\n    }\n\n    function renounceEventMinter(uint256 eventID) external {\n        Evt storage evt = evts[eventID];\n        _checkSenderIsMinter(evt);\n        evt.minters.remove(_msgSender());\n\n        userEventIDs[_msgSender()].remove(eventID);\n    }\n\n    function _checkSenderIsMinter(Evt storage evt) internal view {\n        require(evt.minters.contains(_msgSender()), \"Not event minter\");\n    }\n\n    function _createEvent(\n        bytes32 eventHash,\n        string memory tokenURI,\n        string memory description,\n        string memory name,\n        string memory country,\n        string memory city,\n        bool online,\n        uint256  startdate,\n        uint256  enddate,\n        string memory creatorEmail,\n        uint256 limitSupply\n    ) internal returns (uint256) {\n        require(hashToEventID[eventHash] == _NULL_EVENT_ID, \"Event already created\");\n\n        uint256 eventID = ++eventIDCounter;\n        evts[eventID].tokenURI = tokenURI;\n        evts[eventID].description = description;\n        evts[eventID].name = name;\n        evts[eventID].country = country;\n        evts[eventID].city = city;\n        evts[eventID].startdate = startdate;\n        evts[eventID].endDate = enddate;\n        evts[eventID].creatorEmail = creatorEmail;\n        evts[eventID].online = online;\n        evts[eventID].limitSupply = limitSupply;\n        events[name] = eventID;\n\n        // Map the event hash back to the Event\n        hashToEventID[eventHash] = eventID;\n\n        return eventID;\n    }\n\n    function _mintEventToken(address recipient, uint256 eventID) internal {\n        // Mint the token. ID is generated by hashing the source contract and id, bitmasked for shortness\n        uint256 tokenID = ++tokenIDCounter;\n        _mint(recipient, tokenID);\n\n        // Increment the minted counter\n        evts[eventID].tokens.add(tokenID);\n\n        // Map the token back to the Event\n        tokenToEventID[tokenID] = eventID;\n    }\n\n    function _computeEventHash(address tokenContract, string memory tokenURI)\n        internal\n        pure\n        returns (bytes32)\n    {\n        return keccak256(abi.encode(tokenContract, tokenURI));\n    }\n\n    function getEventMinterTotal(uint256 eventID) public view returns (uint256) {\n        return evts[eventID].minters.length();\n    }\n\n    //this is what I added\n    function getRequestUser(uint256 requestId) public view returns (address) {\n        return requests[requestId].attender;\n    }\n\n    function getRequestDate(uint256 requestId) public view returns (string memory) {\n        return requests[requestId].date;\n    }\n\n    function getRequestIsMinted(uint256 requestId) public view returns (bool) {\n        return requests[requestId].minted;\n    }\n\n    function getEventDescription(uint256 eventID) public view returns (string memory) {\n        return evts[eventID].description;\n    }\n\n    function getEventName(uint256 eventID) public view returns (string memory) {\n        return evts[eventID].name;\n    }\n\n    function getEventIdByName(string memory name) public view returns (uint256) {\n        return events[name];\n    }\n\n    function getEventCountry(uint256 eventID) public view returns (string memory) {\n        return evts[eventID].country;\n    }\n\n    function getEventCity(uint256 eventID) public view returns (string memory) {\n        return evts[eventID].city;\n    }\n\n    function getCreatorEmail(uint256 eventID) public view returns (string memory) {\n        return evts[eventID].creatorEmail;\n    }\n\n    function getEventMinterAt(uint256 eventID, uint256 index) public view returns (address) {\n        return evts[eventID].minters.at(index);\n    }\n\n    function getEventEndDate(uint256 eventID) public view returns (uint256) {\n        return evts[eventID].endDate;\n    }\n    function getEventStartDate(uint256 eventID) public view returns (uint256) {\n        return evts[eventID].startdate;\n    }\n\n    function getEventIsOnline(uint256 eventID) public view returns (bool) {\n        return evts[eventID].online;\n    }\n\n    function getEventIsMinter(uint256 eventID, address addr) public view returns (bool) {\n        return evts[eventID].minters.contains(addr);\n    }\n\n    function getEventTokenSupply(uint256 eventID) public view returns (uint256) {\n        return evts[eventID].tokens.length();\n    }\n\n    function getEventTokenURI(uint256 eventID) public view returns (string memory) {\n        return evts[eventID].tokenURI;\n    }\n\n    function getEventTokenIDAt(uint256 eventID, uint256 index) public view returns (uint256) {\n        return evts[eventID].tokens.at(index);\n    }\n\n    function getEventTokenIDs(uint256 eventID) public view returns (uint256[] memory) {\n        uint256 supply = getEventTokenSupply(eventID);\n        uint256[] memory tokenIDs = new uint256[](supply);\n        for (uint256 i = 0; i < tokenIDs.length; i++) {\n            tokenIDs[i] = getEventTokenIDAt(eventID, i);\n        }\n        return tokenIDs;\n    }\n\n    function getEventTokenHolders(uint256 eventID) public view returns (address[] memory) {\n        uint256 supply = getEventTokenSupply(eventID);\n        address[] memory owners = new address[](supply);\n        for (uint256 i = 0; i < owners.length; i++) {\n            owners[i] = ownerOf(getEventTokenIDAt(eventID, i));\n        }\n        return owners;\n    }\n\n    function getEventEnded(uint256 eventID) public view returns (bool) {\n        return evts[eventID].ended;\n    }\n\n    function getEventRoyaltyAddress(uint256 eventID) public view returns (address) {\n        return evts[eventID].royalty;\n    }\n\n    function getLastTokenID() public view returns (uint256) {\n        return tokenIDCounter;\n    }\n\n    \n\n    function getLastEventID() public view returns (uint256) {\n        return eventIDCounter;\n    }\n\n    function getUserEventTotal(address user) public view returns (uint256) {\n        return userEventIDs[user].length();\n    }\n\n    function getRequestsLength(uint256 eventID) public view returns (uint256) {\n        return eventRequestIDs[eventID].length();\n    }\n\n    function getUserEventAt(address user, uint256 index) public view returns (uint256) {\n        return userEventIDs[user].at(index);\n    }\n\n    function getEventRequestAt(uint256 eventID, uint256 index) public view returns (uint256) {\n        return eventRequestIDs[eventID].at(index);\n    }\n\n    function getUserEventIDs(address user) public view returns (uint256[] memory) {\n        uint256 numEvents = getUserEventTotal(user);\n        uint256[] memory eventIDs = new uint256[](numEvents);\n        for (uint256 i = 0; i < numEvents; i++) {\n            eventIDs[i] = getUserEventAt(user, i);\n        }\n        return eventIDs;\n    }\n\n    function getEventRequestIDs(uint256 eventID) public view returns (uint256[] memory) {\n        uint256 totalRequests = getRequestsLength(eventID);\n        uint256[] memory requestIDs = new uint256[](totalRequests);\n        for (uint256 i = 0; i < totalRequests; i++) {\n            requestIDs[i] = getEventRequestAt(eventID, i);\n        }\n        return requestIDs;\n    }\n\n    /**\n     * ERC2981 royalty implementation\n     * For events created using this contract, we hardcode a 10% resale royalty the corresponding tokens\n     * The recipient of this royalty is controlled by the event minters.\n     */\n    function royaltyInfo(uint256 tokenID, uint256 salePrice)\n        external\n        view\n        override\n        returns (address, uint256)\n    {\n        address royalty = evts[tokenToEventID[tokenID]].royalty;\n        if (royalty == _NULL_ADDRESS) {\n            // For tokens that are burned and reminted,\n            // we don't track the creator, so zero royalties.\n            return (_NULL_ADDRESS, 0);\n        }\n\n        return (royalty, salePrice / 10);\n    }\n\n    /**\n     * Allow any of the event minters to change the royalty recipient\n     */\n    function changeRoyaltyReceiver(uint256 eventID, address receiver) external {\n        Evt storage evt = evts[eventID];\n        _checkSenderIsMinter(evt);\n        evt.royalty = receiver;\n    }\n\n    \n\n    /* -- END ERC2981 methods */\n\n    /**\n     * Overwrite the default `tokenURI` getter.\n     * Since all events have the same tokenURI, resolve tokenIDs to events load the URI from the event\n     */\n    //this will make a warning because it is the same name as tokenURI variable\n    function tokenURI(uint256 tokenID) public view virtual override returns (string memory) {\n        require(_exists(tokenID), \"ERC721Metadata: URI query for nonexistent token\");\n        return evts[tokenToEventID[tokenID]].tokenURI;\n    }\n\n    function burn(uint256 tokenID) public virtual override {\n        super.burn(tokenID);\n        evts[tokenToEventID[tokenID]].tokens.remove(tokenID);\n    }\n\n    function isApprovedOrOwner(address spender, uint256 tokenID) external view returns (bool) {\n        return _isApprovedOrOwner(spender, tokenID);\n    }\n\n    /* -- BEGIN batch methods */\n    function burnBatch(uint256[] memory tokenIDs) external {\n        for (uint256 i = 0; i < tokenIDs.length; ++i) {\n            burn(tokenIDs[i]);\n        }\n    }\n\n    function approveBatch(address[] memory tos, uint256[] memory tokenIDs) external {\n        require(tos.length == tokenIDs.length, ERROR_INVALID_INPUTS);\n        for (uint256 i = 0; i < tos.length; ++i) {\n            approve(tos[i], tokenIDs[i]);\n        }\n    }\n\n    function transferFromBatch(\n        address[] memory froms,\n        address[] memory tos,\n        uint256[] memory tokenIDs\n    ) external {\n        require(\n            froms.length == tos.length && froms.length == tokenIDs.length,\n            ERROR_INVALID_INPUTS\n        );\n        for (uint256 i = 0; i < froms.length; ++i) {\n            transferFrom(froms[i], tos[i], tokenIDs[i]);\n        }\n    }\n\n    function safeTransferFromBatch(\n        address[] memory froms,\n        address[] memory tos,\n        uint256[] memory tokenIDs\n    ) external {\n        require(\n            froms.length == tos.length && froms.length == tokenIDs.length,\n            ERROR_INVALID_INPUTS\n        );\n        for (uint256 i = 0; i < froms.length; ++i) {\n            safeTransferFrom(froms[i], tos[i], tokenIDs[i], \"\");\n        }\n    }\n\n    function safeTransferFromWithDataBatch(\n        address[] memory froms,\n        address[] memory tos,\n        uint256[] memory tokenIDs,\n        bytes[] memory datas\n    ) external {\n        require(\n            froms.length == tos.length &&\n                froms.length == tokenIDs.length &&\n                froms.length == datas.length,\n            ERROR_INVALID_INPUTS\n        );\n        for (uint256 i = 0; i < froms.length; ++i) {\n            safeTransferFrom(froms[i], tos[i], tokenIDs[i], datas[i]);\n        }\n    }\n\n    /* -- END batch methods */\n\n    /* -- BEGIN IRelayRecipient overrides -- */\n    function _msgSender() internal view override(Context, BaseRelayRecipient) returns (address) {\n        return BaseRelayRecipient._msgSender();\n    }\n\n    string public override versionRecipient = \"1\";\n    /* -- END IRelayRecipient overrides -- */\n}\n",
  "sourcePath": "/home/senyou/freecodecamp/PBC/NOAP/contracts/NOAP.sol",
  "compiler": {
    "name": "solc",
    "version": "0.8.16+commit.07a7930e.Emscripten.clang"
  },
  "schemaVersion": "3.4.9",
  "updatedAt": "2022-10-07T19:33:44.114Z",
  "networkType": "ethereum",
  "devdoc": {
    "kind": "dev",
    "methods": {
      "approve(address,uint256)": {
        "details": "See {IERC721-approve}."
      },
      "balanceOf(address)": {
        "details": "See {IERC721-balanceOf}."
      },
      "getApproved(uint256)": {
        "details": "See {IERC721-getApproved}."
      },
      "isApprovedForAll(address,address)": {
        "details": "See {IERC721-isApprovedForAll}."
      },
      "name()": {
        "details": "See {IERC721Metadata-name}."
      },
      "ownerOf(uint256)": {
        "details": "See {IERC721-ownerOf}."
      },
      "safeTransferFrom(address,address,uint256)": {
        "details": "See {IERC721-safeTransferFrom}."
      },
      "safeTransferFrom(address,address,uint256,bytes)": {
        "details": "See {IERC721-safeTransferFrom}."
      },
      "setApprovalForAll(address,bool)": {
        "details": "See {IERC721-setApprovalForAll}."
      },
      "symbol()": {
        "details": "See {IERC721Metadata-symbol}."
      },
      "transferFrom(address,address,uint256)": {
        "details": "See {IERC721-transferFrom}."
      }
    },
    "version": 1
  },
  "userdoc": {
    "kind": "user",
    "methods": {
      "addEventMinter(uint256,address)": {
        "notice": "Add a minter to the event. Minter can create infinite tokens. Caller must be a minter"
      },
      "changeRoyaltyReceiver(uint256,address)": {
        "notice": "Allow any of the event minters to change the royalty recipient"
      },
      "createEvent(string,string,string,string,string,bool,uint256,uint256,string,uint256)": {
        "notice": "Create an event based on the metadata URI. The caller is the sole minter. Each event is a unique <contract, tokenURI> pair and cannot be recreated."
      },
      "createRequest(uint256,address,string)": {
        "notice": "Claim a noap authorized to be done by everyone"
      },
      "endEvent(uint256)": {
        "notice": "Token minting from other contracts (burned and reminted here) cannot be halted."
      },
      "isTrustedForwarder(address)": {
        "notice": "return if the forwarder is trusted to forward relayed transactions to us. the forwarder is required to verify the sender's signature, and verify the call is not a replay."
      },
      "mint(uint256,address,uint256)": {
        "notice": "Mint a single token"
      },
      "mintBatch(uint256,bytes[],uint256[])": {
        "notice": "Mint multiple tokens for a single event"
      },
      "royaltyInfo(uint256,uint256)": {
        "notice": "ERC2981 royalty implementation For events created using this contract, we hardcode a 10% resale royalty the corresponding tokens The recipient of this royalty is controlled by the event minters."
      },
      "tokenURI(uint256)": {
        "notice": "Overwrite the default `tokenURI` getter. Since all events have the same tokenURI, resolve tokenIDs to events load the URI from the event"
      }
    },
    "version": 1
  }
}