{
  "contractName": "Test721",
  "abi": [
    {
      "inputs": [],
      "stateMutability": "nonpayable",
      "type": "constructor"
    },
    {
      "anonymous": false,
      "inputs": [
        {
          "indexed": true,
          "internalType": "address",
          "name": "owner",
          "type": "address"
        },
        {
          "indexed": true,
          "internalType": "address",
          "name": "approved",
          "type": "address"
        },
        {
          "indexed": true,
          "internalType": "uint256",
          "name": "tokenId",
          "type": "uint256"
        }
      ],
      "name": "Approval",
      "type": "event"
    },
    {
      "anonymous": false,
      "inputs": [
        {
          "indexed": true,
          "internalType": "address",
          "name": "owner",
          "type": "address"
        },
        {
          "indexed": true,
          "internalType": "address",
          "name": "operator",
          "type": "address"
        },
        {
          "indexed": false,
          "internalType": "bool",
          "name": "approved",
          "type": "bool"
        }
      ],
      "name": "ApprovalForAll",
      "type": "event"
    },
    {
      "anonymous": false,
      "inputs": [
        {
          "indexed": true,
          "internalType": "address",
          "name": "from",
          "type": "address"
        },
        {
          "indexed": true,
          "internalType": "address",
          "name": "to",
          "type": "address"
        },
        {
          "indexed": true,
          "internalType": "uint256",
          "name": "tokenId",
          "type": "uint256"
        }
      ],
      "name": "Transfer",
      "type": "event"
    },
    {
      "inputs": [
        {
          "internalType": "address",
          "name": "to",
          "type": "address"
        },
        {
          "internalType": "uint256",
          "name": "tokenId",
          "type": "uint256"
        }
      ],
      "name": "approve",
      "outputs": [],
      "stateMutability": "nonpayable",
      "type": "function"
    },
    {
      "inputs": [
        {
          "internalType": "address",
          "name": "owner",
          "type": "address"
        }
      ],
      "name": "balanceOf",
      "outputs": [
        {
          "internalType": "uint256",
          "name": "",
          "type": "uint256"
        }
      ],
      "stateMutability": "view",
      "type": "function"
    },
    {
      "inputs": [
        {
          "internalType": "uint256",
          "name": "tokenId",
          "type": "uint256"
        }
      ],
      "name": "getApproved",
      "outputs": [
        {
          "internalType": "address",
          "name": "",
          "type": "address"
        }
      ],
      "stateMutability": "view",
      "type": "function"
    },
    {
      "inputs": [
        {
          "internalType": "address",
          "name": "owner",
          "type": "address"
        },
        {
          "internalType": "address",
          "name": "operator",
          "type": "address"
        }
      ],
      "name": "isApprovedForAll",
      "outputs": [
        {
          "internalType": "bool",
          "name": "",
          "type": "bool"
        }
      ],
      "stateMutability": "view",
      "type": "function"
    },
    {
      "inputs": [],
      "name": "name",
      "outputs": [
        {
          "internalType": "string",
          "name": "",
          "type": "string"
        }
      ],
      "stateMutability": "view",
      "type": "function"
    },
    {
      "inputs": [
        {
          "internalType": "uint256",
          "name": "tokenId",
          "type": "uint256"
        }
      ],
      "name": "ownerOf",
      "outputs": [
        {
          "internalType": "address",
          "name": "",
          "type": "address"
        }
      ],
      "stateMutability": "view",
      "type": "function"
    },
    {
      "inputs": [
        {
          "internalType": "address",
          "name": "from",
          "type": "address"
        },
        {
          "internalType": "address",
          "name": "to",
          "type": "address"
        },
        {
          "internalType": "uint256",
          "name": "tokenId",
          "type": "uint256"
        }
      ],
      "name": "safeTransferFrom",
      "outputs": [],
      "stateMutability": "nonpayable",
      "type": "function"
    },
    {
      "inputs": [
        {
          "internalType": "address",
          "name": "from",
          "type": "address"
        },
        {
          "internalType": "address",
          "name": "to",
          "type": "address"
        },
        {
          "internalType": "uint256",
          "name": "tokenId",
          "type": "uint256"
        },
        {
          "internalType": "bytes",
          "name": "data",
          "type": "bytes"
        }
      ],
      "name": "safeTransferFrom",
      "outputs": [],
      "stateMutability": "nonpayable",
      "type": "function"
    },
    {
      "inputs": [
        {
          "internalType": "address",
          "name": "operator",
          "type": "address"
        },
        {
          "internalType": "bool",
          "name": "approved",
          "type": "bool"
        }
      ],
      "name": "setApprovalForAll",
      "outputs": [],
      "stateMutability": "nonpayable",
      "type": "function"
    },
    {
      "inputs": [
        {
          "internalType": "bytes4",
          "name": "interfaceId",
          "type": "bytes4"
        }
      ],
      "name": "supportsInterface",
      "outputs": [
        {
          "internalType": "bool",
          "name": "",
          "type": "bool"
        }
      ],
      "stateMutability": "view",
      "type": "function"
    },
    {
      "inputs": [],
      "name": "symbol",
      "outputs": [
        {
          "internalType": "string",
          "name": "",
          "type": "string"
        }
      ],
      "stateMutability": "view",
      "type": "function"
    },
    {
      "inputs": [
        {
          "internalType": "uint256",
          "name": "tokenId",
          "type": "uint256"
        }
      ],
      "name": "tokenURI",
      "outputs": [
        {
          "internalType": "string",
          "name": "",
          "type": "string"
        }
      ],
      "stateMutability": "view",
      "type": "function"
    },
    {
      "inputs": [
        {
          "internalType": "address",
          "name": "from",
          "type": "address"
        },
        {
          "internalType": "address",
          "name": "to",
          "type": "address"
        },
        {
          "internalType": "uint256",
          "name": "tokenId",
          "type": "uint256"
        }
      ],
      "name": "transferFrom",
      "outputs": [],
      "stateMutability": "nonpayable",
      "type": "function"
    },
    {
      "inputs": [
        {
          "internalType": "uint256",
          "name": "tokenID",
          "type": "uint256"
        },
        {
          "internalType": "address",
          "name": "recipient",
          "type": "address"
        },
        {
          "internalType": "string",
          "name": "tokenURI",
          "type": "string"
        }
      ],
      "name": "mint",
      "outputs": [],
      "stateMutability": "nonpayable",
      "type": "function"
    }
  ],
  "bytecode": "0x60806040523480156200001157600080fd5b506040518060400160405280600581526020017f54455354730000000000000000000000000000000000000000000000000000008152506040518060400160405280600481526020017f544553540000000000000000000000000000000000000000000000000000000081525081600090816200008f919062000324565b508060019081620000a1919062000324565b5050506200040b565b600081519050919050565b7f4e487b7100000000000000000000000000000000000000000000000000000000600052604160045260246000fd5b7f4e487b7100000000000000000000000000000000000000000000000000000000600052602260045260246000fd5b600060028204905060018216806200012c57607f821691505b602082108103620001425762000141620000e4565b5b50919050565b60008190508160005260206000209050919050565b60006020601f8301049050919050565b600082821b905092915050565b600060088302620001ac7fffffffffffffffffffffffffffffffffffffffffffffffffffffffffffffffff826200016d565b620001b886836200016d565b95508019841693508086168417925050509392505050565b6000819050919050565b6000819050919050565b600062000205620001ff620001f984620001d0565b620001da565b620001d0565b9050919050565b6000819050919050565b6200022183620001e4565b6200023962000230826200020c565b8484546200017a565b825550505050565b600090565b6200025062000241565b6200025d81848462000216565b505050565b5b8181101562000285576200027960008262000246565b60018101905062000263565b5050565b601f821115620002d4576200029e8162000148565b620002a9846200015d565b81016020851015620002b9578190505b620002d1620002c8856200015d565b83018262000262565b50505b505050565b600082821c905092915050565b6000620002f960001984600802620002d9565b1980831691505092915050565b6000620003148383620002e6565b9150826002028217905092915050565b6200032f82620000aa565b67ffffffffffffffff8111156200034b576200034a620000b5565b5b62000357825462000113565b6200036482828562000289565b600060209050601f8311600181146200039c576000841562000387578287015190505b62000393858262000306565b86555062000403565b601f198416620003ac8662000148565b60005b82811015620003d657848901518255600182019150602085019450602081019050620003af565b86831015620003f65784890151620003f2601f891682620002e6565b8355505b6001600288020188555050505b505050505050565b6129f3806200041b6000396000f3fe608060405234801561001057600080fd5b50600436106100ea5760003560e01c806370a082311161008c578063b88d4fde11610066578063b88d4fde1461025b578063c87b56dd14610277578063e67e402c146102a7578063e985e9c5146102c3576100ea565b806370a08231146101f157806395d89b4114610221578063a22cb4651461023f576100ea565b8063095ea7b3116100c8578063095ea7b31461016d57806323b872dd1461018957806342842e0e146101a55780636352211e146101c1576100ea565b806301ffc9a7146100ef57806306fdde031461011f578063081812fc1461013d575b600080fd5b6101096004803603810190610104919061175f565b6102f3565b60405161011691906117a7565b60405180910390f35b6101276103d5565b6040516101349190611852565b60405180910390f35b610157600480360381019061015291906118aa565b610467565b6040516101649190611918565b60405180910390f35b6101876004803603810190610182919061195f565b6104ad565b005b6101a3600480360381019061019e919061199f565b6105c4565b005b6101bf60048036038101906101ba919061199f565b610624565b005b6101db60048036038101906101d691906118aa565b610644565b6040516101e89190611918565b60405180910390f35b61020b600480360381019061020691906119f2565b6106f5565b6040516102189190611a2e565b60405180910390f35b6102296107ac565b6040516102369190611852565b60405180910390f35b61025960048036038101906102549190611a75565b61083e565b005b61027560048036038101906102709190611bea565b610854565b005b610291600480360381019061028c91906118aa565b6108b6565b60405161029e9190611852565b60405180910390f35b6102c160048036038101906102bc9190611d0e565b6109c8565b005b6102dd60048036038101906102d89190611d7d565b6109e1565b6040516102ea91906117a7565b60405180910390f35b60007f80ac58cd000000000000000000000000000000000000000000000000000000007bffffffffffffffffffffffffffffffffffffffffffffffffffffffff1916827bffffffffffffffffffffffffffffffffffffffffffffffffffffffff191614806103be57507f5b5e139f000000000000000000000000000000000000000000000000000000007bffffffffffffffffffffffffffffffffffffffffffffffffffffffff1916827bffffffffffffffffffffffffffffffffffffffffffffffffffffffff1916145b806103ce57506103cd82610a75565b5b9050919050565b6060600080546103e490611dec565b80601f016020809104026020016040519081016040528092919081815260200182805461041090611dec565b801561045d5780601f106104325761010080835404028352916020019161045d565b820191906000526020600020905b81548152906001019060200180831161044057829003601f168201915b5050505050905090565b600061047282610adf565b6004600083815260200190815260200160002060009054906101000a900473ffffffffffffffffffffffffffffffffffffffff169050919050565b60006104b882610644565b90508073ffffffffffffffffffffffffffffffffffffffff168373ffffffffffffffffffffffffffffffffffffffff1603610528576040517f08c379a000000000000000000000000000000000000000000000000000000000815260040161051f90611e8f565b60405180910390fd5b8073ffffffffffffffffffffffffffffffffffffffff16610547610b2a565b73ffffffffffffffffffffffffffffffffffffffff161480610576575061057581610570610b2a565b6109e1565b5b6105b5576040517f08c379a00000000000000000000000000000000000000000000000000000000081526004016105ac90611f21565b60405180910390fd5b6105bf8383610b32565b505050565b6105d56105cf610b2a565b82610beb565b610614576040517f08c379a000000000000000000000000000000000000000000000000000000000815260040161060b90611fb3565b60405180910390fd5b61061f838383610c80565b505050565b61063f83838360405180602001604052806000815250610854565b505050565b6000806002600084815260200190815260200160002060009054906101000a900473ffffffffffffffffffffffffffffffffffffffff169050600073ffffffffffffffffffffffffffffffffffffffff168173ffffffffffffffffffffffffffffffffffffffff16036106ec576040517f08c379a00000000000000000000000000000000000000000000000000000000081526004016106e39061201f565b60405180910390fd5b80915050919050565b60008073ffffffffffffffffffffffffffffffffffffffff168273ffffffffffffffffffffffffffffffffffffffff1603610765576040517f08c379a000000000000000000000000000000000000000000000000000000000815260040161075c906120b1565b60405180910390fd5b600360008373ffffffffffffffffffffffffffffffffffffffff1673ffffffffffffffffffffffffffffffffffffffff168152602001908152602001600020549050919050565b6060600180546107bb90611dec565b80601f01602080910402602001604051908101604052809291908181526020018280546107e790611dec565b80156108345780601f1061080957610100808354040283529160200191610834565b820191906000526020600020905b81548152906001019060200180831161081757829003601f168201915b5050505050905090565b610850610849610b2a565b8383610ee6565b5050565b61086561085f610b2a565b83610beb565b6108a4576040517f08c379a000000000000000000000000000000000000000000000000000000000815260040161089b90611fb3565b60405180910390fd5b6108b084848484611052565b50505050565b60606108c182610adf565b60006006600084815260200190815260200160002080546108e190611dec565b80601f016020809104026020016040519081016040528092919081815260200182805461090d90611dec565b801561095a5780601f1061092f5761010080835404028352916020019161095a565b820191906000526020600020905b81548152906001019060200180831161093d57829003601f168201915b50505050509050600061096b6110ae565b905060008151036109805781925050506109c3565b6000825111156109b557808260405160200161099d92919061210d565b604051602081830303815290604052925050506109c3565b6109be846110c5565b925050505b919050565b6109d2828461112d565b6109dc8382611306565b505050565b6000600560008473ffffffffffffffffffffffffffffffffffffffff1673ffffffffffffffffffffffffffffffffffffffff16815260200190815260200160002060008373ffffffffffffffffffffffffffffffffffffffff1673ffffffffffffffffffffffffffffffffffffffff16815260200190815260200160002060009054906101000a900460ff16905092915050565b60007f01ffc9a7000000000000000000000000000000000000000000000000000000007bffffffffffffffffffffffffffffffffffffffffffffffffffffffff1916827bffffffffffffffffffffffffffffffffffffffffffffffffffffffff1916149050919050565b610ae881611373565b610b27576040517f08c379a0000000000000000000000000000000000000000000000000000000008152600401610b1e9061201f565b60405180910390fd5b50565b600033905090565b816004600083815260200190815260200160002060006101000a81548173ffffffffffffffffffffffffffffffffffffffff021916908373ffffffffffffffffffffffffffffffffffffffff160217905550808273ffffffffffffffffffffffffffffffffffffffff16610ba583610644565b73ffffffffffffffffffffffffffffffffffffffff167f8c5be1e5ebec7d5bd14f71427d1e84f3dd0314c0f7b2291e5b200ac8c7c3b92560405160405180910390a45050565b600080610bf783610644565b90508073ffffffffffffffffffffffffffffffffffffffff168473ffffffffffffffffffffffffffffffffffffffff161480610c395750610c3881856109e1565b5b80610c7757508373ffffffffffffffffffffffffffffffffffffffff16610c5f84610467565b73ffffffffffffffffffffffffffffffffffffffff16145b91505092915050565b8273ffffffffffffffffffffffffffffffffffffffff16610ca082610644565b73ffffffffffffffffffffffffffffffffffffffff1614610cf6576040517f08c379a0000000000000000000000000000000000000000000000000000000008152600401610ced906121a3565b60405180910390fd5b600073ffffffffffffffffffffffffffffffffffffffff168273ffffffffffffffffffffffffffffffffffffffff1603610d65576040517f08c379a0000000000000000000000000000000000000000000000000000000008152600401610d5c90612235565b60405180910390fd5b610d708383836113df565b610d7b600082610b32565b6001600360008573ffffffffffffffffffffffffffffffffffffffff1673ffffffffffffffffffffffffffffffffffffffff1681526020019081526020016000206000828254610dcb9190612284565b925050819055506001600360008473ffffffffffffffffffffffffffffffffffffffff1673ffffffffffffffffffffffffffffffffffffffff1681526020019081526020016000206000828254610e2291906122b8565b92505081905550816002600083815260200190815260200160002060006101000a81548173ffffffffffffffffffffffffffffffffffffffff021916908373ffffffffffffffffffffffffffffffffffffffff160217905550808273ffffffffffffffffffffffffffffffffffffffff168473ffffffffffffffffffffffffffffffffffffffff167fddf252ad1be2c89b69c2b068fc378daa952ba7f163c4a11628f55a4df523b3ef60405160405180910390a4610ee18383836113e4565b505050565b8173ffffffffffffffffffffffffffffffffffffffff168373ffffffffffffffffffffffffffffffffffffffff1603610f54576040517f08c379a0000000000000000000000000000000000000000000000000000000008152600401610f4b90612338565b60405180910390fd5b80600560008573ffffffffffffffffffffffffffffffffffffffff1673ffffffffffffffffffffffffffffffffffffffff16815260200190815260200160002060008473ffffffffffffffffffffffffffffffffffffffff1673ffffffffffffffffffffffffffffffffffffffff16815260200190815260200160002060006101000a81548160ff0219169083151502179055508173ffffffffffffffffffffffffffffffffffffffff168373ffffffffffffffffffffffffffffffffffffffff167f17307eab39ab6107e8899845ad3d59bd9653f200f220920489ca2b5937696c318360405161104591906117a7565b60405180910390a3505050565b61105d848484610c80565b611069848484846113e9565b6110a8576040517f08c379a000000000000000000000000000000000000000000000000000000000815260040161109f906123ca565b60405180910390fd5b50505050565b606060405180602001604052806000815250905090565b60606110d082610adf565b60006110da6110ae565b905060008151116110fa5760405180602001604052806000815250611125565b8061110484611570565b60405160200161111592919061210d565b6040516020818303038152906040525b915050919050565b600073ffffffffffffffffffffffffffffffffffffffff168273ffffffffffffffffffffffffffffffffffffffff160361119c576040517f08c379a000000000000000000000000000000000000000000000000000000000815260040161119390612436565b60405180910390fd5b6111a581611373565b156111e5576040517f08c379a00000000000000000000000000000000000000000000000000000000081526004016111dc906124a2565b60405180910390fd5b6111f1600083836113df565b6001600360008473ffffffffffffffffffffffffffffffffffffffff1673ffffffffffffffffffffffffffffffffffffffff168152602001908152602001600020600082825461124191906122b8565b92505081905550816002600083815260200190815260200160002060006101000a81548173ffffffffffffffffffffffffffffffffffffffff021916908373ffffffffffffffffffffffffffffffffffffffff160217905550808273ffffffffffffffffffffffffffffffffffffffff16600073ffffffffffffffffffffffffffffffffffffffff167fddf252ad1be2c89b69c2b068fc378daa952ba7f163c4a11628f55a4df523b3ef60405160405180910390a4611302600083836113e4565b5050565b61130f82611373565b61134e576040517f08c379a000000000000000000000000000000000000000000000000000000000815260040161134590612534565b60405180910390fd5b8060066000848152602001908152602001600020908161136e9190612700565b505050565b60008073ffffffffffffffffffffffffffffffffffffffff166002600084815260200190815260200160002060009054906101000a900473ffffffffffffffffffffffffffffffffffffffff1673ffffffffffffffffffffffffffffffffffffffff1614159050919050565b505050565b505050565b600061140a8473ffffffffffffffffffffffffffffffffffffffff166116d0565b15611563578373ffffffffffffffffffffffffffffffffffffffff1663150b7a02611433610b2a565b8786866040518563ffffffff1660e01b81526004016114559493929190612827565b6020604051808303816000875af192505050801561149157506040513d601f19601f8201168201806040525081019061148e9190612888565b60015b611513573d80600081146114c1576040519150601f19603f3d011682016040523d82523d6000602084013e6114c6565b606091505b50600081510361150b576040517f08c379a0000000000000000000000000000000000000000000000000000000008152600401611502906123ca565b60405180910390fd5b805181602001fd5b63150b7a0260e01b7bffffffffffffffffffffffffffffffffffffffffffffffffffffffff1916817bffffffffffffffffffffffffffffffffffffffffffffffffffffffff191614915050611568565b600190505b949350505050565b6060600082036115b7576040518060400160405280600181526020017f300000000000000000000000000000000000000000000000000000000000000081525090506116cb565b600082905060005b600082146115e95780806115d2906128b5565b915050600a826115e2919061292c565b91506115bf565b60008167ffffffffffffffff81111561160557611604611abf565b5b6040519080825280601f01601f1916602001820160405280156116375781602001600182028036833780820191505090505b5090505b600085146116c4576001826116509190612284565b9150600a8561165f919061295d565b603061166b91906122b8565b60f81b8183815181106116815761168061298e565b5b60200101907effffffffffffffffffffffffffffffffffffffffffffffffffffffffffffff1916908160001a905350600a856116bd919061292c565b945061163b565b8093505050505b919050565b6000808273ffffffffffffffffffffffffffffffffffffffff163b119050919050565b6000604051905090565b600080fd5b600080fd5b60007fffffffff0000000000000000000000000000000000000000000000000000000082169050919050565b61173c81611707565b811461174757600080fd5b50565b60008135905061175981611733565b92915050565b600060208284031215611775576117746116fd565b5b60006117838482850161174a565b91505092915050565b60008115159050919050565b6117a18161178c565b82525050565b60006020820190506117bc6000830184611798565b92915050565b600081519050919050565b600082825260208201905092915050565b60005b838110156117fc5780820151818401526020810190506117e1565b60008484015250505050565b6000601f19601f8301169050919050565b6000611824826117c2565b61182e81856117cd565b935061183e8185602086016117de565b61184781611808565b840191505092915050565b6000602082019050818103600083015261186c8184611819565b905092915050565b6000819050919050565b61188781611874565b811461189257600080fd5b50565b6000813590506118a48161187e565b92915050565b6000602082840312156118c0576118bf6116fd565b5b60006118ce84828501611895565b91505092915050565b600073ffffffffffffffffffffffffffffffffffffffff82169050919050565b6000611902826118d7565b9050919050565b611912816118f7565b82525050565b600060208201905061192d6000830184611909565b92915050565b61193c816118f7565b811461194757600080fd5b50565b60008135905061195981611933565b92915050565b60008060408385031215611976576119756116fd565b5b60006119848582860161194a565b925050602061199585828601611895565b9150509250929050565b6000806000606084860312156119b8576119b76116fd565b5b60006119c68682870161194a565b93505060206119d78682870161194a565b92505060406119e886828701611895565b9150509250925092565b600060208284031215611a0857611a076116fd565b5b6000611a168482850161194a565b91505092915050565b611a2881611874565b82525050565b6000602082019050611a436000830184611a1f565b92915050565b611a528161178c565b8114611a5d57600080fd5b50565b600081359050611a6f81611a49565b92915050565b60008060408385031215611a8c57611a8b6116fd565b5b6000611a9a8582860161194a565b9250506020611aab85828601611a60565b9150509250929050565b600080fd5b600080fd5b7f4e487b7100000000000000000000000000000000000000000000000000000000600052604160045260246000fd5b611af782611808565b810181811067ffffffffffffffff82111715611b1657611b15611abf565b5b80604052505050565b6000611b296116f3565b9050611b358282611aee565b919050565b600067ffffffffffffffff821115611b5557611b54611abf565b5b611b5e82611808565b9050602081019050919050565b82818337600083830152505050565b6000611b8d611b8884611b3a565b611b1f565b905082815260208101848484011115611ba957611ba8611aba565b5b611bb4848285611b6b565b509392505050565b600082601f830112611bd157611bd0611ab5565b5b8135611be1848260208601611b7a565b91505092915050565b60008060008060808587031215611c0457611c036116fd565b5b6000611c128782880161194a565b9450506020611c238782880161194a565b9350506040611c3487828801611895565b925050606085013567ffffffffffffffff811115611c5557611c54611702565b5b611c6187828801611bbc565b91505092959194509250565b600067ffffffffffffffff821115611c8857611c87611abf565b5b611c9182611808565b9050602081019050919050565b6000611cb1611cac84611c6d565b611b1f565b905082815260208101848484011115611ccd57611ccc611aba565b5b611cd8848285611b6b565b509392505050565b600082601f830112611cf557611cf4611ab5565b5b8135611d05848260208601611c9e565b91505092915050565b600080600060608486031215611d2757611d266116fd565b5b6000611d3586828701611895565b9350506020611d468682870161194a565b925050604084013567ffffffffffffffff811115611d6757611d66611702565b5b611d7386828701611ce0565b9150509250925092565b60008060408385031215611d9457611d936116fd565b5b6000611da28582860161194a565b9250506020611db38582860161194a565b9150509250929050565b7f4e487b7100000000000000000000000000000000000000000000000000000000600052602260045260246000fd5b60006002820490506001821680611e0457607f821691505b602082108103611e1757611e16611dbd565b5b50919050565b7f4552433732313a20617070726f76616c20746f2063757272656e74206f776e6560008201527f7200000000000000000000000000000000000000000000000000000000000000602082015250565b6000611e796021836117cd565b9150611e8482611e1d565b604082019050919050565b60006020820190508181036000830152611ea881611e6c565b9050919050565b7f4552433732313a20617070726f76652063616c6c6572206973206e6f7420746f60008201527f6b656e206f776e6572206e6f7220617070726f76656420666f7220616c6c0000602082015250565b6000611f0b603e836117cd565b9150611f1682611eaf565b604082019050919050565b60006020820190508181036000830152611f3a81611efe565b9050919050565b7f4552433732313a2063616c6c6572206973206e6f7420746f6b656e206f776e6560008201527f72206e6f7220617070726f766564000000000000000000000000000000000000602082015250565b6000611f9d602e836117cd565b9150611fa882611f41565b604082019050919050565b60006020820190508181036000830152611fcc81611f90565b9050919050565b7f4552433732313a20696e76616c696420746f6b656e2049440000000000000000600082015250565b60006120096018836117cd565b915061201482611fd3565b602082019050919050565b6000602082019050818103600083015261203881611ffc565b9050919050565b7f4552433732313a2061646472657373207a65726f206973206e6f74206120766160008201527f6c6964206f776e65720000000000000000000000000000000000000000000000602082015250565b600061209b6029836117cd565b91506120a68261203f565b604082019050919050565b600060208201905081810360008301526120ca8161208e565b9050919050565b600081905092915050565b60006120e7826117c2565b6120f181856120d1565b93506121018185602086016117de565b80840191505092915050565b600061211982856120dc565b915061212582846120dc565b91508190509392505050565b7f4552433732313a207472616e736665722066726f6d20696e636f72726563742060008201527f6f776e6572000000000000000000000000000000000000000000000000000000602082015250565b600061218d6025836117cd565b915061219882612131565b604082019050919050565b600060208201905081810360008301526121bc81612180565b9050919050565b7f4552433732313a207472616e7366657220746f20746865207a65726f2061646460008201527f7265737300000000000000000000000000000000000000000000000000000000602082015250565b600061221f6024836117cd565b915061222a826121c3565b604082019050919050565b6000602082019050818103600083015261224e81612212565b9050919050565b7f4e487b7100000000000000000000000000000000000000000000000000000000600052601160045260246000fd5b600061228f82611874565b915061229a83611874565b92508282039050818111156122b2576122b1612255565b5b92915050565b60006122c382611874565b91506122ce83611874565b92508282019050808211156122e6576122e5612255565b5b92915050565b7f4552433732313a20617070726f766520746f2063616c6c657200000000000000600082015250565b60006123226019836117cd565b915061232d826122ec565b602082019050919050565b6000602082019050818103600083015261235181612315565b9050919050565b7f4552433732313a207472616e7366657220746f206e6f6e20455243373231526560008201527f63656976657220696d706c656d656e7465720000000000000000000000000000602082015250565b60006123b46032836117cd565b91506123bf82612358565b604082019050919050565b600060208201905081810360008301526123e3816123a7565b9050919050565b7f4552433732313a206d696e7420746f20746865207a65726f2061646472657373600082015250565b60006124206020836117cd565b915061242b826123ea565b602082019050919050565b6000602082019050818103600083015261244f81612413565b9050919050565b7f4552433732313a20746f6b656e20616c7265616479206d696e74656400000000600082015250565b600061248c601c836117cd565b915061249782612456565b602082019050919050565b600060208201905081810360008301526124bb8161247f565b9050919050565b7f45524337323155524953746f726167653a2055524920736574206f66206e6f6e60008201527f6578697374656e7420746f6b656e000000000000000000000000000000000000602082015250565b600061251e602e836117cd565b9150612529826124c2565b604082019050919050565b6000602082019050818103600083015261254d81612511565b9050919050565b60008190508160005260206000209050919050565b60006020601f8301049050919050565b600082821b905092915050565b6000600883026125b67fffffffffffffffffffffffffffffffffffffffffffffffffffffffffffffffff82612579565b6125c08683612579565b95508019841693508086168417925050509392505050565b6000819050919050565b60006125fd6125f86125f384611874565b6125d8565b611874565b9050919050565b6000819050919050565b612617836125e2565b61262b61262382612604565b848454612586565b825550505050565b600090565b612640612633565b61264b81848461260e565b505050565b5b8181101561266f57612664600082612638565b600181019050612651565b5050565b601f8211156126b45761268581612554565b61268e84612569565b8101602085101561269d578190505b6126b16126a985612569565b830182612650565b50505b505050565b600082821c905092915050565b60006126d7600019846008026126b9565b1980831691505092915050565b60006126f083836126c6565b9150826002028217905092915050565b612709826117c2565b67ffffffffffffffff81111561272257612721611abf565b5b61272c8254611dec565b612737828285612673565b600060209050601f83116001811461276a5760008415612758578287015190505b61276285826126e4565b8655506127ca565b601f19841661277886612554565b60005b828110156127a05784890151825560018201915060208501945060208101905061277b565b868310156127bd57848901516127b9601f8916826126c6565b8355505b6001600288020188555050505b505050505050565b600081519050919050565b600082825260208201905092915050565b60006127f9826127d2565b61280381856127dd565b93506128138185602086016117de565b61281c81611808565b840191505092915050565b600060808201905061283c6000830187611909565b6128496020830186611909565b6128566040830185611a1f565b818103606083015261286881846127ee565b905095945050505050565b60008151905061288281611733565b92915050565b60006020828403121561289e5761289d6116fd565b5b60006128ac84828501612873565b91505092915050565b60006128c082611874565b91507fffffffffffffffffffffffffffffffffffffffffffffffffffffffffffffffff82036128f2576128f1612255565b5b600182019050919050565b7f4e487b7100000000000000000000000000000000000000000000000000000000600052601260045260246000fd5b600061293782611874565b915061294283611874565b925082612952576129516128fd565b5b828204905092915050565b600061296882611874565b915061297383611874565b925082612983576129826128fd565b5b828206905092915050565b7f4e487b7100000000000000000000000000000000000000000000000000000000600052603260045260246000fdfea2646970667358221220763ff162a59c19149b8ff62239bab643a1c366f85a8ff71850423681438b4baa64736f6c63430008100033",
  "immutableReferences": {},
  "source": "// SPDX-License-Identifier: MIT\n// https://github.com/OpenZeppelin/openzeppelin-contracts/commit/8e0296096449d9b1cd7c5631e917330635244c37\n// import \"../node_modules/@openzeppelin/contracts/token/ERC721/extensions/ERC721Burnable.sol\";\nimport \"../node_modules/@openzeppelin/contracts/token/ERC721/extensions/ERC721URIStorage.sol\";\n\npragma experimental ABIEncoderV2;\npragma solidity >=0.4.22 <0.9.0;\n\ncontract Test721 is ERC721URIStorage {\n    constructor() ERC721(\"TESTs\", \"TEST\") {}\n\n    function mint(\n        uint256 tokenID, // refference\n        address recipient, // one\n        string memory tokenURI // indedifier d token\n    ) public {\n        _mint(recipient, tokenID);\n        _setTokenURI(tokenID, tokenURI);\n    }\n}\n",
  "sourcePath": "/home/senyou/freecodecamp/PBC/NOAP/contracts/Test721.sol",
  "compiler": {
    "name": "solc",
    "version": "0.8.16+commit.07a7930e.Emscripten.clang"
  },
  "schemaVersion": "3.4.9",
  "updatedAt": "2022-09-23T11:38:54.578Z",
  "devdoc": {
    "kind": "dev",
    "methods": {
      "approve(address,uint256)": {
        "details": "See {IERC721-approve}."
      },
      "balanceOf(address)": {
        "details": "See {IERC721-balanceOf}."
      },
      "getApproved(uint256)": {
        "details": "See {IERC721-getApproved}."
      },
      "isApprovedForAll(address,address)": {
        "details": "See {IERC721-isApprovedForAll}."
      },
      "name()": {
        "details": "See {IERC721Metadata-name}."
      },
      "ownerOf(uint256)": {
        "details": "See {IERC721-ownerOf}."
      },
      "safeTransferFrom(address,address,uint256)": {
        "details": "See {IERC721-safeTransferFrom}."
      },
      "safeTransferFrom(address,address,uint256,bytes)": {
        "details": "See {IERC721-safeTransferFrom}."
      },
      "setApprovalForAll(address,bool)": {
        "details": "See {IERC721-setApprovalForAll}."
      },
      "supportsInterface(bytes4)": {
        "details": "See {IERC165-supportsInterface}."
      },
      "symbol()": {
        "details": "See {IERC721Metadata-symbol}."
      },
      "tokenURI(uint256)": {
        "details": "See {IERC721Metadata-tokenURI}."
      },
      "transferFrom(address,address,uint256)": {
        "details": "See {IERC721-transferFrom}."
      }
    },
    "version": 1
  },
  "userdoc": {
    "kind": "user",
    "methods": {},
    "version": 1
  }
}